{
  "_format": "hh-sol-artifact-1",
  "contractName": "DewFarm",
  "sourceName": "contracts/DewFarm.sol",
  "abi": [
    {
      "inputs": [
        {
          "internalType": "contract IERC20",
          "name": "_dew",
          "type": "address"
        },
        {
          "internalType": "uint256",
          "name": "_dewPerBlock",
          "type": "uint256"
        },
        {
          "internalType": "uint256",
          "name": "_startBlock",
          "type": "uint256"
        }
      ],
      "stateMutability": "nonpayable",
      "type": "constructor"
    },
    {
      "anonymous": false,
      "inputs": [
        {
          "indexed": true,
          "internalType": "address",
          "name": "user",
          "type": "address"
        },
        {
          "indexed": true,
          "internalType": "uint256",
          "name": "pid",
          "type": "uint256"
        },
        {
          "indexed": false,
          "internalType": "uint256",
          "name": "amount",
          "type": "uint256"
        }
      ],
      "name": "Deposit",
      "type": "event"
    },
    {
      "anonymous": false,
      "inputs": [
        {
          "indexed": true,
          "internalType": "address",
          "name": "user",
          "type": "address"
        },
        {
          "indexed": true,
          "internalType": "uint256",
          "name": "pid",
          "type": "uint256"
        },
        {
          "indexed": false,
          "internalType": "uint256",
          "name": "amount",
          "type": "uint256"
        }
      ],
      "name": "EmergencyWithdraw",
      "type": "event"
    },
    {
      "anonymous": false,
      "inputs": [
        {
          "indexed": true,
          "internalType": "address",
          "name": "user",
          "type": "address"
        },
        {
          "indexed": true,
          "internalType": "uint256",
          "name": "pid",
          "type": "uint256"
        },
        {
          "indexed": false,
          "internalType": "uint256",
          "name": "amount",
          "type": "uint256"
        }
      ],
      "name": "Withdraw",
      "type": "event"
    },
    {
      "inputs": [
        {
          "internalType": "uint256",
          "name": "_allocPoint",
          "type": "uint256"
        },
        {
          "internalType": "contract IERC20",
          "name": "_lpToken",
          "type": "address"
        },
        {
          "internalType": "bool",
          "name": "_withUpdate",
          "type": "bool"
        }
      ],
      "name": "add",
      "outputs": [],
      "stateMutability": "nonpayable",
      "type": "function"
    },
    {
      "inputs": [
        {
          "internalType": "uint256",
          "name": "_pid",
          "type": "uint256"
        },
        {
          "internalType": "uint256",
          "name": "_amount",
          "type": "uint256"
        }
      ],
      "name": "deposit",
      "outputs": [],
      "stateMutability": "nonpayable",
      "type": "function"
    },
    {
      "inputs": [],
      "name": "dew",
      "outputs": [
        {
          "internalType": "contract IERC20",
          "name": "",
          "type": "address"
        }
      ],
      "stateMutability": "view",
      "type": "function"
    },
    {
      "inputs": [],
      "name": "dewPerBlock",
      "outputs": [
        {
          "internalType": "uint256",
          "name": "",
          "type": "uint256"
        }
      ],
      "stateMutability": "view",
      "type": "function"
    },
    {
      "inputs": [
        {
          "internalType": "uint256",
          "name": "_pid",
          "type": "uint256"
        }
      ],
      "name": "emergencyWithdraw",
      "outputs": [],
      "stateMutability": "nonpayable",
      "type": "function"
    },
    {
      "inputs": [
        {
          "internalType": "uint256",
          "name": "_from",
          "type": "uint256"
        },
        {
          "internalType": "uint256",
          "name": "_to",
          "type": "uint256"
        }
      ],
      "name": "getMultiplier",
      "outputs": [
        {
          "internalType": "uint256",
          "name": "",
          "type": "uint256"
        }
      ],
      "stateMutability": "pure",
      "type": "function"
    },
    {
      "inputs": [],
      "name": "massUpdatePools",
      "outputs": [],
      "stateMutability": "nonpayable",
      "type": "function"
    },
    {
      "inputs": [
        {
          "internalType": "uint256",
          "name": "_pid",
          "type": "uint256"
        },
        {
          "internalType": "address",
          "name": "_user",
          "type": "address"
        }
      ],
      "name": "pendingDew",
      "outputs": [
        {
          "internalType": "uint256",
          "name": "",
          "type": "uint256"
        }
      ],
      "stateMutability": "view",
      "type": "function"
    },
    {
      "inputs": [
        {
          "internalType": "uint256",
          "name": "",
          "type": "uint256"
        }
      ],
      "name": "poolInfo",
      "outputs": [
        {
          "internalType": "contract IERC20",
          "name": "lpToken",
          "type": "address"
        },
        {
          "internalType": "uint256",
          "name": "allocPoint",
          "type": "uint256"
        },
        {
          "internalType": "uint256",
          "name": "lastRewardBlock",
          "type": "uint256"
        },
        {
          "internalType": "uint256",
          "name": "accDewPerShare",
          "type": "uint256"
        }
      ],
      "stateMutability": "view",
      "type": "function"
    },
    {
      "inputs": [],
      "name": "poolLength",
      "outputs": [
        {
          "internalType": "uint256",
          "name": "",
          "type": "uint256"
        }
      ],
      "stateMutability": "view",
      "type": "function"
    },
    {
      "inputs": [
        {
          "internalType": "uint256",
          "name": "_pid",
          "type": "uint256"
        },
        {
          "internalType": "uint256",
          "name": "_allocPoint",
          "type": "uint256"
        },
        {
          "internalType": "bool",
          "name": "_withUpdate",
          "type": "bool"
        }
      ],
      "name": "set",
      "outputs": [],
      "stateMutability": "nonpayable",
      "type": "function"
    },
    {
      "inputs": [],
      "name": "startBlock",
      "outputs": [
        {
          "internalType": "uint256",
          "name": "",
          "type": "uint256"
        }
      ],
      "stateMutability": "view",
      "type": "function"
    },
    {
      "inputs": [],
      "name": "totalAllocPoint",
      "outputs": [
        {
          "internalType": "uint256",
          "name": "",
          "type": "uint256"
        }
      ],
      "stateMutability": "view",
      "type": "function"
    },
    {
      "inputs": [
        {
          "internalType": "uint256",
          "name": "_pid",
          "type": "uint256"
        }
      ],
      "name": "updatePool",
      "outputs": [],
      "stateMutability": "nonpayable",
      "type": "function"
    },
    {
      "inputs": [
        {
          "internalType": "uint256",
          "name": "",
          "type": "uint256"
        },
        {
          "internalType": "address",
          "name": "",
          "type": "address"
        }
      ],
      "name": "userInfo",
      "outputs": [
        {
          "internalType": "uint256",
          "name": "amount",
          "type": "uint256"
        },
        {
          "internalType": "uint256",
          "name": "rewardDebt",
          "type": "uint256"
        }
      ],
      "stateMutability": "view",
      "type": "function"
    },
    {
      "inputs": [
        {
          "internalType": "uint256",
          "name": "_pid",
          "type": "uint256"
        },
        {
          "internalType": "uint256",
          "name": "_amount",
          "type": "uint256"
        }
      ],
      "name": "withdraw",
      "outputs": [],
      "stateMutability": "nonpayable",
      "type": "function"
    }
  ],
  "bytecode": "0x608034608457601f61107a38819003918201601f19168301916001600160401b0383118484101760895780849260609460405283398101031260845780516001600160a01b03811691908290036084576040602082015191015191600060045560018060a01b03196000541617600055600155600555604051610fda90816100a08239f35b600080fd5b634e487b7160e01b600052604160045260246000fdfe608080604052600436101561001357600080fd5b60003560e01c908163081e3eda14610a7a575080631526fe2714610a1d57806317caf6f1146109ff5780631eaaa045146108d55780632318274414610725578063441a3e701461053d57806348cd4cb11461051f57806351eb05a6146105035780635312ea8e14610436578063630b5ba11461041b57806364482f79146103ad5780638dbb1e3a1461035457806393f1a40b14610310578063a76a09a7146102e7578063e2bbb158146100f25763fd298599146100cf57600080fd5b346100ed5760003660031901126100ed576020600154604051908152f35b600080fd5b346100ed5761010036610b19565b61010982610a95565b50600083815260036020908152604080832033845290915290209061012d84610b69565b815480610250575b50826101ac575b64e8d4a510006101556001926003855491015490610d8d565b600080516020610f858339815191526020604051610174604082610b2f565b601a81520152049101556040519081527f90890809c654f11d6e72a28fa60149770a0d11ec6c92319d6ceb2bb0a4ea1a1560203392a3005b80546040516323b872dd60e01b81523360048201523060248201526044810185905290602090829060649082906000906001600160a01b03165af180156102445760019264e8d4a510009261015592610217575b5061020c868654610c74565b85559250505061013c565b6102389060203d60201161023d575b6102308183610b2f565b810190610b51565b610200565b503d610226565b6040513d6000823e3d90fd5b64e8d4a510006102686102d192600385015490610d8d565b600080516020610f858339815191526020604051610287604082610b2f565b601a81520152046001840154604051916102a2604084610b2f565b601e83527f536166654d6174683a207375627472616374696f6e206f766572666c6f7700006020840152610f6a565b8015610135576102e19033610df0565b84610135565b346100ed5760003660031901126100ed576000546040516001600160a01b039091168152602090f35b346100ed5761031e36610af3565b90600052600360205260406000209060018060a01b03166000526020526040806000206001815491015482519182526020820152f35b346100ed5760206103a561036736610b19565b9060405191610377604084610b2f565b601e83527f536166654d6174683a207375627472616374696f6e206f766572666c6f77000085840152610f6a565b604051908152f35b346100ed5760603660031901126100ed5760243560016104096004356103d1610ae4565b61040e575b610401846103fc600454866103ea86610a95565b500154604051916102a2604084610b2f565b610c74565b600455610a95565b500155005b610416610c51565b6103d6565b346100ed5760003660031901126100ed57610434610c51565b005b346100ed5760203660031901126100ed5760043561045381610a95565b50600082815260036020908152604080832033808552908352818420805485825560019091018590559454915163a9059cbb60e01b815260048101919091526024810185905292839160449183916001600160a01b03165af18015610244576104e6575b506040519081527fbb757047c2b5f3974fe26b7c10f732e7bce710b0952a71082702781e62ae059560203392a3005b6104fe9060203d60201161023d576102308183610b2f565b6104b7565b346100ed5760203660031901126100ed57610434600435610b69565b346100ed5760003660031901126100ed576020600554604051908152f35b346100ed5761054b36610b19565b61055482610a95565b5060008381526003602090815260408083203384529091529020805483116106eb5761057f84610b69565b80549064e8d4a510006105986003850193845490610d8d565b600080516020610f8583398151915260206040516105b7604082610b2f565b601a8152015204926105d860018301948554604051916102a2604084610b2f565b806106db575b5084610650575b5064e8d4a51000916105fa9154905490610d8d565b600080516020610f858339815191526020604051610619604082610b2f565b601a815201520490556040519081527ff279e6a1f5e320cca91135676d9cb6e44ca8a08c0b88342bcdb1144f6511b56860203392a3005b610665825486604051916102a2604084610b2f565b82555460405163a9059cbb60e01b8152336004820152602481018690529290602090849060449082906000906001600160a01b03165af19182156102445764e8d4a51000936105fa936106bc575b509150916105e5565b6106d49060203d60201161023d576102308183610b2f565b50876106b3565b6106e59033610df0565b866105de565b60405162461bcd60e51b81526020600482015260126024820152711dda5d1a191c985dce881b9bdd0819dbdbd960721b6044820152606490fd5b346100ed5761073336610af3565b61073c82610a95565b5091600052600360205260406000209060018060a01b03166000526020526040600020906024600382015491602060018060a01b03825416604051938480926370a0823160e01b82523060048301525afa91821561024457600092610899575b5064e8d4a510006107ce6103a59460209694846002600196015480431180610890575b610805575b5050508454610d8d565b600080516020610f85833981519152866040516107ec604082610b2f565b601a815201520491015460405191610377604084610b2f565b9161087d61087861086f610882948a61086661085e6108889a996040519061082e604083610b2f565b601e82527f536166654d6174683a207375627472616374696f6e206f766572666c6f770000602083015243610f6a565b825490610d8d565b91015490610d8d565b60045490610db2565b610d03565b610db2565b90610c74565b8780806107c4565b508215156107bf565b90916020823d6020116108cd575b816108b460209383610b2f565b810103126108ca5750519064e8d4a5100061079c565b80fd5b3d91506108a7565b346100ed5760603660031901126100ed576004356024356001600160a01b038116908190036100ed57610906610ae4565b6109f2575b6005548043116000146109ed5750435b61092783600454610c74565b600455604051916080830183811067ffffffffffffffff8211176109d75760405282526020820192835260408201908152606082019060008252600254680100000000000000008110156109d7578060016109859201600255610a95565b9490946109c157925184546001600160a01b0319166001600160a01b039190911617845591516001840155905160028301555160039190910155005b634e487b7160e01b600052600060045260246000fd5b634e487b7160e01b600052604160045260246000fd5b61091b565b6109fa610c51565b61090b565b346100ed5760003660031901126100ed576020600454604051908152f35b346100ed5760203660031901126100ed576004356002548110156100ed57610a46608091610a95565b5060018060a01b03815416906001810154906003600282015491015491604051938452602084015260408301526060820152f35b346100ed5760003660031901126100ed576020906002548152f35b600254811015610ace576002600081815291901b7f405787fa12a823e0f2b7631cc41b3ba8828b3321ca811111fa75cd3aa3bb5ace0191565b634e487b7160e01b600052603260045260246000fd5b6044359081151582036100ed57565b60409060031901126100ed57600435906024356001600160a01b03811681036100ed5790565b60409060031901126100ed576004359060243590565b90601f8019910116810190811067ffffffffffffffff8211176109d757604052565b908160209103126100ed575180151581036100ed5790565b610b7290610a95565b5060028101908154431115610c4d5780546040516370a0823160e01b81523060048201529190602090839060249082906001600160a01b03165afa91821561024457600092610c19575b508115610c1257610c0b906108826003610bfd61086f610bf2610be989546040519061082e604083610b2f565b60015490610d8d565b600186015490610d8d565b92019361087d855493610d03565b9055439055565b5050439055565b90916020823d602011610c45575b81610c3460209383610b2f565b810103126108ca5750519038610bbc565b3d9150610c27565b5050565b60025460005b818110610c62575050565b80610c6e600192610b69565b01610c57565b90810190818111610ccd578110610c885790565b60405162461bcd60e51b815260206004820152601b60248201527f536166654d6174683a206164646974696f6e206f766572666c6f7700000000006044820152606490fd5b634e487b7160e01b600052601160045260246000fd5b8115610ced570490565b634e487b7160e01b600052601260045260246000fd5b8015610d875764e8d4a5100081029080820464e8d4a5100003610ccd57610d3064e8d4a510009183610ce3565b03610d385790565b60405162461bcd60e51b815260206004820152602160248201527f536166654d6174683a206d756c7469706c69636174696f6e206f766572666c6f6044820152607760f81b6064820152608490fd5b50600090565b908115610dab57808202918083048203610ccd57610d309083610ce3565b5050600090565b90610ded91610de8604051610dc8604082610b2f565b601a8152600080516020610f858339815191526020820152831515610f07565b610ce3565b90565b6000546040516370a0823160e01b815230600482015292906001600160a01b0316602084602481845afa93841561024457600094610ed3575b5083821115610e995750506000805460405163a9059cbb60e01b81526001600160a01b03938416600482015260248101949094526020928492911690829081604481015b03925af1801561024457610e7e5750565b610e969060203d60201161023d576102308183610b2f565b50565b60405163a9059cbb60e01b81526001600160a01b039093166004840152602483019190915290915060209082908160008160448101610e6d565b90936020823d602011610eff575b81610eee60209383610b2f565b810103126108ca5750519238610e29565b3d9150610ee1565b15610f0f5750565b6040519062461bcd60e51b8252602060048301528181519182602483015260005b838110610f525750508160006044809484010152601f80199101168101030190fd5b60208282018101516044878401015285935001610f30565b91610f789083831115610f07565b8103908111610ccd579056fe536166654d6174683a206469766973696f6e206279207a65726f000000000000a2646970667358221220b7b8dcb76930ec2341514b718e99ed38697ced346d0c85ae8f375dd347d55b1964736f6c634300081e0033",
  "linkReferences": {},
  "deployedLinkReferences": {}
}