{"contracts/DewSwapRouter.sol":{"DewSwapRouter":{"abi":[{"inputs":[{"internalType":"address","name":"_factory","type":"address"},{"internalType":"address","name":"_WETH","type":"address"}],"stateMutability":"nonpayable","type":"constructor"},{"inputs":[],"name":"WETH","outputs":[{"internalType":"address","name":"","type":"address"}],"stateMutability":"view","type":"function"},{"inputs":[{"internalType":"address","name":"tokenA","type":"address"},{"internalType":"address","name":"tokenB","type":"address"},{"internalType":"uint256","name":"amountADesired","type":"uint256"},{"internalType":"uint256","name":"amountBDesired","type":"uint256"},{"internalType":"uint256","name":"amountAMin","type":"uint256"},{"internalType":"uint256","name":"amountBMin","type":"uint256"},{"internalType":"address","name":"to","type":"address"},{"internalType":"uint256","name":"deadline","type":"uint256"}],"name":"addLiquidity","outputs":[{"internalType":"uint256","name":"amountA","type":"uint256"},{"internalType":"uint256","name":"amountB","type":"uint256"},{"internalType":"uint256","name":"liquidity","type":"uint256"}],"stateMutability":"nonpayable","type":"function"},{"inputs":[{"internalType":"address","name":"token","type":"address"},{"internalType":"uint256","name":"amountTokenDesired","type":"uint256"},{"internalType":"uint256","name":"amountTokenMin","type":"uint256"},{"internalType":"uint256","name":"amountETHMin","type":"uint256"},{"internalType":"address","name":"to","type":"address"},{"internalType":"uint256","name":"deadline","type":"uint256"}],"name":"addLiquidityETH","outputs":[{"internalType":"uint256","name":"amountToken","type":"uint256"},{"internalType":"uint256","name":"amountETH","type":"uint256"},{"internalType":"uint256","name":"liquidity","type":"uint256"}],"stateMutability":"payable","type":"function"},{"inputs":[],"name":"factory","outputs":[{"internalType":"address","name":"","type":"address"}],"stateMutability":"view","type":"function"},{"inputs":[{"internalType":"uint256","name":"amountOut","type":"uint256"},{"internalType":"uint256","name":"reserveIn","type":"uint256"},{"internalType":"uint256","name":"reserveOut","type":"uint256"}],"name":"getAmountIn","outputs":[{"internalType":"uint256","name":"amountIn","type":"uint256"}],"stateMutability":"pure","type":"function"},{"inputs":[{"internalType":"uint256","name":"amountIn","type":"uint256"},{"internalType":"uint256","name":"reserveIn","type":"uint256"},{"internalType":"uint256","name":"reserveOut","type":"uint256"}],"name":"getAmountOut","outputs":[{"internalType":"uint256","name":"amountOut","type":"uint256"}],"stateMutability":"pure","type":"function"},{"inputs":[{"internalType":"uint256","name":"amountOut","type":"uint256"},{"internalType":"address[]","name":"path","type":"address[]"}],"name":"getAmountsIn","outputs":[{"internalType":"uint256[]","name":"amounts","type":"uint256[]"}],"stateMutability":"view","type":"function"},{"inputs":[{"internalType":"uint256","name":"amountIn","type":"uint256"},{"internalType":"address[]","name":"path","type":"address[]"}],"name":"getAmountsOut","outputs":[{"internalType":"uint256[]","name":"amounts","type":"uint256[]"}],"stateMutability":"view","type":"function"},{"inputs":[{"internalType":"uint256","name":"amountA","type":"uint256"},{"internalType":"uint256","name":"reserveA","type":"uint256"},{"internalType":"uint256","name":"reserveB","type":"uint256"}],"name":"quote","outputs":[{"internalType":"uint256","name":"amountB","type":"uint256"}],"stateMutability":"pure","type":"function"},{"inputs":[{"internalType":"address","name":"tokenA","type":"address"},{"internalType":"address","name":"tokenB","type":"address"},{"internalType":"uint256","name":"liquidity","type":"uint256"},{"internalType":"uint256","name":"amountAMin","type":"uint256"},{"internalType":"uint256","name":"amountBMin","type":"uint256"},{"internalType":"address","name":"to","type":"address"},{"internalType":"uint256","name":"deadline","type":"uint256"}],"name":"removeLiquidity","outputs":[{"internalType":"uint256","name":"amountA","type":"uint256"},{"internalType":"uint256","name":"amountB","type":"uint256"}],"stateMutability":"nonpayable","type":"function"},{"inputs":[{"internalType":"address","name":"token","type":"address"},{"internalType":"uint256","name":"liquidity","type":"uint256"},{"internalType":"uint256","name":"amountTokenMin","type":"uint256"},{"internalType":"uint256","name":"amountETHMin","type":"uint256"},{"internalType":"address","name":"to","type":"address"},{"internalType":"uint256","name":"deadline","type":"uint256"}],"name":"removeLiquidityETH","outputs":[{"internalType":"uint256","name":"amountToken","type":"uint256"},{"internalType":"uint256","name":"amountETH","type":"uint256"}],"stateMutability":"nonpayable","type":"function"},{"inputs":[{"internalType":"address","name":"token","type":"address"},{"internalType":"uint256","name":"liquidity","type":"uint256"},{"internalType":"uint256","name":"amountTokenMin","type":"uint256"},{"internalType":"uint256","name":"amountETHMin","type":"uint256"},{"internalType":"address","name":"to","type":"address"},{"internalType":"uint256","name":"deadline","type":"uint256"},{"internalType":"bool","name":"approveMax","type":"bool"},{"internalType":"uint8","name":"v","type":"uint8"},{"internalType":"bytes32","name":"r","type":"bytes32"},{"internalType":"bytes32","name":"s","type":"bytes32"}],"name":"removeLiquidityETHWithPermit","outputs":[{"internalType":"uint256","name":"amountToken","type":"uint256"},{"internalType":"uint256","name":"amountETH","type":"uint256"}],"stateMutability":"nonpayable","type":"function"},{"inputs":[{"internalType":"address","name":"tokenA","type":"address"},{"internalType":"address","name":"tokenB","type":"address"},{"internalType":"uint256","name":"liquidity","type":"uint256"},{"internalType":"uint256","name":"amountAMin","type":"uint256"},{"internalType":"uint256","name":"amountBMin","type":"uint256"},{"internalType":"address","name":"to","type":"address"},{"internalType":"uint256","name":"deadline","type":"uint256"},{"internalType":"bool","name":"approveMax","type":"bool"},{"internalType":"uint8","name":"v","type":"uint8"},{"internalType":"bytes32","name":"r","type":"bytes32"},{"internalType":"bytes32","name":"s","type":"bytes32"}],"name":"removeLiquidityWithPermit","outputs":[{"internalType":"uint256","name":"amountA","type":"uint256"},{"internalType":"uint256","name":"amountB","type":"uint256"}],"stateMutability":"nonpayable","type":"function"},{"inputs":[{"internalType":"uint256","name":"amountOut","type":"uint256"},{"internalType":"address[]","name":"path","type":"address[]"},{"internalType":"address","name":"to","type":"address"},{"internalType":"uint256","name":"deadline","type":"uint256"}],"name":"swapETHForExactTokens","outputs":[{"internalType":"uint256[]","name":"amounts","type":"uint256[]"}],"stateMutability":"payable","type":"function"},{"inputs":[{"internalType":"uint256","name":"amountOutMin","type":"uint256"},{"internalType":"address[]","name":"path","type":"address[]"},{"internalType":"address","name":"to","type":"address"},{"internalType":"uint256","name":"deadline","type":"uint256"}],"name":"swapExactETHForTokens","outputs":[{"internalType":"uint256[]","name":"amounts","type":"uint256[]"}],"stateMutability":"payable","type":"function"},{"inputs":[{"internalType":"uint256","name":"amountIn","type":"uint256"},{"internalType":"uint256","name":"amountOutMin","type":"uint256"},{"internalType":"address[]","name":"path","type":"address[]"},{"internalType":"address","name":"to","type":"address"},{"internalType":"uint256","name":"deadline","type":"uint256"}],"name":"swapExactTokensForETH","outputs":[{"internalType":"uint256[]","name":"amounts","type":"uint256[]"}],"stateMutability":"nonpayable","type":"function"},{"inputs":[{"internalType":"uint256","name":"amountIn","type":"uint256"},{"internalType":"uint256","name":"amountOutMin","type":"uint256"},{"internalType":"address[]","name":"path","type":"address[]"},{"internalType":"address","name":"to","type":"address"},{"internalType":"uint256","name":"deadline","type":"uint256"}],"name":"swapExactTokensForTokens","outputs":[{"internalType":"uint256[]","name":"amounts","type":"uint256[]"}],"stateMutability":"nonpayable","type":"function"},{"inputs":[{"internalType":"uint256","name":"amountOut","type":"uint256"},{"internalType":"uint256","name":"amountInMax","type":"uint256"},{"internalType":"address[]","name":"path","type":"address[]"},{"internalType":"address","name":"to","type":"address"},{"internalType":"uint256","name":"deadline","type":"uint256"}],"name":"swapTokensForExactETH","outputs":[{"internalType":"uint256[]","name":"amounts","type":"uint256[]"}],"stateMutability":"nonpayable","type":"function"},{"inputs":[{"internalType":"uint256","name":"amountOut","type":"uint256"},{"internalType":"uint256","name":"amountInMax","type":"uint256"},{"internalType":"address[]","name":"path","type":"address[]"},{"internalType":"address","name":"to","type":"address"},{"internalType":"uint256","name":"deadline","type":"uint256"}],"name":"swapTokensForExactTokens","outputs":[{"internalType":"uint256[]","name":"amounts","type":"uint256[]"}],"stateMutability":"nonpayable","type":"function"},{"stateMutability":"payable","type":"receive"}],"evm":{"bytecode":{"linkReferences":{},"object":"60c03461012157601f612b0038819003918201601f19168301916001600160401b0383118484101761012657808492604094855283398101031261012157610052602061004b8361013c565b920161013c565b9060805260a0526040516129af90816101518239608051818181610190015281816103d7015281816106020152818161071901528181610ab101528181610aeb01528181610b5e01528181610d4501528181610e780152818161100401528181611183015281816112370152818161136c015281816113fa015281816114ca0152818161213c0152612664015260a051818181601f0152818161015d015281816103a00152818161073b01528181610cec01528181610e4801528181610fcd015281816113c6015261149c0152f35b600080fd5b634e487b7160e01b600052604160045260246000fd5b51906001600160a01b03821682036101215756fe6080604052600436101561004f575b361561001957600080fd5b61004d337f00000000000000000000000000000000000000000000000000000000000000006001600160a01b031614611b72565b005b6000803560e01c806302751cec14611470578063054d50d41461145657806318cbafe5146113905780631f00ca74146113545780632195995c146111e657806338ed17391461116c5780634a25d94a14610f815780637ff36ab514610e2257806385f8c25914610e085780638803dbee14610d1b578063ad5c464814610cd6578063ad615dec14610cb4578063baa2abde14610b1a578063c45a015514610ad5578063d06ca61f14610a99578063ded9382a146106c6578063e8e337001461058a578063f305d7191461037e5763fb3bdb411461012c575061000e565b61014461013836611947565b94909394421115611993565b801561036a5761015382611a21565b6001600160a01b037f000000000000000000000000000000000000000000000000000000000000000081169161018b91168214611a35565b6101c27f0000000000000000000000000000000000000000000000000000000000000000956101bb3685876118a8565b908761231a565b946101d86101cf87611a81565b51341015611b00565b866101e287611a81565b51833b15610366578160049160405192838092630d0e30db60e41b8252885af1801561035b57610342575b505061021884611a21565b836001101561032e579161023d60209261027c94610237858901611a21565b91611f9b565b9061024788611a81565b5160405163a9059cbb60e01b81526001600160a01b0390931660048401526024830152909283919082908a9082906044820190565b03925af190811561032357916102a56102b29594926102ac946102cf99916102f4575b50611b72565b36916118a8565b83612134565b6102bb81611a81565b5134116102d3575b6040519182918261181e565b0390f35b6102ef6102e96102e283611a81565b51346119d8565b33611c7f565b6102c3565b610316915060203d60201161031c575b61030e8183611858565b810190611b5a565b3861029f565b503d610304565b6040513d88823e3d90fd5b634e487b7160e01b88526032600452602488fd5b8161034c91611858565b61035757863861020d565b8680fd5b6040513d84823e3d90fd5b5080fd5b634e487b7160e01b85526032600452602485fd5b6103c961039e8361038e3661173e565b9793969097929192421115611993565b7f00000000000000000000000000000000000000000000000000000000000000009534908786612637565b949093610404856103fb83867f0000000000000000000000000000000000000000000000000000000000000000611f9b565b80953390612051565b6001600160a01b0316803b1561057b57604051630d0e30db60e41b815284816004818a865af1801561057f57908591610566575b505060405163a9059cbb60e01b81526001600160a01b038416600482015260248101879052906020908290604490829088905af190811561055b5760209261048b869593602493879161053e5750611b72565b6040516335313c2160e11b81526001600160a01b0391821660048201529586938492165af190811561053257906104f9575b6102cf91508334116104e7575b604051938493846040919493926060820195825260208201520152565b6104f46102e985346119d8565b6104ca565b506020813d60201161052a575b8161051360209383611858565b81010312610525576102cf90516104bd565b600080fd5b3d9150610506565b604051903d90823e3d90fd5b6105559150863d881161031c5761030e8183611858565b8a61029f565b6040513d86823e3d90fd5b8161057091611858565b61057b578387610438565b8380fd5b6040513d87823e3d90fd5b50346106c3576101003660031901126106c3576105a56116fc565b906105ae611712565b60c4356001600160a01b038116908190036106c15791602081926024610638956105dc4260e4351015611993565b6105f260a435608435606435604435878d612637565b8985610631610626859c9598859e7f0000000000000000000000000000000000000000000000000000000000000000611f9b565b978880943390612051565b3390612051565b6040516335313c2160e11b815260048101919091529485928391906001600160a01b03165af1908115610532579061068d575b6102cf9150604051938493846040919493926060820195825260208201520152565b506020813d6020116106b9575b816106a760209383611858565b81010312610525576102cf905161066b565b3d915061069a565b825b80fd5b50346106c3576101403660031901126106c3576106e16116fc565b60843591906024356001600160a01b03841684036106c15760c4359060a4358215158303610a955760e4359060ff82168203610a7b577f0000000000000000000000000000000000000000000000000000000000000000917f000000000000000000000000000000000000000000000000000000000000000094610766868886611f9b565b9015610a8e57600019905b6001600160a01b031690813b15610a8a5760405163d505accf60e01b815233600482015230602482015260448101919091526064810184905260ff9290921660848301526101043560a48301526101243560c48301528790829060e490829084905af18015610a7f57918787928794610a5f575b50509161080c916108459461080760209542111561080281611993565b611993565b611f9b565b6040516323b872dd60e01b81523360048201526001600160a01b0390911660248201819052604482019490945291829081906064820190565b038188865af1801561057f5791604091869493610a42575b50602482518097819363226bf2d160e21b83523060048401525af193841561035b5782908395610a08575b50610893828561254b565b506001600160a01b038581169116036109fe5782809195945b6108ba604435881015611b8f565b6108c8606435871015611be7565b60405163a9059cbb60e01b602082019081526001600160a01b038a1660248301526044820189905290839061090a81606481015b03601f198101835282611858565b51925af1610916611c3f565b816109cf575b501561098a576001600160a01b0316803b1561036657818091602460405180948193632e1a7d4d60e01b83528860048401525af1801561035b57610975575b505061096981604094611c7f565b82519182526020820152f35b610980828092611858565b6106c3578061095b565b60405162461bcd60e51b815260206004820152601f60248201527f5472616e7366657248656c7065723a205452414e534645525f4641494c4544006044820152606490fd5b80518015925082156109e4575b50503861091c565b6109f79250602080918301019101611b5a565b38806109dc565b92829081906108ac565b9450506040843d604011610a3a575b81610a2460409383611858565b8101031261036657602084519401519338610888565b3d9150610a17565b610a5a9060203d60201161031c5761030e8183611858565b61085d565b610a6d929450819350611858565b610a7b5784849187386107e5565b8580fd5b6040513d89823e3d90fd5b8880fd5b8490610771565b8480fd5b50346106c3576102cf6102c3610aae36611903565b907f0000000000000000000000000000000000000000000000000000000000000000611eee565b50346106c357806003193601126106c3576040517f00000000000000000000000000000000000000000000000000000000000000006001600160a01b03168152602090f35b50346106c35760e03660031901126106c357610b346116fc565b81610b3d611712565b91610bc2610b49611728565b610b574260c4351015611993565b610b8285847f0000000000000000000000000000000000000000000000000000000000000000611f9b565b6040516323b872dd60e01b81523360048201526001600160a01b039091166024820181905260448035908301529092909190602090849081906064820190565b038188865af190811561057f57604093602492610c97575b50835163226bf2d160e21b81526001600160a01b0390911660048201529485928391905af192831561055b5784928594610c59575b5093610c1d6040958361254b565b506001600160a01b03928316921691909114159050610c5457905b610c46606435831015611b8f565b610969608435821015611be7565b610c38565b925092506040823d604011610c8f575b81610c7660409383611858565b8101031261057b57815160209092015192610c1d610c0f565b3d9150610c69565b610caf9060203d60201161031c5761030e8183611858565b610bda565b50346106c3576020610cce610cc836611784565b916124cd565b604051908152f35b50346106c357806003193601126106c3576040517f00000000000000000000000000000000000000000000000000000000000000006001600160a01b03168152602090f35b50346106c357610d3d610d2d366117cf565b9692949193959096421115611993565b610d89610d777f000000000000000000000000000000000000000000000000000000000000000092610d703687896118a8565b908461231a565b95610d8187611a81565b511115611b00565b8215610df457610d9884611a21565b91610da285611a21565b908460011015610de05750926102a56102ac93610dce87946102cf9a9761023760206102c39b01611a21565b610dd789611a81565b51913390612051565b634e487b7160e01b81526032600452602490fd5b634e487b7160e01b82526032600452602482fd5b50346106c3576020610cce610e1c36611784565b916123cc565b50610e2f61013836611947565b801561036a57610e3e82611a21565b6001600160a01b037f0000000000000000000000000000000000000000000000000000000000000000811691610e7691168214611a35565b7f0000000000000000000000000000000000000000000000000000000000000000610eac610ea53685876118a8565b3483611eee565b9586516000198101908111610f6d5790610ec9610ed19289611a8e565b511015611aa2565b86610edb87611a81565b51833b15610366578160049160405192838092630d0e30db60e41b8252885af1801561035b57610f58575b5050610f1184611a21565b836001101561032e579161023d602092610f3094610237858901611a21565b03925af190811561032357916102a56102c39594926102ac946102cf99916102f45750611b72565b81610f6291611858565b610357578638610f06565b634e487b7160e01b89526011600452602489fd5b50346106c357610fa4610f93366117cf565b969493959096929192421115611993565b600019820182811161115857610fbe610fc39184846119fb565b611a21565b6001600160a01b037f000000000000000000000000000000000000000000000000000000000000000081169491610ffc91168514611a35565b61103961102f7f000000000000000000000000000000000000000000000000000000000000000092610d703687876118a8565b96610d8188611a81565b821561036a5761104882611a21565b9061105283611a21565b84600110156111445761108a9261107885936110819361023760206110909a9901611a21565b610dd78a611a81565b309236916118a8565b85612134565b82516000198101908111611130576110a89084611a8e565b51813b156106c1578291602483926040519485938492632e1a7d4d60e01b845260048401525af1801561035b5790829161111b575b5050815160001981019190821161110757506102cf926111006102c39284611a8e565b5190611c7f565b634e487b7160e01b81526011600452602490fd5b8161112591611858565b6106c35780386110dd565b634e487b7160e01b83526011600452602483fd5b634e487b7160e01b87526032600452602487fd5b634e487b7160e01b85526011600452602485fd5b50346106c35761117e610d2d366117cf565b6111b57f0000000000000000000000000000000000000000000000000000000000000000916111ae3686886118a8565b9083611eee565b94855160001981019081116111d25790610ec9610d899288611a8e565b634e487b7160e01b84526011600452602484fd5b50346106c3576101603660031901126106c3576112016116fc565b8161120a611712565b91604435611216611728565b9060c4359160e4358015158103610a7b576101043560ff81168103610357577f000000000000000000000000000000000000000000000000000000000000000091611262898885611f9b565b901561134d57600019905b6001600160a01b031691823b15610a8a5760405163d505accf60e01b815233600482015230602482015260448101929092526064820187905260ff1660848201526101243560a48201526101443560c4820152908790829060e490829084905af1918215610a7f578787928a94611331575b5050916112f891602093610807610bc298421115611993565b6040516323b872dd60e01b81523360048201526001600160a01b0390911660248201819052604482019490945293849081906064820190565b61133f929450819350611858565b610a7b5784879187386112df565b849061126d565b50346106c3576102cf6102c361136936611903565b907f000000000000000000000000000000000000000000000000000000000000000061231a565b50346106c3576113a2610f93366117cf565b600019820182811161115857610fbe6113bc9184846119fb565b6001600160a01b037f0000000000000000000000000000000000000000000000000000000000000000811694916113f591168514611a35565b6114257f0000000000000000000000000000000000000000000000000000000000000000916111ae3686866118a8565b95865160001981019081116114425790610ec96110399289611a8e565b634e487b7160e01b87526011600452602487fd5b50346106c3576020610cce61146a36611784565b91611d83565b50346106c357806115276114833661173e565b959295949190944211159361149785611993565b6114c17f000000000000000000000000000000000000000000000000000000000000000095611993565b60206114ee86857f0000000000000000000000000000000000000000000000000000000000000000611f9b565b6040516323b872dd60e01b81523360048201526001600160a01b0390911660248201819052604482019390935294859081906064820190565b03818b855af19081156116f15788946040926116d4575b5060248251809a819363226bf2d160e21b83523060048401525af19687156116c9578390849861168f575b50611574858461254b565b506001600160a01b0384811691160361167e5783929161159c6115a49299985b8a1015611b8f565b871015611be7565b60405163a9059cbb60e01b602082019081526001600160a01b0387166024830152604482018990529083906115dc81606481016108fc565b51925af16115e8611c3f565b8161164f575b501561098a5784906001600160a01b0316803b15610366578190602460405180948193632e1a7d4d60e01b83528860048401525af1801561057f579160409584926109699461163f575b5050611c7f565b8161164991611858565b38611638565b8051801592508215611664575b5050386115ee565b6116779250602080918301019101611b5a565b388061165c565b958392916115a49161159c90611594565b9750506040873d6040116116c1575b816116ab60409383611858565b810103126106c157602087519701519638611569565b3d915061169e565b6040513d85823e3d90fd5b6116ec9060203d60201161031c5761030e8183611858565b61153e565b6040513d8a823e3d90fd5b600435906001600160a01b038216820361052557565b602435906001600160a01b038216820361052557565b60a435906001600160a01b038216820361052557565b60c0906003190112610525576004356001600160a01b038116810361052557906024359060443590606435906084356001600160a01b0381168103610525579060a43590565b606090600319011261052557600435906024359060443590565b9181601f840112156105255782359167ffffffffffffffff8311610525576020808501948460051b01011161052557565b60a06003198201126105255760043591602435916044359067ffffffffffffffff8211610525576118029160040161179e565b90916064356001600160a01b0381168103610525579060843590565b602060408183019282815284518094520192019060005b8181106118425750505090565b8251845260209384019390920191600101611835565b90601f8019910116810190811067ffffffffffffffff82111761187a57604052565b634e487b7160e01b600052604160045260246000fd5b67ffffffffffffffff811161187a5760051b60200190565b92916118b382611890565b936118c16040519586611858565b602085848152019260051b810191821161052557915b8183106118e357505050565b82356001600160a01b0381168103610525578152602092830192016118d7565b90604060031983011261052557600435916024359067ffffffffffffffff8211610525578060238301121561052557816024611944936004013591016118a8565b90565b90608060031983011261052557600435916024359067ffffffffffffffff8211610525576119779160040161179e565b90916044356001600160a01b0381168103610525579060643590565b1561199a57565b60405162461bcd60e51b815260206004820152601660248201527511195dd4ddd85c149bdd5d195c8e881156141254915160521b6044820152606490fd5b919082039182116119e557565b634e487b7160e01b600052601160045260246000fd5b9190811015611a0b5760051b0190565b634e487b7160e01b600052603260045260246000fd5b356001600160a01b03811681036105255790565b15611a3c57565b60405162461bcd60e51b815260206004820152601b60248201527f44657753776170526f757465723a20494e56414c49445f5041544800000000006044820152606490fd5b805115611a0b5760200190565b8051821015611a0b5760209160051b010190565b15611aa957565b60405162461bcd60e51b815260206004820152602960248201527f44657753776170526f757465723a20494e53554646494349454e545f4f555450604482015268155517d05353d5539560ba1b6064820152608490fd5b15611b0757565b60405162461bcd60e51b815260206004820152602560248201527f44657753776170526f757465723a204558434553534956455f494e5055545f416044820152641353d5539560da1b6064820152608490fd5b90816020910312610525575180151581036105255790565b15611b7957565b634e487b7160e01b600052600160045260246000fd5b15611b9657565b60405162461bcd60e51b8152602060048201526024808201527f44657753776170526f757465723a20494e53554646494349454e545f415f414d60448201526313d5539560e21b6064820152608490fd5b15611bee57565b60405162461bcd60e51b8152602060048201526024808201527f44657753776170526f757465723a20494e53554646494349454e545f425f414d60448201526313d5539560e21b6064820152608490fd5b3d15611c7a573d9067ffffffffffffffff821161187a5760405191611c6e601f8201601f191660200184611858565b82523d6000602084013e565b606090565b6000809160209360405190611c948683611858565b83825285820191601f19870136843751925af1611caf611c3f565b5015611cb85750565b6084906040519062461bcd60e51b82526004820152602360248201527f5472616e7366657248656c7065723a204554485f5452414e534645525f46414960448201526213115160ea1b6064820152fd5b15611d0f57565b60405162461bcd60e51b815260206004820152602660248201527f446577537761704c6962726172793a20494e53554646494349454e545f4c495160448201526555494449545960d01b6064820152608490fd5b8115611d6d570490565b634e487b7160e01b600052601260045260246000fd5b9190918015611e1957611db4611dad611dba9285151580611e10575b611da890611d08565b6127d1565b9283612859565b92612833565b908101908181116119e5578110611dd45761194491611d63565b60405162461bcd60e51b815260206004820152601460248201527364732d6d6174682d6164642d6f766572666c6f7760601b6044820152606490fd5b50841515611d9f565b60405162461bcd60e51b815260206004820152602960248201527f446577537761704c6962726172793a20494e53554646494349454e545f494e50604482015268155517d05353d5539560ba1b6064820152608490fd5b15611e7757565b60405162461bcd60e51b815260206004820152601c60248201527f446577537761704c6962726172793a20494e56414c49445f50415448000000006044820152606490fd5b90611ec682611890565b611ed36040519182611858565b8281528092611ee4601f1991611890565b0190602036910137565b929192611eff600285511015611e70565b611f098451611ebc565b91611f1383611a81565b5260005b845160001981019081116119e557811015611f95576001600160a01b03611f3e8287611a8e565b511690600181018082116119e557600192611f8e90611f8790611f76906001600160a01b03611f6d868d611a8e565b511690886128aa565b90611f81868a611a8e565b51611d83565b9186611a8e565b5201611f17565b50509150565b91611fa59161254b565b6040519060208201926001600160601b03199060601b1683526001600160601b03199060601b16603482015260288152611fe0604882611858565b5190209060405191602083019160ff60f81b83526001600160601b03199060601b16602184015260358301527f0bbca9af0511ad1a1da383135cf3a8d2ac620e549ef9f6ae3a4c33c2fed0eb0e605583015260558252612041607583611858565b905190206001600160a01b031690565b6040516323b872dd60e01b602082019081526001600160a01b039384166024830152939092166044830152606482019390935260009283929091839061209a81608481016108fc565b51925af16120a6611c3f565b81612105575b50156120b457565b60405162461bcd60e51b8152602060048201526024808201527f5472616e7366657248656c7065723a205452414e534645525f46524f4d5f46416044820152631253115160e21b6064820152608490fd5b805180159250821561211a575b5050386120ac565b61212d9250602080918301019101611b5a565b3880612112565b9291600060207f0000000000000000000000000000000000000000000000000000000000000000825b855160001981019081116119e557811015612310576001600160a01b036121848288611a8e565b5116600182018083116119e5576001600160a01b036121a3828a611a8e565b51166121af818461254b565b50926121bd6000938d611a8e565b51936001600160a01b03168103612309578293905b8a516001198101908111611158578610156122ff57600286018087116111585761222790612216906001600160a01b039061220d908f611a8e565b5116858a611f9b565b935b6001600160a01b039289611f9b565b1691604051916122378984611858565b84835289368a850137833b15610a955760405163022c0d9f60e01b8152600481019690965260248601526001600160a01b03166044850152608060648501528051608485018190528392859290919089855b8381106122e4575050508360a484838383839684010152601f801991011681010301925af180156122d7579060019392916122c7575b50500161215d565b6122d091611858565b38806122bf565b50604051903d90823e3d90fd5b80830182015189820160a401528796508895508b9101612289565b6122278a93612218565b82906121d2565b5050505050509050565b90929161232b600282511015611e70565b6123358151611ebc565b93845160001981019081116119e55761234e9086611a8e565b52805160001981019081116119e557805b61236857505050565b60001981018181116119e5576123bb6123b46123a36001600160a01b0361238f8588611a8e565b51166001600160a01b03611f6d8789611a8e565b906123ae868b611a8e565b516123cc565b9187611a8e565b5280156119e557600019018061235f565b908115612475576123fa6123f583836124019415158061246c575b6123f090611d08565b612859565b612833565b91836119d8565b91821161242f5761241461241a926127d1565b90611d63565b60018101908181116119e5578110611dd45790565b60405162461bcd60e51b815260206004820152601560248201527464732d6d6174682d7375622d756e646572666c6f7760581b6044820152606490fd5b508615156123e7565b60405162461bcd60e51b815260206004820152602a60248201527f446577537761704c6962726172793a20494e53554646494349454e545f4f555460448201526914155517d05353d5539560b21b6064820152608490fd5b80156124fa57611944926124ec91831515806124f1576123f090611d08565b611d63565b508115156123e7565b60405162461bcd60e51b815260206004820152602360248201527f446577537761704c6962726172793a20494e53554646494349454e545f414d4f60448201526215539560ea1b6064820152608490fd5b9091906001600160a01b038084169082168082146125c75710156125c257915b906001600160a01b0383161561257d57565b60405162461bcd60e51b815260206004820152601c60248201527f446577537761704c6962726172793a205a45524f5f41444452455353000000006044820152606490fd5b61256b565b60405162461bcd60e51b815260206004820152602360248201527f446577537761704c6962726172793a204944454e544943414c5f41444452455360448201526253455360e81b6064820152608490fd5b9081602091031261052557516001600160a01b03811681036105255790565b60405163e6a4390560e01b81526001600160a01b03828116600483015283811660248301529396949594937f0000000000000000000000000000000000000000000000000000000000000000908116939291602081604481885afa9081156127a6576000916127b2575b506001600160a01b03161561272d575b6126bb93506128aa565b9290801580612725575b156126d257505050509091565b6126e1848288979596976124cd565b948386116126fd57505050506126f990821015611be7565b9091565b8395506126f99450906127149161271d93946124cd565b94851115611b72565b831015611b8f565b5083156126c5565b6040516364e329cb60e11b81526001600160a01b0383811660048301528416602482015293602090859060449082906000905af19384156127a6576126bb94612777575b506126b1565b6127989060203d60201161279f575b6127908183611858565b810190612618565b5038612771565b503d612786565b6040513d6000823e3d90fd5b6127cb915060203d60201161279f576127908183611858565b386126a1565b906000916103e581028181046103e514821517156111d25792506103e58304036127f757565b60405162461bcd60e51b815260206004820152601460248201527364732d6d6174682d6d756c2d6f766572666c6f7760601b6044820152606490fd5b906000916103e881028181046103e814821517156111d25792506103e88304036127f757565b600092918015918215612870575b5050156127f757565b808202945091508115828504821417156119e55761288e9084611d63565b143880612867565b51906001600160701b038216820361052557565b9060606004926128cf6128bd868561254b565b50956001600160a01b03928590611f9b565b1660405193848092630240bc6b60e21b82525afa9182156127a6576000908193612919575b506001600160701b03928316939216916001600160a01b039182169116036126f95791565b92506060833d606011612971575b8161293460609383611858565b810103126106c35761294583612896565b90604061295460208601612896565b94015163ffffffff8116036106c357506001600160701b036128f4565b3d915061292756fea26469706673582212202f1fd89af1bad130e4ca03d2eeb7a87bd025e3b716119bddad007adeaa809c8864736f6c634300081e0033","opcodes":"PUSH1 0xC0 CALLVALUE PUSH2 0x121 JUMPI PUSH1 0x1F PUSH2 0x2B00 CODESIZE DUP2 SWAP1 SUB SWAP2 DUP3 ADD PUSH1 0x1F NOT AND DUP4 ADD SWAP2 PUSH1 0x1 PUSH1 0x1 PUSH1 0x40 SHL SUB DUP4 GT DUP5 DUP5 LT OR PUSH2 0x126 JUMPI DUP1 DUP5 SWAP3 PUSH1 0x40 SWAP5 DUP6 MSTORE DUP4 CODECOPY DUP2 ADD SUB SLT PUSH2 0x121 JUMPI PUSH2 0x52 PUSH1 0x20 PUSH2 0x4B DUP4 PUSH2 0x13C JUMP JUMPDEST SWAP3 ADD PUSH2 0x13C JUMP JUMPDEST SWAP1 PUSH1 0x80 MSTORE PUSH1 0xA0 MSTORE PUSH1 0x40 MLOAD PUSH2 0x29AF SWAP1 DUP2 PUSH2 0x151 DUP3 CODECOPY PUSH1 0x80 MLOAD DUP2 DUP2 DUP2 PUSH2 0x190 ADD MSTORE DUP2 DUP2 PUSH2 0x3D7 ADD MSTORE DUP2 DUP2 PUSH2 0x602 ADD MSTORE DUP2 DUP2 PUSH2 0x719 ADD MSTORE DUP2 DUP2 PUSH2 0xAB1 ADD MSTORE DUP2 DUP2 PUSH2 0xAEB ADD MSTORE DUP2 DUP2 PUSH2 0xB5E ADD MSTORE DUP2 DUP2 PUSH2 0xD45 ADD MSTORE DUP2 DUP2 PUSH2 0xE78 ADD MSTORE DUP2 DUP2 PUSH2 0x1004 ADD MSTORE DUP2 DUP2 PUSH2 0x1183 ADD MSTORE DUP2 DUP2 PUSH2 0x1237 ADD MSTORE DUP2 DUP2 PUSH2 0x136C ADD MSTORE DUP2 DUP2 PUSH2 0x13FA ADD MSTORE DUP2 DUP2 PUSH2 0x14CA ADD MSTORE DUP2 DUP2 PUSH2 0x213C ADD MSTORE PUSH2 0x2664 ADD MSTORE PUSH1 0xA0 MLOAD DUP2 DUP2 DUP2 PUSH1 0x1F ADD MSTORE DUP2 DUP2 PUSH2 0x15D ADD MSTORE DUP2 DUP2 PUSH2 0x3A0 ADD MSTORE DUP2 DUP2 PUSH2 0x73B ADD MSTORE DUP2 DUP2 PUSH2 0xCEC ADD MSTORE DUP2 DUP2 PUSH2 0xE48 ADD MSTORE DUP2 DUP2 PUSH2 0xFCD ADD MSTORE DUP2 DUP2 PUSH2 0x13C6 ADD MSTORE PUSH2 0x149C ADD MSTORE RETURN JUMPDEST PUSH1 0x0 DUP1 REVERT JUMPDEST PUSH4 0x4E487B71 PUSH1 0xE0 SHL PUSH1 0x0 MSTORE PUSH1 0x41 PUSH1 0x4 MSTORE PUSH1 0x24 PUSH1 0x0 REVERT JUMPDEST MLOAD SWAP1 PUSH1 0x1 PUSH1 0x1 PUSH1 0xA0 SHL SUB DUP3 AND DUP3 SUB PUSH2 0x121 JUMPI JUMP INVALID PUSH1 0x80 PUSH1 0x40 MSTORE PUSH1 0x4 CALLDATASIZE LT ISZERO PUSH2 0x4F JUMPI JUMPDEST CALLDATASIZE ISZERO PUSH2 0x19 JUMPI PUSH1 0x0 DUP1 REVERT JUMPDEST PUSH2 0x4D CALLER PUSH32 0x0 PUSH1 0x1 PUSH1 0x1 PUSH1 0xA0 SHL SUB AND EQ PUSH2 0x1B72 JUMP JUMPDEST STOP JUMPDEST PUSH1 0x0 DUP1 CALLDATALOAD PUSH1 0xE0 SHR DUP1 PUSH4 0x2751CEC EQ PUSH2 0x1470 JUMPI DUP1 PUSH4 0x54D50D4 EQ PUSH2 0x1456 JUMPI DUP1 PUSH4 0x18CBAFE5 EQ PUSH2 0x1390 JUMPI DUP1 PUSH4 0x1F00CA74 EQ PUSH2 0x1354 JUMPI DUP1 PUSH4 0x2195995C EQ PUSH2 0x11E6 JUMPI DUP1 PUSH4 0x38ED1739 EQ PUSH2 0x116C JUMPI DUP1 PUSH4 0x4A25D94A EQ PUSH2 0xF81 JUMPI DUP1 PUSH4 0x7FF36AB5 EQ PUSH2 0xE22 JUMPI DUP1 PUSH4 0x85F8C259 EQ PUSH2 0xE08 JUMPI DUP1 PUSH4 0x8803DBEE EQ PUSH2 0xD1B JUMPI DUP1 PUSH4 0xAD5C4648 EQ PUSH2 0xCD6 JUMPI DUP1 PUSH4 0xAD615DEC EQ PUSH2 0xCB4 JUMPI DUP1 PUSH4 0xBAA2ABDE EQ PUSH2 0xB1A JUMPI DUP1 PUSH4 0xC45A0155 EQ PUSH2 0xAD5 JUMPI DUP1 PUSH4 0xD06CA61F EQ PUSH2 0xA99 JUMPI DUP1 PUSH4 0xDED9382A EQ PUSH2 0x6C6 JUMPI DUP1 PUSH4 0xE8E33700 EQ PUSH2 0x58A JUMPI DUP1 PUSH4 0xF305D719 EQ PUSH2 0x37E JUMPI PUSH4 0xFB3BDB41 EQ PUSH2 0x12C JUMPI POP PUSH2 0xE JUMP JUMPDEST PUSH2 0x144 PUSH2 0x138 CALLDATASIZE PUSH2 0x1947 JUMP JUMPDEST SWAP5 SWAP1 SWAP4 SWAP5 TIMESTAMP GT ISZERO PUSH2 0x1993 JUMP JUMPDEST DUP1 ISZERO PUSH2 0x36A JUMPI PUSH2 0x153 DUP3 PUSH2 0x1A21 JUMP JUMPDEST PUSH1 0x1 PUSH1 0x1 PUSH1 0xA0 SHL SUB PUSH32 0x0 DUP2 AND SWAP2 PUSH2 0x18B SWAP2 AND DUP3 EQ PUSH2 0x1A35 JUMP JUMPDEST PUSH2 0x1C2 PUSH32 0x0 SWAP6 PUSH2 0x1BB CALLDATASIZE DUP6 DUP8 PUSH2 0x18A8 JUMP JUMPDEST SWAP1 DUP8 PUSH2 0x231A JUMP JUMPDEST SWAP5 PUSH2 0x1D8 PUSH2 0x1CF DUP8 PUSH2 0x1A81 JUMP JUMPDEST MLOAD CALLVALUE LT ISZERO PUSH2 0x1B00 JUMP JUMPDEST DUP7 PUSH2 0x1E2 DUP8 PUSH2 0x1A81 JUMP JUMPDEST MLOAD DUP4 EXTCODESIZE ISZERO PUSH2 0x366 JUMPI DUP2 PUSH1 0x4 SWAP2 PUSH1 0x40 MLOAD SWAP3 DUP4 DUP1 SWAP3 PUSH4 0xD0E30DB PUSH1 0xE4 SHL DUP3 MSTORE DUP9 GAS CALL DUP1 ISZERO PUSH2 0x35B JUMPI PUSH2 0x342 JUMPI JUMPDEST POP POP PUSH2 0x218 DUP5 PUSH2 0x1A21 JUMP JUMPDEST DUP4 PUSH1 0x1 LT ISZERO PUSH2 0x32E JUMPI SWAP2 PUSH2 0x23D PUSH1 0x20 SWAP3 PUSH2 0x27C SWAP5 PUSH2 0x237 DUP6 DUP10 ADD PUSH2 0x1A21 JUMP JUMPDEST SWAP2 PUSH2 0x1F9B JUMP JUMPDEST SWAP1 PUSH2 0x247 DUP9 PUSH2 0x1A81 JUMP JUMPDEST MLOAD PUSH1 0x40 MLOAD PUSH4 0xA9059CBB PUSH1 0xE0 SHL DUP2 MSTORE PUSH1 0x1 PUSH1 0x1 PUSH1 0xA0 SHL SUB SWAP1 SWAP4 AND PUSH1 0x4 DUP5 ADD MSTORE PUSH1 0x24 DUP4 ADD MSTORE SWAP1 SWAP3 DUP4 SWAP2 SWAP1 DUP3 SWAP1 DUP11 SWAP1 DUP3 SWAP1 PUSH1 0x44 DUP3 ADD SWAP1 JUMP JUMPDEST SUB SWAP3 GAS CALL SWAP1 DUP2 ISZERO PUSH2 0x323 JUMPI SWAP2 PUSH2 0x2A5 PUSH2 0x2B2 SWAP6 SWAP5 SWAP3 PUSH2 0x2AC SWAP5 PUSH2 0x2CF SWAP10 SWAP2 PUSH2 0x2F4 JUMPI JUMPDEST POP PUSH2 0x1B72 JUMP JUMPDEST CALLDATASIZE SWAP2 PUSH2 0x18A8 JUMP JUMPDEST DUP4 PUSH2 0x2134 JUMP JUMPDEST PUSH2 0x2BB DUP2 PUSH2 0x1A81 JUMP JUMPDEST MLOAD CALLVALUE GT PUSH2 0x2D3 JUMPI JUMPDEST PUSH1 0x40 MLOAD SWAP2 DUP3 SWAP2 DUP3 PUSH2 0x181E JUMP JUMPDEST SUB SWAP1 RETURN JUMPDEST PUSH2 0x2EF PUSH2 0x2E9 PUSH2 0x2E2 DUP4 PUSH2 0x1A81 JUMP JUMPDEST MLOAD CALLVALUE PUSH2 0x19D8 JUMP JUMPDEST CALLER PUSH2 0x1C7F JUMP JUMPDEST PUSH2 0x2C3 JUMP JUMPDEST PUSH2 0x316 SWAP2 POP PUSH1 0x20 RETURNDATASIZE PUSH1 0x20 GT PUSH2 0x31C JUMPI JUMPDEST PUSH2 0x30E DUP2 DUP4 PUSH2 0x1858 JUMP JUMPDEST DUP2 ADD SWAP1 PUSH2 0x1B5A JUMP JUMPDEST CODESIZE PUSH2 0x29F JUMP JUMPDEST POP RETURNDATASIZE PUSH2 0x304 JUMP JUMPDEST PUSH1 0x40 MLOAD RETURNDATASIZE DUP9 DUP3 RETURNDATACOPY RETURNDATASIZE SWAP1 REVERT JUMPDEST PUSH4 0x4E487B71 PUSH1 0xE0 SHL DUP9 MSTORE PUSH1 0x32 PUSH1 0x4 MSTORE PUSH1 0x24 DUP9 REVERT JUMPDEST DUP2 PUSH2 0x34C SWAP2 PUSH2 0x1858 JUMP JUMPDEST PUSH2 0x357 JUMPI DUP7 CODESIZE PUSH2 0x20D JUMP JUMPDEST DUP7 DUP1 REVERT JUMPDEST PUSH1 0x40 MLOAD RETURNDATASIZE DUP5 DUP3 RETURNDATACOPY RETURNDATASIZE SWAP1 REVERT JUMPDEST POP DUP1 REVERT JUMPDEST PUSH4 0x4E487B71 PUSH1 0xE0 SHL DUP6 MSTORE PUSH1 0x32 PUSH1 0x4 MSTORE PUSH1 0x24 DUP6 REVERT JUMPDEST PUSH2 0x3C9 PUSH2 0x39E DUP4 PUSH2 0x38E CALLDATASIZE PUSH2 0x173E JUMP JUMPDEST SWAP8 SWAP4 SWAP7 SWAP1 SWAP8 SWAP3 SWAP2 SWAP3 TIMESTAMP GT ISZERO PUSH2 0x1993 JUMP JUMPDEST PUSH32 0x0 SWAP6 CALLVALUE SWAP1 DUP8 DUP7 PUSH2 0x2637 JUMP JUMPDEST SWAP5 SWAP1 SWAP4 PUSH2 0x404 DUP6 PUSH2 0x3FB DUP4 DUP7 PUSH32 0x0 PUSH2 0x1F9B JUMP JUMPDEST DUP1 SWAP6 CALLER SWAP1 PUSH2 0x2051 JUMP JUMPDEST PUSH1 0x1 PUSH1 0x1 PUSH1 0xA0 SHL SUB AND DUP1 EXTCODESIZE ISZERO PUSH2 0x57B JUMPI PUSH1 0x40 MLOAD PUSH4 0xD0E30DB PUSH1 0xE4 SHL DUP2 MSTORE DUP5 DUP2 PUSH1 0x4 DUP2 DUP11 DUP7 GAS CALL DUP1 ISZERO PUSH2 0x57F JUMPI SWAP1 DUP6 SWAP2 PUSH2 0x566 JUMPI JUMPDEST POP POP PUSH1 0x40 MLOAD PUSH4 0xA9059CBB PUSH1 0xE0 SHL DUP2 MSTORE PUSH1 0x1 PUSH1 0x1 PUSH1 0xA0 SHL SUB DUP5 AND PUSH1 0x4 DUP3 ADD MSTORE PUSH1 0x24 DUP2 ADD DUP8 SWAP1 MSTORE SWAP1 PUSH1 0x20 SWAP1 DUP3 SWAP1 PUSH1 0x44 SWAP1 DUP3 SWAP1 DUP9 SWAP1 GAS CALL SWAP1 DUP2 ISZERO PUSH2 0x55B JUMPI PUSH1 0x20 SWAP3 PUSH2 0x48B DUP7 SWAP6 SWAP4 PUSH1 0x24 SWAP4 DUP8 SWAP2 PUSH2 0x53E JUMPI POP PUSH2 0x1B72 JUMP JUMPDEST PUSH1 0x40 MLOAD PUSH4 0x35313C21 PUSH1 0xE1 SHL DUP2 MSTORE PUSH1 0x1 PUSH1 0x1 PUSH1 0xA0 SHL SUB SWAP2 DUP3 AND PUSH1 0x4 DUP3 ADD MSTORE SWAP6 DUP7 SWAP4 DUP5 SWAP3 AND GAS CALL SWAP1 DUP2 ISZERO PUSH2 0x532 JUMPI SWAP1 PUSH2 0x4F9 JUMPI JUMPDEST PUSH2 0x2CF SWAP2 POP DUP4 CALLVALUE GT PUSH2 0x4E7 JUMPI JUMPDEST PUSH1 0x40 MLOAD SWAP4 DUP5 SWAP4 DUP5 PUSH1 0x40 SWAP2 SWAP5 SWAP4 SWAP3 PUSH1 0x60 DUP3 ADD SWAP6 DUP3 MSTORE PUSH1 0x20 DUP3 ADD MSTORE ADD MSTORE JUMP JUMPDEST PUSH2 0x4F4 PUSH2 0x2E9 DUP6 CALLVALUE PUSH2 0x19D8 JUMP JUMPDEST PUSH2 0x4CA JUMP JUMPDEST POP PUSH1 0x20 DUP2 RETURNDATASIZE PUSH1 0x20 GT PUSH2 0x52A JUMPI JUMPDEST DUP2 PUSH2 0x513 PUSH1 0x20 SWAP4 DUP4 PUSH2 0x1858 JUMP JUMPDEST DUP2 ADD SUB SLT PUSH2 0x525 JUMPI PUSH2 0x2CF SWAP1 MLOAD PUSH2 0x4BD JUMP JUMPDEST PUSH1 0x0 DUP1 REVERT JUMPDEST RETURNDATASIZE SWAP2 POP PUSH2 0x506 JUMP JUMPDEST PUSH1 0x40 MLOAD SWAP1 RETURNDATASIZE SWAP1 DUP3 RETURNDATACOPY RETURNDATASIZE SWAP1 REVERT JUMPDEST PUSH2 0x555 SWAP2 POP DUP7 RETURNDATASIZE DUP9 GT PUSH2 0x31C JUMPI PUSH2 0x30E DUP2 DUP4 PUSH2 0x1858 JUMP JUMPDEST DUP11 PUSH2 0x29F JUMP JUMPDEST PUSH1 0x40 MLOAD RETURNDATASIZE DUP7 DUP3 RETURNDATACOPY RETURNDATASIZE SWAP1 REVERT JUMPDEST DUP2 PUSH2 0x570 SWAP2 PUSH2 0x1858 JUMP JUMPDEST PUSH2 0x57B JUMPI DUP4 DUP8 PUSH2 0x438 JUMP JUMPDEST DUP4 DUP1 REVERT JUMPDEST PUSH1 0x40 MLOAD RETURNDATASIZE DUP8 DUP3 RETURNDATACOPY RETURNDATASIZE SWAP1 REVERT JUMPDEST POP CALLVALUE PUSH2 0x6C3 JUMPI PUSH2 0x100 CALLDATASIZE PUSH1 0x3 NOT ADD SLT PUSH2 0x6C3 JUMPI PUSH2 0x5A5 PUSH2 0x16FC JUMP JUMPDEST SWAP1 PUSH2 0x5AE PUSH2 0x1712 JUMP JUMPDEST PUSH1 0xC4 CALLDATALOAD PUSH1 0x1 PUSH1 0x1 PUSH1 0xA0 SHL SUB DUP2 AND SWAP1 DUP2 SWAP1 SUB PUSH2 0x6C1 JUMPI SWAP2 PUSH1 0x20 DUP2 SWAP3 PUSH1 0x24 PUSH2 0x638 SWAP6 PUSH2 0x5DC TIMESTAMP PUSH1 0xE4 CALLDATALOAD LT ISZERO PUSH2 0x1993 JUMP JUMPDEST PUSH2 0x5F2 PUSH1 0xA4 CALLDATALOAD PUSH1 0x84 CALLDATALOAD PUSH1 0x64 CALLDATALOAD PUSH1 0x44 CALLDATALOAD DUP8 DUP14 PUSH2 0x2637 JUMP JUMPDEST DUP10 DUP6 PUSH2 0x631 PUSH2 0x626 DUP6 SWAP13 SWAP6 SWAP9 DUP6 SWAP15 PUSH32 0x0 PUSH2 0x1F9B JUMP JUMPDEST SWAP8 DUP9 DUP1 SWAP5 CALLER SWAP1 PUSH2 0x2051 JUMP JUMPDEST CALLER SWAP1 PUSH2 0x2051 JUMP JUMPDEST PUSH1 0x40 MLOAD PUSH4 0x35313C21 PUSH1 0xE1 SHL DUP2 MSTORE PUSH1 0x4 DUP2 ADD SWAP2 SWAP1 SWAP2 MSTORE SWAP5 DUP6 SWAP3 DUP4 SWAP2 SWAP1 PUSH1 0x1 PUSH1 0x1 PUSH1 0xA0 SHL SUB AND GAS CALL SWAP1 DUP2 ISZERO PUSH2 0x532 JUMPI SWAP1 PUSH2 0x68D JUMPI JUMPDEST PUSH2 0x2CF SWAP2 POP PUSH1 0x40 MLOAD SWAP4 DUP5 SWAP4 DUP5 PUSH1 0x40 SWAP2 SWAP5 SWAP4 SWAP3 PUSH1 0x60 DUP3 ADD SWAP6 DUP3 MSTORE PUSH1 0x20 DUP3 ADD MSTORE ADD MSTORE JUMP JUMPDEST POP PUSH1 0x20 DUP2 RETURNDATASIZE PUSH1 0x20 GT PUSH2 0x6B9 JUMPI JUMPDEST DUP2 PUSH2 0x6A7 PUSH1 0x20 SWAP4 DUP4 PUSH2 0x1858 JUMP JUMPDEST DUP2 ADD SUB SLT PUSH2 0x525 JUMPI PUSH2 0x2CF SWAP1 MLOAD PUSH2 0x66B JUMP JUMPDEST RETURNDATASIZE SWAP2 POP PUSH2 0x69A JUMP JUMPDEST DUP3 JUMPDEST DUP1 REVERT JUMPDEST POP CALLVALUE PUSH2 0x6C3 JUMPI PUSH2 0x140 CALLDATASIZE PUSH1 0x3 NOT ADD SLT PUSH2 0x6C3 JUMPI PUSH2 0x6E1 PUSH2 0x16FC JUMP JUMPDEST PUSH1 0x84 CALLDATALOAD SWAP2 SWAP1 PUSH1 0x24 CALLDATALOAD PUSH1 0x1 PUSH1 0x1 PUSH1 0xA0 SHL SUB DUP5 AND DUP5 SUB PUSH2 0x6C1 JUMPI PUSH1 0xC4 CALLDATALOAD SWAP1 PUSH1 0xA4 CALLDATALOAD DUP3 ISZERO ISZERO DUP4 SUB PUSH2 0xA95 JUMPI PUSH1 0xE4 CALLDATALOAD SWAP1 PUSH1 0xFF DUP3 AND DUP3 SUB PUSH2 0xA7B JUMPI PUSH32 0x0 SWAP2 PUSH32 0x0 SWAP5 PUSH2 0x766 DUP7 DUP9 DUP7 PUSH2 0x1F9B JUMP JUMPDEST SWAP1 ISZERO PUSH2 0xA8E JUMPI PUSH1 0x0 NOT SWAP1 JUMPDEST PUSH1 0x1 PUSH1 0x1 PUSH1 0xA0 SHL SUB AND SWAP1 DUP2 EXTCODESIZE ISZERO PUSH2 0xA8A JUMPI PUSH1 0x40 MLOAD PUSH4 0xD505ACCF PUSH1 0xE0 SHL DUP2 MSTORE CALLER PUSH1 0x4 DUP3 ADD MSTORE ADDRESS PUSH1 0x24 DUP3 ADD MSTORE PUSH1 0x44 DUP2 ADD SWAP2 SWAP1 SWAP2 MSTORE PUSH1 0x64 DUP2 ADD DUP5 SWAP1 MSTORE PUSH1 0xFF SWAP3 SWAP1 SWAP3 AND PUSH1 0x84 DUP4 ADD MSTORE PUSH2 0x104 CALLDATALOAD PUSH1 0xA4 DUP4 ADD MSTORE PUSH2 0x124 CALLDATALOAD PUSH1 0xC4 DUP4 ADD MSTORE DUP8 SWAP1 DUP3 SWAP1 PUSH1 0xE4 SWAP1 DUP3 SWAP1 DUP5 SWAP1 GAS CALL DUP1 ISZERO PUSH2 0xA7F JUMPI SWAP2 DUP8 DUP8 SWAP3 DUP8 SWAP5 PUSH2 0xA5F JUMPI JUMPDEST POP POP SWAP2 PUSH2 0x80C SWAP2 PUSH2 0x845 SWAP5 PUSH2 0x807 PUSH1 0x20 SWAP6 TIMESTAMP GT ISZERO PUSH2 0x802 DUP2 PUSH2 0x1993 JUMP JUMPDEST PUSH2 0x1993 JUMP JUMPDEST PUSH2 0x1F9B JUMP JUMPDEST PUSH1 0x40 MLOAD PUSH4 0x23B872DD PUSH1 0xE0 SHL DUP2 MSTORE CALLER PUSH1 0x4 DUP3 ADD MSTORE PUSH1 0x1 PUSH1 0x1 PUSH1 0xA0 SHL SUB SWAP1 SWAP2 AND PUSH1 0x24 DUP3 ADD DUP2 SWAP1 MSTORE PUSH1 0x44 DUP3 ADD SWAP5 SWAP1 SWAP5 MSTORE SWAP2 DUP3 SWAP1 DUP2 SWAP1 PUSH1 0x64 DUP3 ADD SWAP1 JUMP JUMPDEST SUB DUP2 DUP9 DUP7 GAS CALL DUP1 ISZERO PUSH2 0x57F JUMPI SWAP2 PUSH1 0x40 SWAP2 DUP7 SWAP5 SWAP4 PUSH2 0xA42 JUMPI JUMPDEST POP PUSH1 0x24 DUP3 MLOAD DUP1 SWAP8 DUP2 SWAP4 PUSH4 0x226BF2D1 PUSH1 0xE2 SHL DUP4 MSTORE ADDRESS PUSH1 0x4 DUP5 ADD MSTORE GAS CALL SWAP4 DUP5 ISZERO PUSH2 0x35B JUMPI DUP3 SWAP1 DUP4 SWAP6 PUSH2 0xA08 JUMPI JUMPDEST POP PUSH2 0x893 DUP3 DUP6 PUSH2 0x254B JUMP JUMPDEST POP PUSH1 0x1 PUSH1 0x1 PUSH1 0xA0 SHL SUB DUP6 DUP2 AND SWAP2 AND SUB PUSH2 0x9FE JUMPI DUP3 DUP1 SWAP2 SWAP6 SWAP5 JUMPDEST PUSH2 0x8BA PUSH1 0x44 CALLDATALOAD DUP9 LT ISZERO PUSH2 0x1B8F JUMP JUMPDEST PUSH2 0x8C8 PUSH1 0x64 CALLDATALOAD DUP8 LT ISZERO PUSH2 0x1BE7 JUMP JUMPDEST PUSH1 0x40 MLOAD PUSH4 0xA9059CBB PUSH1 0xE0 SHL PUSH1 0x20 DUP3 ADD SWAP1 DUP2 MSTORE PUSH1 0x1 PUSH1 0x1 PUSH1 0xA0 SHL SUB DUP11 AND PUSH1 0x24 DUP4 ADD MSTORE PUSH1 0x44 DUP3 ADD DUP10 SWAP1 MSTORE SWAP1 DUP4 SWAP1 PUSH2 0x90A DUP2 PUSH1 0x64 DUP2 ADD JUMPDEST SUB PUSH1 0x1F NOT DUP2 ADD DUP4 MSTORE DUP3 PUSH2 0x1858 JUMP JUMPDEST MLOAD SWAP3 GAS CALL PUSH2 0x916 PUSH2 0x1C3F JUMP JUMPDEST DUP2 PUSH2 0x9CF JUMPI JUMPDEST POP ISZERO PUSH2 0x98A JUMPI PUSH1 0x1 PUSH1 0x1 PUSH1 0xA0 SHL SUB AND DUP1 EXTCODESIZE ISZERO PUSH2 0x366 JUMPI DUP2 DUP1 SWAP2 PUSH1 0x24 PUSH1 0x40 MLOAD DUP1 SWAP5 DUP2 SWAP4 PUSH4 0x2E1A7D4D PUSH1 0xE0 SHL DUP4 MSTORE DUP9 PUSH1 0x4 DUP5 ADD MSTORE GAS CALL DUP1 ISZERO PUSH2 0x35B JUMPI PUSH2 0x975 JUMPI JUMPDEST POP POP PUSH2 0x969 DUP2 PUSH1 0x40 SWAP5 PUSH2 0x1C7F JUMP JUMPDEST DUP3 MLOAD SWAP2 DUP3 MSTORE PUSH1 0x20 DUP3 ADD MSTORE RETURN JUMPDEST PUSH2 0x980 DUP3 DUP1 SWAP3 PUSH2 0x1858 JUMP JUMPDEST PUSH2 0x6C3 JUMPI DUP1 PUSH2 0x95B JUMP JUMPDEST PUSH1 0x40 MLOAD PUSH3 0x461BCD PUSH1 0xE5 SHL DUP2 MSTORE PUSH1 0x20 PUSH1 0x4 DUP3 ADD MSTORE PUSH1 0x1F PUSH1 0x24 DUP3 ADD MSTORE PUSH32 0x5472616E7366657248656C7065723A205452414E534645525F4641494C454400 PUSH1 0x44 DUP3 ADD MSTORE PUSH1 0x64 SWAP1 REVERT JUMPDEST DUP1 MLOAD DUP1 ISZERO SWAP3 POP DUP3 ISZERO PUSH2 0x9E4 JUMPI JUMPDEST POP POP CODESIZE PUSH2 0x91C JUMP JUMPDEST PUSH2 0x9F7 SWAP3 POP PUSH1 0x20 DUP1 SWAP2 DUP4 ADD ADD SWAP2 ADD PUSH2 0x1B5A JUMP JUMPDEST CODESIZE DUP1 PUSH2 0x9DC JUMP JUMPDEST SWAP3 DUP3 SWAP1 DUP2 SWAP1 PUSH2 0x8AC JUMP JUMPDEST SWAP5 POP POP PUSH1 0x40 DUP5 RETURNDATASIZE PUSH1 0x40 GT PUSH2 0xA3A JUMPI JUMPDEST DUP2 PUSH2 0xA24 PUSH1 0x40 SWAP4 DUP4 PUSH2 0x1858 JUMP JUMPDEST DUP2 ADD SUB SLT PUSH2 0x366 JUMPI PUSH1 0x20 DUP5 MLOAD SWAP5 ADD MLOAD SWAP4 CODESIZE PUSH2 0x888 JUMP JUMPDEST RETURNDATASIZE SWAP2 POP PUSH2 0xA17 JUMP JUMPDEST PUSH2 0xA5A SWAP1 PUSH1 0x20 RETURNDATASIZE PUSH1 0x20 GT PUSH2 0x31C JUMPI PUSH2 0x30E DUP2 DUP4 PUSH2 0x1858 JUMP JUMPDEST PUSH2 0x85D JUMP JUMPDEST PUSH2 0xA6D SWAP3 SWAP5 POP DUP2 SWAP4 POP PUSH2 0x1858 JUMP JUMPDEST PUSH2 0xA7B JUMPI DUP5 DUP5 SWAP2 DUP8 CODESIZE PUSH2 0x7E5 JUMP JUMPDEST DUP6 DUP1 REVERT JUMPDEST PUSH1 0x40 MLOAD RETURNDATASIZE DUP10 DUP3 RETURNDATACOPY RETURNDATASIZE SWAP1 REVERT JUMPDEST DUP9 DUP1 REVERT JUMPDEST DUP5 SWAP1 PUSH2 0x771 JUMP JUMPDEST DUP5 DUP1 REVERT JUMPDEST POP CALLVALUE PUSH2 0x6C3 JUMPI PUSH2 0x2CF PUSH2 0x2C3 PUSH2 0xAAE CALLDATASIZE PUSH2 0x1903 JUMP JUMPDEST SWAP1 PUSH32 0x0 PUSH2 0x1EEE JUMP JUMPDEST POP CALLVALUE PUSH2 0x6C3 JUMPI DUP1 PUSH1 0x3 NOT CALLDATASIZE ADD SLT PUSH2 0x6C3 JUMPI PUSH1 0x40 MLOAD PUSH32 0x0 PUSH1 0x1 PUSH1 0x1 PUSH1 0xA0 SHL SUB AND DUP2 MSTORE PUSH1 0x20 SWAP1 RETURN JUMPDEST POP CALLVALUE PUSH2 0x6C3 JUMPI PUSH1 0xE0 CALLDATASIZE PUSH1 0x3 NOT ADD SLT PUSH2 0x6C3 JUMPI PUSH2 0xB34 PUSH2 0x16FC JUMP JUMPDEST DUP2 PUSH2 0xB3D PUSH2 0x1712 JUMP JUMPDEST SWAP2 PUSH2 0xBC2 PUSH2 0xB49 PUSH2 0x1728 JUMP JUMPDEST PUSH2 0xB57 TIMESTAMP PUSH1 0xC4 CALLDATALOAD LT ISZERO PUSH2 0x1993 JUMP JUMPDEST PUSH2 0xB82 DUP6 DUP5 PUSH32 0x0 PUSH2 0x1F9B JUMP JUMPDEST PUSH1 0x40 MLOAD PUSH4 0x23B872DD PUSH1 0xE0 SHL DUP2 MSTORE CALLER PUSH1 0x4 DUP3 ADD MSTORE PUSH1 0x1 PUSH1 0x1 PUSH1 0xA0 SHL SUB SWAP1 SWAP2 AND PUSH1 0x24 DUP3 ADD DUP2 SWAP1 MSTORE PUSH1 0x44 DUP1 CALLDATALOAD SWAP1 DUP4 ADD MSTORE SWAP1 SWAP3 SWAP1 SWAP2 SWAP1 PUSH1 0x20 SWAP1 DUP5 SWAP1 DUP2 SWAP1 PUSH1 0x64 DUP3 ADD SWAP1 JUMP JUMPDEST SUB DUP2 DUP9 DUP7 GAS CALL SWAP1 DUP2 ISZERO PUSH2 0x57F JUMPI PUSH1 0x40 SWAP4 PUSH1 0x24 SWAP3 PUSH2 0xC97 JUMPI JUMPDEST POP DUP4 MLOAD PUSH4 0x226BF2D1 PUSH1 0xE2 SHL DUP2 MSTORE PUSH1 0x1 PUSH1 0x1 PUSH1 0xA0 SHL SUB SWAP1 SWAP2 AND PUSH1 0x4 DUP3 ADD MSTORE SWAP5 DUP6 SWAP3 DUP4 SWAP2 SWAP1 GAS CALL SWAP3 DUP4 ISZERO PUSH2 0x55B JUMPI DUP5 SWAP3 DUP6 SWAP5 PUSH2 0xC59 JUMPI JUMPDEST POP SWAP4 PUSH2 0xC1D PUSH1 0x40 SWAP6 DUP4 PUSH2 0x254B JUMP JUMPDEST POP PUSH1 0x1 PUSH1 0x1 PUSH1 0xA0 SHL SUB SWAP3 DUP4 AND SWAP3 AND SWAP2 SWAP1 SWAP2 EQ ISZERO SWAP1 POP PUSH2 0xC54 JUMPI SWAP1 JUMPDEST PUSH2 0xC46 PUSH1 0x64 CALLDATALOAD DUP4 LT ISZERO PUSH2 0x1B8F JUMP JUMPDEST PUSH2 0x969 PUSH1 0x84 CALLDATALOAD DUP3 LT ISZERO PUSH2 0x1BE7 JUMP JUMPDEST PUSH2 0xC38 JUMP JUMPDEST SWAP3 POP SWAP3 POP PUSH1 0x40 DUP3 RETURNDATASIZE PUSH1 0x40 GT PUSH2 0xC8F JUMPI JUMPDEST DUP2 PUSH2 0xC76 PUSH1 0x40 SWAP4 DUP4 PUSH2 0x1858 JUMP JUMPDEST DUP2 ADD SUB SLT PUSH2 0x57B JUMPI DUP2 MLOAD PUSH1 0x20 SWAP1 SWAP3 ADD MLOAD SWAP3 PUSH2 0xC1D PUSH2 0xC0F JUMP JUMPDEST RETURNDATASIZE SWAP2 POP PUSH2 0xC69 JUMP JUMPDEST PUSH2 0xCAF SWAP1 PUSH1 0x20 RETURNDATASIZE PUSH1 0x20 GT PUSH2 0x31C JUMPI PUSH2 0x30E DUP2 DUP4 PUSH2 0x1858 JUMP JUMPDEST PUSH2 0xBDA JUMP JUMPDEST POP CALLVALUE PUSH2 0x6C3 JUMPI PUSH1 0x20 PUSH2 0xCCE PUSH2 0xCC8 CALLDATASIZE PUSH2 0x1784 JUMP JUMPDEST SWAP2 PUSH2 0x24CD JUMP JUMPDEST PUSH1 0x40 MLOAD SWAP1 DUP2 MSTORE RETURN JUMPDEST POP CALLVALUE PUSH2 0x6C3 JUMPI DUP1 PUSH1 0x3 NOT CALLDATASIZE ADD SLT PUSH2 0x6C3 JUMPI PUSH1 0x40 MLOAD PUSH32 0x0 PUSH1 0x1 PUSH1 0x1 PUSH1 0xA0 SHL SUB AND DUP2 MSTORE PUSH1 0x20 SWAP1 RETURN JUMPDEST POP CALLVALUE PUSH2 0x6C3 JUMPI PUSH2 0xD3D PUSH2 0xD2D CALLDATASIZE PUSH2 0x17CF JUMP JUMPDEST SWAP7 SWAP3 SWAP5 SWAP2 SWAP4 SWAP6 SWAP1 SWAP7 TIMESTAMP GT ISZERO PUSH2 0x1993 JUMP JUMPDEST PUSH2 0xD89 PUSH2 0xD77 PUSH32 0x0 SWAP3 PUSH2 0xD70 CALLDATASIZE DUP8 DUP10 PUSH2 0x18A8 JUMP JUMPDEST SWAP1 DUP5 PUSH2 0x231A JUMP JUMPDEST SWAP6 PUSH2 0xD81 DUP8 PUSH2 0x1A81 JUMP JUMPDEST MLOAD GT ISZERO PUSH2 0x1B00 JUMP JUMPDEST DUP3 ISZERO PUSH2 0xDF4 JUMPI PUSH2 0xD98 DUP5 PUSH2 0x1A21 JUMP JUMPDEST SWAP2 PUSH2 0xDA2 DUP6 PUSH2 0x1A21 JUMP JUMPDEST SWAP1 DUP5 PUSH1 0x1 LT ISZERO PUSH2 0xDE0 JUMPI POP SWAP3 PUSH2 0x2A5 PUSH2 0x2AC SWAP4 PUSH2 0xDCE DUP8 SWAP5 PUSH2 0x2CF SWAP11 SWAP8 PUSH2 0x237 PUSH1 0x20 PUSH2 0x2C3 SWAP12 ADD PUSH2 0x1A21 JUMP JUMPDEST PUSH2 0xDD7 DUP10 PUSH2 0x1A81 JUMP JUMPDEST MLOAD SWAP2 CALLER SWAP1 PUSH2 0x2051 JUMP JUMPDEST PUSH4 0x4E487B71 PUSH1 0xE0 SHL DUP2 MSTORE PUSH1 0x32 PUSH1 0x4 MSTORE PUSH1 0x24 SWAP1 REVERT JUMPDEST PUSH4 0x4E487B71 PUSH1 0xE0 SHL DUP3 MSTORE PUSH1 0x32 PUSH1 0x4 MSTORE PUSH1 0x24 DUP3 REVERT JUMPDEST POP CALLVALUE PUSH2 0x6C3 JUMPI PUSH1 0x20 PUSH2 0xCCE PUSH2 0xE1C CALLDATASIZE PUSH2 0x1784 JUMP JUMPDEST SWAP2 PUSH2 0x23CC JUMP JUMPDEST POP PUSH2 0xE2F PUSH2 0x138 CALLDATASIZE PUSH2 0x1947 JUMP JUMPDEST DUP1 ISZERO PUSH2 0x36A JUMPI PUSH2 0xE3E DUP3 PUSH2 0x1A21 JUMP JUMPDEST PUSH1 0x1 PUSH1 0x1 PUSH1 0xA0 SHL SUB PUSH32 0x0 DUP2 AND SWAP2 PUSH2 0xE76 SWAP2 AND DUP3 EQ PUSH2 0x1A35 JUMP JUMPDEST PUSH32 0x0 PUSH2 0xEAC PUSH2 0xEA5 CALLDATASIZE DUP6 DUP8 PUSH2 0x18A8 JUMP JUMPDEST CALLVALUE DUP4 PUSH2 0x1EEE JUMP JUMPDEST SWAP6 DUP7 MLOAD PUSH1 0x0 NOT DUP2 ADD SWAP1 DUP2 GT PUSH2 0xF6D JUMPI SWAP1 PUSH2 0xEC9 PUSH2 0xED1 SWAP3 DUP10 PUSH2 0x1A8E JUMP JUMPDEST MLOAD LT ISZERO PUSH2 0x1AA2 JUMP JUMPDEST DUP7 PUSH2 0xEDB DUP8 PUSH2 0x1A81 JUMP JUMPDEST MLOAD DUP4 EXTCODESIZE ISZERO PUSH2 0x366 JUMPI DUP2 PUSH1 0x4 SWAP2 PUSH1 0x40 MLOAD SWAP3 DUP4 DUP1 SWAP3 PUSH4 0xD0E30DB PUSH1 0xE4 SHL DUP3 MSTORE DUP9 GAS CALL DUP1 ISZERO PUSH2 0x35B JUMPI PUSH2 0xF58 JUMPI JUMPDEST POP POP PUSH2 0xF11 DUP5 PUSH2 0x1A21 JUMP JUMPDEST DUP4 PUSH1 0x1 LT ISZERO PUSH2 0x32E JUMPI SWAP2 PUSH2 0x23D PUSH1 0x20 SWAP3 PUSH2 0xF30 SWAP5 PUSH2 0x237 DUP6 DUP10 ADD PUSH2 0x1A21 JUMP JUMPDEST SUB SWAP3 GAS CALL SWAP1 DUP2 ISZERO PUSH2 0x323 JUMPI SWAP2 PUSH2 0x2A5 PUSH2 0x2C3 SWAP6 SWAP5 SWAP3 PUSH2 0x2AC SWAP5 PUSH2 0x2CF SWAP10 SWAP2 PUSH2 0x2F4 JUMPI POP PUSH2 0x1B72 JUMP JUMPDEST DUP2 PUSH2 0xF62 SWAP2 PUSH2 0x1858 JUMP JUMPDEST PUSH2 0x357 JUMPI DUP7 CODESIZE PUSH2 0xF06 JUMP JUMPDEST PUSH4 0x4E487B71 PUSH1 0xE0 SHL DUP10 MSTORE PUSH1 0x11 PUSH1 0x4 MSTORE PUSH1 0x24 DUP10 REVERT JUMPDEST POP CALLVALUE PUSH2 0x6C3 JUMPI PUSH2 0xFA4 PUSH2 0xF93 CALLDATASIZE PUSH2 0x17CF JUMP JUMPDEST SWAP7 SWAP5 SWAP4 SWAP6 SWAP1 SWAP7 SWAP3 SWAP2 SWAP3 TIMESTAMP GT ISZERO PUSH2 0x1993 JUMP JUMPDEST PUSH1 0x0 NOT DUP3 ADD DUP3 DUP2 GT PUSH2 0x1158 JUMPI PUSH2 0xFBE PUSH2 0xFC3 SWAP2 DUP5 DUP5 PUSH2 0x19FB JUMP JUMPDEST PUSH2 0x1A21 JUMP JUMPDEST PUSH1 0x1 PUSH1 0x1 PUSH1 0xA0 SHL SUB PUSH32 0x0 DUP2 AND SWAP5 SWAP2 PUSH2 0xFFC SWAP2 AND DUP6 EQ PUSH2 0x1A35 JUMP JUMPDEST PUSH2 0x1039 PUSH2 0x102F PUSH32 0x0 SWAP3 PUSH2 0xD70 CALLDATASIZE DUP8 DUP8 PUSH2 0x18A8 JUMP JUMPDEST SWAP7 PUSH2 0xD81 DUP9 PUSH2 0x1A81 JUMP JUMPDEST DUP3 ISZERO PUSH2 0x36A JUMPI PUSH2 0x1048 DUP3 PUSH2 0x1A21 JUMP JUMPDEST SWAP1 PUSH2 0x1052 DUP4 PUSH2 0x1A21 JUMP JUMPDEST DUP5 PUSH1 0x1 LT ISZERO PUSH2 0x1144 JUMPI PUSH2 0x108A SWAP3 PUSH2 0x1078 DUP6 SWAP4 PUSH2 0x1081 SWAP4 PUSH2 0x237 PUSH1 0x20 PUSH2 0x1090 SWAP11 SWAP10 ADD PUSH2 0x1A21 JUMP JUMPDEST PUSH2 0xDD7 DUP11 PUSH2 0x1A81 JUMP JUMPDEST ADDRESS SWAP3 CALLDATASIZE SWAP2 PUSH2 0x18A8 JUMP JUMPDEST DUP6 PUSH2 0x2134 JUMP JUMPDEST DUP3 MLOAD PUSH1 0x0 NOT DUP2 ADD SWAP1 DUP2 GT PUSH2 0x1130 JUMPI PUSH2 0x10A8 SWAP1 DUP5 PUSH2 0x1A8E JUMP JUMPDEST MLOAD DUP2 EXTCODESIZE ISZERO PUSH2 0x6C1 JUMPI DUP3 SWAP2 PUSH1 0x24 DUP4 SWAP3 PUSH1 0x40 MLOAD SWAP5 DUP6 SWAP4 DUP5 SWAP3 PUSH4 0x2E1A7D4D PUSH1 0xE0 SHL DUP5 MSTORE PUSH1 0x4 DUP5 ADD MSTORE GAS CALL DUP1 ISZERO PUSH2 0x35B JUMPI SWAP1 DUP3 SWAP2 PUSH2 0x111B JUMPI JUMPDEST POP POP DUP2 MLOAD PUSH1 0x0 NOT DUP2 ADD SWAP2 SWAP1 DUP3 GT PUSH2 0x1107 JUMPI POP PUSH2 0x2CF SWAP3 PUSH2 0x1100 PUSH2 0x2C3 SWAP3 DUP5 PUSH2 0x1A8E JUMP JUMPDEST MLOAD SWAP1 PUSH2 0x1C7F JUMP JUMPDEST PUSH4 0x4E487B71 PUSH1 0xE0 SHL DUP2 MSTORE PUSH1 0x11 PUSH1 0x4 MSTORE PUSH1 0x24 SWAP1 REVERT JUMPDEST DUP2 PUSH2 0x1125 SWAP2 PUSH2 0x1858 JUMP JUMPDEST PUSH2 0x6C3 JUMPI DUP1 CODESIZE PUSH2 0x10DD JUMP JUMPDEST PUSH4 0x4E487B71 PUSH1 0xE0 SHL DUP4 MSTORE PUSH1 0x11 PUSH1 0x4 MSTORE PUSH1 0x24 DUP4 REVERT JUMPDEST PUSH4 0x4E487B71 PUSH1 0xE0 SHL DUP8 MSTORE PUSH1 0x32 PUSH1 0x4 MSTORE PUSH1 0x24 DUP8 REVERT JUMPDEST PUSH4 0x4E487B71 PUSH1 0xE0 SHL DUP6 MSTORE PUSH1 0x11 PUSH1 0x4 MSTORE PUSH1 0x24 DUP6 REVERT JUMPDEST POP CALLVALUE PUSH2 0x6C3 JUMPI PUSH2 0x117E PUSH2 0xD2D CALLDATASIZE PUSH2 0x17CF JUMP JUMPDEST PUSH2 0x11B5 PUSH32 0x0 SWAP2 PUSH2 0x11AE CALLDATASIZE DUP7 DUP9 PUSH2 0x18A8 JUMP JUMPDEST SWAP1 DUP4 PUSH2 0x1EEE JUMP JUMPDEST SWAP5 DUP6 MLOAD PUSH1 0x0 NOT DUP2 ADD SWAP1 DUP2 GT PUSH2 0x11D2 JUMPI SWAP1 PUSH2 0xEC9 PUSH2 0xD89 SWAP3 DUP9 PUSH2 0x1A8E JUMP JUMPDEST PUSH4 0x4E487B71 PUSH1 0xE0 SHL DUP5 MSTORE PUSH1 0x11 PUSH1 0x4 MSTORE PUSH1 0x24 DUP5 REVERT JUMPDEST POP CALLVALUE PUSH2 0x6C3 JUMPI PUSH2 0x160 CALLDATASIZE PUSH1 0x3 NOT ADD SLT PUSH2 0x6C3 JUMPI PUSH2 0x1201 PUSH2 0x16FC JUMP JUMPDEST DUP2 PUSH2 0x120A PUSH2 0x1712 JUMP JUMPDEST SWAP2 PUSH1 0x44 CALLDATALOAD PUSH2 0x1216 PUSH2 0x1728 JUMP JUMPDEST SWAP1 PUSH1 0xC4 CALLDATALOAD SWAP2 PUSH1 0xE4 CALLDATALOAD DUP1 ISZERO ISZERO DUP2 SUB PUSH2 0xA7B JUMPI PUSH2 0x104 CALLDATALOAD PUSH1 0xFF DUP2 AND DUP2 SUB PUSH2 0x357 JUMPI PUSH32 0x0 SWAP2 PUSH2 0x1262 DUP10 DUP9 DUP6 PUSH2 0x1F9B JUMP JUMPDEST SWAP1 ISZERO PUSH2 0x134D JUMPI PUSH1 0x0 NOT SWAP1 JUMPDEST PUSH1 0x1 PUSH1 0x1 PUSH1 0xA0 SHL SUB AND SWAP2 DUP3 EXTCODESIZE ISZERO PUSH2 0xA8A JUMPI PUSH1 0x40 MLOAD PUSH4 0xD505ACCF PUSH1 0xE0 SHL DUP2 MSTORE CALLER PUSH1 0x4 DUP3 ADD MSTORE ADDRESS PUSH1 0x24 DUP3 ADD MSTORE PUSH1 0x44 DUP2 ADD SWAP3 SWAP1 SWAP3 MSTORE PUSH1 0x64 DUP3 ADD DUP8 SWAP1 MSTORE PUSH1 0xFF AND PUSH1 0x84 DUP3 ADD MSTORE PUSH2 0x124 CALLDATALOAD PUSH1 0xA4 DUP3 ADD MSTORE PUSH2 0x144 CALLDATALOAD PUSH1 0xC4 DUP3 ADD MSTORE SWAP1 DUP8 SWAP1 DUP3 SWAP1 PUSH1 0xE4 SWAP1 DUP3 SWAP1 DUP5 SWAP1 GAS CALL SWAP2 DUP3 ISZERO PUSH2 0xA7F JUMPI DUP8 DUP8 SWAP3 DUP11 SWAP5 PUSH2 0x1331 JUMPI JUMPDEST POP POP SWAP2 PUSH2 0x12F8 SWAP2 PUSH1 0x20 SWAP4 PUSH2 0x807 PUSH2 0xBC2 SWAP9 TIMESTAMP GT ISZERO PUSH2 0x1993 JUMP JUMPDEST PUSH1 0x40 MLOAD PUSH4 0x23B872DD PUSH1 0xE0 SHL DUP2 MSTORE CALLER PUSH1 0x4 DUP3 ADD MSTORE PUSH1 0x1 PUSH1 0x1 PUSH1 0xA0 SHL SUB SWAP1 SWAP2 AND PUSH1 0x24 DUP3 ADD DUP2 SWAP1 MSTORE PUSH1 0x44 DUP3 ADD SWAP5 SWAP1 SWAP5 MSTORE SWAP4 DUP5 SWAP1 DUP2 SWAP1 PUSH1 0x64 DUP3 ADD SWAP1 JUMP JUMPDEST PUSH2 0x133F SWAP3 SWAP5 POP DUP2 SWAP4 POP PUSH2 0x1858 JUMP JUMPDEST PUSH2 0xA7B JUMPI DUP5 DUP8 SWAP2 DUP8 CODESIZE PUSH2 0x12DF JUMP JUMPDEST DUP5 SWAP1 PUSH2 0x126D JUMP JUMPDEST POP CALLVALUE PUSH2 0x6C3 JUMPI PUSH2 0x2CF PUSH2 0x2C3 PUSH2 0x1369 CALLDATASIZE PUSH2 0x1903 JUMP JUMPDEST SWAP1 PUSH32 0x0 PUSH2 0x231A JUMP JUMPDEST POP CALLVALUE PUSH2 0x6C3 JUMPI PUSH2 0x13A2 PUSH2 0xF93 CALLDATASIZE PUSH2 0x17CF JUMP JUMPDEST PUSH1 0x0 NOT DUP3 ADD DUP3 DUP2 GT PUSH2 0x1158 JUMPI PUSH2 0xFBE PUSH2 0x13BC SWAP2 DUP5 DUP5 PUSH2 0x19FB JUMP JUMPDEST PUSH1 0x1 PUSH1 0x1 PUSH1 0xA0 SHL SUB PUSH32 0x0 DUP2 AND SWAP5 SWAP2 PUSH2 0x13F5 SWAP2 AND DUP6 EQ PUSH2 0x1A35 JUMP JUMPDEST PUSH2 0x1425 PUSH32 0x0 SWAP2 PUSH2 0x11AE CALLDATASIZE DUP7 DUP7 PUSH2 0x18A8 JUMP JUMPDEST SWAP6 DUP7 MLOAD PUSH1 0x0 NOT DUP2 ADD SWAP1 DUP2 GT PUSH2 0x1442 JUMPI SWAP1 PUSH2 0xEC9 PUSH2 0x1039 SWAP3 DUP10 PUSH2 0x1A8E JUMP JUMPDEST PUSH4 0x4E487B71 PUSH1 0xE0 SHL DUP8 MSTORE PUSH1 0x11 PUSH1 0x4 MSTORE PUSH1 0x24 DUP8 REVERT JUMPDEST POP CALLVALUE PUSH2 0x6C3 JUMPI PUSH1 0x20 PUSH2 0xCCE PUSH2 0x146A CALLDATASIZE PUSH2 0x1784 JUMP JUMPDEST SWAP2 PUSH2 0x1D83 JUMP JUMPDEST POP CALLVALUE PUSH2 0x6C3 JUMPI DUP1 PUSH2 0x1527 PUSH2 0x1483 CALLDATASIZE PUSH2 0x173E JUMP JUMPDEST SWAP6 SWAP3 SWAP6 SWAP5 SWAP2 SWAP1 SWAP5 TIMESTAMP GT ISZERO SWAP4 PUSH2 0x1497 DUP6 PUSH2 0x1993 JUMP JUMPDEST PUSH2 0x14C1 PUSH32 0x0 SWAP6 PUSH2 0x1993 JUMP JUMPDEST PUSH1 0x20 PUSH2 0x14EE DUP7 DUP6 PUSH32 0x0 PUSH2 0x1F9B JUMP JUMPDEST PUSH1 0x40 MLOAD PUSH4 0x23B872DD PUSH1 0xE0 SHL DUP2 MSTORE CALLER PUSH1 0x4 DUP3 ADD MSTORE PUSH1 0x1 PUSH1 0x1 PUSH1 0xA0 SHL SUB SWAP1 SWAP2 AND PUSH1 0x24 DUP3 ADD DUP2 SWAP1 MSTORE PUSH1 0x44 DUP3 ADD SWAP4 SWAP1 SWAP4 MSTORE SWAP5 DUP6 SWAP1 DUP2 SWAP1 PUSH1 0x64 DUP3 ADD SWAP1 JUMP JUMPDEST SUB DUP2 DUP12 DUP6 GAS CALL SWAP1 DUP2 ISZERO PUSH2 0x16F1 JUMPI DUP9 SWAP5 PUSH1 0x40 SWAP3 PUSH2 0x16D4 JUMPI JUMPDEST POP PUSH1 0x24 DUP3 MLOAD DUP1 SWAP11 DUP2 SWAP4 PUSH4 0x226BF2D1 PUSH1 0xE2 SHL DUP4 MSTORE ADDRESS PUSH1 0x4 DUP5 ADD MSTORE GAS CALL SWAP7 DUP8 ISZERO PUSH2 0x16C9 JUMPI DUP4 SWAP1 DUP5 SWAP9 PUSH2 0x168F JUMPI JUMPDEST POP PUSH2 0x1574 DUP6 DUP5 PUSH2 0x254B JUMP JUMPDEST POP PUSH1 0x1 PUSH1 0x1 PUSH1 0xA0 SHL SUB DUP5 DUP2 AND SWAP2 AND SUB PUSH2 0x167E JUMPI DUP4 SWAP3 SWAP2 PUSH2 0x159C PUSH2 0x15A4 SWAP3 SWAP10 SWAP9 JUMPDEST DUP11 LT ISZERO PUSH2 0x1B8F JUMP JUMPDEST DUP8 LT ISZERO PUSH2 0x1BE7 JUMP JUMPDEST PUSH1 0x40 MLOAD PUSH4 0xA9059CBB PUSH1 0xE0 SHL PUSH1 0x20 DUP3 ADD SWAP1 DUP2 MSTORE PUSH1 0x1 PUSH1 0x1 PUSH1 0xA0 SHL SUB DUP8 AND PUSH1 0x24 DUP4 ADD MSTORE PUSH1 0x44 DUP3 ADD DUP10 SWAP1 MSTORE SWAP1 DUP4 SWAP1 PUSH2 0x15DC DUP2 PUSH1 0x64 DUP2 ADD PUSH2 0x8FC JUMP JUMPDEST MLOAD SWAP3 GAS CALL PUSH2 0x15E8 PUSH2 0x1C3F JUMP JUMPDEST DUP2 PUSH2 0x164F JUMPI JUMPDEST POP ISZERO PUSH2 0x98A JUMPI DUP5 SWAP1 PUSH1 0x1 PUSH1 0x1 PUSH1 0xA0 SHL SUB AND DUP1 EXTCODESIZE ISZERO PUSH2 0x366 JUMPI DUP2 SWAP1 PUSH1 0x24 PUSH1 0x40 MLOAD DUP1 SWAP5 DUP2 SWAP4 PUSH4 0x2E1A7D4D PUSH1 0xE0 SHL DUP4 MSTORE DUP9 PUSH1 0x4 DUP5 ADD MSTORE GAS CALL DUP1 ISZERO PUSH2 0x57F JUMPI SWAP2 PUSH1 0x40 SWAP6 DUP5 SWAP3 PUSH2 0x969 SWAP5 PUSH2 0x163F JUMPI JUMPDEST POP POP PUSH2 0x1C7F JUMP JUMPDEST DUP2 PUSH2 0x1649 SWAP2 PUSH2 0x1858 JUMP JUMPDEST CODESIZE PUSH2 0x1638 JUMP JUMPDEST DUP1 MLOAD DUP1 ISZERO SWAP3 POP DUP3 ISZERO PUSH2 0x1664 JUMPI JUMPDEST POP POP CODESIZE PUSH2 0x15EE JUMP JUMPDEST PUSH2 0x1677 SWAP3 POP PUSH1 0x20 DUP1 SWAP2 DUP4 ADD ADD SWAP2 ADD PUSH2 0x1B5A JUMP JUMPDEST CODESIZE DUP1 PUSH2 0x165C JUMP JUMPDEST SWAP6 DUP4 SWAP3 SWAP2 PUSH2 0x15A4 SWAP2 PUSH2 0x159C SWAP1 PUSH2 0x1594 JUMP JUMPDEST SWAP8 POP POP PUSH1 0x40 DUP8 RETURNDATASIZE PUSH1 0x40 GT PUSH2 0x16C1 JUMPI JUMPDEST DUP2 PUSH2 0x16AB PUSH1 0x40 SWAP4 DUP4 PUSH2 0x1858 JUMP JUMPDEST DUP2 ADD SUB SLT PUSH2 0x6C1 JUMPI PUSH1 0x20 DUP8 MLOAD SWAP8 ADD MLOAD SWAP7 CODESIZE PUSH2 0x1569 JUMP JUMPDEST RETURNDATASIZE SWAP2 POP PUSH2 0x169E JUMP JUMPDEST PUSH1 0x40 MLOAD RETURNDATASIZE DUP6 DUP3 RETURNDATACOPY RETURNDATASIZE SWAP1 REVERT JUMPDEST PUSH2 0x16EC SWAP1 PUSH1 0x20 RETURNDATASIZE PUSH1 0x20 GT PUSH2 0x31C JUMPI PUSH2 0x30E DUP2 DUP4 PUSH2 0x1858 JUMP JUMPDEST PUSH2 0x153E JUMP JUMPDEST PUSH1 0x40 MLOAD RETURNDATASIZE DUP11 DUP3 RETURNDATACOPY RETURNDATASIZE SWAP1 REVERT JUMPDEST PUSH1 0x4 CALLDATALOAD SWAP1 PUSH1 0x1 PUSH1 0x1 PUSH1 0xA0 SHL SUB DUP3 AND DUP3 SUB PUSH2 0x525 JUMPI JUMP JUMPDEST PUSH1 0x24 CALLDATALOAD SWAP1 PUSH1 0x1 PUSH1 0x1 PUSH1 0xA0 SHL SUB DUP3 AND DUP3 SUB PUSH2 0x525 JUMPI JUMP JUMPDEST PUSH1 0xA4 CALLDATALOAD SWAP1 PUSH1 0x1 PUSH1 0x1 PUSH1 0xA0 SHL SUB DUP3 AND DUP3 SUB PUSH2 0x525 JUMPI JUMP JUMPDEST PUSH1 0xC0 SWAP1 PUSH1 0x3 NOT ADD SLT PUSH2 0x525 JUMPI PUSH1 0x4 CALLDATALOAD PUSH1 0x1 PUSH1 0x1 PUSH1 0xA0 SHL SUB DUP2 AND DUP2 SUB PUSH2 0x525 JUMPI SWAP1 PUSH1 0x24 CALLDATALOAD SWAP1 PUSH1 0x44 CALLDATALOAD SWAP1 PUSH1 0x64 CALLDATALOAD SWAP1 PUSH1 0x84 CALLDATALOAD PUSH1 0x1 PUSH1 0x1 PUSH1 0xA0 SHL SUB DUP2 AND DUP2 SUB PUSH2 0x525 JUMPI SWAP1 PUSH1 0xA4 CALLDATALOAD SWAP1 JUMP JUMPDEST PUSH1 0x60 SWAP1 PUSH1 0x3 NOT ADD SLT PUSH2 0x525 JUMPI PUSH1 0x4 CALLDATALOAD SWAP1 PUSH1 0x24 CALLDATALOAD SWAP1 PUSH1 0x44 CALLDATALOAD SWAP1 JUMP JUMPDEST SWAP2 DUP2 PUSH1 0x1F DUP5 ADD SLT ISZERO PUSH2 0x525 JUMPI DUP3 CALLDATALOAD SWAP2 PUSH8 0xFFFFFFFFFFFFFFFF DUP4 GT PUSH2 0x525 JUMPI PUSH1 0x20 DUP1 DUP6 ADD SWAP5 DUP5 PUSH1 0x5 SHL ADD ADD GT PUSH2 0x525 JUMPI JUMP JUMPDEST PUSH1 0xA0 PUSH1 0x3 NOT DUP3 ADD SLT PUSH2 0x525 JUMPI PUSH1 0x4 CALLDATALOAD SWAP2 PUSH1 0x24 CALLDATALOAD SWAP2 PUSH1 0x44 CALLDATALOAD SWAP1 PUSH8 0xFFFFFFFFFFFFFFFF DUP3 GT PUSH2 0x525 JUMPI PUSH2 0x1802 SWAP2 PUSH1 0x4 ADD PUSH2 0x179E JUMP JUMPDEST SWAP1 SWAP2 PUSH1 0x64 CALLDATALOAD PUSH1 0x1 PUSH1 0x1 PUSH1 0xA0 SHL SUB DUP2 AND DUP2 SUB PUSH2 0x525 JUMPI SWAP1 PUSH1 0x84 CALLDATALOAD SWAP1 JUMP JUMPDEST PUSH1 0x20 PUSH1 0x40 DUP2 DUP4 ADD SWAP3 DUP3 DUP2 MSTORE DUP5 MLOAD DUP1 SWAP5 MSTORE ADD SWAP3 ADD SWAP1 PUSH1 0x0 JUMPDEST DUP2 DUP2 LT PUSH2 0x1842 JUMPI POP POP POP SWAP1 JUMP JUMPDEST DUP3 MLOAD DUP5 MSTORE PUSH1 0x20 SWAP4 DUP5 ADD SWAP4 SWAP1 SWAP3 ADD SWAP2 PUSH1 0x1 ADD PUSH2 0x1835 JUMP JUMPDEST SWAP1 PUSH1 0x1F DUP1 NOT SWAP2 ADD AND DUP2 ADD SWAP1 DUP2 LT PUSH8 0xFFFFFFFFFFFFFFFF DUP3 GT OR PUSH2 0x187A JUMPI PUSH1 0x40 MSTORE JUMP JUMPDEST PUSH4 0x4E487B71 PUSH1 0xE0 SHL PUSH1 0x0 MSTORE PUSH1 0x41 PUSH1 0x4 MSTORE PUSH1 0x24 PUSH1 0x0 REVERT JUMPDEST PUSH8 0xFFFFFFFFFFFFFFFF DUP2 GT PUSH2 0x187A JUMPI PUSH1 0x5 SHL PUSH1 0x20 ADD SWAP1 JUMP JUMPDEST SWAP3 SWAP2 PUSH2 0x18B3 DUP3 PUSH2 0x1890 JUMP JUMPDEST SWAP4 PUSH2 0x18C1 PUSH1 0x40 MLOAD SWAP6 DUP7 PUSH2 0x1858 JUMP JUMPDEST PUSH1 0x20 DUP6 DUP5 DUP2 MSTORE ADD SWAP3 PUSH1 0x5 SHL DUP2 ADD SWAP2 DUP3 GT PUSH2 0x525 JUMPI SWAP2 JUMPDEST DUP2 DUP4 LT PUSH2 0x18E3 JUMPI POP POP POP JUMP JUMPDEST DUP3 CALLDATALOAD PUSH1 0x1 PUSH1 0x1 PUSH1 0xA0 SHL SUB DUP2 AND DUP2 SUB PUSH2 0x525 JUMPI DUP2 MSTORE PUSH1 0x20 SWAP3 DUP4 ADD SWAP3 ADD PUSH2 0x18D7 JUMP JUMPDEST SWAP1 PUSH1 0x40 PUSH1 0x3 NOT DUP4 ADD SLT PUSH2 0x525 JUMPI PUSH1 0x4 CALLDATALOAD SWAP2 PUSH1 0x24 CALLDATALOAD SWAP1 PUSH8 0xFFFFFFFFFFFFFFFF DUP3 GT PUSH2 0x525 JUMPI DUP1 PUSH1 0x23 DUP4 ADD SLT ISZERO PUSH2 0x525 JUMPI DUP2 PUSH1 0x24 PUSH2 0x1944 SWAP4 PUSH1 0x4 ADD CALLDATALOAD SWAP2 ADD PUSH2 0x18A8 JUMP JUMPDEST SWAP1 JUMP JUMPDEST SWAP1 PUSH1 0x80 PUSH1 0x3 NOT DUP4 ADD SLT PUSH2 0x525 JUMPI PUSH1 0x4 CALLDATALOAD SWAP2 PUSH1 0x24 CALLDATALOAD SWAP1 PUSH8 0xFFFFFFFFFFFFFFFF DUP3 GT PUSH2 0x525 JUMPI PUSH2 0x1977 SWAP2 PUSH1 0x4 ADD PUSH2 0x179E JUMP JUMPDEST SWAP1 SWAP2 PUSH1 0x44 CALLDATALOAD PUSH1 0x1 PUSH1 0x1 PUSH1 0xA0 SHL SUB DUP2 AND DUP2 SUB PUSH2 0x525 JUMPI SWAP1 PUSH1 0x64 CALLDATALOAD SWAP1 JUMP JUMPDEST ISZERO PUSH2 0x199A JUMPI JUMP JUMPDEST PUSH1 0x40 MLOAD PUSH3 0x461BCD PUSH1 0xE5 SHL DUP2 MSTORE PUSH1 0x20 PUSH1 0x4 DUP3 ADD MSTORE PUSH1 0x16 PUSH1 0x24 DUP3 ADD MSTORE PUSH22 0x11195DD4DDD85C149BDD5D195C8E8811561412549151 PUSH1 0x52 SHL PUSH1 0x44 DUP3 ADD MSTORE PUSH1 0x64 SWAP1 REVERT JUMPDEST SWAP2 SWAP1 DUP3 SUB SWAP2 DUP3 GT PUSH2 0x19E5 JUMPI JUMP JUMPDEST PUSH4 0x4E487B71 PUSH1 0xE0 SHL PUSH1 0x0 MSTORE PUSH1 0x11 PUSH1 0x4 MSTORE PUSH1 0x24 PUSH1 0x0 REVERT JUMPDEST SWAP2 SWAP1 DUP2 LT ISZERO PUSH2 0x1A0B JUMPI PUSH1 0x5 SHL ADD SWAP1 JUMP JUMPDEST PUSH4 0x4E487B71 PUSH1 0xE0 SHL PUSH1 0x0 MSTORE PUSH1 0x32 PUSH1 0x4 MSTORE PUSH1 0x24 PUSH1 0x0 REVERT JUMPDEST CALLDATALOAD PUSH1 0x1 PUSH1 0x1 PUSH1 0xA0 SHL SUB DUP2 AND DUP2 SUB PUSH2 0x525 JUMPI SWAP1 JUMP JUMPDEST ISZERO PUSH2 0x1A3C JUMPI JUMP JUMPDEST PUSH1 0x40 MLOAD PUSH3 0x461BCD PUSH1 0xE5 SHL DUP2 MSTORE PUSH1 0x20 PUSH1 0x4 DUP3 ADD MSTORE PUSH1 0x1B PUSH1 0x24 DUP3 ADD MSTORE PUSH32 0x44657753776170526F757465723A20494E56414C49445F504154480000000000 PUSH1 0x44 DUP3 ADD MSTORE PUSH1 0x64 SWAP1 REVERT JUMPDEST DUP1 MLOAD ISZERO PUSH2 0x1A0B JUMPI PUSH1 0x20 ADD SWAP1 JUMP JUMPDEST DUP1 MLOAD DUP3 LT ISZERO PUSH2 0x1A0B JUMPI PUSH1 0x20 SWAP2 PUSH1 0x5 SHL ADD ADD SWAP1 JUMP JUMPDEST ISZERO PUSH2 0x1AA9 JUMPI JUMP JUMPDEST PUSH1 0x40 MLOAD PUSH3 0x461BCD PUSH1 0xE5 SHL DUP2 MSTORE PUSH1 0x20 PUSH1 0x4 DUP3 ADD MSTORE PUSH1 0x29 PUSH1 0x24 DUP3 ADD MSTORE PUSH32 0x44657753776170526F757465723A20494E53554646494349454E545F4F555450 PUSH1 0x44 DUP3 ADD MSTORE PUSH9 0x155517D05353D55395 PUSH1 0xBA SHL PUSH1 0x64 DUP3 ADD MSTORE PUSH1 0x84 SWAP1 REVERT JUMPDEST ISZERO PUSH2 0x1B07 JUMPI JUMP JUMPDEST PUSH1 0x40 MLOAD PUSH3 0x461BCD PUSH1 0xE5 SHL DUP2 MSTORE PUSH1 0x20 PUSH1 0x4 DUP3 ADD MSTORE PUSH1 0x25 PUSH1 0x24 DUP3 ADD MSTORE PUSH32 0x44657753776170526F757465723A204558434553534956455F494E5055545F41 PUSH1 0x44 DUP3 ADD MSTORE PUSH5 0x1353D55395 PUSH1 0xDA SHL PUSH1 0x64 DUP3 ADD MSTORE PUSH1 0x84 SWAP1 REVERT JUMPDEST SWAP1 DUP2 PUSH1 0x20 SWAP2 SUB SLT PUSH2 0x525 JUMPI MLOAD DUP1 ISZERO ISZERO DUP2 SUB PUSH2 0x525 JUMPI SWAP1 JUMP JUMPDEST ISZERO PUSH2 0x1B79 JUMPI JUMP JUMPDEST PUSH4 0x4E487B71 PUSH1 0xE0 SHL PUSH1 0x0 MSTORE PUSH1 0x1 PUSH1 0x4 MSTORE PUSH1 0x24 PUSH1 0x0 REVERT JUMPDEST ISZERO PUSH2 0x1B96 JUMPI JUMP JUMPDEST PUSH1 0x40 MLOAD PUSH3 0x461BCD PUSH1 0xE5 SHL DUP2 MSTORE PUSH1 0x20 PUSH1 0x4 DUP3 ADD MSTORE PUSH1 0x24 DUP1 DUP3 ADD MSTORE PUSH32 0x44657753776170526F757465723A20494E53554646494349454E545F415F414D PUSH1 0x44 DUP3 ADD MSTORE PUSH4 0x13D55395 PUSH1 0xE2 SHL PUSH1 0x64 DUP3 ADD MSTORE PUSH1 0x84 SWAP1 REVERT JUMPDEST ISZERO PUSH2 0x1BEE JUMPI JUMP JUMPDEST PUSH1 0x40 MLOAD PUSH3 0x461BCD PUSH1 0xE5 SHL DUP2 MSTORE PUSH1 0x20 PUSH1 0x4 DUP3 ADD MSTORE PUSH1 0x24 DUP1 DUP3 ADD MSTORE PUSH32 0x44657753776170526F757465723A20494E53554646494349454E545F425F414D PUSH1 0x44 DUP3 ADD MSTORE PUSH4 0x13D55395 PUSH1 0xE2 SHL PUSH1 0x64 DUP3 ADD MSTORE PUSH1 0x84 SWAP1 REVERT JUMPDEST RETURNDATASIZE ISZERO PUSH2 0x1C7A JUMPI RETURNDATASIZE SWAP1 PUSH8 0xFFFFFFFFFFFFFFFF DUP3 GT PUSH2 0x187A JUMPI PUSH1 0x40 MLOAD SWAP2 PUSH2 0x1C6E PUSH1 0x1F DUP3 ADD PUSH1 0x1F NOT AND PUSH1 0x20 ADD DUP5 PUSH2 0x1858 JUMP JUMPDEST DUP3 MSTORE RETURNDATASIZE PUSH1 0x0 PUSH1 0x20 DUP5 ADD RETURNDATACOPY JUMP JUMPDEST PUSH1 0x60 SWAP1 JUMP JUMPDEST PUSH1 0x0 DUP1 SWAP2 PUSH1 0x20 SWAP4 PUSH1 0x40 MLOAD SWAP1 PUSH2 0x1C94 DUP7 DUP4 PUSH2 0x1858 JUMP JUMPDEST DUP4 DUP3 MSTORE DUP6 DUP3 ADD SWAP2 PUSH1 0x1F NOT DUP8 ADD CALLDATASIZE DUP5 CALLDATACOPY MLOAD SWAP3 GAS CALL PUSH2 0x1CAF PUSH2 0x1C3F JUMP JUMPDEST POP ISZERO PUSH2 0x1CB8 JUMPI POP JUMP JUMPDEST PUSH1 0x84 SWAP1 PUSH1 0x40 MLOAD SWAP1 PUSH3 0x461BCD PUSH1 0xE5 SHL DUP3 MSTORE PUSH1 0x4 DUP3 ADD MSTORE PUSH1 0x23 PUSH1 0x24 DUP3 ADD MSTORE PUSH32 0x5472616E7366657248656C7065723A204554485F5452414E534645525F464149 PUSH1 0x44 DUP3 ADD MSTORE PUSH3 0x131151 PUSH1 0xEA SHL PUSH1 0x64 DUP3 ADD MSTORE REVERT JUMPDEST ISZERO PUSH2 0x1D0F JUMPI JUMP JUMPDEST PUSH1 0x40 MLOAD PUSH3 0x461BCD PUSH1 0xE5 SHL DUP2 MSTORE PUSH1 0x20 PUSH1 0x4 DUP3 ADD MSTORE PUSH1 0x26 PUSH1 0x24 DUP3 ADD MSTORE PUSH32 0x446577537761704C6962726172793A20494E53554646494349454E545F4C4951 PUSH1 0x44 DUP3 ADD MSTORE PUSH6 0x554944495459 PUSH1 0xD0 SHL PUSH1 0x64 DUP3 ADD MSTORE PUSH1 0x84 SWAP1 REVERT JUMPDEST DUP2 ISZERO PUSH2 0x1D6D JUMPI DIV SWAP1 JUMP JUMPDEST PUSH4 0x4E487B71 PUSH1 0xE0 SHL PUSH1 0x0 MSTORE PUSH1 0x12 PUSH1 0x4 MSTORE PUSH1 0x24 PUSH1 0x0 REVERT JUMPDEST SWAP2 SWAP1 SWAP2 DUP1 ISZERO PUSH2 0x1E19 JUMPI PUSH2 0x1DB4 PUSH2 0x1DAD PUSH2 0x1DBA SWAP3 DUP6 ISZERO ISZERO DUP1 PUSH2 0x1E10 JUMPI JUMPDEST PUSH2 0x1DA8 SWAP1 PUSH2 0x1D08 JUMP JUMPDEST PUSH2 0x27D1 JUMP JUMPDEST SWAP3 DUP4 PUSH2 0x2859 JUMP JUMPDEST SWAP3 PUSH2 0x2833 JUMP JUMPDEST SWAP1 DUP2 ADD SWAP1 DUP2 DUP2 GT PUSH2 0x19E5 JUMPI DUP2 LT PUSH2 0x1DD4 JUMPI PUSH2 0x1944 SWAP2 PUSH2 0x1D63 JUMP JUMPDEST PUSH1 0x40 MLOAD PUSH3 0x461BCD PUSH1 0xE5 SHL DUP2 MSTORE PUSH1 0x20 PUSH1 0x4 DUP3 ADD MSTORE PUSH1 0x14 PUSH1 0x24 DUP3 ADD MSTORE PUSH20 0x64732D6D6174682D6164642D6F766572666C6F77 PUSH1 0x60 SHL PUSH1 0x44 DUP3 ADD MSTORE PUSH1 0x64 SWAP1 REVERT JUMPDEST POP DUP5 ISZERO ISZERO PUSH2 0x1D9F JUMP JUMPDEST PUSH1 0x40 MLOAD PUSH3 0x461BCD PUSH1 0xE5 SHL DUP2 MSTORE PUSH1 0x20 PUSH1 0x4 DUP3 ADD MSTORE PUSH1 0x29 PUSH1 0x24 DUP3 ADD MSTORE PUSH32 0x446577537761704C6962726172793A20494E53554646494349454E545F494E50 PUSH1 0x44 DUP3 ADD MSTORE PUSH9 0x155517D05353D55395 PUSH1 0xBA SHL PUSH1 0x64 DUP3 ADD MSTORE PUSH1 0x84 SWAP1 REVERT JUMPDEST ISZERO PUSH2 0x1E77 JUMPI JUMP JUMPDEST PUSH1 0x40 MLOAD PUSH3 0x461BCD PUSH1 0xE5 SHL DUP2 MSTORE PUSH1 0x20 PUSH1 0x4 DUP3 ADD MSTORE PUSH1 0x1C PUSH1 0x24 DUP3 ADD MSTORE PUSH32 0x446577537761704C6962726172793A20494E56414C49445F5041544800000000 PUSH1 0x44 DUP3 ADD MSTORE PUSH1 0x64 SWAP1 REVERT JUMPDEST SWAP1 PUSH2 0x1EC6 DUP3 PUSH2 0x1890 JUMP JUMPDEST PUSH2 0x1ED3 PUSH1 0x40 MLOAD SWAP2 DUP3 PUSH2 0x1858 JUMP JUMPDEST DUP3 DUP2 MSTORE DUP1 SWAP3 PUSH2 0x1EE4 PUSH1 0x1F NOT SWAP2 PUSH2 0x1890 JUMP JUMPDEST ADD SWAP1 PUSH1 0x20 CALLDATASIZE SWAP2 ADD CALLDATACOPY JUMP JUMPDEST SWAP3 SWAP2 SWAP3 PUSH2 0x1EFF PUSH1 0x2 DUP6 MLOAD LT ISZERO PUSH2 0x1E70 JUMP JUMPDEST PUSH2 0x1F09 DUP5 MLOAD PUSH2 0x1EBC JUMP JUMPDEST SWAP2 PUSH2 0x1F13 DUP4 PUSH2 0x1A81 JUMP JUMPDEST MSTORE PUSH1 0x0 JUMPDEST DUP5 MLOAD PUSH1 0x0 NOT DUP2 ADD SWAP1 DUP2 GT PUSH2 0x19E5 JUMPI DUP2 LT ISZERO PUSH2 0x1F95 JUMPI PUSH1 0x1 PUSH1 0x1 PUSH1 0xA0 SHL SUB PUSH2 0x1F3E DUP3 DUP8 PUSH2 0x1A8E JUMP JUMPDEST MLOAD AND SWAP1 PUSH1 0x1 DUP2 ADD DUP1 DUP3 GT PUSH2 0x19E5 JUMPI PUSH1 0x1 SWAP3 PUSH2 0x1F8E SWAP1 PUSH2 0x1F87 SWAP1 PUSH2 0x1F76 SWAP1 PUSH1 0x1 PUSH1 0x1 PUSH1 0xA0 SHL SUB PUSH2 0x1F6D DUP7 DUP14 PUSH2 0x1A8E JUMP JUMPDEST MLOAD AND SWAP1 DUP9 PUSH2 0x28AA JUMP JUMPDEST SWAP1 PUSH2 0x1F81 DUP7 DUP11 PUSH2 0x1A8E JUMP JUMPDEST MLOAD PUSH2 0x1D83 JUMP JUMPDEST SWAP2 DUP7 PUSH2 0x1A8E JUMP JUMPDEST MSTORE ADD PUSH2 0x1F17 JUMP JUMPDEST POP POP SWAP2 POP JUMP JUMPDEST SWAP2 PUSH2 0x1FA5 SWAP2 PUSH2 0x254B JUMP JUMPDEST PUSH1 0x40 MLOAD SWAP1 PUSH1 0x20 DUP3 ADD SWAP3 PUSH1 0x1 PUSH1 0x1 PUSH1 0x60 SHL SUB NOT SWAP1 PUSH1 0x60 SHL AND DUP4 MSTORE PUSH1 0x1 PUSH1 0x1 PUSH1 0x60 SHL SUB NOT SWAP1 PUSH1 0x60 SHL AND PUSH1 0x34 DUP3 ADD MSTORE PUSH1 0x28 DUP2 MSTORE PUSH2 0x1FE0 PUSH1 0x48 DUP3 PUSH2 0x1858 JUMP JUMPDEST MLOAD SWAP1 KECCAK256 SWAP1 PUSH1 0x40 MLOAD SWAP2 PUSH1 0x20 DUP4 ADD SWAP2 PUSH1 0xFF PUSH1 0xF8 SHL DUP4 MSTORE PUSH1 0x1 PUSH1 0x1 PUSH1 0x60 SHL SUB NOT SWAP1 PUSH1 0x60 SHL AND PUSH1 0x21 DUP5 ADD MSTORE PUSH1 0x35 DUP4 ADD MSTORE PUSH32 0xBBCA9AF0511AD1A1DA383135CF3A8D2AC620E549EF9F6AE3A4C33C2FED0EB0E PUSH1 0x55 DUP4 ADD MSTORE PUSH1 0x55 DUP3 MSTORE PUSH2 0x2041 PUSH1 0x75 DUP4 PUSH2 0x1858 JUMP JUMPDEST SWAP1 MLOAD SWAP1 KECCAK256 PUSH1 0x1 PUSH1 0x1 PUSH1 0xA0 SHL SUB AND SWAP1 JUMP JUMPDEST PUSH1 0x40 MLOAD PUSH4 0x23B872DD PUSH1 0xE0 SHL PUSH1 0x20 DUP3 ADD SWAP1 DUP2 MSTORE PUSH1 0x1 PUSH1 0x1 PUSH1 0xA0 SHL SUB SWAP4 DUP5 AND PUSH1 0x24 DUP4 ADD MSTORE SWAP4 SWAP1 SWAP3 AND PUSH1 0x44 DUP4 ADD MSTORE PUSH1 0x64 DUP3 ADD SWAP4 SWAP1 SWAP4 MSTORE PUSH1 0x0 SWAP3 DUP4 SWAP3 SWAP1 SWAP2 DUP4 SWAP1 PUSH2 0x209A DUP2 PUSH1 0x84 DUP2 ADD PUSH2 0x8FC JUMP JUMPDEST MLOAD SWAP3 GAS CALL PUSH2 0x20A6 PUSH2 0x1C3F JUMP JUMPDEST DUP2 PUSH2 0x2105 JUMPI JUMPDEST POP ISZERO PUSH2 0x20B4 JUMPI JUMP JUMPDEST PUSH1 0x40 MLOAD PUSH3 0x461BCD PUSH1 0xE5 SHL DUP2 MSTORE PUSH1 0x20 PUSH1 0x4 DUP3 ADD MSTORE PUSH1 0x24 DUP1 DUP3 ADD MSTORE PUSH32 0x5472616E7366657248656C7065723A205452414E534645525F46524F4D5F4641 PUSH1 0x44 DUP3 ADD MSTORE PUSH4 0x12531151 PUSH1 0xE2 SHL PUSH1 0x64 DUP3 ADD MSTORE PUSH1 0x84 SWAP1 REVERT JUMPDEST DUP1 MLOAD DUP1 ISZERO SWAP3 POP DUP3 ISZERO PUSH2 0x211A JUMPI JUMPDEST POP POP CODESIZE PUSH2 0x20AC JUMP JUMPDEST PUSH2 0x212D SWAP3 POP PUSH1 0x20 DUP1 SWAP2 DUP4 ADD ADD SWAP2 ADD PUSH2 0x1B5A JUMP JUMPDEST CODESIZE DUP1 PUSH2 0x2112 JUMP JUMPDEST SWAP3 SWAP2 PUSH1 0x0 PUSH1 0x20 PUSH32 0x0 DUP3 JUMPDEST DUP6 MLOAD PUSH1 0x0 NOT DUP2 ADD SWAP1 DUP2 GT PUSH2 0x19E5 JUMPI DUP2 LT ISZERO PUSH2 0x2310 JUMPI PUSH1 0x1 PUSH1 0x1 PUSH1 0xA0 SHL SUB PUSH2 0x2184 DUP3 DUP9 PUSH2 0x1A8E JUMP JUMPDEST MLOAD AND PUSH1 0x1 DUP3 ADD DUP1 DUP4 GT PUSH2 0x19E5 JUMPI PUSH1 0x1 PUSH1 0x1 PUSH1 0xA0 SHL SUB PUSH2 0x21A3 DUP3 DUP11 PUSH2 0x1A8E JUMP JUMPDEST MLOAD AND PUSH2 0x21AF DUP2 DUP5 PUSH2 0x254B JUMP JUMPDEST POP SWAP3 PUSH2 0x21BD PUSH1 0x0 SWAP4 DUP14 PUSH2 0x1A8E JUMP JUMPDEST MLOAD SWAP4 PUSH1 0x1 PUSH1 0x1 PUSH1 0xA0 SHL SUB AND DUP2 SUB PUSH2 0x2309 JUMPI DUP3 SWAP4 SWAP1 JUMPDEST DUP11 MLOAD PUSH1 0x1 NOT DUP2 ADD SWAP1 DUP2 GT PUSH2 0x1158 JUMPI DUP7 LT ISZERO PUSH2 0x22FF JUMPI PUSH1 0x2 DUP7 ADD DUP1 DUP8 GT PUSH2 0x1158 JUMPI PUSH2 0x2227 SWAP1 PUSH2 0x2216 SWAP1 PUSH1 0x1 PUSH1 0x1 PUSH1 0xA0 SHL SUB SWAP1 PUSH2 0x220D SWAP1 DUP16 PUSH2 0x1A8E JUMP JUMPDEST MLOAD AND DUP6 DUP11 PUSH2 0x1F9B JUMP JUMPDEST SWAP4 JUMPDEST PUSH1 0x1 PUSH1 0x1 PUSH1 0xA0 SHL SUB SWAP3 DUP10 PUSH2 0x1F9B JUMP JUMPDEST AND SWAP2 PUSH1 0x40 MLOAD SWAP2 PUSH2 0x2237 DUP10 DUP5 PUSH2 0x1858 JUMP JUMPDEST DUP5 DUP4 MSTORE DUP10 CALLDATASIZE DUP11 DUP6 ADD CALLDATACOPY DUP4 EXTCODESIZE ISZERO PUSH2 0xA95 JUMPI PUSH1 0x40 MLOAD PUSH4 0x22C0D9F PUSH1 0xE0 SHL DUP2 MSTORE PUSH1 0x4 DUP2 ADD SWAP7 SWAP1 SWAP7 MSTORE PUSH1 0x24 DUP7 ADD MSTORE PUSH1 0x1 PUSH1 0x1 PUSH1 0xA0 SHL SUB AND PUSH1 0x44 DUP6 ADD MSTORE PUSH1 0x80 PUSH1 0x64 DUP6 ADD MSTORE DUP1 MLOAD PUSH1 0x84 DUP6 ADD DUP2 SWAP1 MSTORE DUP4 SWAP3 DUP6 SWAP3 SWAP1 SWAP2 SWAP1 DUP10 DUP6 JUMPDEST DUP4 DUP2 LT PUSH2 0x22E4 JUMPI POP POP POP DUP4 PUSH1 0xA4 DUP5 DUP4 DUP4 DUP4 DUP4 SWAP7 DUP5 ADD ADD MSTORE PUSH1 0x1F DUP1 NOT SWAP2 ADD AND DUP2 ADD SUB ADD SWAP3 GAS CALL DUP1 ISZERO PUSH2 0x22D7 JUMPI SWAP1 PUSH1 0x1 SWAP4 SWAP3 SWAP2 PUSH2 0x22C7 JUMPI JUMPDEST POP POP ADD PUSH2 0x215D JUMP JUMPDEST PUSH2 0x22D0 SWAP2 PUSH2 0x1858 JUMP JUMPDEST CODESIZE DUP1 PUSH2 0x22BF JUMP JUMPDEST POP PUSH1 0x40 MLOAD SWAP1 RETURNDATASIZE SWAP1 DUP3 RETURNDATACOPY RETURNDATASIZE SWAP1 REVERT JUMPDEST DUP1 DUP4 ADD DUP3 ADD MLOAD DUP10 DUP3 ADD PUSH1 0xA4 ADD MSTORE DUP8 SWAP7 POP DUP9 SWAP6 POP DUP12 SWAP2 ADD PUSH2 0x2289 JUMP JUMPDEST PUSH2 0x2227 DUP11 SWAP4 PUSH2 0x2218 JUMP JUMPDEST DUP3 SWAP1 PUSH2 0x21D2 JUMP JUMPDEST POP POP POP POP POP POP SWAP1 POP JUMP JUMPDEST SWAP1 SWAP3 SWAP2 PUSH2 0x232B PUSH1 0x2 DUP3 MLOAD LT ISZERO PUSH2 0x1E70 JUMP JUMPDEST PUSH2 0x2335 DUP2 MLOAD PUSH2 0x1EBC JUMP JUMPDEST SWAP4 DUP5 MLOAD PUSH1 0x0 NOT DUP2 ADD SWAP1 DUP2 GT PUSH2 0x19E5 JUMPI PUSH2 0x234E SWAP1 DUP7 PUSH2 0x1A8E JUMP JUMPDEST MSTORE DUP1 MLOAD PUSH1 0x0 NOT DUP2 ADD SWAP1 DUP2 GT PUSH2 0x19E5 JUMPI DUP1 JUMPDEST PUSH2 0x2368 JUMPI POP POP POP JUMP JUMPDEST PUSH1 0x0 NOT DUP2 ADD DUP2 DUP2 GT PUSH2 0x19E5 JUMPI PUSH2 0x23BB PUSH2 0x23B4 PUSH2 0x23A3 PUSH1 0x1 PUSH1 0x1 PUSH1 0xA0 SHL SUB PUSH2 0x238F DUP6 DUP9 PUSH2 0x1A8E JUMP JUMPDEST MLOAD AND PUSH1 0x1 PUSH1 0x1 PUSH1 0xA0 SHL SUB PUSH2 0x1F6D DUP8 DUP10 PUSH2 0x1A8E JUMP JUMPDEST SWAP1 PUSH2 0x23AE DUP7 DUP12 PUSH2 0x1A8E JUMP JUMPDEST MLOAD PUSH2 0x23CC JUMP JUMPDEST SWAP2 DUP8 PUSH2 0x1A8E JUMP JUMPDEST MSTORE DUP1 ISZERO PUSH2 0x19E5 JUMPI PUSH1 0x0 NOT ADD DUP1 PUSH2 0x235F JUMP JUMPDEST SWAP1 DUP2 ISZERO PUSH2 0x2475 JUMPI PUSH2 0x23FA PUSH2 0x23F5 DUP4 DUP4 PUSH2 0x2401 SWAP5 ISZERO ISZERO DUP1 PUSH2 0x246C JUMPI JUMPDEST PUSH2 0x23F0 SWAP1 PUSH2 0x1D08 JUMP JUMPDEST PUSH2 0x2859 JUMP JUMPDEST PUSH2 0x2833 JUMP JUMPDEST SWAP2 DUP4 PUSH2 0x19D8 JUMP JUMPDEST SWAP2 DUP3 GT PUSH2 0x242F JUMPI PUSH2 0x2414 PUSH2 0x241A SWAP3 PUSH2 0x27D1 JUMP JUMPDEST SWAP1 PUSH2 0x1D63 JUMP JUMPDEST PUSH1 0x1 DUP2 ADD SWAP1 DUP2 DUP2 GT PUSH2 0x19E5 JUMPI DUP2 LT PUSH2 0x1DD4 JUMPI SWAP1 JUMP JUMPDEST PUSH1 0x40 MLOAD PUSH3 0x461BCD PUSH1 0xE5 SHL DUP2 MSTORE PUSH1 0x20 PUSH1 0x4 DUP3 ADD MSTORE PUSH1 0x15 PUSH1 0x24 DUP3 ADD MSTORE PUSH21 0x64732D6D6174682D7375622D756E646572666C6F77 PUSH1 0x58 SHL PUSH1 0x44 DUP3 ADD MSTORE PUSH1 0x64 SWAP1 REVERT JUMPDEST POP DUP7 ISZERO ISZERO PUSH2 0x23E7 JUMP JUMPDEST PUSH1 0x40 MLOAD PUSH3 0x461BCD PUSH1 0xE5 SHL DUP2 MSTORE PUSH1 0x20 PUSH1 0x4 DUP3 ADD MSTORE PUSH1 0x2A PUSH1 0x24 DUP3 ADD MSTORE PUSH32 0x446577537761704C6962726172793A20494E53554646494349454E545F4F5554 PUSH1 0x44 DUP3 ADD MSTORE PUSH10 0x14155517D05353D55395 PUSH1 0xB2 SHL PUSH1 0x64 DUP3 ADD MSTORE PUSH1 0x84 SWAP1 REVERT JUMPDEST DUP1 ISZERO PUSH2 0x24FA JUMPI PUSH2 0x1944 SWAP3 PUSH2 0x24EC SWAP2 DUP4 ISZERO ISZERO DUP1 PUSH2 0x24F1 JUMPI PUSH2 0x23F0 SWAP1 PUSH2 0x1D08 JUMP JUMPDEST PUSH2 0x1D63 JUMP JUMPDEST POP DUP2 ISZERO ISZERO PUSH2 0x23E7 JUMP JUMPDEST PUSH1 0x40 MLOAD PUSH3 0x461BCD PUSH1 0xE5 SHL DUP2 MSTORE PUSH1 0x20 PUSH1 0x4 DUP3 ADD MSTORE PUSH1 0x23 PUSH1 0x24 DUP3 ADD MSTORE PUSH32 0x446577537761704C6962726172793A20494E53554646494349454E545F414D4F PUSH1 0x44 DUP3 ADD MSTORE PUSH3 0x155395 PUSH1 0xEA SHL PUSH1 0x64 DUP3 ADD MSTORE PUSH1 0x84 SWAP1 REVERT JUMPDEST SWAP1 SWAP2 SWAP1 PUSH1 0x1 PUSH1 0x1 PUSH1 0xA0 SHL SUB DUP1 DUP5 AND SWAP1 DUP3 AND DUP1 DUP3 EQ PUSH2 0x25C7 JUMPI LT ISZERO PUSH2 0x25C2 JUMPI SWAP2 JUMPDEST SWAP1 PUSH1 0x1 PUSH1 0x1 PUSH1 0xA0 SHL SUB DUP4 AND ISZERO PUSH2 0x257D JUMPI JUMP JUMPDEST PUSH1 0x40 MLOAD PUSH3 0x461BCD PUSH1 0xE5 SHL DUP2 MSTORE PUSH1 0x20 PUSH1 0x4 DUP3 ADD MSTORE PUSH1 0x1C PUSH1 0x24 DUP3 ADD MSTORE PUSH32 0x446577537761704C6962726172793A205A45524F5F4144445245535300000000 PUSH1 0x44 DUP3 ADD MSTORE PUSH1 0x64 SWAP1 REVERT JUMPDEST PUSH2 0x256B JUMP JUMPDEST PUSH1 0x40 MLOAD PUSH3 0x461BCD PUSH1 0xE5 SHL DUP2 MSTORE PUSH1 0x20 PUSH1 0x4 DUP3 ADD MSTORE PUSH1 0x23 PUSH1 0x24 DUP3 ADD MSTORE PUSH32 0x446577537761704C6962726172793A204944454E544943414C5F414444524553 PUSH1 0x44 DUP3 ADD MSTORE PUSH3 0x534553 PUSH1 0xE8 SHL PUSH1 0x64 DUP3 ADD MSTORE PUSH1 0x84 SWAP1 REVERT JUMPDEST SWAP1 DUP2 PUSH1 0x20 SWAP2 SUB SLT PUSH2 0x525 JUMPI MLOAD PUSH1 0x1 PUSH1 0x1 PUSH1 0xA0 SHL SUB DUP2 AND DUP2 SUB PUSH2 0x525 JUMPI SWAP1 JUMP JUMPDEST PUSH1 0x40 MLOAD PUSH4 0xE6A43905 PUSH1 0xE0 SHL DUP2 MSTORE PUSH1 0x1 PUSH1 0x1 PUSH1 0xA0 SHL SUB DUP3 DUP2 AND PUSH1 0x4 DUP4 ADD MSTORE DUP4 DUP2 AND PUSH1 0x24 DUP4 ADD MSTORE SWAP4 SWAP7 SWAP5 SWAP6 SWAP5 SWAP4 PUSH32 0x0 SWAP1 DUP2 AND SWAP4 SWAP3 SWAP2 PUSH1 0x20 DUP2 PUSH1 0x44 DUP2 DUP9 GAS STATICCALL SWAP1 DUP2 ISZERO PUSH2 0x27A6 JUMPI PUSH1 0x0 SWAP2 PUSH2 0x27B2 JUMPI JUMPDEST POP PUSH1 0x1 PUSH1 0x1 PUSH1 0xA0 SHL SUB AND ISZERO PUSH2 0x272D JUMPI JUMPDEST PUSH2 0x26BB SWAP4 POP PUSH2 0x28AA JUMP JUMPDEST SWAP3 SWAP1 DUP1 ISZERO DUP1 PUSH2 0x2725 JUMPI JUMPDEST ISZERO PUSH2 0x26D2 JUMPI POP POP POP POP SWAP1 SWAP2 JUMP JUMPDEST PUSH2 0x26E1 DUP5 DUP3 DUP9 SWAP8 SWAP6 SWAP7 SWAP8 PUSH2 0x24CD JUMP JUMPDEST SWAP5 DUP4 DUP7 GT PUSH2 0x26FD JUMPI POP POP POP POP PUSH2 0x26F9 SWAP1 DUP3 LT ISZERO PUSH2 0x1BE7 JUMP JUMPDEST SWAP1 SWAP2 JUMP JUMPDEST DUP4 SWAP6 POP PUSH2 0x26F9 SWAP5 POP SWAP1 PUSH2 0x2714 SWAP2 PUSH2 0x271D SWAP4 SWAP5 PUSH2 0x24CD JUMP JUMPDEST SWAP5 DUP6 GT ISZERO PUSH2 0x1B72 JUMP JUMPDEST DUP4 LT ISZERO PUSH2 0x1B8F JUMP JUMPDEST POP DUP4 ISZERO PUSH2 0x26C5 JUMP JUMPDEST PUSH1 0x40 MLOAD PUSH4 0x64E329CB PUSH1 0xE1 SHL DUP2 MSTORE PUSH1 0x1 PUSH1 0x1 PUSH1 0xA0 SHL SUB DUP4 DUP2 AND PUSH1 0x4 DUP4 ADD MSTORE DUP5 AND PUSH1 0x24 DUP3 ADD MSTORE SWAP4 PUSH1 0x20 SWAP1 DUP6 SWAP1 PUSH1 0x44 SWAP1 DUP3 SWAP1 PUSH1 0x0 SWAP1 GAS CALL SWAP4 DUP5 ISZERO PUSH2 0x27A6 JUMPI PUSH2 0x26BB SWAP5 PUSH2 0x2777 JUMPI JUMPDEST POP PUSH2 0x26B1 JUMP JUMPDEST PUSH2 0x2798 SWAP1 PUSH1 0x20 RETURNDATASIZE PUSH1 0x20 GT PUSH2 0x279F JUMPI JUMPDEST PUSH2 0x2790 DUP2 DUP4 PUSH2 0x1858 JUMP JUMPDEST DUP2 ADD SWAP1 PUSH2 0x2618 JUMP JUMPDEST POP CODESIZE PUSH2 0x2771 JUMP JUMPDEST POP RETURNDATASIZE PUSH2 0x2786 JUMP JUMPDEST PUSH1 0x40 MLOAD RETURNDATASIZE PUSH1 0x0 DUP3 RETURNDATACOPY RETURNDATASIZE SWAP1 REVERT JUMPDEST PUSH2 0x27CB SWAP2 POP PUSH1 0x20 RETURNDATASIZE PUSH1 0x20 GT PUSH2 0x279F JUMPI PUSH2 0x2790 DUP2 DUP4 PUSH2 0x1858 JUMP JUMPDEST CODESIZE PUSH2 0x26A1 JUMP JUMPDEST SWAP1 PUSH1 0x0 SWAP2 PUSH2 0x3E5 DUP2 MUL DUP2 DUP2 DIV PUSH2 0x3E5 EQ DUP3 ISZERO OR ISZERO PUSH2 0x11D2 JUMPI SWAP3 POP PUSH2 0x3E5 DUP4 DIV SUB PUSH2 0x27F7 JUMPI JUMP JUMPDEST PUSH1 0x40 MLOAD PUSH3 0x461BCD PUSH1 0xE5 SHL DUP2 MSTORE PUSH1 0x20 PUSH1 0x4 DUP3 ADD MSTORE PUSH1 0x14 PUSH1 0x24 DUP3 ADD MSTORE PUSH20 0x64732D6D6174682D6D756C2D6F766572666C6F77 PUSH1 0x60 SHL PUSH1 0x44 DUP3 ADD MSTORE PUSH1 0x64 SWAP1 REVERT JUMPDEST SWAP1 PUSH1 0x0 SWAP2 PUSH2 0x3E8 DUP2 MUL DUP2 DUP2 DIV PUSH2 0x3E8 EQ DUP3 ISZERO OR ISZERO PUSH2 0x11D2 JUMPI SWAP3 POP PUSH2 0x3E8 DUP4 DIV SUB PUSH2 0x27F7 JUMPI JUMP JUMPDEST PUSH1 0x0 SWAP3 SWAP2 DUP1 ISZERO SWAP2 DUP3 ISZERO PUSH2 0x2870 JUMPI JUMPDEST POP POP ISZERO PUSH2 0x27F7 JUMPI JUMP JUMPDEST DUP1 DUP3 MUL SWAP5 POP SWAP2 POP DUP2 ISZERO DUP3 DUP6 DIV DUP3 EQ OR ISZERO PUSH2 0x19E5 JUMPI PUSH2 0x288E SWAP1 DUP5 PUSH2 0x1D63 JUMP JUMPDEST EQ CODESIZE DUP1 PUSH2 0x2867 JUMP JUMPDEST MLOAD SWAP1 PUSH1 0x1 PUSH1 0x1 PUSH1 0x70 SHL SUB DUP3 AND DUP3 SUB PUSH2 0x525 JUMPI JUMP JUMPDEST SWAP1 PUSH1 0x60 PUSH1 0x4 SWAP3 PUSH2 0x28CF PUSH2 0x28BD DUP7 DUP6 PUSH2 0x254B JUMP JUMPDEST POP SWAP6 PUSH1 0x1 PUSH1 0x1 PUSH1 0xA0 SHL SUB SWAP3 DUP6 SWAP1 PUSH2 0x1F9B JUMP JUMPDEST AND PUSH1 0x40 MLOAD SWAP4 DUP5 DUP1 SWAP3 PUSH4 0x240BC6B PUSH1 0xE2 SHL DUP3 MSTORE GAS STATICCALL SWAP2 DUP3 ISZERO PUSH2 0x27A6 JUMPI PUSH1 0x0 SWAP1 DUP2 SWAP4 PUSH2 0x2919 JUMPI JUMPDEST POP PUSH1 0x1 PUSH1 0x1 PUSH1 0x70 SHL SUB SWAP3 DUP4 AND SWAP4 SWAP3 AND SWAP2 PUSH1 0x1 PUSH1 0x1 PUSH1 0xA0 SHL SUB SWAP2 DUP3 AND SWAP2 AND SUB PUSH2 0x26F9 JUMPI SWAP2 JUMP JUMPDEST SWAP3 POP PUSH1 0x60 DUP4 RETURNDATASIZE PUSH1 0x60 GT PUSH2 0x2971 JUMPI JUMPDEST DUP2 PUSH2 0x2934 PUSH1 0x60 SWAP4 DUP4 PUSH2 0x1858 JUMP JUMPDEST DUP2 ADD SUB SLT PUSH2 0x6C3 JUMPI PUSH2 0x2945 DUP4 PUSH2 0x2896 JUMP JUMPDEST SWAP1 PUSH1 0x40 PUSH2 0x2954 PUSH1 0x20 DUP7 ADD PUSH2 0x2896 JUMP JUMPDEST SWAP5 ADD MLOAD PUSH4 0xFFFFFFFF DUP2 AND SUB PUSH2 0x6C3 JUMPI POP PUSH1 0x1 PUSH1 0x1 PUSH1 0x70 SHL SUB PUSH2 0x28F4 JUMP JUMPDEST RETURNDATASIZE SWAP2 POP PUSH2 0x2927 JUMP INVALID LOG2 PUSH5 0x6970667358 0x22 SLT KECCAK256 0x2F 0x1F 0xD8 SWAP11 CALL 0xBA DATALOADN 0x30E4 0xCA SUB 0xD2 RETURNCONTRACT 0xB7 0xA8 PUSH28 0xD025E3B716119BDDAD007ADEAA809C8864736F6C634300081E003300 "},"methodIdentifiers":{"WETH()":"ad5c4648","addLiquidity(address,address,uint256,uint256,uint256,uint256,address,uint256)":"e8e33700","addLiquidityETH(address,uint256,uint256,uint256,address,uint256)":"f305d719","factory()":"c45a0155","getAmountIn(uint256,uint256,uint256)":"85f8c259","getAmountOut(uint256,uint256,uint256)":"054d50d4","getAmountsIn(uint256,address[])":"1f00ca74","getAmountsOut(uint256,address[])":"d06ca61f","quote(uint256,uint256,uint256)":"ad615dec","removeLiquidity(address,address,uint256,uint256,uint256,address,uint256)":"baa2abde","removeLiquidityETH(address,uint256,uint256,uint256,address,uint256)":"02751cec","removeLiquidityETHWithPermit(address,uint256,uint256,uint256,address,uint256,bool,uint8,bytes32,bytes32)":"ded9382a","removeLiquidityWithPermit(address,address,uint256,uint256,uint256,address,uint256,bool,uint8,bytes32,bytes32)":"2195995c","swapETHForExactTokens(uint256,address[],address,uint256)":"fb3bdb41","swapExactETHForTokens(uint256,address[],address,uint256)":"7ff36ab5","swapExactTokensForETH(uint256,uint256,address[],address,uint256)":"18cbafe5","swapExactTokensForTokens(uint256,uint256,address[],address,uint256)":"38ed1739","swapTokensForExactETH(uint256,uint256,address[],address,uint256)":"4a25d94a","swapTokensForExactTokens(uint256,uint256,address[],address,uint256)":"8803dbee"}}}}}