{"contracts/DewFarm.sol":{"DewFarm":{"abi":[{"inputs":[{"internalType":"contract IERC20","name":"_dew","type":"address"},{"internalType":"uint256","name":"_dewPerBlock","type":"uint256"},{"internalType":"uint256","name":"_startBlock","type":"uint256"}],"stateMutability":"nonpayable","type":"constructor"},{"anonymous":false,"inputs":[{"indexed":true,"internalType":"address","name":"user","type":"address"},{"indexed":true,"internalType":"uint256","name":"pid","type":"uint256"},{"indexed":false,"internalType":"uint256","name":"amount","type":"uint256"}],"name":"Deposit","type":"event"},{"anonymous":false,"inputs":[{"indexed":true,"internalType":"address","name":"user","type":"address"},{"indexed":true,"internalType":"uint256","name":"pid","type":"uint256"},{"indexed":false,"internalType":"uint256","name":"amount","type":"uint256"}],"name":"EmergencyWithdraw","type":"event"},{"anonymous":false,"inputs":[{"indexed":true,"internalType":"address","name":"user","type":"address"},{"indexed":true,"internalType":"uint256","name":"pid","type":"uint256"},{"indexed":false,"internalType":"uint256","name":"amount","type":"uint256"}],"name":"Withdraw","type":"event"},{"inputs":[{"internalType":"uint256","name":"_allocPoint","type":"uint256"},{"internalType":"contract IERC20","name":"_lpToken","type":"address"},{"internalType":"bool","name":"_withUpdate","type":"bool"}],"name":"add","outputs":[],"stateMutability":"nonpayable","type":"function"},{"inputs":[{"internalType":"uint256","name":"_pid","type":"uint256"},{"internalType":"uint256","name":"_amount","type":"uint256"}],"name":"deposit","outputs":[],"stateMutability":"nonpayable","type":"function"},{"inputs":[],"name":"dew","outputs":[{"internalType":"contract IERC20","name":"","type":"address"}],"stateMutability":"view","type":"function"},{"inputs":[],"name":"dewPerBlock","outputs":[{"internalType":"uint256","name":"","type":"uint256"}],"stateMutability":"view","type":"function"},{"inputs":[{"internalType":"uint256","name":"_pid","type":"uint256"}],"name":"emergencyWithdraw","outputs":[],"stateMutability":"nonpayable","type":"function"},{"inputs":[{"internalType":"uint256","name":"_from","type":"uint256"},{"internalType":"uint256","name":"_to","type":"uint256"}],"name":"getMultiplier","outputs":[{"internalType":"uint256","name":"","type":"uint256"}],"stateMutability":"pure","type":"function"},{"inputs":[],"name":"massUpdatePools","outputs":[],"stateMutability":"nonpayable","type":"function"},{"inputs":[{"internalType":"uint256","name":"_pid","type":"uint256"},{"internalType":"address","name":"_user","type":"address"}],"name":"pendingDew","outputs":[{"internalType":"uint256","name":"","type":"uint256"}],"stateMutability":"view","type":"function"},{"inputs":[{"internalType":"uint256","name":"","type":"uint256"}],"name":"poolInfo","outputs":[{"internalType":"contract IERC20","name":"lpToken","type":"address"},{"internalType":"uint256","name":"allocPoint","type":"uint256"},{"internalType":"uint256","name":"lastRewardBlock","type":"uint256"},{"internalType":"uint256","name":"accDewPerShare","type":"uint256"}],"stateMutability":"view","type":"function"},{"inputs":[],"name":"poolLength","outputs":[{"internalType":"uint256","name":"","type":"uint256"}],"stateMutability":"view","type":"function"},{"inputs":[{"internalType":"uint256","name":"_pid","type":"uint256"},{"internalType":"uint256","name":"_allocPoint","type":"uint256"},{"internalType":"bool","name":"_withUpdate","type":"bool"}],"name":"set","outputs":[],"stateMutability":"nonpayable","type":"function"},{"inputs":[],"name":"startBlock","outputs":[{"internalType":"uint256","name":"","type":"uint256"}],"stateMutability":"view","type":"function"},{"inputs":[],"name":"totalAllocPoint","outputs":[{"internalType":"uint256","name":"","type":"uint256"}],"stateMutability":"view","type":"function"},{"inputs":[{"internalType":"uint256","name":"_pid","type":"uint256"}],"name":"updatePool","outputs":[],"stateMutability":"nonpayable","type":"function"},{"inputs":[{"internalType":"uint256","name":"","type":"uint256"},{"internalType":"address","name":"","type":"address"}],"name":"userInfo","outputs":[{"internalType":"uint256","name":"amount","type":"uint256"},{"internalType":"uint256","name":"rewardDebt","type":"uint256"}],"stateMutability":"view","type":"function"},{"inputs":[{"internalType":"uint256","name":"_pid","type":"uint256"},{"internalType":"uint256","name":"_amount","type":"uint256"}],"name":"withdraw","outputs":[],"stateMutability":"nonpayable","type":"function"}],"evm":{"bytecode":{"linkReferences":{},"object":"608034608457601f61107a38819003918201601f19168301916001600160401b0383118484101760895780849260609460405283398101031260845780516001600160a01b03811691908290036084576040602082015191015191600060045560018060a01b03196000541617600055600155600555604051610fda90816100a08239f35b600080fd5b634e487b7160e01b600052604160045260246000fdfe608080604052600436101561001357600080fd5b60003560e01c908163081e3eda14610a7a575080631526fe2714610a1d57806317caf6f1146109ff5780631eaaa045146108d55780632318274414610725578063441a3e701461053d57806348cd4cb11461051f57806351eb05a6146105035780635312ea8e14610436578063630b5ba11461041b57806364482f79146103ad5780638dbb1e3a1461035457806393f1a40b14610310578063a76a09a7146102e7578063e2bbb158146100f25763fd298599146100cf57600080fd5b346100ed5760003660031901126100ed576020600154604051908152f35b600080fd5b346100ed5761010036610b19565b61010982610a95565b50600083815260036020908152604080832033845290915290209061012d84610b69565b815480610250575b50826101ac575b64e8d4a510006101556001926003855491015490610d8d565b600080516020610f858339815191526020604051610174604082610b2f565b601a81520152049101556040519081527f90890809c654f11d6e72a28fa60149770a0d11ec6c92319d6ceb2bb0a4ea1a1560203392a3005b80546040516323b872dd60e01b81523360048201523060248201526044810185905290602090829060649082906000906001600160a01b03165af180156102445760019264e8d4a510009261015592610217575b5061020c868654610c74565b85559250505061013c565b6102389060203d60201161023d575b6102308183610b2f565b810190610b51565b610200565b503d610226565b6040513d6000823e3d90fd5b64e8d4a510006102686102d192600385015490610d8d565b600080516020610f858339815191526020604051610287604082610b2f565b601a81520152046001840154604051916102a2604084610b2f565b601e83527f536166654d6174683a207375627472616374696f6e206f766572666c6f7700006020840152610f6a565b8015610135576102e19033610df0565b84610135565b346100ed5760003660031901126100ed576000546040516001600160a01b039091168152602090f35b346100ed5761031e36610af3565b90600052600360205260406000209060018060a01b03166000526020526040806000206001815491015482519182526020820152f35b346100ed5760206103a561036736610b19565b9060405191610377604084610b2f565b601e83527f536166654d6174683a207375627472616374696f6e206f766572666c6f77000085840152610f6a565b604051908152f35b346100ed5760603660031901126100ed5760243560016104096004356103d1610ae4565b61040e575b610401846103fc600454866103ea86610a95565b500154604051916102a2604084610b2f565b610c74565b600455610a95565b500155005b610416610c51565b6103d6565b346100ed5760003660031901126100ed57610434610c51565b005b346100ed5760203660031901126100ed5760043561045381610a95565b50600082815260036020908152604080832033808552908352818420805485825560019091018590559454915163a9059cbb60e01b815260048101919091526024810185905292839160449183916001600160a01b03165af18015610244576104e6575b506040519081527fbb757047c2b5f3974fe26b7c10f732e7bce710b0952a71082702781e62ae059560203392a3005b6104fe9060203d60201161023d576102308183610b2f565b6104b7565b346100ed5760203660031901126100ed57610434600435610b69565b346100ed5760003660031901126100ed576020600554604051908152f35b346100ed5761054b36610b19565b61055482610a95565b5060008381526003602090815260408083203384529091529020805483116106eb5761057f84610b69565b80549064e8d4a510006105986003850193845490610d8d565b600080516020610f8583398151915260206040516105b7604082610b2f565b601a8152015204926105d860018301948554604051916102a2604084610b2f565b806106db575b5084610650575b5064e8d4a51000916105fa9154905490610d8d565b600080516020610f858339815191526020604051610619604082610b2f565b601a815201520490556040519081527ff279e6a1f5e320cca91135676d9cb6e44ca8a08c0b88342bcdb1144f6511b56860203392a3005b610665825486604051916102a2604084610b2f565b82555460405163a9059cbb60e01b8152336004820152602481018690529290602090849060449082906000906001600160a01b03165af19182156102445764e8d4a51000936105fa936106bc575b509150916105e5565b6106d49060203d60201161023d576102308183610b2f565b50876106b3565b6106e59033610df0565b866105de565b60405162461bcd60e51b81526020600482015260126024820152711dda5d1a191c985dce881b9bdd0819dbdbd960721b6044820152606490fd5b346100ed5761073336610af3565b61073c82610a95565b5091600052600360205260406000209060018060a01b03166000526020526040600020906024600382015491602060018060a01b03825416604051938480926370a0823160e01b82523060048301525afa91821561024457600092610899575b5064e8d4a510006107ce6103a59460209694846002600196015480431180610890575b610805575b5050508454610d8d565b600080516020610f85833981519152866040516107ec604082610b2f565b601a815201520491015460405191610377604084610b2f565b9161087d61087861086f610882948a61086661085e6108889a996040519061082e604083610b2f565b601e82527f536166654d6174683a207375627472616374696f6e206f766572666c6f770000602083015243610f6a565b825490610d8d565b91015490610d8d565b60045490610db2565b610d03565b610db2565b90610c74565b8780806107c4565b508215156107bf565b90916020823d6020116108cd575b816108b460209383610b2f565b810103126108ca5750519064e8d4a5100061079c565b80fd5b3d91506108a7565b346100ed5760603660031901126100ed576004356024356001600160a01b038116908190036100ed57610906610ae4565b6109f2575b6005548043116000146109ed5750435b61092783600454610c74565b600455604051916080830183811067ffffffffffffffff8211176109d75760405282526020820192835260408201908152606082019060008252600254680100000000000000008110156109d7578060016109859201600255610a95565b9490946109c157925184546001600160a01b0319166001600160a01b039190911617845591516001840155905160028301555160039190910155005b634e487b7160e01b600052600060045260246000fd5b634e487b7160e01b600052604160045260246000fd5b61091b565b6109fa610c51565b61090b565b346100ed5760003660031901126100ed576020600454604051908152f35b346100ed5760203660031901126100ed576004356002548110156100ed57610a46608091610a95565b5060018060a01b03815416906001810154906003600282015491015491604051938452602084015260408301526060820152f35b346100ed5760003660031901126100ed576020906002548152f35b600254811015610ace576002600081815291901b7f405787fa12a823e0f2b7631cc41b3ba8828b3321ca811111fa75cd3aa3bb5ace0191565b634e487b7160e01b600052603260045260246000fd5b6044359081151582036100ed57565b60409060031901126100ed57600435906024356001600160a01b03811681036100ed5790565b60409060031901126100ed576004359060243590565b90601f8019910116810190811067ffffffffffffffff8211176109d757604052565b908160209103126100ed575180151581036100ed5790565b610b7290610a95565b5060028101908154431115610c4d5780546040516370a0823160e01b81523060048201529190602090839060249082906001600160a01b03165afa91821561024457600092610c19575b508115610c1257610c0b906108826003610bfd61086f610bf2610be989546040519061082e604083610b2f565b60015490610d8d565b600186015490610d8d565b92019361087d855493610d03565b9055439055565b5050439055565b90916020823d602011610c45575b81610c3460209383610b2f565b810103126108ca5750519038610bbc565b3d9150610c27565b5050565b60025460005b818110610c62575050565b80610c6e600192610b69565b01610c57565b90810190818111610ccd578110610c885790565b60405162461bcd60e51b815260206004820152601b60248201527f536166654d6174683a206164646974696f6e206f766572666c6f7700000000006044820152606490fd5b634e487b7160e01b600052601160045260246000fd5b8115610ced570490565b634e487b7160e01b600052601260045260246000fd5b8015610d875764e8d4a5100081029080820464e8d4a5100003610ccd57610d3064e8d4a510009183610ce3565b03610d385790565b60405162461bcd60e51b815260206004820152602160248201527f536166654d6174683a206d756c7469706c69636174696f6e206f766572666c6f6044820152607760f81b6064820152608490fd5b50600090565b908115610dab57808202918083048203610ccd57610d309083610ce3565b5050600090565b90610ded91610de8604051610dc8604082610b2f565b601a8152600080516020610f858339815191526020820152831515610f07565b610ce3565b90565b6000546040516370a0823160e01b815230600482015292906001600160a01b0316602084602481845afa93841561024457600094610ed3575b5083821115610e995750506000805460405163a9059cbb60e01b81526001600160a01b03938416600482015260248101949094526020928492911690829081604481015b03925af1801561024457610e7e5750565b610e969060203d60201161023d576102308183610b2f565b50565b60405163a9059cbb60e01b81526001600160a01b039093166004840152602483019190915290915060209082908160008160448101610e6d565b90936020823d602011610eff575b81610eee60209383610b2f565b810103126108ca5750519238610e29565b3d9150610ee1565b15610f0f5750565b6040519062461bcd60e51b8252602060048301528181519182602483015260005b838110610f525750508160006044809484010152601f80199101168101030190fd5b60208282018101516044878401015285935001610f30565b91610f789083831115610f07565b8103908111610ccd579056fe536166654d6174683a206469766973696f6e206279207a65726f000000000000a2646970667358221220b7b8dcb76930ec2341514b718e99ed38697ced346d0c85ae8f375dd347d55b1964736f6c634300081e0033","opcodes":"PUSH1 0x80 CALLVALUE PUSH1 0x84 JUMPI PUSH1 0x1F PUSH2 0x107A CODESIZE DUP2 SWAP1 SUB SWAP2 DUP3 ADD PUSH1 0x1F NOT AND DUP4 ADD SWAP2 PUSH1 0x1 PUSH1 0x1 PUSH1 0x40 SHL SUB DUP4 GT DUP5 DUP5 LT OR PUSH1 0x89 JUMPI DUP1 DUP5 SWAP3 PUSH1 0x60 SWAP5 PUSH1 0x40 MSTORE DUP4 CODECOPY DUP2 ADD SUB SLT PUSH1 0x84 JUMPI DUP1 MLOAD PUSH1 0x1 PUSH1 0x1 PUSH1 0xA0 SHL SUB DUP2 AND SWAP2 SWAP1 DUP3 SWAP1 SUB PUSH1 0x84 JUMPI PUSH1 0x40 PUSH1 0x20 DUP3 ADD MLOAD SWAP2 ADD MLOAD SWAP2 PUSH1 0x0 PUSH1 0x4 SSTORE PUSH1 0x1 DUP1 PUSH1 0xA0 SHL SUB NOT PUSH1 0x0 SLOAD AND OR PUSH1 0x0 SSTORE PUSH1 0x1 SSTORE PUSH1 0x5 SSTORE PUSH1 0x40 MLOAD PUSH2 0xFDA SWAP1 DUP2 PUSH2 0xA0 DUP3 CODECOPY RETURN JUMPDEST PUSH1 0x0 DUP1 REVERT JUMPDEST PUSH4 0x4E487B71 PUSH1 0xE0 SHL PUSH1 0x0 MSTORE PUSH1 0x41 PUSH1 0x4 MSTORE PUSH1 0x24 PUSH1 0x0 REVERT INVALID PUSH1 0x80 DUP1 PUSH1 0x40 MSTORE PUSH1 0x4 CALLDATASIZE LT ISZERO PUSH2 0x13 JUMPI PUSH1 0x0 DUP1 REVERT JUMPDEST PUSH1 0x0 CALLDATALOAD PUSH1 0xE0 SHR SWAP1 DUP2 PUSH4 0x81E3EDA EQ PUSH2 0xA7A JUMPI POP DUP1 PUSH4 0x1526FE27 EQ PUSH2 0xA1D JUMPI DUP1 PUSH4 0x17CAF6F1 EQ PUSH2 0x9FF JUMPI DUP1 PUSH4 0x1EAAA045 EQ PUSH2 0x8D5 JUMPI DUP1 PUSH4 0x23182744 EQ PUSH2 0x725 JUMPI DUP1 PUSH4 0x441A3E70 EQ PUSH2 0x53D JUMPI DUP1 PUSH4 0x48CD4CB1 EQ PUSH2 0x51F JUMPI DUP1 PUSH4 0x51EB05A6 EQ PUSH2 0x503 JUMPI DUP1 PUSH4 0x5312EA8E EQ PUSH2 0x436 JUMPI DUP1 PUSH4 0x630B5BA1 EQ PUSH2 0x41B JUMPI DUP1 PUSH4 0x64482F79 EQ PUSH2 0x3AD JUMPI DUP1 PUSH4 0x8DBB1E3A EQ PUSH2 0x354 JUMPI DUP1 PUSH4 0x93F1A40B EQ PUSH2 0x310 JUMPI DUP1 PUSH4 0xA76A09A7 EQ PUSH2 0x2E7 JUMPI DUP1 PUSH4 0xE2BBB158 EQ PUSH2 0xF2 JUMPI PUSH4 0xFD298599 EQ PUSH2 0xCF JUMPI PUSH1 0x0 DUP1 REVERT JUMPDEST CALLVALUE PUSH2 0xED JUMPI PUSH1 0x0 CALLDATASIZE PUSH1 0x3 NOT ADD SLT PUSH2 0xED JUMPI PUSH1 0x20 PUSH1 0x1 SLOAD PUSH1 0x40 MLOAD SWAP1 DUP2 MSTORE RETURN JUMPDEST PUSH1 0x0 DUP1 REVERT JUMPDEST CALLVALUE PUSH2 0xED JUMPI PUSH2 0x100 CALLDATASIZE PUSH2 0xB19 JUMP JUMPDEST PUSH2 0x109 DUP3 PUSH2 0xA95 JUMP JUMPDEST POP PUSH1 0x0 DUP4 DUP2 MSTORE PUSH1 0x3 PUSH1 0x20 SWAP1 DUP2 MSTORE PUSH1 0x40 DUP1 DUP4 KECCAK256 CALLER DUP5 MSTORE SWAP1 SWAP2 MSTORE SWAP1 KECCAK256 SWAP1 PUSH2 0x12D DUP5 PUSH2 0xB69 JUMP JUMPDEST DUP2 SLOAD DUP1 PUSH2 0x250 JUMPI JUMPDEST POP DUP3 PUSH2 0x1AC JUMPI JUMPDEST PUSH5 0xE8D4A51000 PUSH2 0x155 PUSH1 0x1 SWAP3 PUSH1 0x3 DUP6 SLOAD SWAP2 ADD SLOAD SWAP1 PUSH2 0xD8D JUMP JUMPDEST PUSH1 0x0 DUP1 MLOAD PUSH1 0x20 PUSH2 0xF85 DUP4 CODECOPY DUP2 MLOAD SWAP2 MSTORE PUSH1 0x20 PUSH1 0x40 MLOAD PUSH2 0x174 PUSH1 0x40 DUP3 PUSH2 0xB2F JUMP JUMPDEST PUSH1 0x1A DUP2 MSTORE ADD MSTORE DIV SWAP2 ADD SSTORE PUSH1 0x40 MLOAD SWAP1 DUP2 MSTORE PUSH32 0x90890809C654F11D6E72A28FA60149770A0D11EC6C92319D6CEB2BB0A4EA1A15 PUSH1 0x20 CALLER SWAP3 LOG3 STOP JUMPDEST DUP1 SLOAD PUSH1 0x40 MLOAD PUSH4 0x23B872DD PUSH1 0xE0 SHL DUP2 MSTORE CALLER PUSH1 0x4 DUP3 ADD MSTORE ADDRESS PUSH1 0x24 DUP3 ADD MSTORE PUSH1 0x44 DUP2 ADD DUP6 SWAP1 MSTORE SWAP1 PUSH1 0x20 SWAP1 DUP3 SWAP1 PUSH1 0x64 SWAP1 DUP3 SWAP1 PUSH1 0x0 SWAP1 PUSH1 0x1 PUSH1 0x1 PUSH1 0xA0 SHL SUB AND GAS CALL DUP1 ISZERO PUSH2 0x244 JUMPI PUSH1 0x1 SWAP3 PUSH5 0xE8D4A51000 SWAP3 PUSH2 0x155 SWAP3 PUSH2 0x217 JUMPI JUMPDEST POP PUSH2 0x20C DUP7 DUP7 SLOAD PUSH2 0xC74 JUMP JUMPDEST DUP6 SSTORE SWAP3 POP POP POP PUSH2 0x13C JUMP JUMPDEST PUSH2 0x238 SWAP1 PUSH1 0x20 RETURNDATASIZE PUSH1 0x20 GT PUSH2 0x23D JUMPI JUMPDEST PUSH2 0x230 DUP2 DUP4 PUSH2 0xB2F JUMP JUMPDEST DUP2 ADD SWAP1 PUSH2 0xB51 JUMP JUMPDEST PUSH2 0x200 JUMP JUMPDEST POP RETURNDATASIZE PUSH2 0x226 JUMP JUMPDEST PUSH1 0x40 MLOAD RETURNDATASIZE PUSH1 0x0 DUP3 RETURNDATACOPY RETURNDATASIZE SWAP1 REVERT JUMPDEST PUSH5 0xE8D4A51000 PUSH2 0x268 PUSH2 0x2D1 SWAP3 PUSH1 0x3 DUP6 ADD SLOAD SWAP1 PUSH2 0xD8D JUMP JUMPDEST PUSH1 0x0 DUP1 MLOAD PUSH1 0x20 PUSH2 0xF85 DUP4 CODECOPY DUP2 MLOAD SWAP2 MSTORE PUSH1 0x20 PUSH1 0x40 MLOAD PUSH2 0x287 PUSH1 0x40 DUP3 PUSH2 0xB2F JUMP JUMPDEST PUSH1 0x1A DUP2 MSTORE ADD MSTORE DIV PUSH1 0x1 DUP5 ADD SLOAD PUSH1 0x40 MLOAD SWAP2 PUSH2 0x2A2 PUSH1 0x40 DUP5 PUSH2 0xB2F JUMP JUMPDEST PUSH1 0x1E DUP4 MSTORE PUSH32 0x536166654D6174683A207375627472616374696F6E206F766572666C6F770000 PUSH1 0x20 DUP5 ADD MSTORE PUSH2 0xF6A JUMP JUMPDEST DUP1 ISZERO PUSH2 0x135 JUMPI PUSH2 0x2E1 SWAP1 CALLER PUSH2 0xDF0 JUMP JUMPDEST DUP5 PUSH2 0x135 JUMP JUMPDEST CALLVALUE PUSH2 0xED JUMPI PUSH1 0x0 CALLDATASIZE PUSH1 0x3 NOT ADD SLT PUSH2 0xED JUMPI PUSH1 0x0 SLOAD PUSH1 0x40 MLOAD PUSH1 0x1 PUSH1 0x1 PUSH1 0xA0 SHL SUB SWAP1 SWAP2 AND DUP2 MSTORE PUSH1 0x20 SWAP1 RETURN JUMPDEST CALLVALUE PUSH2 0xED JUMPI PUSH2 0x31E CALLDATASIZE PUSH2 0xAF3 JUMP JUMPDEST SWAP1 PUSH1 0x0 MSTORE PUSH1 0x3 PUSH1 0x20 MSTORE PUSH1 0x40 PUSH1 0x0 KECCAK256 SWAP1 PUSH1 0x1 DUP1 PUSH1 0xA0 SHL SUB AND PUSH1 0x0 MSTORE PUSH1 0x20 MSTORE PUSH1 0x40 DUP1 PUSH1 0x0 KECCAK256 PUSH1 0x1 DUP2 SLOAD SWAP2 ADD SLOAD DUP3 MLOAD SWAP2 DUP3 MSTORE PUSH1 0x20 DUP3 ADD MSTORE RETURN JUMPDEST CALLVALUE PUSH2 0xED JUMPI PUSH1 0x20 PUSH2 0x3A5 PUSH2 0x367 CALLDATASIZE PUSH2 0xB19 JUMP JUMPDEST SWAP1 PUSH1 0x40 MLOAD SWAP2 PUSH2 0x377 PUSH1 0x40 DUP5 PUSH2 0xB2F JUMP JUMPDEST PUSH1 0x1E DUP4 MSTORE PUSH32 0x536166654D6174683A207375627472616374696F6E206F766572666C6F770000 DUP6 DUP5 ADD MSTORE PUSH2 0xF6A JUMP JUMPDEST PUSH1 0x40 MLOAD SWAP1 DUP2 MSTORE RETURN JUMPDEST CALLVALUE PUSH2 0xED JUMPI PUSH1 0x60 CALLDATASIZE PUSH1 0x3 NOT ADD SLT PUSH2 0xED JUMPI PUSH1 0x24 CALLDATALOAD PUSH1 0x1 PUSH2 0x409 PUSH1 0x4 CALLDATALOAD PUSH2 0x3D1 PUSH2 0xAE4 JUMP JUMPDEST PUSH2 0x40E JUMPI JUMPDEST PUSH2 0x401 DUP5 PUSH2 0x3FC PUSH1 0x4 SLOAD DUP7 PUSH2 0x3EA DUP7 PUSH2 0xA95 JUMP JUMPDEST POP ADD SLOAD PUSH1 0x40 MLOAD SWAP2 PUSH2 0x2A2 PUSH1 0x40 DUP5 PUSH2 0xB2F JUMP JUMPDEST PUSH2 0xC74 JUMP JUMPDEST PUSH1 0x4 SSTORE PUSH2 0xA95 JUMP JUMPDEST POP ADD SSTORE STOP JUMPDEST PUSH2 0x416 PUSH2 0xC51 JUMP JUMPDEST PUSH2 0x3D6 JUMP JUMPDEST CALLVALUE PUSH2 0xED JUMPI PUSH1 0x0 CALLDATASIZE PUSH1 0x3 NOT ADD SLT PUSH2 0xED JUMPI PUSH2 0x434 PUSH2 0xC51 JUMP JUMPDEST STOP JUMPDEST CALLVALUE PUSH2 0xED JUMPI PUSH1 0x20 CALLDATASIZE PUSH1 0x3 NOT ADD SLT PUSH2 0xED JUMPI PUSH1 0x4 CALLDATALOAD PUSH2 0x453 DUP2 PUSH2 0xA95 JUMP JUMPDEST POP PUSH1 0x0 DUP3 DUP2 MSTORE PUSH1 0x3 PUSH1 0x20 SWAP1 DUP2 MSTORE PUSH1 0x40 DUP1 DUP4 KECCAK256 CALLER DUP1 DUP6 MSTORE SWAP1 DUP4 MSTORE DUP2 DUP5 KECCAK256 DUP1 SLOAD DUP6 DUP3 SSTORE PUSH1 0x1 SWAP1 SWAP2 ADD DUP6 SWAP1 SSTORE SWAP5 SLOAD SWAP2 MLOAD PUSH4 0xA9059CBB PUSH1 0xE0 SHL DUP2 MSTORE PUSH1 0x4 DUP2 ADD SWAP2 SWAP1 SWAP2 MSTORE PUSH1 0x24 DUP2 ADD DUP6 SWAP1 MSTORE SWAP3 DUP4 SWAP2 PUSH1 0x44 SWAP2 DUP4 SWAP2 PUSH1 0x1 PUSH1 0x1 PUSH1 0xA0 SHL SUB AND GAS CALL DUP1 ISZERO PUSH2 0x244 JUMPI PUSH2 0x4E6 JUMPI JUMPDEST POP PUSH1 0x40 MLOAD SWAP1 DUP2 MSTORE PUSH32 0xBB757047C2B5F3974FE26B7C10F732E7BCE710B0952A71082702781E62AE0595 PUSH1 0x20 CALLER SWAP3 LOG3 STOP JUMPDEST PUSH2 0x4FE SWAP1 PUSH1 0x20 RETURNDATASIZE PUSH1 0x20 GT PUSH2 0x23D JUMPI PUSH2 0x230 DUP2 DUP4 PUSH2 0xB2F JUMP JUMPDEST PUSH2 0x4B7 JUMP JUMPDEST CALLVALUE PUSH2 0xED JUMPI PUSH1 0x20 CALLDATASIZE PUSH1 0x3 NOT ADD SLT PUSH2 0xED JUMPI PUSH2 0x434 PUSH1 0x4 CALLDATALOAD PUSH2 0xB69 JUMP JUMPDEST CALLVALUE PUSH2 0xED JUMPI PUSH1 0x0 CALLDATASIZE PUSH1 0x3 NOT ADD SLT PUSH2 0xED JUMPI PUSH1 0x20 PUSH1 0x5 SLOAD PUSH1 0x40 MLOAD SWAP1 DUP2 MSTORE RETURN JUMPDEST CALLVALUE PUSH2 0xED JUMPI PUSH2 0x54B CALLDATASIZE PUSH2 0xB19 JUMP JUMPDEST PUSH2 0x554 DUP3 PUSH2 0xA95 JUMP JUMPDEST POP PUSH1 0x0 DUP4 DUP2 MSTORE PUSH1 0x3 PUSH1 0x20 SWAP1 DUP2 MSTORE PUSH1 0x40 DUP1 DUP4 KECCAK256 CALLER DUP5 MSTORE SWAP1 SWAP2 MSTORE SWAP1 KECCAK256 DUP1 SLOAD DUP4 GT PUSH2 0x6EB JUMPI PUSH2 0x57F DUP5 PUSH2 0xB69 JUMP JUMPDEST DUP1 SLOAD SWAP1 PUSH5 0xE8D4A51000 PUSH2 0x598 PUSH1 0x3 DUP6 ADD SWAP4 DUP5 SLOAD SWAP1 PUSH2 0xD8D JUMP JUMPDEST PUSH1 0x0 DUP1 MLOAD PUSH1 0x20 PUSH2 0xF85 DUP4 CODECOPY DUP2 MLOAD SWAP2 MSTORE PUSH1 0x20 PUSH1 0x40 MLOAD PUSH2 0x5B7 PUSH1 0x40 DUP3 PUSH2 0xB2F JUMP JUMPDEST PUSH1 0x1A DUP2 MSTORE ADD MSTORE DIV SWAP3 PUSH2 0x5D8 PUSH1 0x1 DUP4 ADD SWAP5 DUP6 SLOAD PUSH1 0x40 MLOAD SWAP2 PUSH2 0x2A2 PUSH1 0x40 DUP5 PUSH2 0xB2F JUMP JUMPDEST DUP1 PUSH2 0x6DB JUMPI JUMPDEST POP DUP5 PUSH2 0x650 JUMPI JUMPDEST POP PUSH5 0xE8D4A51000 SWAP2 PUSH2 0x5FA SWAP2 SLOAD SWAP1 SLOAD SWAP1 PUSH2 0xD8D JUMP JUMPDEST PUSH1 0x0 DUP1 MLOAD PUSH1 0x20 PUSH2 0xF85 DUP4 CODECOPY DUP2 MLOAD SWAP2 MSTORE PUSH1 0x20 PUSH1 0x40 MLOAD PUSH2 0x619 PUSH1 0x40 DUP3 PUSH2 0xB2F JUMP JUMPDEST PUSH1 0x1A DUP2 MSTORE ADD MSTORE DIV SWAP1 SSTORE PUSH1 0x40 MLOAD SWAP1 DUP2 MSTORE PUSH32 0xF279E6A1F5E320CCA91135676D9CB6E44CA8A08C0B88342BCDB1144F6511B568 PUSH1 0x20 CALLER SWAP3 LOG3 STOP JUMPDEST PUSH2 0x665 DUP3 SLOAD DUP7 PUSH1 0x40 MLOAD SWAP2 PUSH2 0x2A2 PUSH1 0x40 DUP5 PUSH2 0xB2F JUMP JUMPDEST DUP3 SSTORE SLOAD PUSH1 0x40 MLOAD PUSH4 0xA9059CBB PUSH1 0xE0 SHL DUP2 MSTORE CALLER PUSH1 0x4 DUP3 ADD MSTORE PUSH1 0x24 DUP2 ADD DUP7 SWAP1 MSTORE SWAP3 SWAP1 PUSH1 0x20 SWAP1 DUP5 SWAP1 PUSH1 0x44 SWAP1 DUP3 SWAP1 PUSH1 0x0 SWAP1 PUSH1 0x1 PUSH1 0x1 PUSH1 0xA0 SHL SUB AND GAS CALL SWAP2 DUP3 ISZERO PUSH2 0x244 JUMPI PUSH5 0xE8D4A51000 SWAP4 PUSH2 0x5FA SWAP4 PUSH2 0x6BC JUMPI JUMPDEST POP SWAP2 POP SWAP2 PUSH2 0x5E5 JUMP JUMPDEST PUSH2 0x6D4 SWAP1 PUSH1 0x20 RETURNDATASIZE PUSH1 0x20 GT PUSH2 0x23D JUMPI PUSH2 0x230 DUP2 DUP4 PUSH2 0xB2F JUMP JUMPDEST POP DUP8 PUSH2 0x6B3 JUMP JUMPDEST PUSH2 0x6E5 SWAP1 CALLER PUSH2 0xDF0 JUMP JUMPDEST DUP7 PUSH2 0x5DE JUMP JUMPDEST PUSH1 0x40 MLOAD PUSH3 0x461BCD PUSH1 0xE5 SHL DUP2 MSTORE PUSH1 0x20 PUSH1 0x4 DUP3 ADD MSTORE PUSH1 0x12 PUSH1 0x24 DUP3 ADD MSTORE PUSH18 0x1DDA5D1A191C985DCE881B9BDD0819DBDBD9 PUSH1 0x72 SHL PUSH1 0x44 DUP3 ADD MSTORE PUSH1 0x64 SWAP1 REVERT JUMPDEST CALLVALUE PUSH2 0xED JUMPI PUSH2 0x733 CALLDATASIZE PUSH2 0xAF3 JUMP JUMPDEST PUSH2 0x73C DUP3 PUSH2 0xA95 JUMP JUMPDEST POP SWAP2 PUSH1 0x0 MSTORE PUSH1 0x3 PUSH1 0x20 MSTORE PUSH1 0x40 PUSH1 0x0 KECCAK256 SWAP1 PUSH1 0x1 DUP1 PUSH1 0xA0 SHL SUB AND PUSH1 0x0 MSTORE PUSH1 0x20 MSTORE PUSH1 0x40 PUSH1 0x0 KECCAK256 SWAP1 PUSH1 0x24 PUSH1 0x3 DUP3 ADD SLOAD SWAP2 PUSH1 0x20 PUSH1 0x1 DUP1 PUSH1 0xA0 SHL SUB DUP3 SLOAD AND PUSH1 0x40 MLOAD SWAP4 DUP5 DUP1 SWAP3 PUSH4 0x70A08231 PUSH1 0xE0 SHL DUP3 MSTORE ADDRESS PUSH1 0x4 DUP4 ADD MSTORE GAS STATICCALL SWAP2 DUP3 ISZERO PUSH2 0x244 JUMPI PUSH1 0x0 SWAP3 PUSH2 0x899 JUMPI JUMPDEST POP PUSH5 0xE8D4A51000 PUSH2 0x7CE PUSH2 0x3A5 SWAP5 PUSH1 0x20 SWAP7 SWAP5 DUP5 PUSH1 0x2 PUSH1 0x1 SWAP7 ADD SLOAD DUP1 NUMBER GT DUP1 PUSH2 0x890 JUMPI JUMPDEST PUSH2 0x805 JUMPI JUMPDEST POP POP POP DUP5 SLOAD PUSH2 0xD8D JUMP JUMPDEST PUSH1 0x0 DUP1 MLOAD PUSH1 0x20 PUSH2 0xF85 DUP4 CODECOPY DUP2 MLOAD SWAP2 MSTORE DUP7 PUSH1 0x40 MLOAD PUSH2 0x7EC PUSH1 0x40 DUP3 PUSH2 0xB2F JUMP JUMPDEST PUSH1 0x1A DUP2 MSTORE ADD MSTORE DIV SWAP2 ADD SLOAD PUSH1 0x40 MLOAD SWAP2 PUSH2 0x377 PUSH1 0x40 DUP5 PUSH2 0xB2F JUMP JUMPDEST SWAP2 PUSH2 0x87D PUSH2 0x878 PUSH2 0x86F PUSH2 0x882 SWAP5 DUP11 PUSH2 0x866 PUSH2 0x85E PUSH2 0x888 SWAP11 SWAP10 PUSH1 0x40 MLOAD SWAP1 PUSH2 0x82E PUSH1 0x40 DUP4 PUSH2 0xB2F JUMP JUMPDEST PUSH1 0x1E DUP3 MSTORE PUSH32 0x536166654D6174683A207375627472616374696F6E206F766572666C6F770000 PUSH1 0x20 DUP4 ADD MSTORE NUMBER PUSH2 0xF6A JUMP JUMPDEST DUP3 SLOAD SWAP1 PUSH2 0xD8D JUMP JUMPDEST SWAP2 ADD SLOAD SWAP1 PUSH2 0xD8D JUMP JUMPDEST PUSH1 0x4 SLOAD SWAP1 PUSH2 0xDB2 JUMP JUMPDEST PUSH2 0xD03 JUMP JUMPDEST PUSH2 0xDB2 JUMP JUMPDEST SWAP1 PUSH2 0xC74 JUMP JUMPDEST DUP8 DUP1 DUP1 PUSH2 0x7C4 JUMP JUMPDEST POP DUP3 ISZERO ISZERO PUSH2 0x7BF JUMP JUMPDEST SWAP1 SWAP2 PUSH1 0x20 DUP3 RETURNDATASIZE PUSH1 0x20 GT PUSH2 0x8CD JUMPI JUMPDEST DUP2 PUSH2 0x8B4 PUSH1 0x20 SWAP4 DUP4 PUSH2 0xB2F JUMP JUMPDEST DUP2 ADD SUB SLT PUSH2 0x8CA JUMPI POP MLOAD SWAP1 PUSH5 0xE8D4A51000 PUSH2 0x79C JUMP JUMPDEST DUP1 REVERT JUMPDEST RETURNDATASIZE SWAP2 POP PUSH2 0x8A7 JUMP JUMPDEST CALLVALUE PUSH2 0xED JUMPI PUSH1 0x60 CALLDATASIZE PUSH1 0x3 NOT ADD SLT PUSH2 0xED JUMPI PUSH1 0x4 CALLDATALOAD PUSH1 0x24 CALLDATALOAD PUSH1 0x1 PUSH1 0x1 PUSH1 0xA0 SHL SUB DUP2 AND SWAP1 DUP2 SWAP1 SUB PUSH2 0xED JUMPI PUSH2 0x906 PUSH2 0xAE4 JUMP JUMPDEST PUSH2 0x9F2 JUMPI JUMPDEST PUSH1 0x5 SLOAD DUP1 NUMBER GT PUSH1 0x0 EQ PUSH2 0x9ED JUMPI POP NUMBER JUMPDEST PUSH2 0x927 DUP4 PUSH1 0x4 SLOAD PUSH2 0xC74 JUMP JUMPDEST PUSH1 0x4 SSTORE PUSH1 0x40 MLOAD SWAP2 PUSH1 0x80 DUP4 ADD DUP4 DUP2 LT PUSH8 0xFFFFFFFFFFFFFFFF DUP3 GT OR PUSH2 0x9D7 JUMPI PUSH1 0x40 MSTORE DUP3 MSTORE PUSH1 0x20 DUP3 ADD SWAP3 DUP4 MSTORE PUSH1 0x40 DUP3 ADD SWAP1 DUP2 MSTORE PUSH1 0x60 DUP3 ADD SWAP1 PUSH1 0x0 DUP3 MSTORE PUSH1 0x2 SLOAD PUSH9 0x10000000000000000 DUP2 LT ISZERO PUSH2 0x9D7 JUMPI DUP1 PUSH1 0x1 PUSH2 0x985 SWAP3 ADD PUSH1 0x2 SSTORE PUSH2 0xA95 JUMP JUMPDEST SWAP5 SWAP1 SWAP5 PUSH2 0x9C1 JUMPI SWAP3 MLOAD DUP5 SLOAD PUSH1 0x1 PUSH1 0x1 PUSH1 0xA0 SHL SUB NOT AND PUSH1 0x1 PUSH1 0x1 PUSH1 0xA0 SHL SUB SWAP2 SWAP1 SWAP2 AND OR DUP5 SSTORE SWAP2 MLOAD PUSH1 0x1 DUP5 ADD SSTORE SWAP1 MLOAD PUSH1 0x2 DUP4 ADD SSTORE MLOAD PUSH1 0x3 SWAP2 SWAP1 SWAP2 ADD SSTORE STOP JUMPDEST PUSH4 0x4E487B71 PUSH1 0xE0 SHL PUSH1 0x0 MSTORE PUSH1 0x0 PUSH1 0x4 MSTORE PUSH1 0x24 PUSH1 0x0 REVERT JUMPDEST PUSH4 0x4E487B71 PUSH1 0xE0 SHL PUSH1 0x0 MSTORE PUSH1 0x41 PUSH1 0x4 MSTORE PUSH1 0x24 PUSH1 0x0 REVERT JUMPDEST PUSH2 0x91B JUMP JUMPDEST PUSH2 0x9FA PUSH2 0xC51 JUMP JUMPDEST PUSH2 0x90B JUMP JUMPDEST CALLVALUE PUSH2 0xED JUMPI PUSH1 0x0 CALLDATASIZE PUSH1 0x3 NOT ADD SLT PUSH2 0xED JUMPI PUSH1 0x20 PUSH1 0x4 SLOAD PUSH1 0x40 MLOAD SWAP1 DUP2 MSTORE RETURN JUMPDEST CALLVALUE PUSH2 0xED JUMPI PUSH1 0x20 CALLDATASIZE PUSH1 0x3 NOT ADD SLT PUSH2 0xED JUMPI PUSH1 0x4 CALLDATALOAD PUSH1 0x2 SLOAD DUP2 LT ISZERO PUSH2 0xED JUMPI PUSH2 0xA46 PUSH1 0x80 SWAP2 PUSH2 0xA95 JUMP JUMPDEST POP PUSH1 0x1 DUP1 PUSH1 0xA0 SHL SUB DUP2 SLOAD AND SWAP1 PUSH1 0x1 DUP2 ADD SLOAD SWAP1 PUSH1 0x3 PUSH1 0x2 DUP3 ADD SLOAD SWAP2 ADD SLOAD SWAP2 PUSH1 0x40 MLOAD SWAP4 DUP5 MSTORE PUSH1 0x20 DUP5 ADD MSTORE PUSH1 0x40 DUP4 ADD MSTORE PUSH1 0x60 DUP3 ADD MSTORE RETURN JUMPDEST CALLVALUE PUSH2 0xED JUMPI PUSH1 0x0 CALLDATASIZE PUSH1 0x3 NOT ADD SLT PUSH2 0xED JUMPI PUSH1 0x20 SWAP1 PUSH1 0x2 SLOAD DUP2 MSTORE RETURN JUMPDEST PUSH1 0x2 SLOAD DUP2 LT ISZERO PUSH2 0xACE JUMPI PUSH1 0x2 PUSH1 0x0 DUP2 DUP2 MSTORE SWAP2 SWAP1 SHL PUSH32 0x405787FA12A823E0F2B7631CC41B3BA8828B3321CA811111FA75CD3AA3BB5ACE ADD SWAP2 JUMP JUMPDEST PUSH4 0x4E487B71 PUSH1 0xE0 SHL PUSH1 0x0 MSTORE PUSH1 0x32 PUSH1 0x4 MSTORE PUSH1 0x24 PUSH1 0x0 REVERT JUMPDEST PUSH1 0x44 CALLDATALOAD SWAP1 DUP2 ISZERO ISZERO DUP3 SUB PUSH2 0xED JUMPI JUMP JUMPDEST PUSH1 0x40 SWAP1 PUSH1 0x3 NOT ADD SLT PUSH2 0xED JUMPI PUSH1 0x4 CALLDATALOAD SWAP1 PUSH1 0x24 CALLDATALOAD PUSH1 0x1 PUSH1 0x1 PUSH1 0xA0 SHL SUB DUP2 AND DUP2 SUB PUSH2 0xED JUMPI SWAP1 JUMP JUMPDEST PUSH1 0x40 SWAP1 PUSH1 0x3 NOT ADD SLT PUSH2 0xED JUMPI PUSH1 0x4 CALLDATALOAD SWAP1 PUSH1 0x24 CALLDATALOAD SWAP1 JUMP JUMPDEST SWAP1 PUSH1 0x1F DUP1 NOT SWAP2 ADD AND DUP2 ADD SWAP1 DUP2 LT PUSH8 0xFFFFFFFFFFFFFFFF DUP3 GT OR PUSH2 0x9D7 JUMPI PUSH1 0x40 MSTORE JUMP JUMPDEST SWAP1 DUP2 PUSH1 0x20 SWAP2 SUB SLT PUSH2 0xED JUMPI MLOAD DUP1 ISZERO ISZERO DUP2 SUB PUSH2 0xED JUMPI SWAP1 JUMP JUMPDEST PUSH2 0xB72 SWAP1 PUSH2 0xA95 JUMP JUMPDEST POP PUSH1 0x2 DUP2 ADD SWAP1 DUP2 SLOAD NUMBER GT ISZERO PUSH2 0xC4D JUMPI DUP1 SLOAD PUSH1 0x40 MLOAD PUSH4 0x70A08231 PUSH1 0xE0 SHL DUP2 MSTORE ADDRESS PUSH1 0x4 DUP3 ADD MSTORE SWAP2 SWAP1 PUSH1 0x20 SWAP1 DUP4 SWAP1 PUSH1 0x24 SWAP1 DUP3 SWAP1 PUSH1 0x1 PUSH1 0x1 PUSH1 0xA0 SHL SUB AND GAS STATICCALL SWAP2 DUP3 ISZERO PUSH2 0x244 JUMPI PUSH1 0x0 SWAP3 PUSH2 0xC19 JUMPI JUMPDEST POP DUP2 ISZERO PUSH2 0xC12 JUMPI PUSH2 0xC0B SWAP1 PUSH2 0x882 PUSH1 0x3 PUSH2 0xBFD PUSH2 0x86F PUSH2 0xBF2 PUSH2 0xBE9 DUP10 SLOAD PUSH1 0x40 MLOAD SWAP1 PUSH2 0x82E PUSH1 0x40 DUP4 PUSH2 0xB2F JUMP JUMPDEST PUSH1 0x1 SLOAD SWAP1 PUSH2 0xD8D JUMP JUMPDEST PUSH1 0x1 DUP7 ADD SLOAD SWAP1 PUSH2 0xD8D JUMP JUMPDEST SWAP3 ADD SWAP4 PUSH2 0x87D DUP6 SLOAD SWAP4 PUSH2 0xD03 JUMP JUMPDEST SWAP1 SSTORE NUMBER SWAP1 SSTORE JUMP JUMPDEST POP POP NUMBER SWAP1 SSTORE JUMP JUMPDEST SWAP1 SWAP2 PUSH1 0x20 DUP3 RETURNDATASIZE PUSH1 0x20 GT PUSH2 0xC45 JUMPI JUMPDEST DUP2 PUSH2 0xC34 PUSH1 0x20 SWAP4 DUP4 PUSH2 0xB2F JUMP JUMPDEST DUP2 ADD SUB SLT PUSH2 0x8CA JUMPI POP MLOAD SWAP1 CODESIZE PUSH2 0xBBC JUMP JUMPDEST RETURNDATASIZE SWAP2 POP PUSH2 0xC27 JUMP JUMPDEST POP POP JUMP JUMPDEST PUSH1 0x2 SLOAD PUSH1 0x0 JUMPDEST DUP2 DUP2 LT PUSH2 0xC62 JUMPI POP POP JUMP JUMPDEST DUP1 PUSH2 0xC6E PUSH1 0x1 SWAP3 PUSH2 0xB69 JUMP JUMPDEST ADD PUSH2 0xC57 JUMP JUMPDEST SWAP1 DUP2 ADD SWAP1 DUP2 DUP2 GT PUSH2 0xCCD JUMPI DUP2 LT PUSH2 0xC88 JUMPI SWAP1 JUMP JUMPDEST PUSH1 0x40 MLOAD PUSH3 0x461BCD PUSH1 0xE5 SHL DUP2 MSTORE PUSH1 0x20 PUSH1 0x4 DUP3 ADD MSTORE PUSH1 0x1B PUSH1 0x24 DUP3 ADD MSTORE PUSH32 0x536166654D6174683A206164646974696F6E206F766572666C6F770000000000 PUSH1 0x44 DUP3 ADD MSTORE PUSH1 0x64 SWAP1 REVERT JUMPDEST PUSH4 0x4E487B71 PUSH1 0xE0 SHL PUSH1 0x0 MSTORE PUSH1 0x11 PUSH1 0x4 MSTORE PUSH1 0x24 PUSH1 0x0 REVERT JUMPDEST DUP2 ISZERO PUSH2 0xCED JUMPI DIV SWAP1 JUMP JUMPDEST PUSH4 0x4E487B71 PUSH1 0xE0 SHL PUSH1 0x0 MSTORE PUSH1 0x12 PUSH1 0x4 MSTORE PUSH1 0x24 PUSH1 0x0 REVERT JUMPDEST DUP1 ISZERO PUSH2 0xD87 JUMPI PUSH5 0xE8D4A51000 DUP2 MUL SWAP1 DUP1 DUP3 DIV PUSH5 0xE8D4A51000 SUB PUSH2 0xCCD JUMPI PUSH2 0xD30 PUSH5 0xE8D4A51000 SWAP2 DUP4 PUSH2 0xCE3 JUMP JUMPDEST SUB PUSH2 0xD38 JUMPI SWAP1 JUMP JUMPDEST PUSH1 0x40 MLOAD PUSH3 0x461BCD PUSH1 0xE5 SHL DUP2 MSTORE PUSH1 0x20 PUSH1 0x4 DUP3 ADD MSTORE PUSH1 0x21 PUSH1 0x24 DUP3 ADD MSTORE PUSH32 0x536166654D6174683A206D756C7469706C69636174696F6E206F766572666C6F PUSH1 0x44 DUP3 ADD MSTORE PUSH1 0x77 PUSH1 0xF8 SHL PUSH1 0x64 DUP3 ADD MSTORE PUSH1 0x84 SWAP1 REVERT JUMPDEST POP PUSH1 0x0 SWAP1 JUMP JUMPDEST SWAP1 DUP2 ISZERO PUSH2 0xDAB JUMPI DUP1 DUP3 MUL SWAP2 DUP1 DUP4 DIV DUP3 SUB PUSH2 0xCCD JUMPI PUSH2 0xD30 SWAP1 DUP4 PUSH2 0xCE3 JUMP JUMPDEST POP POP PUSH1 0x0 SWAP1 JUMP JUMPDEST SWAP1 PUSH2 0xDED SWAP2 PUSH2 0xDE8 PUSH1 0x40 MLOAD PUSH2 0xDC8 PUSH1 0x40 DUP3 PUSH2 0xB2F JUMP JUMPDEST PUSH1 0x1A DUP2 MSTORE PUSH1 0x0 DUP1 MLOAD PUSH1 0x20 PUSH2 0xF85 DUP4 CODECOPY DUP2 MLOAD SWAP2 MSTORE PUSH1 0x20 DUP3 ADD MSTORE DUP4 ISZERO ISZERO PUSH2 0xF07 JUMP JUMPDEST PUSH2 0xCE3 JUMP JUMPDEST SWAP1 JUMP JUMPDEST PUSH1 0x0 SLOAD PUSH1 0x40 MLOAD PUSH4 0x70A08231 PUSH1 0xE0 SHL DUP2 MSTORE ADDRESS PUSH1 0x4 DUP3 ADD MSTORE SWAP3 SWAP1 PUSH1 0x1 PUSH1 0x1 PUSH1 0xA0 SHL SUB AND PUSH1 0x20 DUP5 PUSH1 0x24 DUP2 DUP5 GAS STATICCALL SWAP4 DUP5 ISZERO PUSH2 0x244 JUMPI PUSH1 0x0 SWAP5 PUSH2 0xED3 JUMPI JUMPDEST POP DUP4 DUP3 GT ISZERO PUSH2 0xE99 JUMPI POP POP PUSH1 0x0 DUP1 SLOAD PUSH1 0x40 MLOAD PUSH4 0xA9059CBB PUSH1 0xE0 SHL DUP2 MSTORE PUSH1 0x1 PUSH1 0x1 PUSH1 0xA0 SHL SUB SWAP4 DUP5 AND PUSH1 0x4 DUP3 ADD MSTORE PUSH1 0x24 DUP2 ADD SWAP5 SWAP1 SWAP5 MSTORE PUSH1 0x20 SWAP3 DUP5 SWAP3 SWAP2 AND SWAP1 DUP3 SWAP1 DUP2 PUSH1 0x44 DUP2 ADD JUMPDEST SUB SWAP3 GAS CALL DUP1 ISZERO PUSH2 0x244 JUMPI PUSH2 0xE7E JUMPI POP JUMP JUMPDEST PUSH2 0xE96 SWAP1 PUSH1 0x20 RETURNDATASIZE PUSH1 0x20 GT PUSH2 0x23D JUMPI PUSH2 0x230 DUP2 DUP4 PUSH2 0xB2F JUMP JUMPDEST POP JUMP JUMPDEST PUSH1 0x40 MLOAD PUSH4 0xA9059CBB PUSH1 0xE0 SHL DUP2 MSTORE PUSH1 0x1 PUSH1 0x1 PUSH1 0xA0 SHL SUB SWAP1 SWAP4 AND PUSH1 0x4 DUP5 ADD MSTORE PUSH1 0x24 DUP4 ADD SWAP2 SWAP1 SWAP2 MSTORE SWAP1 SWAP2 POP PUSH1 0x20 SWAP1 DUP3 SWAP1 DUP2 PUSH1 0x0 DUP2 PUSH1 0x44 DUP2 ADD PUSH2 0xE6D JUMP JUMPDEST SWAP1 SWAP4 PUSH1 0x20 DUP3 RETURNDATASIZE PUSH1 0x20 GT PUSH2 0xEFF JUMPI JUMPDEST DUP2 PUSH2 0xEEE PUSH1 0x20 SWAP4 DUP4 PUSH2 0xB2F JUMP JUMPDEST DUP2 ADD SUB SLT PUSH2 0x8CA JUMPI POP MLOAD SWAP3 CODESIZE PUSH2 0xE29 JUMP JUMPDEST RETURNDATASIZE SWAP2 POP PUSH2 0xEE1 JUMP JUMPDEST ISZERO PUSH2 0xF0F JUMPI POP JUMP JUMPDEST PUSH1 0x40 MLOAD SWAP1 PUSH3 0x461BCD PUSH1 0xE5 SHL DUP3 MSTORE PUSH1 0x20 PUSH1 0x4 DUP4 ADD MSTORE DUP2 DUP2 MLOAD SWAP2 DUP3 PUSH1 0x24 DUP4 ADD MSTORE PUSH1 0x0 JUMPDEST DUP4 DUP2 LT PUSH2 0xF52 JUMPI POP POP DUP2 PUSH1 0x0 PUSH1 0x44 DUP1 SWAP5 DUP5 ADD ADD MSTORE PUSH1 0x1F DUP1 NOT SWAP2 ADD AND DUP2 ADD SUB ADD SWAP1 REVERT JUMPDEST PUSH1 0x20 DUP3 DUP3 ADD DUP2 ADD MLOAD PUSH1 0x44 DUP8 DUP5 ADD ADD MSTORE DUP6 SWAP4 POP ADD PUSH2 0xF30 JUMP JUMPDEST SWAP2 PUSH2 0xF78 SWAP1 DUP4 DUP4 GT ISZERO PUSH2 0xF07 JUMP JUMPDEST DUP2 SUB SWAP1 DUP2 GT PUSH2 0xCCD JUMPI SWAP1 JUMP INVALID MSTORE8 PUSH2 0x6665 0x4D PUSH2 0x7468 GASPRICE KECCAK256 PUSH5 0x6976697369 PUSH16 0x6E206279207A65726F000000000000A2 PUSH5 0x6970667358 0x22 SLT KECCAK256 0xB7 0xB8 0xDC 0xB7 PUSH10 0x30EC2341514B718E99ED CODESIZE PUSH10 0x7CED346D0C85AE8F375D 0xD3 SELFBALANCE 0xD5 JUMPDEST NOT PUSH5 0x736F6C6343 STOP ADDMOD 0x1E STOP CALLER "},"methodIdentifiers":{"add(uint256,address,bool)":"1eaaa045","deposit(uint256,uint256)":"e2bbb158","dew()":"a76a09a7","dewPerBlock()":"fd298599","emergencyWithdraw(uint256)":"5312ea8e","getMultiplier(uint256,uint256)":"8dbb1e3a","massUpdatePools()":"630b5ba1","pendingDew(uint256,address)":"23182744","poolInfo(uint256)":"1526fe27","poolLength()":"081e3eda","set(uint256,uint256,bool)":"64482f79","startBlock()":"48cd4cb1","totalAllocPoint()":"17caf6f1","updatePool(uint256)":"51eb05a6","userInfo(uint256,address)":"93f1a40b","withdraw(uint256,uint256)":"441a3e70"}}}}}