{"contracts/DewSwapFactory.sol":{"DewSwapFactory":{"abi":[{"inputs":[{"internalType":"address","name":"_feeToSetter","type":"address"}],"stateMutability":"nonpayable","type":"constructor"},{"anonymous":false,"inputs":[{"indexed":true,"internalType":"address","name":"token0","type":"address"},{"indexed":true,"internalType":"address","name":"token1","type":"address"},{"indexed":false,"internalType":"address","name":"pair","type":"address"},{"indexed":false,"internalType":"uint256","name":"","type":"uint256"}],"name":"PairCreated","type":"event"},{"inputs":[{"internalType":"uint256","name":"","type":"uint256"}],"name":"allPairs","outputs":[{"internalType":"address","name":"","type":"address"}],"stateMutability":"view","type":"function"},{"inputs":[],"name":"allPairsLength","outputs":[{"internalType":"uint256","name":"","type":"uint256"}],"stateMutability":"view","type":"function"},{"inputs":[{"internalType":"address","name":"tokenA","type":"address"},{"internalType":"address","name":"tokenB","type":"address"}],"name":"createPair","outputs":[{"internalType":"address","name":"pair","type":"address"}],"stateMutability":"nonpayable","type":"function"},{"inputs":[],"name":"feeTo","outputs":[{"internalType":"address","name":"","type":"address"}],"stateMutability":"view","type":"function"},{"inputs":[],"name":"feeToSetter","outputs":[{"internalType":"address","name":"","type":"address"}],"stateMutability":"view","type":"function"},{"inputs":[{"internalType":"address","name":"","type":"address"},{"internalType":"address","name":"","type":"address"}],"name":"getPair","outputs":[{"internalType":"address","name":"","type":"address"}],"stateMutability":"view","type":"function"},{"inputs":[{"internalType":"address","name":"_feeTo","type":"address"}],"name":"setFeeTo","outputs":[],"stateMutability":"nonpayable","type":"function"},{"inputs":[{"internalType":"address","name":"_feeToSetter","type":"address"}],"name":"setFeeToSetter","outputs":[],"stateMutability":"nonpayable","type":"function"}],"evm":{"bytecode":{"linkReferences":{},"object":"608034607057601f61286138819003918201601f19168301916001600160401b03831184841017607557808492602094604052833981010312607057516001600160a01b03811690819003607057600180546001600160a01b0319169190911790556040516127d5908161008c8239f35b600080fd5b634e487b7160e01b600052604160045260246000fdfe6080604052600436101561001257600080fd5b60003560e01c8063017e7e5814610097578063094b7415146100925780631e3dd18b1461008d578063574f2ba314610088578063a2e74af614610083578063c9c653961461007e578063e6a43905146100795763f46901ed1461007457600080fd5b6104a7565b610455565b6101e9565b61019c565b610152565b6100f7565b6100ce565b346100be5760003660031901126100be576000546001600160a01b03166080908152602090f35b600080fd5b60009103126100be57565b346100be5760003660031901126100be576001546040516001600160a01b039091168152602090f35b346100be5760203660031901126100be576004356003548110156100be5760036000527fc2575a0e9e593c00f959f8c92f12db2869c3395a3b0502d05e2516446f71f85b01546040516001600160a01b039091168152602090f35b346100be5760003660031901126100be576020600354604051908152f35b600435906001600160a01b03821682036100be57565b602435906001600160a01b03821682036100be57565b346100be5760203660031901126100be576101b5610170565b600154906101cd336001600160a01b038416146104f7565b6001600160a01b03166001600160a01b03199190911617600155005b346100be5760403660031901126100be57610202610170565b61020a610186565b906001600160a01b0380831690821661022581831415610538565b101561045057905b6001600160a01b03821690610243821515610584565b6102a261029c6102906102838461026c8860018060a01b03166000526002602052604060002090565b9060018060a01b0316600052602052604060002090565b546001600160a01b031690565b6001600160a01b031690565b156105c8565b6120bb6102b160208201610648565b9080825260208201906106e58239604051606086811b6bffffffffffffffffffffffff19908116602084019081529186901b16603483015260288252906102f9604882610621565b5190209151906000f56001600160a01b03811693909290843b156100be5760405163485cc95560e01b81526001600160a01b03828116600483015284166024820152946000908690604490829084905af194851561044b576103886103c492869261042c98610430575b506103a7836103888861026c8560018060a01b03166000526002602052604060002090565b80546001600160a01b0319166001600160a01b03909216919091179055565b6001600160a01b038616600090815260026020526040902061026c565b6103cd83610664565b600354604080516001600160a01b038681168252602082019390935293909116927f0d3648bd0f6ba80134a33ba9275ac585d9d315f0ad8355cddefde31afa28d0e99190a36040516001600160a01b0390911681529081906020820190565b0390f35b8061043f600061044593610621565b806100c3565b38610363565b610658565b61022d565b346100be5760403660031901126100be576020610470610170565b610478610186565b6001600160a01b0391821660009081526002845260408082209284168252602092909252205416604051908152f35b346100be5760203660031901126100be576104c0610170565b6104d560018060a01b036001541633146104f7565b600080546001600160a01b0319166001600160a01b0392909216919091179055005b156104fe57565b60405162461bcd60e51b81526020600482015260126024820152712232bba9bbb0b81d102327a92124a22222a760711b6044820152606490fd5b1561053f57565b60405162461bcd60e51b815260206004820152601c60248201527f446577537761703a204944454e544943414c5f414444524553534553000000006044820152606490fd5b1561058b57565b60405162461bcd60e51b8152602060048201526015602482015274446577537761703a205a45524f5f4144445245535360581b6044820152606490fd5b156105cf57565b60405162461bcd60e51b8152602060048201526014602482015273446577537761703a20504149525f45584953545360601b6044820152606490fd5b634e487b7160e01b600052604160045260246000fd5b90601f8019910116810190811067ffffffffffffffff82111761064357604052565b61060b565b906106566040519283610621565b565b6040513d6000823e3d90fd5b60035468010000000000000000811015610643576001810160035560006003548210156106d057600390527fc2575a0e9e593c00f959f8c92f12db2869c3395a3b0502d05e2516446f71f85b0180546001600160a01b0319166001600160a01b03909216919091179055565b634e487b7160e01b81526032600452602490fdfe6080604052346100f0576001600755600080546001600160a01b03191633179055604080519061002f90826100f5565b600a815269044657753776170204c560b41b602090910152604080517f73093c99af5938c5de6772988fae0e0541acb8fa0b4bb716c8917391aab2ec759161007790826100f5565b600181526020810190603160f81b82525190206040519060208201927f8b73c3c69bb8fe3d512ecc4cf759cc79239f7b179b0ffacaa9a75d522b39400f8452604083015260608201524660808201523060a082015260a081526100db60c0826100f5565b519020600b55604051611f8c908161012f8239f35b600080fd5b601f909101601f19168101906001600160401b0382119082101761011857604052565b634e487b7160e01b600052604160045260246000fdfe6080604052600436101561001257600080fd5b6000803560e01c8063022c0d9f1461111f57806306fdde03146110d95780630902f1ac14611098578063095ea7b3146110715780630dfe16811461104857806318160ddd1461102a57806323b872dd14610f7957806330adf81f14610f3e578063313ce56714610f225780633644e51514610f04578063485cc95514610e515780635909c0d514610e335780635a3d549314610e155780636a62784214610b2257806370a0823114610ae95780637464fc3d14610acb5780637ecebe0014610a9257806389afcb441461070f57806395d89b41146106c9578063a9059cbb14610697578063ba9a7a561461067a578063bc25cf771461052b578063c45a015514610504578063d21220a7146104db578063d505accf146102e0578063dd62ed3e1461028b5763fff6cae91461014657600080fd5b34610288578060031936011261028857610164600160075414611761565b60078190556001546040516370a0823160e01b815230600482015290602090829060249082906001600160a01b03165afa801561027d57829061024a575b6002546040516370a0823160e01b81523060048201529250602090839060249082906001600160a01b03165afa90811561023f578391610204575b6101fc9250600354916001600160701b03808460701c16931691611a4b565b600160075580f35b90506020823d602011610237575b8161021f602093836116e0565b81010312610232576101fc9151906101dd565b600080fd5b3d9150610212565b6040513d85823e3d90fd5b506020813d602011610275575b81610264602093836116e0565b8101031261023257602490516101a2565b3d9150610257565b6040513d84823e3d90fd5b80fd5b50346102885760403660031901126102885760406102a76116b4565b916102b06116ca565b9260018060a01b03168152600a602052209060018060a01b03166000526020526020604060002054604051908152f35b50346102885760e0366003190112610288576102fa6116b4565b6103026116ca565b6044359060643560843560ff81168091036104d75742821061049f57600b546001600160a01b038616808852600c602052604088208054919490600019831461048b579282602095928b95600160809601905560405190878201927f6e71edae12b1b97f4d1f60370fef10105fa2faae0126114a169c64845d6126c9845289604084015260018060a01b038b1660608401528b8784015260a083015260c082015260c081526103b260e0826116e0565b519020604051908682019261190160f01b845260228301526042820152604281526103de6062826116e0565b519020906040519182528482015260a435604082015260c435606082015282805260015afa156104805784516001600160a01b0316801515919082610476575b5050156104315761042e92611bba565b80f35b60405162461bcd60e51b815260206004820152601a60248201527f446577537761703a20494e56414c49445f5349474e41545552450000000000006044820152606490fd5b149050388061041e565b6040513d86823e3d90fd5b634e487b7160e01b8a52601160045260248afd5b60405162461bcd60e51b815260206004820152601060248201526f11195dd4ddd85c0e881156141254915160821b6044820152606490fd5b8580fd5b50346102885780600319360112610288576002546040516001600160a01b039091168152602090f35b5034610288578060031936011261028857546040516001600160a01b039091168152602090f35b5034610288576020366003190112610288576105456116b4565b610553600160075414611761565b60078290556001546002546040516370a0823160e01b81523060048201526001600160a01b0391821692909116602082602481845afa91821561066f5784908693610637575b506105b36105b9936001600160701b0360035416906119ec565b916117ee565b6040516370a0823160e01b815230600482015291602083602481855afa928315610480578493610601575b506105b36101fc936001600160701b0360035460701c16906119ec565b92506020833d60201161062f575b8161061c602093836116e0565b81010312610232579151916105b36105e4565b3d915061060f565b9250506020823d602011610667575b81610653602093836116e0565b8101031261023257905190836105b3610599565b3d9150610646565b6040513d87823e3d90fd5b503461028857806003193601126102885760206040516103e88152f35b5034610288576040366003190112610288576106be6106b46116b4565b6024359033611c14565b602060405160018152f35b50346102885780600319360112610288575061070b6040516106ec6040826116e0565b600681526504445572d4c560d41b602082015260405191829182611718565b0390f35b5034610288576020366003190112610288576107296116b4565b610737600160075414611761565b816007556107436117ac565b506001546002546040516370a0823160e01b81523060048201526001600160a01b0392831696949591909216939092906020836024818a5afa928315610a85578193610a51575b506040516370a0823160e01b815230600482015296602088602481895afa95861561027d578798839897610a1a575b5030835260096020526107f66107ea6107ea6107ef6107dd8860408920549c611c8b565b986008549384918d6119b5565b6117ce565b9a8a6119b5565b9688151580610a11575b156109bd5760249284602092308252600984526108218160408420546119ec565b308352600985526040832055610839816008546119ec565b600855604051908152600080516020611f37833981519152843092a36108608a89836117ee565b61086b8989856117ee565b6040516370a0823160e01b815230600482015293849182905afa91821561023f578392610988575b506020602491604051928380926370a0823160e01b82523060048301525afa92831561097c5792610941575b50966108ce9291604098611a4b565b61091e575b83519083825282602083015260018060a01b0316907fdccd412f0b1252819cb1fd330b93224ca42612892bb3f4f789976e6d81936496853392a3600160075582519182526020820152f35b6109396003546001600160701b03808260701c1691166119b5565b6006556108d3565b929150966020833d602011610974575b8161095e602093836116e0565b81010312610232579151919690919060406108bf565b3d9150610951565b604051903d90823e3d90fd5b9091506020813d6020116109b5575b816109a4602093836116e0565b810103126102325751906020610893565b3d9150610997565b60405162461bcd60e51b815260206004820152602660248201527f446577537761703a20494e53554646494349454e545f4c49515549444954595f60448201526510955493915160d21b6064820152608490fd5b50871515610800565b965096506020863d602011610a49575b81610a37602093836116e0565b810103126102325787955196386107b9565b3d9150610a2a565b9092506020813d602011610a7d575b81610a6d602093836116e0565b810103126102325751913861078a565b3d9150610a60565b50604051903d90823e3d90fd5b5034610288576020366003190112610288576020906040906001600160a01b03610aba6116b4565b168152600c83522054604051908152f35b50346102885780600319360112610288576020600654604051908152f35b5034610288576020366003190112610288576020906040906001600160a01b03610b116116b4565b168152600983522054604051908152f35b503461028857602036600319011261028857602490610b3f6116b4565b610b4d600160075414611761565b81600755610b596117ac565b506001546040516370a0823160e01b8152306004820152959293919260209187919082906001600160a01b03165afa948515610480578495610de0575b506002546040516370a0823160e01b81523060048201529190602090839060249082906001600160a01b03165afa91821561066f578592610dac575b506001600160701b03841692610be884886119ec565b946001600160701b03821693610bfe85826119ec565b95610c098484611c8b565b95600854918215600014610d7457505050610c2c610c2787896119b5565b611de5565b6103e7198101908111610d605797610c486103e8600854611ee5565b6008558080526009602052610c636103e86040832054611ee5565b8180526009602052604082205580600080516020611f3783398151915260206040516103e88152a35b8715610d0c57602098610ca289610ca796611e3b565b611a4b565b610ce9575b604051918252838201527f4c209b5fc8ad50758f13e2e1088ba56a560dff690a1c6fef26394f4c03821c4f60403392a26001600755604051908152f35b610d046003546001600160701b03808260701c1691166119b5565b600655610cac565b60405162461bcd60e51b815260206004820152602660248201527f446577537761703a20494e53554646494349454e545f4c49515549444954595f60448201526513525395115160d21b6064820152608490fd5b634e487b7160e01b89526011600452602489fd5b906107ea610d8c610d93936107ea86979e968e6119b5565b948a6119b5565b905080821015610da557505b96610c8c565b9050610d9f565b9091506020813d602011610dd8575b81610dc8602093836116e0565b8101031261023257519038610bd2565b3d9150610dbb565b9094506020813d602011610e0d575b81610dfc602093836116e0565b810103126102325751936024610b96565b3d9150610def565b50346102885780600319360112610288576020600554604051908152f35b50346102885780600319360112610288576020600454604051908152f35b503461028857604036600319011261028857610e6b6116b4565b610e736116ca565b82549091906001600160a01b03163303610eca5760018060a01b03166bffffffffffffffffffffffff60a01b600154161760015560018060a01b03166bffffffffffffffffffffffff60a01b600254161760025580f35b60405162461bcd60e51b81526020600482015260126024820152712232bba9bbb0b81d102327a92124a22222a760711b6044820152606490fd5b50346102885780600319360112610288576020600b54604051908152f35b5034610288578060031936011261028857602060405160128152f35b503461028857806003193601126102885760206040517f6e71edae12b1b97f4d1f60370fef10105fa2faae0126114a169c64845d6126c98152f35b5034610288576060366003190112610288576106be90610f976116b4565b610f9f6116ca565b6001600160a01b038216808452600a6020908152604080862033600090815292529020546044359492939290600101610fda575b5050611c14565b808260409252600a60205281812060018060a01b0333166000526020526110058683600020546119ec565b928152600a6020522060018060a01b0333166000526020526040600020553880610fd3565b50346102885780600319360112610288576020600854604051908152f35b50346102885780600319360112610288576001546040516001600160a01b039091168152602090f35b5034610288576040366003190112610288576106be61108e6116b4565b6024359033611bba565b503461028857806003193601126102885760606001600160701b0363ffffffff6110c06117ac565b9193908160405195168552166020840152166040820152f35b50346102885780600319360112610288575061070b6040516110fc6040826116e0565b600a815269044657753776170204c560b41b602082015260405191829182611718565b5034610288576080366003190112610288576044356001600160a01b038116919060243590600435908481036116b0576064359067ffffffffffffffff82116116ac57366023830112156116ac5781600401359167ffffffffffffffff83116104d75736602484830101116104d75761119c600160075414611761565b856007558315801580916116a3575b15611652576111b86117ac565b509390926001600160701b0384169586881080611640575b156115fb576001546002546001600160a01b0390811695911693908c851415806115f1575b156115b6576115a6575b8980611595575b5050806114f9575b50509060206024949392604051958680926370a0823160e01b82523060048301525afa9384156114b95788946114c4575b506020602491604051928380926370a0823160e01b82523060048301525afa9081156114b9578891611487575b50611277868661179f565b8411156114815761129161128b878761179f565b8561179f565b975b6001600160701b038416956112a8898861179f565b83111561147a576112c26112bc8a8961179f565b8461179f565b965b8a15801590611471575b1561142157611317906113116112f68d6112f06112ea8c611948565b9161197e565b906119ec565b61130b61130288611948565b6112f08d61197e565b906119b5565b926119b5565b620f42408082029382850482148315171561140b57806113f757508304036113bb57106113895761134793611a4b565b6040519384526020840152604083015260608201527fd78ad95fa46c994b6551d0da85fc275fe613ce37657fb8d5e3d130840159d82260803392a36001600755005b60405162461bcd60e51b815260206004820152600a602482015269446577537761703a204b60b01b6044820152606490fd5b60405162461bcd60e51b815260206004820152601460248201527364732d6d6174682d6d756c2d6f766572666c6f7760601b6044820152606490fd5b634e487b7160e01b81526012600452602490fd5b634e487b7160e01b600052601160045260246000fd5b60405162461bcd60e51b815260206004820152602260248201527f446577537761703a20494e53554646494349454e545f494e5055545f414d4f55604482015261139560f21b6064820152608490fd5b508715156112ce565b81966112c4565b87611293565b90506020813d6020116114b1575b816114a2602093836116e0565b8101031261023257513861126c565b3d9150611495565b6040513d8a823e3d90fd5b9093506020813d6020116114f1575b816114e0602093836116e0565b81010312610232575192602061123f565b3d91506114d3565b8a3b15611591576024918b8a8c60a48c868397604051998a988997889563bb0bf7c160e01b87523360048801528387015260448601526080606486015282608486015201848401378181018301849052601f01601f191681010301925af1801561158657611568575b8061120e565b8861157b6024969594939a6020936116e0565b989192939450611562565b6040513d8b823e3d90fd5b8980fd5b61159f91866117ee565b3889611206565b6115b18982866117ee565b6111ff565b60405162461bcd60e51b8152602060048201526013602482015272446577537761703a20494e56414c49445f544f60681b6044820152606490fd5b50858d14156111f5565b60405162461bcd60e51b815260206004820152601f60248201527f446577537761703a20494e53554646494349454e545f4c4951554944495459006044820152606490fd5b506001600160701b03861689106111d0565b60405162461bcd60e51b815260206004820152602360248201527f446577537761703a20494e53554646494349454e545f4f55545055545f414d4f60448201526215539560ea1b6064820152608490fd5b508515156111ab565b8480fd5b8380fd5b600435906001600160a01b038216820361023257565b602435906001600160a01b038216820361023257565b90601f8019910116810190811067ffffffffffffffff82111761170257604052565b634e487b7160e01b600052604160045260246000fd5b91909160208152825180602083015260005b81811061174b575060409293506000838284010152601f8019910116010190565b806020809287010151604082860101520161172a565b1561176857565b60405162461bcd60e51b815260206004820152600f60248201526e11195dd4ddd85c0e881313d0d2d151608a1b6044820152606490fd5b9190820391821161140b57565b6003546001600160701b038116916001600160701b038260701c169160e01c90565b81156117d8570490565b634e487b7160e01b600052601260045260246000fd5b60009192908291826040956020875161180789826116e0565b601981527f7472616e7366657228616464726573732c75696e743235362900000000000000910152865163a9059cbb60e01b602082019081526001600160a01b039092166024820152604480820194909452928352916118686064826116e0565b51925af13d1561192e573d67ffffffffffffffff811161170257825190611899601f8201601f1916602001836116e0565b81523d6000602083013e5b816118f6575b50156118b35750565b5162461bcd60e51b815260206004820152601860248201527f446577537761703a205452414e534645525f4641494c454400000000000000006044820152606490fd5b805180159250821561190b575b5050386118aa565b819250906020918101031261023257602001518015158103610232573880611903565b60606118a4565b8181029291811591840414171561140b57565b906000916103e880820282810482148315171561196a5780945004036113bb57565b634e487b7160e01b85526011600452602485fd5b9060009160038102818104600314821517156119a157925060038304036113bb57565b634e487b7160e01b84526011600452602484fd5b6000929180159182156119cc575b5050156113bb57565b915092506119e46119dd8483611935565b93846117ce565b1438806119c3565b91906119f8908361179f565b918211611a0157565b60405162461bcd60e51b815260206004820152601560248201527464732d6d6174682d7375622d756e646572666c6f7760581b6044820152606490fd5b9190820180921161140b57565b926001600160701b0384111580611ba9575b15611b705760035460e01c63ffffffff42160363ffffffff811161140b577f1c411e9a96e071241c2f21f7726b17ae89e3cab4c78be50e062b03a9fffbbad1946040946001600160701b039363ffffffff85941680151580611b65575b80611b5a575b611af9575b50505016918263ffffffff60e01b4260e01b16918360701b9060701b16171780600355835192835260701c166020820152a1565b611b4f92611b4792611b2490611b32611b2a856001600160e01b038587611b1f87611e91565b611ec7565b16611935565b600454611a3e565b6004556001600160e01b0392611b1f90611e91565b600554611a3e565b600555388080611ac5565b508482161515611ac0565b508483161515611aba565b60405162461bcd60e51b8152602060048201526011602482015270446577537761703a204f564552464c4f5760781b6044820152606490fd5b506001600160701b03821115611a5d565b6001600160a01b039081166000818152600a602090815260408083209590941680835294815290839020859055915193845291927f8c5be1e5ebec7d5bd14f71427d1e84f3dd0314c0f7b2291e5b200ac8c7c3b9259190a3565b6020600080516020611f378339815191529160018060a01b0316928360005260098252611c46856040600020546119ec565b846000526009835260406000205560018060a01b0316938460005260098252611c7481604060002054611ee5565b8560005260098352604060002055604051908152a3565b60008054604051622fcfcb60e31b81529394939290602090849060049082906001600160a01b03165afa92831561027d578293611d9d575b506006546001600160a01b03841615801596919290611d8c5782611ce9575b5050505050565b610c27611d05916001600160701b0380611d0b951691166119b5565b91611de5565b91828211611d1a575b80611ce2565b611d2a60085461130b85856119ec565b91600581029181830460051482151715611d78575060058204036113bb57611d5b92611d5591611ee5565b906117ce565b80611d68575b8080611d14565b611d7191611e3b565b3880611d61565b634e487b7160e01b81526011600452602490fd5b5050909150611d985750565b600655565b9092506020813d602011611ddd575b81611db9602093836116e0565b81010312611dd957516001600160a01b0381168103611dd9579138611cc3565b5080fd5b3d9150611dac565b9060006003831115611e2e5750818060011c6001810180911161140b57905b838210611e0f575050565b909250611e2583611e2081846117ce565b611a3e565b60011c90611e04565b91611e3557565b60019150565b600080516020611f378339815191526020600092611e5b85600854611ee5565b60085560018060a01b03169384845260098252611e7c816040862054611ee5565b858552600983526040852055604051908152a3565b6dffffffffffffffffffffffffffff60701b607082901b16906001600160701b0316808204600160701b149015171561140b5790565b906001600160701b03169081156117d8576001600160e01b03160490565b9190611ef19083611a3e565b918210611efa57565b60405162461bcd60e51b815260206004820152601460248201527364732d6d6174682d6164642d6f766572666c6f7760601b6044820152606490fdfeddf252ad1be2c89b69c2b068fc378daa952ba7f163c4a11628f55a4df523b3efa26469706673582212208b6e509ac07ae8846ad4949906420e98c89c8c66d0a7711f44ee23d6568ca0cd64736f6c634300081e0033a2646970667358221220e37f0c164d8941bd636dc1cefe90ba7aef0a5339f8f958df4c156f26bdec78ed64736f6c634300081e0033","opcodes":"PUSH1 0x80 CALLVALUE PUSH1 0x70 JUMPI PUSH1 0x1F PUSH2 0x2861 CODESIZE DUP2 SWAP1 SUB SWAP2 DUP3 ADD PUSH1 0x1F NOT AND DUP4 ADD SWAP2 PUSH1 0x1 PUSH1 0x1 PUSH1 0x40 SHL SUB DUP4 GT DUP5 DUP5 LT OR PUSH1 0x75 JUMPI DUP1 DUP5 SWAP3 PUSH1 0x20 SWAP5 PUSH1 0x40 MSTORE DUP4 CODECOPY DUP2 ADD SUB SLT PUSH1 0x70 JUMPI MLOAD PUSH1 0x1 PUSH1 0x1 PUSH1 0xA0 SHL SUB DUP2 AND SWAP1 DUP2 SWAP1 SUB PUSH1 0x70 JUMPI PUSH1 0x1 DUP1 SLOAD PUSH1 0x1 PUSH1 0x1 PUSH1 0xA0 SHL SUB NOT AND SWAP2 SWAP1 SWAP2 OR SWAP1 SSTORE PUSH1 0x40 MLOAD PUSH2 0x27D5 SWAP1 DUP2 PUSH2 0x8C DUP3 CODECOPY RETURN JUMPDEST PUSH1 0x0 DUP1 REVERT JUMPDEST PUSH4 0x4E487B71 PUSH1 0xE0 SHL PUSH1 0x0 MSTORE PUSH1 0x41 PUSH1 0x4 MSTORE PUSH1 0x24 PUSH1 0x0 REVERT INVALID PUSH1 0x80 PUSH1 0x40 MSTORE PUSH1 0x4 CALLDATASIZE LT ISZERO PUSH2 0x12 JUMPI PUSH1 0x0 DUP1 REVERT JUMPDEST PUSH1 0x0 CALLDATALOAD PUSH1 0xE0 SHR DUP1 PUSH4 0x17E7E58 EQ PUSH2 0x97 JUMPI DUP1 PUSH4 0x94B7415 EQ PUSH2 0x92 JUMPI DUP1 PUSH4 0x1E3DD18B EQ PUSH2 0x8D JUMPI DUP1 PUSH4 0x574F2BA3 EQ PUSH2 0x88 JUMPI DUP1 PUSH4 0xA2E74AF6 EQ PUSH2 0x83 JUMPI DUP1 PUSH4 0xC9C65396 EQ PUSH2 0x7E JUMPI DUP1 PUSH4 0xE6A43905 EQ PUSH2 0x79 JUMPI PUSH4 0xF46901ED EQ PUSH2 0x74 JUMPI PUSH1 0x0 DUP1 REVERT JUMPDEST PUSH2 0x4A7 JUMP JUMPDEST PUSH2 0x455 JUMP JUMPDEST PUSH2 0x1E9 JUMP JUMPDEST PUSH2 0x19C JUMP JUMPDEST PUSH2 0x152 JUMP JUMPDEST PUSH2 0xF7 JUMP JUMPDEST PUSH2 0xCE JUMP JUMPDEST CALLVALUE PUSH2 0xBE JUMPI PUSH1 0x0 CALLDATASIZE PUSH1 0x3 NOT ADD SLT PUSH2 0xBE JUMPI PUSH1 0x0 SLOAD PUSH1 0x1 PUSH1 0x1 PUSH1 0xA0 SHL SUB AND PUSH1 0x80 SWAP1 DUP2 MSTORE PUSH1 0x20 SWAP1 RETURN JUMPDEST PUSH1 0x0 DUP1 REVERT JUMPDEST PUSH1 0x0 SWAP2 SUB SLT PUSH2 0xBE JUMPI JUMP JUMPDEST CALLVALUE PUSH2 0xBE JUMPI PUSH1 0x0 CALLDATASIZE PUSH1 0x3 NOT ADD SLT PUSH2 0xBE JUMPI PUSH1 0x1 SLOAD PUSH1 0x40 MLOAD PUSH1 0x1 PUSH1 0x1 PUSH1 0xA0 SHL SUB SWAP1 SWAP2 AND DUP2 MSTORE PUSH1 0x20 SWAP1 RETURN JUMPDEST CALLVALUE PUSH2 0xBE JUMPI PUSH1 0x20 CALLDATASIZE PUSH1 0x3 NOT ADD SLT PUSH2 0xBE JUMPI PUSH1 0x4 CALLDATALOAD PUSH1 0x3 SLOAD DUP2 LT ISZERO PUSH2 0xBE JUMPI PUSH1 0x3 PUSH1 0x0 MSTORE PUSH32 0xC2575A0E9E593C00F959F8C92F12DB2869C3395A3B0502D05E2516446F71F85B ADD SLOAD PUSH1 0x40 MLOAD PUSH1 0x1 PUSH1 0x1 PUSH1 0xA0 SHL SUB SWAP1 SWAP2 AND DUP2 MSTORE PUSH1 0x20 SWAP1 RETURN JUMPDEST CALLVALUE PUSH2 0xBE JUMPI PUSH1 0x0 CALLDATASIZE PUSH1 0x3 NOT ADD SLT PUSH2 0xBE JUMPI PUSH1 0x20 PUSH1 0x3 SLOAD PUSH1 0x40 MLOAD SWAP1 DUP2 MSTORE RETURN JUMPDEST PUSH1 0x4 CALLDATALOAD SWAP1 PUSH1 0x1 PUSH1 0x1 PUSH1 0xA0 SHL SUB DUP3 AND DUP3 SUB PUSH2 0xBE JUMPI JUMP JUMPDEST PUSH1 0x24 CALLDATALOAD SWAP1 PUSH1 0x1 PUSH1 0x1 PUSH1 0xA0 SHL SUB DUP3 AND DUP3 SUB PUSH2 0xBE JUMPI JUMP JUMPDEST CALLVALUE PUSH2 0xBE JUMPI PUSH1 0x20 CALLDATASIZE PUSH1 0x3 NOT ADD SLT PUSH2 0xBE JUMPI PUSH2 0x1B5 PUSH2 0x170 JUMP JUMPDEST PUSH1 0x1 SLOAD SWAP1 PUSH2 0x1CD CALLER PUSH1 0x1 PUSH1 0x1 PUSH1 0xA0 SHL SUB DUP5 AND EQ PUSH2 0x4F7 JUMP JUMPDEST PUSH1 0x1 PUSH1 0x1 PUSH1 0xA0 SHL SUB AND PUSH1 0x1 PUSH1 0x1 PUSH1 0xA0 SHL SUB NOT SWAP2 SWAP1 SWAP2 AND OR PUSH1 0x1 SSTORE STOP JUMPDEST CALLVALUE PUSH2 0xBE JUMPI PUSH1 0x40 CALLDATASIZE PUSH1 0x3 NOT ADD SLT PUSH2 0xBE JUMPI PUSH2 0x202 PUSH2 0x170 JUMP JUMPDEST PUSH2 0x20A PUSH2 0x186 JUMP JUMPDEST SWAP1 PUSH1 0x1 PUSH1 0x1 PUSH1 0xA0 SHL SUB DUP1 DUP4 AND SWAP1 DUP3 AND PUSH2 0x225 DUP2 DUP4 EQ ISZERO PUSH2 0x538 JUMP JUMPDEST LT ISZERO PUSH2 0x450 JUMPI SWAP1 JUMPDEST PUSH1 0x1 PUSH1 0x1 PUSH1 0xA0 SHL SUB DUP3 AND SWAP1 PUSH2 0x243 DUP3 ISZERO ISZERO PUSH2 0x584 JUMP JUMPDEST PUSH2 0x2A2 PUSH2 0x29C PUSH2 0x290 PUSH2 0x283 DUP5 PUSH2 0x26C DUP9 PUSH1 0x1 DUP1 PUSH1 0xA0 SHL SUB AND PUSH1 0x0 MSTORE PUSH1 0x2 PUSH1 0x20 MSTORE PUSH1 0x40 PUSH1 0x0 KECCAK256 SWAP1 JUMP JUMPDEST SWAP1 PUSH1 0x1 DUP1 PUSH1 0xA0 SHL SUB AND PUSH1 0x0 MSTORE PUSH1 0x20 MSTORE PUSH1 0x40 PUSH1 0x0 KECCAK256 SWAP1 JUMP JUMPDEST SLOAD PUSH1 0x1 PUSH1 0x1 PUSH1 0xA0 SHL SUB AND SWAP1 JUMP JUMPDEST PUSH1 0x1 PUSH1 0x1 PUSH1 0xA0 SHL SUB AND SWAP1 JUMP JUMPDEST ISZERO PUSH2 0x5C8 JUMP JUMPDEST PUSH2 0x20BB PUSH2 0x2B1 PUSH1 0x20 DUP3 ADD PUSH2 0x648 JUMP JUMPDEST SWAP1 DUP1 DUP3 MSTORE PUSH1 0x20 DUP3 ADD SWAP1 PUSH2 0x6E5 DUP3 CODECOPY PUSH1 0x40 MLOAD PUSH1 0x60 DUP7 DUP2 SHL PUSH12 0xFFFFFFFFFFFFFFFFFFFFFFFF NOT SWAP1 DUP2 AND PUSH1 0x20 DUP5 ADD SWAP1 DUP2 MSTORE SWAP2 DUP7 SWAP1 SHL AND PUSH1 0x34 DUP4 ADD MSTORE PUSH1 0x28 DUP3 MSTORE SWAP1 PUSH2 0x2F9 PUSH1 0x48 DUP3 PUSH2 0x621 JUMP JUMPDEST MLOAD SWAP1 KECCAK256 SWAP2 MLOAD SWAP1 PUSH1 0x0 CREATE2 PUSH1 0x1 PUSH1 0x1 PUSH1 0xA0 SHL SUB DUP2 AND SWAP4 SWAP1 SWAP3 SWAP1 DUP5 EXTCODESIZE ISZERO PUSH2 0xBE JUMPI PUSH1 0x40 MLOAD PUSH4 0x485CC955 PUSH1 0xE0 SHL DUP2 MSTORE PUSH1 0x1 PUSH1 0x1 PUSH1 0xA0 SHL SUB DUP3 DUP2 AND PUSH1 0x4 DUP4 ADD MSTORE DUP5 AND PUSH1 0x24 DUP3 ADD MSTORE SWAP5 PUSH1 0x0 SWAP1 DUP7 SWAP1 PUSH1 0x44 SWAP1 DUP3 SWAP1 DUP5 SWAP1 GAS CALL SWAP5 DUP6 ISZERO PUSH2 0x44B JUMPI PUSH2 0x388 PUSH2 0x3C4 SWAP3 DUP7 SWAP3 PUSH2 0x42C SWAP9 PUSH2 0x430 JUMPI JUMPDEST POP PUSH2 0x3A7 DUP4 PUSH2 0x388 DUP9 PUSH2 0x26C DUP6 PUSH1 0x1 DUP1 PUSH1 0xA0 SHL SUB AND PUSH1 0x0 MSTORE PUSH1 0x2 PUSH1 0x20 MSTORE PUSH1 0x40 PUSH1 0x0 KECCAK256 SWAP1 JUMP JUMPDEST DUP1 SLOAD PUSH1 0x1 PUSH1 0x1 PUSH1 0xA0 SHL SUB NOT AND PUSH1 0x1 PUSH1 0x1 PUSH1 0xA0 SHL SUB SWAP1 SWAP3 AND SWAP2 SWAP1 SWAP2 OR SWAP1 SSTORE JUMP JUMPDEST PUSH1 0x1 PUSH1 0x1 PUSH1 0xA0 SHL SUB DUP7 AND PUSH1 0x0 SWAP1 DUP2 MSTORE PUSH1 0x2 PUSH1 0x20 MSTORE PUSH1 0x40 SWAP1 KECCAK256 PUSH2 0x26C JUMP JUMPDEST PUSH2 0x3CD DUP4 PUSH2 0x664 JUMP JUMPDEST PUSH1 0x3 SLOAD PUSH1 0x40 DUP1 MLOAD PUSH1 0x1 PUSH1 0x1 PUSH1 0xA0 SHL SUB DUP7 DUP2 AND DUP3 MSTORE PUSH1 0x20 DUP3 ADD SWAP4 SWAP1 SWAP4 MSTORE SWAP4 SWAP1 SWAP2 AND SWAP3 PUSH32 0xD3648BD0F6BA80134A33BA9275AC585D9D315F0AD8355CDDEFDE31AFA28D0E9 SWAP2 SWAP1 LOG3 PUSH1 0x40 MLOAD PUSH1 0x1 PUSH1 0x1 PUSH1 0xA0 SHL SUB SWAP1 SWAP2 AND DUP2 MSTORE SWAP1 DUP2 SWAP1 PUSH1 0x20 DUP3 ADD SWAP1 JUMP JUMPDEST SUB SWAP1 RETURN JUMPDEST DUP1 PUSH2 0x43F PUSH1 0x0 PUSH2 0x445 SWAP4 PUSH2 0x621 JUMP JUMPDEST DUP1 PUSH2 0xC3 JUMP JUMPDEST CODESIZE PUSH2 0x363 JUMP JUMPDEST PUSH2 0x658 JUMP JUMPDEST PUSH2 0x22D JUMP JUMPDEST CALLVALUE PUSH2 0xBE JUMPI PUSH1 0x40 CALLDATASIZE PUSH1 0x3 NOT ADD SLT PUSH2 0xBE JUMPI PUSH1 0x20 PUSH2 0x470 PUSH2 0x170 JUMP JUMPDEST PUSH2 0x478 PUSH2 0x186 JUMP JUMPDEST PUSH1 0x1 PUSH1 0x1 PUSH1 0xA0 SHL SUB SWAP2 DUP3 AND PUSH1 0x0 SWAP1 DUP2 MSTORE PUSH1 0x2 DUP5 MSTORE PUSH1 0x40 DUP1 DUP3 KECCAK256 SWAP3 DUP5 AND DUP3 MSTORE PUSH1 0x20 SWAP3 SWAP1 SWAP3 MSTORE KECCAK256 SLOAD AND PUSH1 0x40 MLOAD SWAP1 DUP2 MSTORE RETURN JUMPDEST CALLVALUE PUSH2 0xBE JUMPI PUSH1 0x20 CALLDATASIZE PUSH1 0x3 NOT ADD SLT PUSH2 0xBE JUMPI PUSH2 0x4C0 PUSH2 0x170 JUMP JUMPDEST PUSH2 0x4D5 PUSH1 0x1 DUP1 PUSH1 0xA0 SHL SUB PUSH1 0x1 SLOAD AND CALLER EQ PUSH2 0x4F7 JUMP JUMPDEST PUSH1 0x0 DUP1 SLOAD PUSH1 0x1 PUSH1 0x1 PUSH1 0xA0 SHL SUB NOT AND PUSH1 0x1 PUSH1 0x1 PUSH1 0xA0 SHL SUB SWAP3 SWAP1 SWAP3 AND SWAP2 SWAP1 SWAP2 OR SWAP1 SSTORE STOP JUMPDEST ISZERO PUSH2 0x4FE JUMPI JUMP JUMPDEST PUSH1 0x40 MLOAD PUSH3 0x461BCD PUSH1 0xE5 SHL DUP2 MSTORE PUSH1 0x20 PUSH1 0x4 DUP3 ADD MSTORE PUSH1 0x12 PUSH1 0x24 DUP3 ADD MSTORE PUSH18 0x2232BBA9BBB0B81D102327A92124A22222A7 PUSH1 0x71 SHL PUSH1 0x44 DUP3 ADD MSTORE PUSH1 0x64 SWAP1 REVERT JUMPDEST ISZERO PUSH2 0x53F JUMPI JUMP JUMPDEST PUSH1 0x40 MLOAD PUSH3 0x461BCD PUSH1 0xE5 SHL DUP2 MSTORE PUSH1 0x20 PUSH1 0x4 DUP3 ADD MSTORE PUSH1 0x1C PUSH1 0x24 DUP3 ADD MSTORE PUSH32 0x446577537761703A204944454E544943414C5F41444452455353455300000000 PUSH1 0x44 DUP3 ADD MSTORE PUSH1 0x64 SWAP1 REVERT JUMPDEST ISZERO PUSH2 0x58B JUMPI JUMP JUMPDEST PUSH1 0x40 MLOAD PUSH3 0x461BCD PUSH1 0xE5 SHL DUP2 MSTORE PUSH1 0x20 PUSH1 0x4 DUP3 ADD MSTORE PUSH1 0x15 PUSH1 0x24 DUP3 ADD MSTORE PUSH21 0x446577537761703A205A45524F5F41444452455353 PUSH1 0x58 SHL PUSH1 0x44 DUP3 ADD MSTORE PUSH1 0x64 SWAP1 REVERT JUMPDEST ISZERO PUSH2 0x5CF JUMPI JUMP JUMPDEST PUSH1 0x40 MLOAD PUSH3 0x461BCD PUSH1 0xE5 SHL DUP2 MSTORE PUSH1 0x20 PUSH1 0x4 DUP3 ADD MSTORE PUSH1 0x14 PUSH1 0x24 DUP3 ADD MSTORE PUSH20 0x446577537761703A20504149525F455849535453 PUSH1 0x60 SHL PUSH1 0x44 DUP3 ADD MSTORE PUSH1 0x64 SWAP1 REVERT JUMPDEST PUSH4 0x4E487B71 PUSH1 0xE0 SHL PUSH1 0x0 MSTORE PUSH1 0x41 PUSH1 0x4 MSTORE PUSH1 0x24 PUSH1 0x0 REVERT JUMPDEST SWAP1 PUSH1 0x1F DUP1 NOT SWAP2 ADD AND DUP2 ADD SWAP1 DUP2 LT PUSH8 0xFFFFFFFFFFFFFFFF DUP3 GT OR PUSH2 0x643 JUMPI PUSH1 0x40 MSTORE JUMP JUMPDEST PUSH2 0x60B JUMP JUMPDEST SWAP1 PUSH2 0x656 PUSH1 0x40 MLOAD SWAP3 DUP4 PUSH2 0x621 JUMP JUMPDEST JUMP JUMPDEST PUSH1 0x40 MLOAD RETURNDATASIZE PUSH1 0x0 DUP3 RETURNDATACOPY RETURNDATASIZE SWAP1 REVERT JUMPDEST PUSH1 0x3 SLOAD PUSH9 0x10000000000000000 DUP2 LT ISZERO PUSH2 0x643 JUMPI PUSH1 0x1 DUP2 ADD PUSH1 0x3 SSTORE PUSH1 0x0 PUSH1 0x3 SLOAD DUP3 LT ISZERO PUSH2 0x6D0 JUMPI PUSH1 0x3 SWAP1 MSTORE PUSH32 0xC2575A0E9E593C00F959F8C92F12DB2869C3395A3B0502D05E2516446F71F85B ADD DUP1 SLOAD PUSH1 0x1 PUSH1 0x1 PUSH1 0xA0 SHL SUB NOT AND PUSH1 0x1 PUSH1 0x1 PUSH1 0xA0 SHL SUB SWAP1 SWAP3 AND SWAP2 SWAP1 SWAP2 OR SWAP1 SSTORE JUMP JUMPDEST PUSH4 0x4E487B71 PUSH1 0xE0 SHL DUP2 MSTORE PUSH1 0x32 PUSH1 0x4 MSTORE PUSH1 0x24 SWAP1 REVERT INVALID PUSH1 0x80 PUSH1 0x40 MSTORE CALLVALUE PUSH2 0xF0 JUMPI PUSH1 0x1 PUSH1 0x7 SSTORE PUSH1 0x0 DUP1 SLOAD PUSH1 0x1 PUSH1 0x1 PUSH1 0xA0 SHL SUB NOT AND CALLER OR SWAP1 SSTORE PUSH1 0x40 DUP1 MLOAD SWAP1 PUSH2 0x2F SWAP1 DUP3 PUSH2 0xF5 JUMP JUMPDEST PUSH1 0xA DUP2 MSTORE PUSH10 0x44657753776170204C5 PUSH1 0xB4 SHL PUSH1 0x20 SWAP1 SWAP2 ADD MSTORE PUSH1 0x40 DUP1 MLOAD PUSH32 0x73093C99AF5938C5DE6772988FAE0E0541ACB8FA0B4BB716C8917391AAB2EC75 SWAP2 PUSH2 0x77 SWAP1 DUP3 PUSH2 0xF5 JUMP JUMPDEST PUSH1 0x1 DUP2 MSTORE PUSH1 0x20 DUP2 ADD SWAP1 PUSH1 0x31 PUSH1 0xF8 SHL DUP3 MSTORE MLOAD SWAP1 KECCAK256 PUSH1 0x40 MLOAD SWAP1 PUSH1 0x20 DUP3 ADD SWAP3 PUSH32 0x8B73C3C69BB8FE3D512ECC4CF759CC79239F7B179B0FFACAA9A75D522B39400F DUP5 MSTORE PUSH1 0x40 DUP4 ADD MSTORE PUSH1 0x60 DUP3 ADD MSTORE CHAINID PUSH1 0x80 DUP3 ADD MSTORE ADDRESS PUSH1 0xA0 DUP3 ADD MSTORE PUSH1 0xA0 DUP2 MSTORE PUSH2 0xDB PUSH1 0xC0 DUP3 PUSH2 0xF5 JUMP JUMPDEST MLOAD SWAP1 KECCAK256 PUSH1 0xB SSTORE PUSH1 0x40 MLOAD PUSH2 0x1F8C SWAP1 DUP2 PUSH2 0x12F DUP3 CODECOPY RETURN JUMPDEST PUSH1 0x0 DUP1 REVERT JUMPDEST PUSH1 0x1F SWAP1 SWAP2 ADD PUSH1 0x1F NOT AND DUP2 ADD SWAP1 PUSH1 0x1 PUSH1 0x1 PUSH1 0x40 SHL SUB DUP3 GT SWAP1 DUP3 LT OR PUSH2 0x118 JUMPI PUSH1 0x40 MSTORE JUMP JUMPDEST PUSH4 0x4E487B71 PUSH1 0xE0 SHL PUSH1 0x0 MSTORE PUSH1 0x41 PUSH1 0x4 MSTORE PUSH1 0x24 PUSH1 0x0 REVERT INVALID PUSH1 0x80 PUSH1 0x40 MSTORE PUSH1 0x4 CALLDATASIZE LT ISZERO PUSH2 0x12 JUMPI PUSH1 0x0 DUP1 REVERT JUMPDEST PUSH1 0x0 DUP1 CALLDATALOAD PUSH1 0xE0 SHR DUP1 PUSH4 0x22C0D9F EQ PUSH2 0x111F JUMPI DUP1 PUSH4 0x6FDDE03 EQ PUSH2 0x10D9 JUMPI DUP1 PUSH4 0x902F1AC EQ PUSH2 0x1098 JUMPI DUP1 PUSH4 0x95EA7B3 EQ PUSH2 0x1071 JUMPI DUP1 PUSH4 0xDFE1681 EQ PUSH2 0x1048 JUMPI DUP1 PUSH4 0x18160DDD EQ PUSH2 0x102A JUMPI DUP1 PUSH4 0x23B872DD EQ PUSH2 0xF79 JUMPI DUP1 PUSH4 0x30ADF81F EQ PUSH2 0xF3E JUMPI DUP1 PUSH4 0x313CE567 EQ PUSH2 0xF22 JUMPI DUP1 PUSH4 0x3644E515 EQ PUSH2 0xF04 JUMPI DUP1 PUSH4 0x485CC955 EQ PUSH2 0xE51 JUMPI DUP1 PUSH4 0x5909C0D5 EQ PUSH2 0xE33 JUMPI DUP1 PUSH4 0x5A3D5493 EQ PUSH2 0xE15 JUMPI DUP1 PUSH4 0x6A627842 EQ PUSH2 0xB22 JUMPI DUP1 PUSH4 0x70A08231 EQ PUSH2 0xAE9 JUMPI DUP1 PUSH4 0x7464FC3D EQ PUSH2 0xACB JUMPI DUP1 PUSH4 0x7ECEBE00 EQ PUSH2 0xA92 JUMPI DUP1 PUSH4 0x89AFCB44 EQ PUSH2 0x70F JUMPI DUP1 PUSH4 0x95D89B41 EQ PUSH2 0x6C9 JUMPI DUP1 PUSH4 0xA9059CBB EQ PUSH2 0x697 JUMPI DUP1 PUSH4 0xBA9A7A56 EQ PUSH2 0x67A JUMPI DUP1 PUSH4 0xBC25CF77 EQ PUSH2 0x52B JUMPI DUP1 PUSH4 0xC45A0155 EQ PUSH2 0x504 JUMPI DUP1 PUSH4 0xD21220A7 EQ PUSH2 0x4DB JUMPI DUP1 PUSH4 0xD505ACCF EQ PUSH2 0x2E0 JUMPI DUP1 PUSH4 0xDD62ED3E EQ PUSH2 0x28B JUMPI PUSH4 0xFFF6CAE9 EQ PUSH2 0x146 JUMPI PUSH1 0x0 DUP1 REVERT JUMPDEST CALLVALUE PUSH2 0x288 JUMPI DUP1 PUSH1 0x3 NOT CALLDATASIZE ADD SLT PUSH2 0x288 JUMPI PUSH2 0x164 PUSH1 0x1 PUSH1 0x7 SLOAD EQ PUSH2 0x1761 JUMP JUMPDEST PUSH1 0x7 DUP2 SWAP1 SSTORE PUSH1 0x1 SLOAD PUSH1 0x40 MLOAD PUSH4 0x70A08231 PUSH1 0xE0 SHL DUP2 MSTORE ADDRESS PUSH1 0x4 DUP3 ADD MSTORE SWAP1 PUSH1 0x20 SWAP1 DUP3 SWAP1 PUSH1 0x24 SWAP1 DUP3 SWAP1 PUSH1 0x1 PUSH1 0x1 PUSH1 0xA0 SHL SUB AND GAS STATICCALL DUP1 ISZERO PUSH2 0x27D JUMPI DUP3 SWAP1 PUSH2 0x24A JUMPI JUMPDEST PUSH1 0x2 SLOAD PUSH1 0x40 MLOAD PUSH4 0x70A08231 PUSH1 0xE0 SHL DUP2 MSTORE ADDRESS PUSH1 0x4 DUP3 ADD MSTORE SWAP3 POP PUSH1 0x20 SWAP1 DUP4 SWAP1 PUSH1 0x24 SWAP1 DUP3 SWAP1 PUSH1 0x1 PUSH1 0x1 PUSH1 0xA0 SHL SUB AND GAS STATICCALL SWAP1 DUP2 ISZERO PUSH2 0x23F JUMPI DUP4 SWAP2 PUSH2 0x204 JUMPI JUMPDEST PUSH2 0x1FC SWAP3 POP PUSH1 0x3 SLOAD SWAP2 PUSH1 0x1 PUSH1 0x1 PUSH1 0x70 SHL SUB DUP1 DUP5 PUSH1 0x70 SHR AND SWAP4 AND SWAP2 PUSH2 0x1A4B JUMP JUMPDEST PUSH1 0x1 PUSH1 0x7 SSTORE DUP1 RETURN JUMPDEST SWAP1 POP PUSH1 0x20 DUP3 RETURNDATASIZE PUSH1 0x20 GT PUSH2 0x237 JUMPI JUMPDEST DUP2 PUSH2 0x21F PUSH1 0x20 SWAP4 DUP4 PUSH2 0x16E0 JUMP JUMPDEST DUP2 ADD SUB SLT PUSH2 0x232 JUMPI PUSH2 0x1FC SWAP2 MLOAD SWAP1 PUSH2 0x1DD JUMP JUMPDEST PUSH1 0x0 DUP1 REVERT JUMPDEST RETURNDATASIZE SWAP2 POP PUSH2 0x212 JUMP JUMPDEST PUSH1 0x40 MLOAD RETURNDATASIZE DUP6 DUP3 RETURNDATACOPY RETURNDATASIZE SWAP1 REVERT JUMPDEST POP PUSH1 0x20 DUP2 RETURNDATASIZE PUSH1 0x20 GT PUSH2 0x275 JUMPI JUMPDEST DUP2 PUSH2 0x264 PUSH1 0x20 SWAP4 DUP4 PUSH2 0x16E0 JUMP JUMPDEST DUP2 ADD SUB SLT PUSH2 0x232 JUMPI PUSH1 0x24 SWAP1 MLOAD PUSH2 0x1A2 JUMP JUMPDEST RETURNDATASIZE SWAP2 POP PUSH2 0x257 JUMP JUMPDEST PUSH1 0x40 MLOAD RETURNDATASIZE DUP5 DUP3 RETURNDATACOPY RETURNDATASIZE SWAP1 REVERT JUMPDEST DUP1 REVERT JUMPDEST POP CALLVALUE PUSH2 0x288 JUMPI PUSH1 0x40 CALLDATASIZE PUSH1 0x3 NOT ADD SLT PUSH2 0x288 JUMPI PUSH1 0x40 PUSH2 0x2A7 PUSH2 0x16B4 JUMP JUMPDEST SWAP2 PUSH2 0x2B0 PUSH2 0x16CA JUMP JUMPDEST SWAP3 PUSH1 0x1 DUP1 PUSH1 0xA0 SHL SUB AND DUP2 MSTORE PUSH1 0xA PUSH1 0x20 MSTORE KECCAK256 SWAP1 PUSH1 0x1 DUP1 PUSH1 0xA0 SHL SUB AND PUSH1 0x0 MSTORE PUSH1 0x20 MSTORE PUSH1 0x20 PUSH1 0x40 PUSH1 0x0 KECCAK256 SLOAD PUSH1 0x40 MLOAD SWAP1 DUP2 MSTORE RETURN JUMPDEST POP CALLVALUE PUSH2 0x288 JUMPI PUSH1 0xE0 CALLDATASIZE PUSH1 0x3 NOT ADD SLT PUSH2 0x288 JUMPI PUSH2 0x2FA PUSH2 0x16B4 JUMP JUMPDEST PUSH2 0x302 PUSH2 0x16CA JUMP JUMPDEST PUSH1 0x44 CALLDATALOAD SWAP1 PUSH1 0x64 CALLDATALOAD PUSH1 0x84 CALLDATALOAD PUSH1 0xFF DUP2 AND DUP1 SWAP2 SUB PUSH2 0x4D7 JUMPI TIMESTAMP DUP3 LT PUSH2 0x49F JUMPI PUSH1 0xB SLOAD PUSH1 0x1 PUSH1 0x1 PUSH1 0xA0 SHL SUB DUP7 AND DUP1 DUP9 MSTORE PUSH1 0xC PUSH1 0x20 MSTORE PUSH1 0x40 DUP9 KECCAK256 DUP1 SLOAD SWAP2 SWAP5 SWAP1 PUSH1 0x0 NOT DUP4 EQ PUSH2 0x48B JUMPI SWAP3 DUP3 PUSH1 0x20 SWAP6 SWAP3 DUP12 SWAP6 PUSH1 0x1 PUSH1 0x80 SWAP7 ADD SWAP1 SSTORE PUSH1 0x40 MLOAD SWAP1 DUP8 DUP3 ADD SWAP3 PUSH32 0x6E71EDAE12B1B97F4D1F60370FEF10105FA2FAAE0126114A169C64845D6126C9 DUP5 MSTORE DUP10 PUSH1 0x40 DUP5 ADD MSTORE PUSH1 0x1 DUP1 PUSH1 0xA0 SHL SUB DUP12 AND PUSH1 0x60 DUP5 ADD MSTORE DUP12 DUP8 DUP5 ADD MSTORE PUSH1 0xA0 DUP4 ADD MSTORE PUSH1 0xC0 DUP3 ADD MSTORE PUSH1 0xC0 DUP2 MSTORE PUSH2 0x3B2 PUSH1 0xE0 DUP3 PUSH2 0x16E0 JUMP JUMPDEST MLOAD SWAP1 KECCAK256 PUSH1 0x40 MLOAD SWAP1 DUP7 DUP3 ADD SWAP3 PUSH2 0x1901 PUSH1 0xF0 SHL DUP5 MSTORE PUSH1 0x22 DUP4 ADD MSTORE PUSH1 0x42 DUP3 ADD MSTORE PUSH1 0x42 DUP2 MSTORE PUSH2 0x3DE PUSH1 0x62 DUP3 PUSH2 0x16E0 JUMP JUMPDEST MLOAD SWAP1 KECCAK256 SWAP1 PUSH1 0x40 MLOAD SWAP2 DUP3 MSTORE DUP5 DUP3 ADD MSTORE PUSH1 0xA4 CALLDATALOAD PUSH1 0x40 DUP3 ADD MSTORE PUSH1 0xC4 CALLDATALOAD PUSH1 0x60 DUP3 ADD MSTORE DUP3 DUP1 MSTORE PUSH1 0x1 GAS STATICCALL ISZERO PUSH2 0x480 JUMPI DUP5 MLOAD PUSH1 0x1 PUSH1 0x1 PUSH1 0xA0 SHL SUB AND DUP1 ISZERO ISZERO SWAP2 SWAP1 DUP3 PUSH2 0x476 JUMPI JUMPDEST POP POP ISZERO PUSH2 0x431 JUMPI PUSH2 0x42E SWAP3 PUSH2 0x1BBA JUMP JUMPDEST DUP1 RETURN JUMPDEST PUSH1 0x40 MLOAD PUSH3 0x461BCD PUSH1 0xE5 SHL DUP2 MSTORE PUSH1 0x20 PUSH1 0x4 DUP3 ADD MSTORE PUSH1 0x1A PUSH1 0x24 DUP3 ADD MSTORE PUSH32 0x446577537761703A20494E56414C49445F5349474E4154555245000000000000 PUSH1 0x44 DUP3 ADD MSTORE PUSH1 0x64 SWAP1 REVERT JUMPDEST EQ SWAP1 POP CODESIZE DUP1 PUSH2 0x41E JUMP JUMPDEST PUSH1 0x40 MLOAD RETURNDATASIZE DUP7 DUP3 RETURNDATACOPY RETURNDATASIZE SWAP1 REVERT JUMPDEST PUSH4 0x4E487B71 PUSH1 0xE0 SHL DUP11 MSTORE PUSH1 0x11 PUSH1 0x4 MSTORE PUSH1 0x24 DUP11 REVERT JUMPDEST PUSH1 0x40 MLOAD PUSH3 0x461BCD PUSH1 0xE5 SHL DUP2 MSTORE PUSH1 0x20 PUSH1 0x4 DUP3 ADD MSTORE PUSH1 0x10 PUSH1 0x24 DUP3 ADD MSTORE PUSH16 0x11195DD4DDD85C0E8811561412549151 PUSH1 0x82 SHL PUSH1 0x44 DUP3 ADD MSTORE PUSH1 0x64 SWAP1 REVERT JUMPDEST DUP6 DUP1 REVERT JUMPDEST POP CALLVALUE PUSH2 0x288 JUMPI DUP1 PUSH1 0x3 NOT CALLDATASIZE ADD SLT PUSH2 0x288 JUMPI PUSH1 0x2 SLOAD PUSH1 0x40 MLOAD PUSH1 0x1 PUSH1 0x1 PUSH1 0xA0 SHL SUB SWAP1 SWAP2 AND DUP2 MSTORE PUSH1 0x20 SWAP1 RETURN JUMPDEST POP CALLVALUE PUSH2 0x288 JUMPI DUP1 PUSH1 0x3 NOT CALLDATASIZE ADD SLT PUSH2 0x288 JUMPI SLOAD PUSH1 0x40 MLOAD PUSH1 0x1 PUSH1 0x1 PUSH1 0xA0 SHL SUB SWAP1 SWAP2 AND DUP2 MSTORE PUSH1 0x20 SWAP1 RETURN JUMPDEST POP CALLVALUE PUSH2 0x288 JUMPI PUSH1 0x20 CALLDATASIZE PUSH1 0x3 NOT ADD SLT PUSH2 0x288 JUMPI PUSH2 0x545 PUSH2 0x16B4 JUMP JUMPDEST PUSH2 0x553 PUSH1 0x1 PUSH1 0x7 SLOAD EQ PUSH2 0x1761 JUMP JUMPDEST PUSH1 0x7 DUP3 SWAP1 SSTORE PUSH1 0x1 SLOAD PUSH1 0x2 SLOAD PUSH1 0x40 MLOAD PUSH4 0x70A08231 PUSH1 0xE0 SHL DUP2 MSTORE ADDRESS PUSH1 0x4 DUP3 ADD MSTORE PUSH1 0x1 PUSH1 0x1 PUSH1 0xA0 SHL SUB SWAP2 DUP3 AND SWAP3 SWAP1 SWAP2 AND PUSH1 0x20 DUP3 PUSH1 0x24 DUP2 DUP5 GAS STATICCALL SWAP2 DUP3 ISZERO PUSH2 0x66F JUMPI DUP5 SWAP1 DUP7 SWAP4 PUSH2 0x637 JUMPI JUMPDEST POP PUSH2 0x5B3 PUSH2 0x5B9 SWAP4 PUSH1 0x1 PUSH1 0x1 PUSH1 0x70 SHL SUB PUSH1 0x3 SLOAD AND SWAP1 PUSH2 0x19EC JUMP JUMPDEST SWAP2 PUSH2 0x17EE JUMP JUMPDEST PUSH1 0x40 MLOAD PUSH4 0x70A08231 PUSH1 0xE0 SHL DUP2 MSTORE ADDRESS PUSH1 0x4 DUP3 ADD MSTORE SWAP2 PUSH1 0x20 DUP4 PUSH1 0x24 DUP2 DUP6 GAS STATICCALL SWAP3 DUP4 ISZERO PUSH2 0x480 JUMPI DUP5 SWAP4 PUSH2 0x601 JUMPI JUMPDEST POP PUSH2 0x5B3 PUSH2 0x1FC SWAP4 PUSH1 0x1 PUSH1 0x1 PUSH1 0x70 SHL SUB PUSH1 0x3 SLOAD PUSH1 0x70 SHR AND SWAP1 PUSH2 0x19EC JUMP JUMPDEST SWAP3 POP PUSH1 0x20 DUP4 RETURNDATASIZE PUSH1 0x20 GT PUSH2 0x62F JUMPI JUMPDEST DUP2 PUSH2 0x61C PUSH1 0x20 SWAP4 DUP4 PUSH2 0x16E0 JUMP JUMPDEST DUP2 ADD SUB SLT PUSH2 0x232 JUMPI SWAP2 MLOAD SWAP2 PUSH2 0x5B3 PUSH2 0x5E4 JUMP JUMPDEST RETURNDATASIZE SWAP2 POP PUSH2 0x60F JUMP JUMPDEST SWAP3 POP POP PUSH1 0x20 DUP3 RETURNDATASIZE PUSH1 0x20 GT PUSH2 0x667 JUMPI JUMPDEST DUP2 PUSH2 0x653 PUSH1 0x20 SWAP4 DUP4 PUSH2 0x16E0 JUMP JUMPDEST DUP2 ADD SUB SLT PUSH2 0x232 JUMPI SWAP1 MLOAD SWAP1 DUP4 PUSH2 0x5B3 PUSH2 0x599 JUMP JUMPDEST RETURNDATASIZE SWAP2 POP PUSH2 0x646 JUMP JUMPDEST PUSH1 0x40 MLOAD RETURNDATASIZE DUP8 DUP3 RETURNDATACOPY RETURNDATASIZE SWAP1 REVERT JUMPDEST POP CALLVALUE PUSH2 0x288 JUMPI DUP1 PUSH1 0x3 NOT CALLDATASIZE ADD SLT PUSH2 0x288 JUMPI PUSH1 0x20 PUSH1 0x40 MLOAD PUSH2 0x3E8 DUP2 MSTORE RETURN JUMPDEST POP CALLVALUE PUSH2 0x288 JUMPI PUSH1 0x40 CALLDATASIZE PUSH1 0x3 NOT ADD SLT PUSH2 0x288 JUMPI PUSH2 0x6BE PUSH2 0x6B4 PUSH2 0x16B4 JUMP JUMPDEST PUSH1 0x24 CALLDATALOAD SWAP1 CALLER PUSH2 0x1C14 JUMP JUMPDEST PUSH1 0x20 PUSH1 0x40 MLOAD PUSH1 0x1 DUP2 MSTORE RETURN JUMPDEST POP CALLVALUE PUSH2 0x288 JUMPI DUP1 PUSH1 0x3 NOT CALLDATASIZE ADD SLT PUSH2 0x288 JUMPI POP PUSH2 0x70B PUSH1 0x40 MLOAD PUSH2 0x6EC PUSH1 0x40 DUP3 PUSH2 0x16E0 JUMP JUMPDEST PUSH1 0x6 DUP2 MSTORE PUSH6 0x4445572D4C5 PUSH1 0xD4 SHL PUSH1 0x20 DUP3 ADD MSTORE PUSH1 0x40 MLOAD SWAP2 DUP3 SWAP2 DUP3 PUSH2 0x1718 JUMP JUMPDEST SUB SWAP1 RETURN JUMPDEST POP CALLVALUE PUSH2 0x288 JUMPI PUSH1 0x20 CALLDATASIZE PUSH1 0x3 NOT ADD SLT PUSH2 0x288 JUMPI PUSH2 0x729 PUSH2 0x16B4 JUMP JUMPDEST PUSH2 0x737 PUSH1 0x1 PUSH1 0x7 SLOAD EQ PUSH2 0x1761 JUMP JUMPDEST DUP2 PUSH1 0x7 SSTORE PUSH2 0x743 PUSH2 0x17AC JUMP JUMPDEST POP PUSH1 0x1 SLOAD PUSH1 0x2 SLOAD PUSH1 0x40 MLOAD PUSH4 0x70A08231 PUSH1 0xE0 SHL DUP2 MSTORE ADDRESS PUSH1 0x4 DUP3 ADD MSTORE PUSH1 0x1 PUSH1 0x1 PUSH1 0xA0 SHL SUB SWAP3 DUP4 AND SWAP7 SWAP5 SWAP6 SWAP2 SWAP1 SWAP3 AND SWAP4 SWAP1 SWAP3 SWAP1 PUSH1 0x20 DUP4 PUSH1 0x24 DUP2 DUP11 GAS STATICCALL SWAP3 DUP4 ISZERO PUSH2 0xA85 JUMPI DUP2 SWAP4 PUSH2 0xA51 JUMPI JUMPDEST POP PUSH1 0x40 MLOAD PUSH4 0x70A08231 PUSH1 0xE0 SHL DUP2 MSTORE ADDRESS PUSH1 0x4 DUP3 ADD MSTORE SWAP7 PUSH1 0x20 DUP9 PUSH1 0x24 DUP2 DUP10 GAS STATICCALL SWAP6 DUP7 ISZERO PUSH2 0x27D JUMPI DUP8 SWAP9 DUP4 SWAP9 SWAP8 PUSH2 0xA1A JUMPI JUMPDEST POP ADDRESS DUP4 MSTORE PUSH1 0x9 PUSH1 0x20 MSTORE PUSH2 0x7F6 PUSH2 0x7EA PUSH2 0x7EA PUSH2 0x7EF PUSH2 0x7DD DUP9 PUSH1 0x40 DUP10 KECCAK256 SLOAD SWAP13 PUSH2 0x1C8B JUMP JUMPDEST SWAP9 PUSH1 0x8 SLOAD SWAP4 DUP5 SWAP2 DUP14 PUSH2 0x19B5 JUMP JUMPDEST PUSH2 0x17CE JUMP JUMPDEST SWAP11 DUP11 PUSH2 0x19B5 JUMP JUMPDEST SWAP7 DUP9 ISZERO ISZERO DUP1 PUSH2 0xA11 JUMPI JUMPDEST ISZERO PUSH2 0x9BD JUMPI PUSH1 0x24 SWAP3 DUP5 PUSH1 0x20 SWAP3 ADDRESS DUP3 MSTORE PUSH1 0x9 DUP5 MSTORE PUSH2 0x821 DUP2 PUSH1 0x40 DUP5 KECCAK256 SLOAD PUSH2 0x19EC JUMP JUMPDEST ADDRESS DUP4 MSTORE PUSH1 0x9 DUP6 MSTORE PUSH1 0x40 DUP4 KECCAK256 SSTORE PUSH2 0x839 DUP2 PUSH1 0x8 SLOAD PUSH2 0x19EC JUMP JUMPDEST PUSH1 0x8 SSTORE PUSH1 0x40 MLOAD SWAP1 DUP2 MSTORE PUSH1 0x0 DUP1 MLOAD PUSH1 0x20 PUSH2 0x1F37 DUP4 CODECOPY DUP2 MLOAD SWAP2 MSTORE DUP5 ADDRESS SWAP3 LOG3 PUSH2 0x860 DUP11 DUP10 DUP4 PUSH2 0x17EE JUMP JUMPDEST PUSH2 0x86B DUP10 DUP10 DUP6 PUSH2 0x17EE JUMP JUMPDEST PUSH1 0x40 MLOAD PUSH4 0x70A08231 PUSH1 0xE0 SHL DUP2 MSTORE ADDRESS PUSH1 0x4 DUP3 ADD MSTORE SWAP4 DUP5 SWAP2 DUP3 SWAP1 GAS STATICCALL SWAP2 DUP3 ISZERO PUSH2 0x23F JUMPI DUP4 SWAP3 PUSH2 0x988 JUMPI JUMPDEST POP PUSH1 0x20 PUSH1 0x24 SWAP2 PUSH1 0x40 MLOAD SWAP3 DUP4 DUP1 SWAP3 PUSH4 0x70A08231 PUSH1 0xE0 SHL DUP3 MSTORE ADDRESS PUSH1 0x4 DUP4 ADD MSTORE GAS STATICCALL SWAP3 DUP4 ISZERO PUSH2 0x97C JUMPI SWAP3 PUSH2 0x941 JUMPI JUMPDEST POP SWAP7 PUSH2 0x8CE SWAP3 SWAP2 PUSH1 0x40 SWAP9 PUSH2 0x1A4B JUMP JUMPDEST PUSH2 0x91E JUMPI JUMPDEST DUP4 MLOAD SWAP1 DUP4 DUP3 MSTORE DUP3 PUSH1 0x20 DUP4 ADD MSTORE PUSH1 0x1 DUP1 PUSH1 0xA0 SHL SUB AND SWAP1 PUSH32 0xDCCD412F0B1252819CB1FD330B93224CA42612892BB3F4F789976E6D81936496 DUP6 CALLER SWAP3 LOG3 PUSH1 0x1 PUSH1 0x7 SSTORE DUP3 MLOAD SWAP2 DUP3 MSTORE PUSH1 0x20 DUP3 ADD MSTORE RETURN JUMPDEST PUSH2 0x939 PUSH1 0x3 SLOAD PUSH1 0x1 PUSH1 0x1 PUSH1 0x70 SHL SUB DUP1 DUP3 PUSH1 0x70 SHR AND SWAP2 AND PUSH2 0x19B5 JUMP JUMPDEST PUSH1 0x6 SSTORE PUSH2 0x8D3 JUMP JUMPDEST SWAP3 SWAP2 POP SWAP7 PUSH1 0x20 DUP4 RETURNDATASIZE PUSH1 0x20 GT PUSH2 0x974 JUMPI JUMPDEST DUP2 PUSH2 0x95E PUSH1 0x20 SWAP4 DUP4 PUSH2 0x16E0 JUMP JUMPDEST DUP2 ADD SUB SLT PUSH2 0x232 JUMPI SWAP2 MLOAD SWAP2 SWAP7 SWAP1 SWAP2 SWAP1 PUSH1 0x40 PUSH2 0x8BF JUMP JUMPDEST RETURNDATASIZE SWAP2 POP PUSH2 0x951 JUMP JUMPDEST PUSH1 0x40 MLOAD SWAP1 RETURNDATASIZE SWAP1 DUP3 RETURNDATACOPY RETURNDATASIZE SWAP1 REVERT JUMPDEST SWAP1 SWAP2 POP PUSH1 0x20 DUP2 RETURNDATASIZE PUSH1 0x20 GT PUSH2 0x9B5 JUMPI JUMPDEST DUP2 PUSH2 0x9A4 PUSH1 0x20 SWAP4 DUP4 PUSH2 0x16E0 JUMP JUMPDEST DUP2 ADD SUB SLT PUSH2 0x232 JUMPI MLOAD SWAP1 PUSH1 0x20 PUSH2 0x893 JUMP JUMPDEST RETURNDATASIZE SWAP2 POP PUSH2 0x997 JUMP JUMPDEST PUSH1 0x40 MLOAD PUSH3 0x461BCD PUSH1 0xE5 SHL DUP2 MSTORE PUSH1 0x20 PUSH1 0x4 DUP3 ADD MSTORE PUSH1 0x26 PUSH1 0x24 DUP3 ADD MSTORE PUSH32 0x446577537761703A20494E53554646494349454E545F4C49515549444954595F PUSH1 0x44 DUP3 ADD MSTORE PUSH6 0x109554939151 PUSH1 0xD2 SHL PUSH1 0x64 DUP3 ADD MSTORE PUSH1 0x84 SWAP1 REVERT JUMPDEST POP DUP8 ISZERO ISZERO PUSH2 0x800 JUMP JUMPDEST SWAP7 POP SWAP7 POP PUSH1 0x20 DUP7 RETURNDATASIZE PUSH1 0x20 GT PUSH2 0xA49 JUMPI JUMPDEST DUP2 PUSH2 0xA37 PUSH1 0x20 SWAP4 DUP4 PUSH2 0x16E0 JUMP JUMPDEST DUP2 ADD SUB SLT PUSH2 0x232 JUMPI DUP8 SWAP6 MLOAD SWAP7 CODESIZE PUSH2 0x7B9 JUMP JUMPDEST RETURNDATASIZE SWAP2 POP PUSH2 0xA2A JUMP JUMPDEST SWAP1 SWAP3 POP PUSH1 0x20 DUP2 RETURNDATASIZE PUSH1 0x20 GT PUSH2 0xA7D JUMPI JUMPDEST DUP2 PUSH2 0xA6D PUSH1 0x20 SWAP4 DUP4 PUSH2 0x16E0 JUMP JUMPDEST DUP2 ADD SUB SLT PUSH2 0x232 JUMPI MLOAD SWAP2 CODESIZE PUSH2 0x78A JUMP JUMPDEST RETURNDATASIZE SWAP2 POP PUSH2 0xA60 JUMP JUMPDEST POP PUSH1 0x40 MLOAD SWAP1 RETURNDATASIZE SWAP1 DUP3 RETURNDATACOPY RETURNDATASIZE SWAP1 REVERT JUMPDEST POP CALLVALUE PUSH2 0x288 JUMPI PUSH1 0x20 CALLDATASIZE PUSH1 0x3 NOT ADD SLT PUSH2 0x288 JUMPI PUSH1 0x20 SWAP1 PUSH1 0x40 SWAP1 PUSH1 0x1 PUSH1 0x1 PUSH1 0xA0 SHL SUB PUSH2 0xABA PUSH2 0x16B4 JUMP JUMPDEST AND DUP2 MSTORE PUSH1 0xC DUP4 MSTORE KECCAK256 SLOAD PUSH1 0x40 MLOAD SWAP1 DUP2 MSTORE RETURN JUMPDEST POP CALLVALUE PUSH2 0x288 JUMPI DUP1 PUSH1 0x3 NOT CALLDATASIZE ADD SLT PUSH2 0x288 JUMPI PUSH1 0x20 PUSH1 0x6 SLOAD PUSH1 0x40 MLOAD SWAP1 DUP2 MSTORE RETURN JUMPDEST POP CALLVALUE PUSH2 0x288 JUMPI PUSH1 0x20 CALLDATASIZE PUSH1 0x3 NOT ADD SLT PUSH2 0x288 JUMPI PUSH1 0x20 SWAP1 PUSH1 0x40 SWAP1 PUSH1 0x1 PUSH1 0x1 PUSH1 0xA0 SHL SUB PUSH2 0xB11 PUSH2 0x16B4 JUMP JUMPDEST AND DUP2 MSTORE PUSH1 0x9 DUP4 MSTORE KECCAK256 SLOAD PUSH1 0x40 MLOAD SWAP1 DUP2 MSTORE RETURN JUMPDEST POP CALLVALUE PUSH2 0x288 JUMPI PUSH1 0x20 CALLDATASIZE PUSH1 0x3 NOT ADD SLT PUSH2 0x288 JUMPI PUSH1 0x24 SWAP1 PUSH2 0xB3F PUSH2 0x16B4 JUMP JUMPDEST PUSH2 0xB4D PUSH1 0x1 PUSH1 0x7 SLOAD EQ PUSH2 0x1761 JUMP JUMPDEST DUP2 PUSH1 0x7 SSTORE PUSH2 0xB59 PUSH2 0x17AC JUMP JUMPDEST POP PUSH1 0x1 SLOAD PUSH1 0x40 MLOAD PUSH4 0x70A08231 PUSH1 0xE0 SHL DUP2 MSTORE ADDRESS PUSH1 0x4 DUP3 ADD MSTORE SWAP6 SWAP3 SWAP4 SWAP2 SWAP3 PUSH1 0x20 SWAP2 DUP8 SWAP2 SWAP1 DUP3 SWAP1 PUSH1 0x1 PUSH1 0x1 PUSH1 0xA0 SHL SUB AND GAS STATICCALL SWAP5 DUP6 ISZERO PUSH2 0x480 JUMPI DUP5 SWAP6 PUSH2 0xDE0 JUMPI JUMPDEST POP PUSH1 0x2 SLOAD PUSH1 0x40 MLOAD PUSH4 0x70A08231 PUSH1 0xE0 SHL DUP2 MSTORE ADDRESS PUSH1 0x4 DUP3 ADD MSTORE SWAP2 SWAP1 PUSH1 0x20 SWAP1 DUP4 SWAP1 PUSH1 0x24 SWAP1 DUP3 SWAP1 PUSH1 0x1 PUSH1 0x1 PUSH1 0xA0 SHL SUB AND GAS STATICCALL SWAP2 DUP3 ISZERO PUSH2 0x66F JUMPI DUP6 SWAP3 PUSH2 0xDAC JUMPI JUMPDEST POP PUSH1 0x1 PUSH1 0x1 PUSH1 0x70 SHL SUB DUP5 AND SWAP3 PUSH2 0xBE8 DUP5 DUP9 PUSH2 0x19EC JUMP JUMPDEST SWAP5 PUSH1 0x1 PUSH1 0x1 PUSH1 0x70 SHL SUB DUP3 AND SWAP4 PUSH2 0xBFE DUP6 DUP3 PUSH2 0x19EC JUMP JUMPDEST SWAP6 PUSH2 0xC09 DUP5 DUP5 PUSH2 0x1C8B JUMP JUMPDEST SWAP6 PUSH1 0x8 SLOAD SWAP2 DUP3 ISZERO PUSH1 0x0 EQ PUSH2 0xD74 JUMPI POP POP POP PUSH2 0xC2C PUSH2 0xC27 DUP8 DUP10 PUSH2 0x19B5 JUMP JUMPDEST PUSH2 0x1DE5 JUMP JUMPDEST PUSH2 0x3E7 NOT DUP2 ADD SWAP1 DUP2 GT PUSH2 0xD60 JUMPI SWAP8 PUSH2 0xC48 PUSH2 0x3E8 PUSH1 0x8 SLOAD PUSH2 0x1EE5 JUMP JUMPDEST PUSH1 0x8 SSTORE DUP1 DUP1 MSTORE PUSH1 0x9 PUSH1 0x20 MSTORE PUSH2 0xC63 PUSH2 0x3E8 PUSH1 0x40 DUP4 KECCAK256 SLOAD PUSH2 0x1EE5 JUMP JUMPDEST DUP2 DUP1 MSTORE PUSH1 0x9 PUSH1 0x20 MSTORE PUSH1 0x40 DUP3 KECCAK256 SSTORE DUP1 PUSH1 0x0 DUP1 MLOAD PUSH1 0x20 PUSH2 0x1F37 DUP4 CODECOPY DUP2 MLOAD SWAP2 MSTORE PUSH1 0x20 PUSH1 0x40 MLOAD PUSH2 0x3E8 DUP2 MSTORE LOG3 JUMPDEST DUP8 ISZERO PUSH2 0xD0C JUMPI PUSH1 0x20 SWAP9 PUSH2 0xCA2 DUP10 PUSH2 0xCA7 SWAP7 PUSH2 0x1E3B JUMP JUMPDEST PUSH2 0x1A4B JUMP JUMPDEST PUSH2 0xCE9 JUMPI JUMPDEST PUSH1 0x40 MLOAD SWAP2 DUP3 MSTORE DUP4 DUP3 ADD MSTORE PUSH32 0x4C209B5FC8AD50758F13E2E1088BA56A560DFF690A1C6FEF26394F4C03821C4F PUSH1 0x40 CALLER SWAP3 LOG2 PUSH1 0x1 PUSH1 0x7 SSTORE PUSH1 0x40 MLOAD SWAP1 DUP2 MSTORE RETURN JUMPDEST PUSH2 0xD04 PUSH1 0x3 SLOAD PUSH1 0x1 PUSH1 0x1 PUSH1 0x70 SHL SUB DUP1 DUP3 PUSH1 0x70 SHR AND SWAP2 AND PUSH2 0x19B5 JUMP JUMPDEST PUSH1 0x6 SSTORE PUSH2 0xCAC JUMP JUMPDEST PUSH1 0x40 MLOAD PUSH3 0x461BCD PUSH1 0xE5 SHL DUP2 MSTORE PUSH1 0x20 PUSH1 0x4 DUP3 ADD MSTORE PUSH1 0x26 PUSH1 0x24 DUP3 ADD MSTORE PUSH32 0x446577537761703A20494E53554646494349454E545F4C49515549444954595F PUSH1 0x44 DUP3 ADD MSTORE PUSH6 0x135253951151 PUSH1 0xD2 SHL PUSH1 0x64 DUP3 ADD MSTORE PUSH1 0x84 SWAP1 REVERT JUMPDEST PUSH4 0x4E487B71 PUSH1 0xE0 SHL DUP10 MSTORE PUSH1 0x11 PUSH1 0x4 MSTORE PUSH1 0x24 DUP10 REVERT JUMPDEST SWAP1 PUSH2 0x7EA PUSH2 0xD8C PUSH2 0xD93 SWAP4 PUSH2 0x7EA DUP7 SWAP8 SWAP15 SWAP7 DUP15 PUSH2 0x19B5 JUMP JUMPDEST SWAP5 DUP11 PUSH2 0x19B5 JUMP JUMPDEST SWAP1 POP DUP1 DUP3 LT ISZERO PUSH2 0xDA5 JUMPI POP JUMPDEST SWAP7 PUSH2 0xC8C JUMP JUMPDEST SWAP1 POP PUSH2 0xD9F JUMP JUMPDEST SWAP1 SWAP2 POP PUSH1 0x20 DUP2 RETURNDATASIZE PUSH1 0x20 GT PUSH2 0xDD8 JUMPI JUMPDEST DUP2 PUSH2 0xDC8 PUSH1 0x20 SWAP4 DUP4 PUSH2 0x16E0 JUMP JUMPDEST DUP2 ADD SUB SLT PUSH2 0x232 JUMPI MLOAD SWAP1 CODESIZE PUSH2 0xBD2 JUMP JUMPDEST RETURNDATASIZE SWAP2 POP PUSH2 0xDBB JUMP JUMPDEST SWAP1 SWAP5 POP PUSH1 0x20 DUP2 RETURNDATASIZE PUSH1 0x20 GT PUSH2 0xE0D JUMPI JUMPDEST DUP2 PUSH2 0xDFC PUSH1 0x20 SWAP4 DUP4 PUSH2 0x16E0 JUMP JUMPDEST DUP2 ADD SUB SLT PUSH2 0x232 JUMPI MLOAD SWAP4 PUSH1 0x24 PUSH2 0xB96 JUMP JUMPDEST RETURNDATASIZE SWAP2 POP PUSH2 0xDEF JUMP JUMPDEST POP CALLVALUE PUSH2 0x288 JUMPI DUP1 PUSH1 0x3 NOT CALLDATASIZE ADD SLT PUSH2 0x288 JUMPI PUSH1 0x20 PUSH1 0x5 SLOAD PUSH1 0x40 MLOAD SWAP1 DUP2 MSTORE RETURN JUMPDEST POP CALLVALUE PUSH2 0x288 JUMPI DUP1 PUSH1 0x3 NOT CALLDATASIZE ADD SLT PUSH2 0x288 JUMPI PUSH1 0x20 PUSH1 0x4 SLOAD PUSH1 0x40 MLOAD SWAP1 DUP2 MSTORE RETURN JUMPDEST POP CALLVALUE PUSH2 0x288 JUMPI PUSH1 0x40 CALLDATASIZE PUSH1 0x3 NOT ADD SLT PUSH2 0x288 JUMPI PUSH2 0xE6B PUSH2 0x16B4 JUMP JUMPDEST PUSH2 0xE73 PUSH2 0x16CA JUMP JUMPDEST DUP3 SLOAD SWAP1 SWAP2 SWAP1 PUSH1 0x1 PUSH1 0x1 PUSH1 0xA0 SHL SUB AND CALLER SUB PUSH2 0xECA JUMPI PUSH1 0x1 DUP1 PUSH1 0xA0 SHL SUB AND PUSH12 0xFFFFFFFFFFFFFFFFFFFFFFFF PUSH1 0xA0 SHL PUSH1 0x1 SLOAD AND OR PUSH1 0x1 SSTORE PUSH1 0x1 DUP1 PUSH1 0xA0 SHL SUB AND PUSH12 0xFFFFFFFFFFFFFFFFFFFFFFFF PUSH1 0xA0 SHL PUSH1 0x2 SLOAD AND OR PUSH1 0x2 SSTORE DUP1 RETURN JUMPDEST PUSH1 0x40 MLOAD PUSH3 0x461BCD PUSH1 0xE5 SHL DUP2 MSTORE PUSH1 0x20 PUSH1 0x4 DUP3 ADD MSTORE PUSH1 0x12 PUSH1 0x24 DUP3 ADD MSTORE PUSH18 0x2232BBA9BBB0B81D102327A92124A22222A7 PUSH1 0x71 SHL PUSH1 0x44 DUP3 ADD MSTORE PUSH1 0x64 SWAP1 REVERT JUMPDEST POP CALLVALUE PUSH2 0x288 JUMPI DUP1 PUSH1 0x3 NOT CALLDATASIZE ADD SLT PUSH2 0x288 JUMPI PUSH1 0x20 PUSH1 0xB SLOAD PUSH1 0x40 MLOAD SWAP1 DUP2 MSTORE RETURN JUMPDEST POP CALLVALUE PUSH2 0x288 JUMPI DUP1 PUSH1 0x3 NOT CALLDATASIZE ADD SLT PUSH2 0x288 JUMPI PUSH1 0x20 PUSH1 0x40 MLOAD PUSH1 0x12 DUP2 MSTORE RETURN JUMPDEST POP CALLVALUE PUSH2 0x288 JUMPI DUP1 PUSH1 0x3 NOT CALLDATASIZE ADD SLT PUSH2 0x288 JUMPI PUSH1 0x20 PUSH1 0x40 MLOAD PUSH32 0x6E71EDAE12B1B97F4D1F60370FEF10105FA2FAAE0126114A169C64845D6126C9 DUP2 MSTORE RETURN JUMPDEST POP CALLVALUE PUSH2 0x288 JUMPI PUSH1 0x60 CALLDATASIZE PUSH1 0x3 NOT ADD SLT PUSH2 0x288 JUMPI PUSH2 0x6BE SWAP1 PUSH2 0xF97 PUSH2 0x16B4 JUMP JUMPDEST PUSH2 0xF9F PUSH2 0x16CA JUMP JUMPDEST PUSH1 0x1 PUSH1 0x1 PUSH1 0xA0 SHL SUB DUP3 AND DUP1 DUP5 MSTORE PUSH1 0xA PUSH1 0x20 SWAP1 DUP2 MSTORE PUSH1 0x40 DUP1 DUP7 KECCAK256 CALLER PUSH1 0x0 SWAP1 DUP2 MSTORE SWAP3 MSTORE SWAP1 KECCAK256 SLOAD PUSH1 0x44 CALLDATALOAD SWAP5 SWAP3 SWAP4 SWAP3 SWAP1 PUSH1 0x1 ADD PUSH2 0xFDA JUMPI JUMPDEST POP POP PUSH2 0x1C14 JUMP JUMPDEST DUP1 DUP3 PUSH1 0x40 SWAP3 MSTORE PUSH1 0xA PUSH1 0x20 MSTORE DUP2 DUP2 KECCAK256 PUSH1 0x1 DUP1 PUSH1 0xA0 SHL SUB CALLER AND PUSH1 0x0 MSTORE PUSH1 0x20 MSTORE PUSH2 0x1005 DUP7 DUP4 PUSH1 0x0 KECCAK256 SLOAD PUSH2 0x19EC JUMP JUMPDEST SWAP3 DUP2 MSTORE PUSH1 0xA PUSH1 0x20 MSTORE KECCAK256 PUSH1 0x1 DUP1 PUSH1 0xA0 SHL SUB CALLER AND PUSH1 0x0 MSTORE PUSH1 0x20 MSTORE PUSH1 0x40 PUSH1 0x0 KECCAK256 SSTORE CODESIZE DUP1 PUSH2 0xFD3 JUMP JUMPDEST POP CALLVALUE PUSH2 0x288 JUMPI DUP1 PUSH1 0x3 NOT CALLDATASIZE ADD SLT PUSH2 0x288 JUMPI PUSH1 0x20 PUSH1 0x8 SLOAD PUSH1 0x40 MLOAD SWAP1 DUP2 MSTORE RETURN JUMPDEST POP CALLVALUE PUSH2 0x288 JUMPI DUP1 PUSH1 0x3 NOT CALLDATASIZE ADD SLT PUSH2 0x288 JUMPI PUSH1 0x1 SLOAD PUSH1 0x40 MLOAD PUSH1 0x1 PUSH1 0x1 PUSH1 0xA0 SHL SUB SWAP1 SWAP2 AND DUP2 MSTORE PUSH1 0x20 SWAP1 RETURN JUMPDEST POP CALLVALUE PUSH2 0x288 JUMPI PUSH1 0x40 CALLDATASIZE PUSH1 0x3 NOT ADD SLT PUSH2 0x288 JUMPI PUSH2 0x6BE PUSH2 0x108E PUSH2 0x16B4 JUMP JUMPDEST PUSH1 0x24 CALLDATALOAD SWAP1 CALLER PUSH2 0x1BBA JUMP JUMPDEST POP CALLVALUE PUSH2 0x288 JUMPI DUP1 PUSH1 0x3 NOT CALLDATASIZE ADD SLT PUSH2 0x288 JUMPI PUSH1 0x60 PUSH1 0x1 PUSH1 0x1 PUSH1 0x70 SHL SUB PUSH4 0xFFFFFFFF PUSH2 0x10C0 PUSH2 0x17AC JUMP JUMPDEST SWAP2 SWAP4 SWAP1 DUP2 PUSH1 0x40 MLOAD SWAP6 AND DUP6 MSTORE AND PUSH1 0x20 DUP5 ADD MSTORE AND PUSH1 0x40 DUP3 ADD MSTORE RETURN JUMPDEST POP CALLVALUE PUSH2 0x288 JUMPI DUP1 PUSH1 0x3 NOT CALLDATASIZE ADD SLT PUSH2 0x288 JUMPI POP PUSH2 0x70B PUSH1 0x40 MLOAD PUSH2 0x10FC PUSH1 0x40 DUP3 PUSH2 0x16E0 JUMP JUMPDEST PUSH1 0xA DUP2 MSTORE PUSH10 0x44657753776170204C5 PUSH1 0xB4 SHL PUSH1 0x20 DUP3 ADD MSTORE PUSH1 0x40 MLOAD SWAP2 DUP3 SWAP2 DUP3 PUSH2 0x1718 JUMP JUMPDEST POP CALLVALUE PUSH2 0x288 JUMPI PUSH1 0x80 CALLDATASIZE PUSH1 0x3 NOT ADD SLT PUSH2 0x288 JUMPI PUSH1 0x44 CALLDATALOAD PUSH1 0x1 PUSH1 0x1 PUSH1 0xA0 SHL SUB DUP2 AND SWAP2 SWAP1 PUSH1 0x24 CALLDATALOAD SWAP1 PUSH1 0x4 CALLDATALOAD SWAP1 DUP5 DUP2 SUB PUSH2 0x16B0 JUMPI PUSH1 0x64 CALLDATALOAD SWAP1 PUSH8 0xFFFFFFFFFFFFFFFF DUP3 GT PUSH2 0x16AC JUMPI CALLDATASIZE PUSH1 0x23 DUP4 ADD SLT ISZERO PUSH2 0x16AC JUMPI DUP2 PUSH1 0x4 ADD CALLDATALOAD SWAP2 PUSH8 0xFFFFFFFFFFFFFFFF DUP4 GT PUSH2 0x4D7 JUMPI CALLDATASIZE PUSH1 0x24 DUP5 DUP4 ADD ADD GT PUSH2 0x4D7 JUMPI PUSH2 0x119C PUSH1 0x1 PUSH1 0x7 SLOAD EQ PUSH2 0x1761 JUMP JUMPDEST DUP6 PUSH1 0x7 SSTORE DUP4 ISZERO DUP1 ISZERO DUP1 SWAP2 PUSH2 0x16A3 JUMPI JUMPDEST ISZERO PUSH2 0x1652 JUMPI PUSH2 0x11B8 PUSH2 0x17AC JUMP JUMPDEST POP SWAP4 SWAP1 SWAP3 PUSH1 0x1 PUSH1 0x1 PUSH1 0x70 SHL SUB DUP5 AND SWAP6 DUP7 DUP9 LT DUP1 PUSH2 0x1640 JUMPI JUMPDEST ISZERO PUSH2 0x15FB JUMPI PUSH1 0x1 SLOAD PUSH1 0x2 SLOAD PUSH1 0x1 PUSH1 0x1 PUSH1 0xA0 SHL SUB SWAP1 DUP2 AND SWAP6 SWAP2 AND SWAP4 SWAP1 DUP13 DUP6 EQ ISZERO DUP1 PUSH2 0x15F1 JUMPI JUMPDEST ISZERO PUSH2 0x15B6 JUMPI PUSH2 0x15A6 JUMPI JUMPDEST DUP10 DUP1 PUSH2 0x1595 JUMPI JUMPDEST POP POP DUP1 PUSH2 0x14F9 JUMPI JUMPDEST POP POP SWAP1 PUSH1 0x20 PUSH1 0x24 SWAP5 SWAP4 SWAP3 PUSH1 0x40 MLOAD SWAP6 DUP7 DUP1 SWAP3 PUSH4 0x70A08231 PUSH1 0xE0 SHL DUP3 MSTORE ADDRESS PUSH1 0x4 DUP4 ADD MSTORE GAS STATICCALL SWAP4 DUP5 ISZERO PUSH2 0x14B9 JUMPI DUP9 SWAP5 PUSH2 0x14C4 JUMPI JUMPDEST POP PUSH1 0x20 PUSH1 0x24 SWAP2 PUSH1 0x40 MLOAD SWAP3 DUP4 DUP1 SWAP3 PUSH4 0x70A08231 PUSH1 0xE0 SHL DUP3 MSTORE ADDRESS PUSH1 0x4 DUP4 ADD MSTORE GAS STATICCALL SWAP1 DUP2 ISZERO PUSH2 0x14B9 JUMPI DUP9 SWAP2 PUSH2 0x1487 JUMPI JUMPDEST POP PUSH2 0x1277 DUP7 DUP7 PUSH2 0x179F JUMP JUMPDEST DUP5 GT ISZERO PUSH2 0x1481 JUMPI PUSH2 0x1291 PUSH2 0x128B DUP8 DUP8 PUSH2 0x179F JUMP JUMPDEST DUP6 PUSH2 0x179F JUMP JUMPDEST SWAP8 JUMPDEST PUSH1 0x1 PUSH1 0x1 PUSH1 0x70 SHL SUB DUP5 AND SWAP6 PUSH2 0x12A8 DUP10 DUP9 PUSH2 0x179F JUMP JUMPDEST DUP4 GT ISZERO PUSH2 0x147A JUMPI PUSH2 0x12C2 PUSH2 0x12BC DUP11 DUP10 PUSH2 0x179F JUMP JUMPDEST DUP5 PUSH2 0x179F JUMP JUMPDEST SWAP7 JUMPDEST DUP11 ISZERO DUP1 ISZERO SWAP1 PUSH2 0x1471 JUMPI JUMPDEST ISZERO PUSH2 0x1421 JUMPI PUSH2 0x1317 SWAP1 PUSH2 0x1311 PUSH2 0x12F6 DUP14 PUSH2 0x12F0 PUSH2 0x12EA DUP13 PUSH2 0x1948 JUMP JUMPDEST SWAP2 PUSH2 0x197E JUMP JUMPDEST SWAP1 PUSH2 0x19EC JUMP JUMPDEST PUSH2 0x130B PUSH2 0x1302 DUP9 PUSH2 0x1948 JUMP JUMPDEST PUSH2 0x12F0 DUP14 PUSH2 0x197E JUMP JUMPDEST SWAP1 PUSH2 0x19B5 JUMP JUMPDEST SWAP3 PUSH2 0x19B5 JUMP JUMPDEST PUSH3 0xF4240 DUP1 DUP3 MUL SWAP4 DUP3 DUP6 DIV DUP3 EQ DUP4 ISZERO OR ISZERO PUSH2 0x140B JUMPI DUP1 PUSH2 0x13F7 JUMPI POP DUP4 DIV SUB PUSH2 0x13BB JUMPI LT PUSH2 0x1389 JUMPI PUSH2 0x1347 SWAP4 PUSH2 0x1A4B JUMP JUMPDEST PUSH1 0x40 MLOAD SWAP4 DUP5 MSTORE PUSH1 0x20 DUP5 ADD MSTORE PUSH1 0x40 DUP4 ADD MSTORE PUSH1 0x60 DUP3 ADD MSTORE PUSH32 0xD78AD95FA46C994B6551D0DA85FC275FE613CE37657FB8D5E3D130840159D822 PUSH1 0x80 CALLER SWAP3 LOG3 PUSH1 0x1 PUSH1 0x7 SSTORE STOP JUMPDEST PUSH1 0x40 MLOAD PUSH3 0x461BCD PUSH1 0xE5 SHL DUP2 MSTORE PUSH1 0x20 PUSH1 0x4 DUP3 ADD MSTORE PUSH1 0xA PUSH1 0x24 DUP3 ADD MSTORE PUSH10 0x446577537761703A204B PUSH1 0xB0 SHL PUSH1 0x44 DUP3 ADD MSTORE PUSH1 0x64 SWAP1 REVERT JUMPDEST PUSH1 0x40 MLOAD PUSH3 0x461BCD PUSH1 0xE5 SHL DUP2 MSTORE PUSH1 0x20 PUSH1 0x4 DUP3 ADD MSTORE PUSH1 0x14 PUSH1 0x24 DUP3 ADD MSTORE PUSH20 0x64732D6D6174682D6D756C2D6F766572666C6F77 PUSH1 0x60 SHL PUSH1 0x44 DUP3 ADD MSTORE PUSH1 0x64 SWAP1 REVERT JUMPDEST PUSH4 0x4E487B71 PUSH1 0xE0 SHL DUP2 MSTORE PUSH1 0x12 PUSH1 0x4 MSTORE PUSH1 0x24 SWAP1 REVERT JUMPDEST PUSH4 0x4E487B71 PUSH1 0xE0 SHL PUSH1 0x0 MSTORE PUSH1 0x11 PUSH1 0x4 MSTORE PUSH1 0x24 PUSH1 0x0 REVERT JUMPDEST PUSH1 0x40 MLOAD PUSH3 0x461BCD PUSH1 0xE5 SHL DUP2 MSTORE PUSH1 0x20 PUSH1 0x4 DUP3 ADD MSTORE PUSH1 0x22 PUSH1 0x24 DUP3 ADD MSTORE PUSH32 0x446577537761703A20494E53554646494349454E545F494E5055545F414D4F55 PUSH1 0x44 DUP3 ADD MSTORE PUSH2 0x1395 PUSH1 0xF2 SHL PUSH1 0x64 DUP3 ADD MSTORE PUSH1 0x84 SWAP1 REVERT JUMPDEST POP DUP8 ISZERO ISZERO PUSH2 0x12CE JUMP JUMPDEST DUP2 SWAP7 PUSH2 0x12C4 JUMP JUMPDEST DUP8 PUSH2 0x1293 JUMP JUMPDEST SWAP1 POP PUSH1 0x20 DUP2 RETURNDATASIZE PUSH1 0x20 GT PUSH2 0x14B1 JUMPI JUMPDEST DUP2 PUSH2 0x14A2 PUSH1 0x20 SWAP4 DUP4 PUSH2 0x16E0 JUMP JUMPDEST DUP2 ADD SUB SLT PUSH2 0x232 JUMPI MLOAD CODESIZE PUSH2 0x126C JUMP JUMPDEST RETURNDATASIZE SWAP2 POP PUSH2 0x1495 JUMP JUMPDEST PUSH1 0x40 MLOAD RETURNDATASIZE DUP11 DUP3 RETURNDATACOPY RETURNDATASIZE SWAP1 REVERT JUMPDEST SWAP1 SWAP4 POP PUSH1 0x20 DUP2 RETURNDATASIZE PUSH1 0x20 GT PUSH2 0x14F1 JUMPI JUMPDEST DUP2 PUSH2 0x14E0 PUSH1 0x20 SWAP4 DUP4 PUSH2 0x16E0 JUMP JUMPDEST DUP2 ADD SUB SLT PUSH2 0x232 JUMPI MLOAD SWAP3 PUSH1 0x20 PUSH2 0x123F JUMP JUMPDEST RETURNDATASIZE SWAP2 POP PUSH2 0x14D3 JUMP JUMPDEST DUP11 EXTCODESIZE ISZERO PUSH2 0x1591 JUMPI PUSH1 0x24 SWAP2 DUP12 DUP11 DUP13 PUSH1 0xA4 DUP13 DUP7 DUP4 SWAP8 PUSH1 0x40 MLOAD SWAP10 DUP11 SWAP9 DUP10 SWAP8 DUP9 SWAP6 PUSH4 0xBB0BF7C1 PUSH1 0xE0 SHL DUP8 MSTORE CALLER PUSH1 0x4 DUP9 ADD MSTORE DUP4 DUP8 ADD MSTORE PUSH1 0x44 DUP7 ADD MSTORE PUSH1 0x80 PUSH1 0x64 DUP7 ADD MSTORE DUP3 PUSH1 0x84 DUP7 ADD MSTORE ADD DUP5 DUP5 ADD CALLDATACOPY DUP2 DUP2 ADD DUP4 ADD DUP5 SWAP1 MSTORE PUSH1 0x1F ADD PUSH1 0x1F NOT AND DUP2 ADD SUB ADD SWAP3 GAS CALL DUP1 ISZERO PUSH2 0x1586 JUMPI PUSH2 0x1568 JUMPI JUMPDEST DUP1 PUSH2 0x120E JUMP JUMPDEST DUP9 PUSH2 0x157B PUSH1 0x24 SWAP7 SWAP6 SWAP5 SWAP4 SWAP11 PUSH1 0x20 SWAP4 PUSH2 0x16E0 JUMP JUMPDEST SWAP9 SWAP2 SWAP3 SWAP4 SWAP5 POP PUSH2 0x1562 JUMP JUMPDEST PUSH1 0x40 MLOAD RETURNDATASIZE DUP12 DUP3 RETURNDATACOPY RETURNDATASIZE SWAP1 REVERT JUMPDEST DUP10 DUP1 REVERT JUMPDEST PUSH2 0x159F SWAP2 DUP7 PUSH2 0x17EE JUMP JUMPDEST CODESIZE DUP10 PUSH2 0x1206 JUMP JUMPDEST PUSH2 0x15B1 DUP10 DUP3 DUP7 PUSH2 0x17EE JUMP JUMPDEST PUSH2 0x11FF JUMP JUMPDEST PUSH1 0x40 MLOAD PUSH3 0x461BCD PUSH1 0xE5 SHL DUP2 MSTORE PUSH1 0x20 PUSH1 0x4 DUP3 ADD MSTORE PUSH1 0x13 PUSH1 0x24 DUP3 ADD MSTORE PUSH19 0x446577537761703A20494E56414C49445F544F PUSH1 0x68 SHL PUSH1 0x44 DUP3 ADD MSTORE PUSH1 0x64 SWAP1 REVERT JUMPDEST POP DUP6 DUP14 EQ ISZERO PUSH2 0x11F5 JUMP JUMPDEST PUSH1 0x40 MLOAD PUSH3 0x461BCD PUSH1 0xE5 SHL DUP2 MSTORE PUSH1 0x20 PUSH1 0x4 DUP3 ADD MSTORE PUSH1 0x1F PUSH1 0x24 DUP3 ADD MSTORE PUSH32 0x446577537761703A20494E53554646494349454E545F4C495155494449545900 PUSH1 0x44 DUP3 ADD MSTORE PUSH1 0x64 SWAP1 REVERT JUMPDEST POP PUSH1 0x1 PUSH1 0x1 PUSH1 0x70 SHL SUB DUP7 AND DUP10 LT PUSH2 0x11D0 JUMP JUMPDEST PUSH1 0x40 MLOAD PUSH3 0x461BCD PUSH1 0xE5 SHL DUP2 MSTORE PUSH1 0x20 PUSH1 0x4 DUP3 ADD MSTORE PUSH1 0x23 PUSH1 0x24 DUP3 ADD MSTORE PUSH32 0x446577537761703A20494E53554646494349454E545F4F55545055545F414D4F PUSH1 0x44 DUP3 ADD MSTORE PUSH3 0x155395 PUSH1 0xEA SHL PUSH1 0x64 DUP3 ADD MSTORE PUSH1 0x84 SWAP1 REVERT JUMPDEST POP DUP6 ISZERO ISZERO PUSH2 0x11AB JUMP JUMPDEST DUP5 DUP1 REVERT JUMPDEST DUP4 DUP1 REVERT JUMPDEST PUSH1 0x4 CALLDATALOAD SWAP1 PUSH1 0x1 PUSH1 0x1 PUSH1 0xA0 SHL SUB DUP3 AND DUP3 SUB PUSH2 0x232 JUMPI JUMP JUMPDEST PUSH1 0x24 CALLDATALOAD SWAP1 PUSH1 0x1 PUSH1 0x1 PUSH1 0xA0 SHL SUB DUP3 AND DUP3 SUB PUSH2 0x232 JUMPI JUMP JUMPDEST SWAP1 PUSH1 0x1F DUP1 NOT SWAP2 ADD AND DUP2 ADD SWAP1 DUP2 LT PUSH8 0xFFFFFFFFFFFFFFFF DUP3 GT OR PUSH2 0x1702 JUMPI PUSH1 0x40 MSTORE JUMP JUMPDEST PUSH4 0x4E487B71 PUSH1 0xE0 SHL PUSH1 0x0 MSTORE PUSH1 0x41 PUSH1 0x4 MSTORE PUSH1 0x24 PUSH1 0x0 REVERT JUMPDEST SWAP2 SWAP1 SWAP2 PUSH1 0x20 DUP2 MSTORE DUP3 MLOAD DUP1 PUSH1 0x20 DUP4 ADD MSTORE PUSH1 0x0 JUMPDEST DUP2 DUP2 LT PUSH2 0x174B JUMPI POP PUSH1 0x40 SWAP3 SWAP4 POP PUSH1 0x0 DUP4 DUP3 DUP5 ADD ADD MSTORE PUSH1 0x1F DUP1 NOT SWAP2 ADD AND ADD ADD SWAP1 JUMP JUMPDEST DUP1 PUSH1 0x20 DUP1 SWAP3 DUP8 ADD ADD MLOAD PUSH1 0x40 DUP3 DUP7 ADD ADD MSTORE ADD PUSH2 0x172A JUMP JUMPDEST ISZERO PUSH2 0x1768 JUMPI JUMP JUMPDEST PUSH1 0x40 MLOAD PUSH3 0x461BCD PUSH1 0xE5 SHL DUP2 MSTORE PUSH1 0x20 PUSH1 0x4 DUP3 ADD MSTORE PUSH1 0xF PUSH1 0x24 DUP3 ADD MSTORE PUSH15 0x11195DD4DDD85C0E881313D0D2D151 PUSH1 0x8A SHL PUSH1 0x44 DUP3 ADD MSTORE PUSH1 0x64 SWAP1 REVERT JUMPDEST SWAP2 SWAP1 DUP3 SUB SWAP2 DUP3 GT PUSH2 0x140B JUMPI JUMP JUMPDEST PUSH1 0x3 SLOAD PUSH1 0x1 PUSH1 0x1 PUSH1 0x70 SHL SUB DUP2 AND SWAP2 PUSH1 0x1 PUSH1 0x1 PUSH1 0x70 SHL SUB DUP3 PUSH1 0x70 SHR AND SWAP2 PUSH1 0xE0 SHR SWAP1 JUMP JUMPDEST DUP2 ISZERO PUSH2 0x17D8 JUMPI DIV SWAP1 JUMP JUMPDEST PUSH4 0x4E487B71 PUSH1 0xE0 SHL PUSH1 0x0 MSTORE PUSH1 0x12 PUSH1 0x4 MSTORE PUSH1 0x24 PUSH1 0x0 REVERT JUMPDEST PUSH1 0x0 SWAP2 SWAP3 SWAP1 DUP3 SWAP2 DUP3 PUSH1 0x40 SWAP6 PUSH1 0x20 DUP8 MLOAD PUSH2 0x1807 DUP10 DUP3 PUSH2 0x16E0 JUMP JUMPDEST PUSH1 0x19 DUP2 MSTORE PUSH32 0x7472616E7366657228616464726573732C75696E743235362900000000000000 SWAP2 ADD MSTORE DUP7 MLOAD PUSH4 0xA9059CBB PUSH1 0xE0 SHL PUSH1 0x20 DUP3 ADD SWAP1 DUP2 MSTORE PUSH1 0x1 PUSH1 0x1 PUSH1 0xA0 SHL SUB SWAP1 SWAP3 AND PUSH1 0x24 DUP3 ADD MSTORE PUSH1 0x44 DUP1 DUP3 ADD SWAP5 SWAP1 SWAP5 MSTORE SWAP3 DUP4 MSTORE SWAP2 PUSH2 0x1868 PUSH1 0x64 DUP3 PUSH2 0x16E0 JUMP JUMPDEST MLOAD SWAP3 GAS CALL RETURNDATASIZE ISZERO PUSH2 0x192E JUMPI RETURNDATASIZE PUSH8 0xFFFFFFFFFFFFFFFF DUP2 GT PUSH2 0x1702 JUMPI DUP3 MLOAD SWAP1 PUSH2 0x1899 PUSH1 0x1F DUP3 ADD PUSH1 0x1F NOT AND PUSH1 0x20 ADD DUP4 PUSH2 0x16E0 JUMP JUMPDEST DUP2 MSTORE RETURNDATASIZE PUSH1 0x0 PUSH1 0x20 DUP4 ADD RETURNDATACOPY JUMPDEST DUP2 PUSH2 0x18F6 JUMPI JUMPDEST POP ISZERO PUSH2 0x18B3 JUMPI POP JUMP JUMPDEST MLOAD PUSH3 0x461BCD PUSH1 0xE5 SHL DUP2 MSTORE PUSH1 0x20 PUSH1 0x4 DUP3 ADD MSTORE PUSH1 0x18 PUSH1 0x24 DUP3 ADD MSTORE PUSH32 0x446577537761703A205452414E534645525F4641494C45440000000000000000 PUSH1 0x44 DUP3 ADD MSTORE PUSH1 0x64 SWAP1 REVERT JUMPDEST DUP1 MLOAD DUP1 ISZERO SWAP3 POP DUP3 ISZERO PUSH2 0x190B JUMPI JUMPDEST POP POP CODESIZE PUSH2 0x18AA JUMP JUMPDEST DUP2 SWAP3 POP SWAP1 PUSH1 0x20 SWAP2 DUP2 ADD SUB SLT PUSH2 0x232 JUMPI PUSH1 0x20 ADD MLOAD DUP1 ISZERO ISZERO DUP2 SUB PUSH2 0x232 JUMPI CODESIZE DUP1 PUSH2 0x1903 JUMP JUMPDEST PUSH1 0x60 PUSH2 0x18A4 JUMP JUMPDEST DUP2 DUP2 MUL SWAP3 SWAP2 DUP2 ISZERO SWAP2 DUP5 DIV EQ OR ISZERO PUSH2 0x140B JUMPI JUMP JUMPDEST SWAP1 PUSH1 0x0 SWAP2 PUSH2 0x3E8 DUP1 DUP3 MUL DUP3 DUP2 DIV DUP3 EQ DUP4 ISZERO OR ISZERO PUSH2 0x196A JUMPI DUP1 SWAP5 POP DIV SUB PUSH2 0x13BB JUMPI JUMP JUMPDEST PUSH4 0x4E487B71 PUSH1 0xE0 SHL DUP6 MSTORE PUSH1 0x11 PUSH1 0x4 MSTORE PUSH1 0x24 DUP6 REVERT JUMPDEST SWAP1 PUSH1 0x0 SWAP2 PUSH1 0x3 DUP2 MUL DUP2 DUP2 DIV PUSH1 0x3 EQ DUP3 ISZERO OR ISZERO PUSH2 0x19A1 JUMPI SWAP3 POP PUSH1 0x3 DUP4 DIV SUB PUSH2 0x13BB JUMPI JUMP JUMPDEST PUSH4 0x4E487B71 PUSH1 0xE0 SHL DUP5 MSTORE PUSH1 0x11 PUSH1 0x4 MSTORE PUSH1 0x24 DUP5 REVERT JUMPDEST PUSH1 0x0 SWAP3 SWAP2 DUP1 ISZERO SWAP2 DUP3 ISZERO PUSH2 0x19CC JUMPI JUMPDEST POP POP ISZERO PUSH2 0x13BB JUMPI JUMP JUMPDEST SWAP2 POP SWAP3 POP PUSH2 0x19E4 PUSH2 0x19DD DUP5 DUP4 PUSH2 0x1935 JUMP JUMPDEST SWAP4 DUP5 PUSH2 0x17CE JUMP JUMPDEST EQ CODESIZE DUP1 PUSH2 0x19C3 JUMP JUMPDEST SWAP2 SWAP1 PUSH2 0x19F8 SWAP1 DUP4 PUSH2 0x179F JUMP JUMPDEST SWAP2 DUP3 GT PUSH2 0x1A01 JUMPI JUMP JUMPDEST PUSH1 0x40 MLOAD PUSH3 0x461BCD PUSH1 0xE5 SHL DUP2 MSTORE PUSH1 0x20 PUSH1 0x4 DUP3 ADD MSTORE PUSH1 0x15 PUSH1 0x24 DUP3 ADD MSTORE PUSH21 0x64732D6D6174682D7375622D756E646572666C6F77 PUSH1 0x58 SHL PUSH1 0x44 DUP3 ADD MSTORE PUSH1 0x64 SWAP1 REVERT JUMPDEST SWAP2 SWAP1 DUP3 ADD DUP1 SWAP3 GT PUSH2 0x140B JUMPI JUMP JUMPDEST SWAP3 PUSH1 0x1 PUSH1 0x1 PUSH1 0x70 SHL SUB DUP5 GT ISZERO DUP1 PUSH2 0x1BA9 JUMPI JUMPDEST ISZERO PUSH2 0x1B70 JUMPI PUSH1 0x3 SLOAD PUSH1 0xE0 SHR PUSH4 0xFFFFFFFF TIMESTAMP AND SUB PUSH4 0xFFFFFFFF DUP2 GT PUSH2 0x140B JUMPI PUSH32 0x1C411E9A96E071241C2F21F7726B17AE89E3CAB4C78BE50E062B03A9FFFBBAD1 SWAP5 PUSH1 0x40 SWAP5 PUSH1 0x1 PUSH1 0x1 PUSH1 0x70 SHL SUB SWAP4 PUSH4 0xFFFFFFFF DUP6 SWAP5 AND DUP1 ISZERO ISZERO DUP1 PUSH2 0x1B65 JUMPI JUMPDEST DUP1 PUSH2 0x1B5A JUMPI JUMPDEST PUSH2 0x1AF9 JUMPI JUMPDEST POP POP POP AND SWAP2 DUP3 PUSH4 0xFFFFFFFF PUSH1 0xE0 SHL TIMESTAMP PUSH1 0xE0 SHL AND SWAP2 DUP4 PUSH1 0x70 SHL SWAP1 PUSH1 0x70 SHL AND OR OR DUP1 PUSH1 0x3 SSTORE DUP4 MLOAD SWAP3 DUP4 MSTORE PUSH1 0x70 SHR AND PUSH1 0x20 DUP3 ADD MSTORE LOG1 JUMP JUMPDEST PUSH2 0x1B4F SWAP3 PUSH2 0x1B47 SWAP3 PUSH2 0x1B24 SWAP1 PUSH2 0x1B32 PUSH2 0x1B2A DUP6 PUSH1 0x1 PUSH1 0x1 PUSH1 0xE0 SHL SUB DUP6 DUP8 PUSH2 0x1B1F DUP8 PUSH2 0x1E91 JUMP JUMPDEST PUSH2 0x1EC7 JUMP JUMPDEST AND PUSH2 0x1935 JUMP JUMPDEST PUSH1 0x4 SLOAD PUSH2 0x1A3E JUMP JUMPDEST PUSH1 0x4 SSTORE PUSH1 0x1 PUSH1 0x1 PUSH1 0xE0 SHL SUB SWAP3 PUSH2 0x1B1F SWAP1 PUSH2 0x1E91 JUMP JUMPDEST PUSH1 0x5 SLOAD PUSH2 0x1A3E JUMP JUMPDEST PUSH1 0x5 SSTORE CODESIZE DUP1 DUP1 PUSH2 0x1AC5 JUMP JUMPDEST POP DUP5 DUP3 AND ISZERO ISZERO PUSH2 0x1AC0 JUMP JUMPDEST POP DUP5 DUP4 AND ISZERO ISZERO PUSH2 0x1ABA JUMP JUMPDEST PUSH1 0x40 MLOAD PUSH3 0x461BCD PUSH1 0xE5 SHL DUP2 MSTORE PUSH1 0x20 PUSH1 0x4 DUP3 ADD MSTORE PUSH1 0x11 PUSH1 0x24 DUP3 ADD MSTORE PUSH17 0x446577537761703A204F564552464C4F57 PUSH1 0x78 SHL PUSH1 0x44 DUP3 ADD MSTORE PUSH1 0x64 SWAP1 REVERT JUMPDEST POP PUSH1 0x1 PUSH1 0x1 PUSH1 0x70 SHL SUB DUP3 GT ISZERO PUSH2 0x1A5D JUMP JUMPDEST PUSH1 0x1 PUSH1 0x1 PUSH1 0xA0 SHL SUB SWAP1 DUP2 AND PUSH1 0x0 DUP2 DUP2 MSTORE PUSH1 0xA PUSH1 0x20 SWAP1 DUP2 MSTORE PUSH1 0x40 DUP1 DUP4 KECCAK256 SWAP6 SWAP1 SWAP5 AND DUP1 DUP4 MSTORE SWAP5 DUP2 MSTORE SWAP1 DUP4 SWAP1 KECCAK256 DUP6 SWAP1 SSTORE SWAP2 MLOAD SWAP4 DUP5 MSTORE SWAP2 SWAP3 PUSH32 0x8C5BE1E5EBEC7D5BD14F71427D1E84F3DD0314C0F7B2291E5B200AC8C7C3B925 SWAP2 SWAP1 LOG3 JUMP JUMPDEST PUSH1 0x20 PUSH1 0x0 DUP1 MLOAD PUSH1 0x20 PUSH2 0x1F37 DUP4 CODECOPY DUP2 MLOAD SWAP2 MSTORE SWAP2 PUSH1 0x1 DUP1 PUSH1 0xA0 SHL SUB AND SWAP3 DUP4 PUSH1 0x0 MSTORE PUSH1 0x9 DUP3 MSTORE PUSH2 0x1C46 DUP6 PUSH1 0x40 PUSH1 0x0 KECCAK256 SLOAD PUSH2 0x19EC JUMP JUMPDEST DUP5 PUSH1 0x0 MSTORE PUSH1 0x9 DUP4 MSTORE PUSH1 0x40 PUSH1 0x0 KECCAK256 SSTORE PUSH1 0x1 DUP1 PUSH1 0xA0 SHL SUB AND SWAP4 DUP5 PUSH1 0x0 MSTORE PUSH1 0x9 DUP3 MSTORE PUSH2 0x1C74 DUP2 PUSH1 0x40 PUSH1 0x0 KECCAK256 SLOAD PUSH2 0x1EE5 JUMP JUMPDEST DUP6 PUSH1 0x0 MSTORE PUSH1 0x9 DUP4 MSTORE PUSH1 0x40 PUSH1 0x0 KECCAK256 SSTORE PUSH1 0x40 MLOAD SWAP1 DUP2 MSTORE LOG3 JUMP JUMPDEST PUSH1 0x0 DUP1 SLOAD PUSH1 0x40 MLOAD PUSH3 0x2FCFCB PUSH1 0xE3 SHL DUP2 MSTORE SWAP4 SWAP5 SWAP4 SWAP3 SWAP1 PUSH1 0x20 SWAP1 DUP5 SWAP1 PUSH1 0x4 SWAP1 DUP3 SWAP1 PUSH1 0x1 PUSH1 0x1 PUSH1 0xA0 SHL SUB AND GAS STATICCALL SWAP3 DUP4 ISZERO PUSH2 0x27D JUMPI DUP3 SWAP4 PUSH2 0x1D9D JUMPI JUMPDEST POP PUSH1 0x6 SLOAD PUSH1 0x1 PUSH1 0x1 PUSH1 0xA0 SHL SUB DUP5 AND ISZERO DUP1 ISZERO SWAP7 SWAP2 SWAP3 SWAP1 PUSH2 0x1D8C JUMPI DUP3 PUSH2 0x1CE9 JUMPI JUMPDEST POP POP POP POP POP JUMP JUMPDEST PUSH2 0xC27 PUSH2 0x1D05 SWAP2 PUSH1 0x1 PUSH1 0x1 PUSH1 0x70 SHL SUB DUP1 PUSH2 0x1D0B SWAP6 AND SWAP2 AND PUSH2 0x19B5 JUMP JUMPDEST SWAP2 PUSH2 0x1DE5 JUMP JUMPDEST SWAP2 DUP3 DUP3 GT PUSH2 0x1D1A JUMPI JUMPDEST DUP1 PUSH2 0x1CE2 JUMP JUMPDEST PUSH2 0x1D2A PUSH1 0x8 SLOAD PUSH2 0x130B DUP6 DUP6 PUSH2 0x19EC JUMP JUMPDEST SWAP2 PUSH1 0x5 DUP2 MUL SWAP2 DUP2 DUP4 DIV PUSH1 0x5 EQ DUP3 ISZERO OR ISZERO PUSH2 0x1D78 JUMPI POP PUSH1 0x5 DUP3 DIV SUB PUSH2 0x13BB JUMPI PUSH2 0x1D5B SWAP3 PUSH2 0x1D55 SWAP2 PUSH2 0x1EE5 JUMP JUMPDEST SWAP1 PUSH2 0x17CE JUMP JUMPDEST DUP1 PUSH2 0x1D68 JUMPI JUMPDEST DUP1 DUP1 PUSH2 0x1D14 JUMP JUMPDEST PUSH2 0x1D71 SWAP2 PUSH2 0x1E3B JUMP JUMPDEST CODESIZE DUP1 PUSH2 0x1D61 JUMP JUMPDEST PUSH4 0x4E487B71 PUSH1 0xE0 SHL DUP2 MSTORE PUSH1 0x11 PUSH1 0x4 MSTORE PUSH1 0x24 SWAP1 REVERT JUMPDEST POP POP SWAP1 SWAP2 POP PUSH2 0x1D98 JUMPI POP JUMP JUMPDEST PUSH1 0x6 SSTORE JUMP JUMPDEST SWAP1 SWAP3 POP PUSH1 0x20 DUP2 RETURNDATASIZE PUSH1 0x20 GT PUSH2 0x1DDD JUMPI JUMPDEST DUP2 PUSH2 0x1DB9 PUSH1 0x20 SWAP4 DUP4 PUSH2 0x16E0 JUMP JUMPDEST DUP2 ADD SUB SLT PUSH2 0x1DD9 JUMPI MLOAD PUSH1 0x1 PUSH1 0x1 PUSH1 0xA0 SHL SUB DUP2 AND DUP2 SUB PUSH2 0x1DD9 JUMPI SWAP2 CODESIZE PUSH2 0x1CC3 JUMP JUMPDEST POP DUP1 REVERT JUMPDEST RETURNDATASIZE SWAP2 POP PUSH2 0x1DAC JUMP JUMPDEST SWAP1 PUSH1 0x0 PUSH1 0x3 DUP4 GT ISZERO PUSH2 0x1E2E JUMPI POP DUP2 DUP1 PUSH1 0x1 SHR PUSH1 0x1 DUP2 ADD DUP1 SWAP2 GT PUSH2 0x140B JUMPI SWAP1 JUMPDEST DUP4 DUP3 LT PUSH2 0x1E0F JUMPI POP POP JUMP JUMPDEST SWAP1 SWAP3 POP PUSH2 0x1E25 DUP4 PUSH2 0x1E20 DUP2 DUP5 PUSH2 0x17CE JUMP JUMPDEST PUSH2 0x1A3E JUMP JUMPDEST PUSH1 0x1 SHR SWAP1 PUSH2 0x1E04 JUMP JUMPDEST SWAP2 PUSH2 0x1E35 JUMPI JUMP JUMPDEST PUSH1 0x1 SWAP2 POP JUMP JUMPDEST PUSH1 0x0 DUP1 MLOAD PUSH1 0x20 PUSH2 0x1F37 DUP4 CODECOPY DUP2 MLOAD SWAP2 MSTORE PUSH1 0x20 PUSH1 0x0 SWAP3 PUSH2 0x1E5B DUP6 PUSH1 0x8 SLOAD PUSH2 0x1EE5 JUMP JUMPDEST PUSH1 0x8 SSTORE PUSH1 0x1 DUP1 PUSH1 0xA0 SHL SUB AND SWAP4 DUP5 DUP5 MSTORE PUSH1 0x9 DUP3 MSTORE PUSH2 0x1E7C DUP2 PUSH1 0x40 DUP7 KECCAK256 SLOAD PUSH2 0x1EE5 JUMP JUMPDEST DUP6 DUP6 MSTORE PUSH1 0x9 DUP4 MSTORE PUSH1 0x40 DUP6 KECCAK256 SSTORE PUSH1 0x40 MLOAD SWAP1 DUP2 MSTORE LOG3 JUMP JUMPDEST PUSH14 0xFFFFFFFFFFFFFFFFFFFFFFFFFFFF PUSH1 0x70 SHL PUSH1 0x70 DUP3 SWAP1 SHL AND SWAP1 PUSH1 0x1 PUSH1 0x1 PUSH1 0x70 SHL SUB AND DUP1 DUP3 DIV PUSH1 0x1 PUSH1 0x70 SHL EQ SWAP1 ISZERO OR ISZERO PUSH2 0x140B JUMPI SWAP1 JUMP JUMPDEST SWAP1 PUSH1 0x1 PUSH1 0x1 PUSH1 0x70 SHL SUB AND SWAP1 DUP2 ISZERO PUSH2 0x17D8 JUMPI PUSH1 0x1 PUSH1 0x1 PUSH1 0xE0 SHL SUB AND DIV SWAP1 JUMP JUMPDEST SWAP2 SWAP1 PUSH2 0x1EF1 SWAP1 DUP4 PUSH2 0x1A3E JUMP JUMPDEST SWAP2 DUP3 LT PUSH2 0x1EFA JUMPI JUMP JUMPDEST PUSH1 0x40 MLOAD PUSH3 0x461BCD PUSH1 0xE5 SHL DUP2 MSTORE PUSH1 0x20 PUSH1 0x4 DUP3 ADD MSTORE PUSH1 0x14 PUSH1 0x24 DUP3 ADD MSTORE PUSH20 0x64732D6D6174682D6164642D6F766572666C6F77 PUSH1 0x60 SHL PUSH1 0x44 DUP3 ADD MSTORE PUSH1 0x64 SWAP1 REVERT INVALID 0xDD CALLCODE MSTORE 0xAD SHL 0xE2 0xC8 SWAP12 PUSH10 0xC2B068FC378DAA952BA7 CALL PUSH4 0xC4A11628 CREATE2 GAS 0x4D CREATE2 0x23 0xB3 0xEF LOG2 PUSH5 0x6970667358 0x22 SLT KECCAK256 DUP12 PUSH15 0x509AC07AE8846AD4949906420E98C8 SWAP13 DUP13 PUSH7 0xD0A7711F44EE23 0xD6 JUMP DUP13 LOG0 0xCD PUSH5 0x736F6C6343 STOP ADDMOD 0x1E STOP CALLER LOG2 PUSH5 0x6970667358 0x22 SLT KECCAK256 CALLF 0x7F0C AND 0x4D DUP10 COINBASE 0xBD PUSH4 0x6DC1CEFE SWAP1 0xBA PUSH27 0xEF0A5339F8F958DF4C156F26BDEC78ED64736F6C634300081E0033 "},"methodIdentifiers":{"allPairs(uint256)":"1e3dd18b","allPairsLength()":"574f2ba3","createPair(address,address)":"c9c65396","feeTo()":"017e7e58","feeToSetter()":"094b7415","getPair(address,address)":"e6a43905","setFeeTo(address)":"f46901ed","setFeeToSetter(address)":"a2e74af6"}}}}}