{"contracts/perpetual/core/PerpExchange.sol":{"PerpExchange":{"abi":[{"inputs":[{"internalType":"address","name":"_vault","type":"address"},{"internalType":"address","name":"_priceFeed","type":"address"}],"stateMutability":"nonpayable","type":"constructor"},{"anonymous":false,"inputs":[{"indexed":true,"internalType":"address","name":"token","type":"address"},{"indexed":false,"internalType":"bool","name":"isActive","type":"bool"},{"indexed":false,"internalType":"uint256","name":"maxLev","type":"uint256"},{"indexed":false,"internalType":"uint256","name":"mmBps","type":"uint256"},{"indexed":false,"internalType":"uint256","name":"feeBps","type":"uint256"}],"name":"MarketUpdated","type":"event"},{"anonymous":false,"inputs":[{"indexed":true,"internalType":"uint256","name":"positionId","type":"uint256"},{"indexed":true,"internalType":"address","name":"trader","type":"address"},{"indexed":false,"internalType":"uint256","name":"size","type":"uint256"},{"indexed":false,"internalType":"uint256","name":"collateral","type":"uint256"},{"indexed":false,"internalType":"uint256","name":"avgPrice","type":"uint256"},{"indexed":false,"internalType":"int256","name":"pnl","type":"int256"},{"indexed":false,"internalType":"uint256","name":"fee","type":"uint256"}],"name":"PositionClosed","type":"event"},{"anonymous":false,"inputs":[{"indexed":true,"internalType":"uint256","name":"positionId","type":"uint256"},{"indexed":false,"internalType":"uint256","name":"collateralDelta","type":"uint256"},{"indexed":false,"internalType":"uint256","name":"sizeDelta","type":"uint256"},{"indexed":false,"internalType":"uint256","name":"price","type":"uint256"},{"indexed":false,"internalType":"uint256","name":"fee","type":"uint256"}],"name":"PositionDecreased","type":"event"},{"anonymous":false,"inputs":[{"indexed":true,"internalType":"uint256","name":"positionId","type":"uint256"},{"indexed":false,"internalType":"uint256","name":"collateralDelta","type":"uint256"},{"indexed":false,"internalType":"uint256","name":"sizeDelta","type":"uint256"},{"indexed":false,"internalType":"uint256","name":"price","type":"uint256"},{"indexed":false,"internalType":"uint256","name":"fee","type":"uint256"}],"name":"PositionIncreased","type":"event"},{"anonymous":false,"inputs":[{"indexed":true,"internalType":"uint256","name":"positionId","type":"uint256"},{"indexed":true,"internalType":"address","name":"trader","type":"address"},{"indexed":true,"internalType":"address","name":"liquidator","type":"address"},{"indexed":false,"internalType":"uint256","name":"size","type":"uint256"},{"indexed":false,"internalType":"uint256","name":"collateral","type":"uint256"},{"indexed":false,"internalType":"int256","name":"pnl","type":"int256"},{"indexed":false,"internalType":"uint256","name":"fee","type":"uint256"}],"name":"PositionLiquidated","type":"event"},{"anonymous":false,"inputs":[{"indexed":true,"internalType":"uint256","name":"positionId","type":"uint256"},{"indexed":true,"internalType":"address","name":"trader","type":"address"},{"indexed":true,"internalType":"address","name":"indexToken","type":"address"},{"indexed":false,"internalType":"bool","name":"isLong","type":"bool"},{"indexed":false,"internalType":"uint256","name":"size","type":"uint256"},{"indexed":false,"internalType":"uint256","name":"collateral","type":"uint256"},{"indexed":false,"internalType":"uint256","name":"avgPrice","type":"uint256"}],"name":"PositionOpened","type":"event"},{"inputs":[{"internalType":"uint256","name":"_positionId","type":"uint256"}],"name":"closePosition","outputs":[],"stateMutability":"nonpayable","type":"function"},{"inputs":[{"internalType":"uint256","name":"_positionId","type":"uint256"},{"internalType":"uint256","name":"_collateralDelta","type":"uint256"},{"internalType":"uint256","name":"_sizeDelta","type":"uint256"}],"name":"decreasePosition","outputs":[],"stateMutability":"nonpayable","type":"function"},{"inputs":[{"internalType":"uint256","name":"_positionId","type":"uint256"}],"name":"getPosition","outputs":[{"components":[{"internalType":"uint256","name":"id","type":"uint256"},{"internalType":"address","name":"trader","type":"address"},{"internalType":"address","name":"indexToken","type":"address"},{"internalType":"bool","name":"isLong","type":"bool"},{"internalType":"uint256","name":"size","type":"uint256"},{"internalType":"uint256","name":"collateral","type":"uint256"},{"internalType":"uint256","name":"avgPrice","type":"uint256"},{"internalType":"uint256","name":"entryFundingRate","type":"uint256"},{"internalType":"uint256","name":"reserveAmount","type":"uint256"},{"internalType":"uint256","name":"realisedPnl","type":"uint256"},{"internalType":"uint256","name":"lastUpdatedBlock","type":"uint256"}],"internalType":"struct IPerpExchange.Position","name":"","type":"tuple"}],"stateMutability":"view","type":"function"},{"inputs":[{"internalType":"address","name":"_trader","type":"address"},{"internalType":"address","name":"_indexToken","type":"address"},{"internalType":"bool","name":"_isLong","type":"bool"}],"name":"getPositionKey","outputs":[{"internalType":"bytes32","name":"","type":"bytes32"}],"stateMutability":"pure","type":"function"},{"inputs":[{"internalType":"uint256","name":"_positionId","type":"uint256"},{"internalType":"uint256","name":"_collateralDelta","type":"uint256"},{"internalType":"uint256","name":"_sizeDelta","type":"uint256"}],"name":"increasePosition","outputs":[],"stateMutability":"nonpayable","type":"function"},{"inputs":[{"internalType":"uint256","name":"_positionId","type":"uint256"}],"name":"liquidatePosition","outputs":[],"stateMutability":"nonpayable","type":"function"},{"inputs":[{"internalType":"address","name":"","type":"address"}],"name":"markets","outputs":[{"internalType":"bool","name":"isActive","type":"bool"},{"internalType":"uint256","name":"maxLeverage","type":"uint256"},{"internalType":"uint256","name":"maintenanceMarginBps","type":"uint256"},{"internalType":"uint256","name":"tradingFeeBps","type":"uint256"}],"stateMutability":"view","type":"function"},{"inputs":[],"name":"nextPositionId","outputs":[{"internalType":"uint256","name":"","type":"uint256"}],"stateMutability":"view","type":"function"},{"inputs":[{"internalType":"address","name":"_indexToken","type":"address"},{"internalType":"uint256","name":"_collateral","type":"uint256"},{"internalType":"uint256","name":"_sizeDelta","type":"uint256"},{"internalType":"bool","name":"_isLong","type":"bool"}],"name":"openPosition","outputs":[{"internalType":"uint256","name":"positionId","type":"uint256"}],"stateMutability":"nonpayable","type":"function"},{"inputs":[],"name":"owner","outputs":[{"internalType":"address","name":"","type":"address"}],"stateMutability":"view","type":"function"},{"inputs":[{"internalType":"bytes32","name":"","type":"bytes32"}],"name":"positionKeyToId","outputs":[{"internalType":"uint256","name":"","type":"uint256"}],"stateMutability":"view","type":"function"},{"inputs":[{"internalType":"uint256","name":"","type":"uint256"}],"name":"positions","outputs":[{"internalType":"uint256","name":"id","type":"uint256"},{"internalType":"address","name":"trader","type":"address"},{"internalType":"address","name":"indexToken","type":"address"},{"internalType":"bool","name":"isLong","type":"bool"},{"internalType":"uint256","name":"size","type":"uint256"},{"internalType":"uint256","name":"collateral","type":"uint256"},{"internalType":"uint256","name":"avgPrice","type":"uint256"},{"internalType":"uint256","name":"entryFundingRate","type":"uint256"},{"internalType":"uint256","name":"reserveAmount","type":"uint256"},{"internalType":"uint256","name":"realisedPnl","type":"uint256"},{"internalType":"uint256","name":"lastUpdatedBlock","type":"uint256"}],"stateMutability":"view","type":"function"},{"inputs":[],"name":"priceFeed","outputs":[{"internalType":"contract IPriceFeed","name":"","type":"address"}],"stateMutability":"view","type":"function"},{"inputs":[{"internalType":"address","name":"_indexToken","type":"address"},{"internalType":"bool","name":"_isActive","type":"bool"},{"internalType":"uint256","name":"_maxLev","type":"uint256"},{"internalType":"uint256","name":"_mmBps","type":"uint256"},{"internalType":"uint256","name":"_feeBps","type":"uint256"}],"name":"setMarket","outputs":[],"stateMutability":"nonpayable","type":"function"},{"inputs":[{"internalType":"address","name":"_owner","type":"address"}],"name":"transferOwnership","outputs":[],"stateMutability":"nonpayable","type":"function"},{"inputs":[{"internalType":"uint256","name":"_positionId","type":"uint256"}],"name":"validateLiquidation","outputs":[{"internalType":"bool","name":"","type":"bool"}],"stateMutability":"view","type":"function"},{"inputs":[],"name":"vault","outputs":[{"internalType":"contract IVault","name":"","type":"address"}],"stateMutability":"view","type":"function"}],"evm":{"bytecode":{"linkReferences":{},"object":"608034609757601f611a6538819003918201601f19168301916001600160401b03831184841017609c578084926040948552833981010312609757604b602060458360b2565b920160b2565b6001600381905560008054336001600160a01b03199182161790915581546001600160a01b03948516908216179091556002805492909316911617905560405161199f90816100c68239f35b600080fd5b634e487b7160e01b600052604160045260246000fd5b51906001600160a01b038216820360975756fe6080604052600436101561001257600080fd5b6000803560e01c8063238e270a146113f4578063741bef1a146113cb578063748bfe65146113a1578063899346c7146113835780638da5cb5b1461135c5780638e8f294b146112ec57806399fbab881461123e578063a126d60114610eee578063ab6dea4c14610ec5578063b8d1e89014610c86578063c06ca4b214610b93578063cdddd4e514610960578063da36992a14610710578063eb02c301146105a2578063eeafcd851461014f578063f2fde38b146101035763fbfa77cf146100d857600080fd5b346101005780600319360112610100576001546040516001600160a01b039091168152602090f35b80fd5b50346101005760203660031901126101005761011d611444565b61013160018060a01b038354163314611887565b81546001600160a01b0319166001600160a01b039190911617815580f35b503461010057608036600319011261010057610169611444565b606435801515919060243560443584830361059e576001600160a01b03841680875260046020526040808820905191959193906101a585611479565b60ff81541615801586526060600360018401549360208901948552600281015460408a015201549601958652610568578115158061055f575b1561052e578184106104f857670de0b6b3a76400008402848104670de0b6b3a764000014851517156104135782610214916115fd565b9051106104c15760015488906001600160a01b0316803b156104bd576040516318f5faab60e01b8152336004820152602481018490529082908290604490829084905af180156104b257610499575b505060018060a01b03600254166040516302c68be360e31b815287600482015289604082602481865afa918215610456578192610463575b50602060049293604051938480926306cc2abf60e21b82525afa928315610456576102e26102dd60ff612710966102f0966102e89691610427575b50166118bf565b6115cf565b906115a6565b9551856115a6565b0490600354976000198914610413576001808a0160039081558a8c52600560209081526040808e208d815593840180546001600160a01b0319163317905560028401805460ff60a01b198e166001600160a81b03199091161760a09690961b60ff60a01b16959095179094559082019687559a8a977f4141d280045265c9be484b17b0e8432ac8553acc317a8f090401c765e54bfef097909692956104089591948a949093926103d4928d92916103a79190611618565b9860048101998a55600581019a8b55846006820155846007820155846008820155600943910155336114ea565b815260068d522055549154925460405193849333988590949392606092608083019615158352602083015260408201520152565b0390a4604051908152f35b634e487b7160e01b8a52601160045260248afd5b610449915060203d60201161044f575b61044181836114c8565b81019061158d565b386102d6565b503d610437565b50604051903d90823e3d90fd5b6004925061048a60209160403d604011610492575b61048281836114c8565b810190611577565b50925061029b565b503d610478565b816104a3916114c8565b6104ae578738610263565b8780fd5b6040513d84823e3d90fd5b5080fd5b60405162461bcd60e51b815260206004820152600f60248201526e098caeccae4c2cecaa8dede90d2ced608b1b6044820152606490fd5b60405162461bcd60e51b815260206004820152600e60248201526d4c65766572616765546f6f4c6f7760901b6044820152606490fd5b60405162461bcd60e51b8152602060048201526009602482015268426164506172616d7360b81b6044820152606490fd5b508315156101de565b60405162461bcd60e51b815260206004820152600e60248201526d4d61726b6574496e61637469766560901b6044820152606490fd5b8580fd5b5034610100576020366003190112610100576040816101609261014083516105c9816114ab565b82815282602082015282858201528260608201528260808201528260a08201528260c08201528260e082015282610100820152826101208201520152600435815260056020522060405161061c816114ab565b81549182825260018060a01b03600182015416602083019081526002820154604084019060018060a01b038116825260ff606086019160a01c161515815260038401546080860190815260048501549060a0870191825260058601549260c0880193845260068701549460e089019586526007880154966101008a01978852610140600960088b01549a6101208d019b8c5201549a01998a526040519a8b5260018060a01b0390511660208b015260018060a01b0390511660408a015251151560608901525160808801525160a08701525160c08601525160e0850152516101008401525161012083015251610140820152f35b50346101005761071f3661145f565b908284526005602052604084209061074460018060a01b036001840154163314611540565b8015801590610957575b61075790611814565b6004820180548083111580610949575b1561091a578261077691611618565b80915560038301610788858254611618565b80915580159081156108b5575b506107a0915061184e565b60015485906001600160a01b0316803b156104bd57604051630ab044d360e41b8152336004820152602481018490529082908290604490829084905af180156104b25761089c575b505043600983015560028054920154604080516302c68be360e31b81526001600160a01b03928316600482015293909184916024918391165afa8015610891577fc46f71bdaf4f56709b0041d9b4c2e27d4b7386fc2da5b265c69e7fd3c78fc3cf93608093879261086f575b5060405192835260208301526040820152846060820152a280f35b61088991925060403d6040116104925761048281836114c8565b509038610854565b6040513d87823e3d90fd5b816108a6916114c8565b6108b15784386107e8565b8480fd5b90670de0b6b3a76400008202918204670de0b6b3a7640000141715610906576107a0916108e1916115fd565b60028401546001600160a01b0316875260046020526040872060010154101538610795565b634e487b7160e01b87526011600452602487fd5b60405162461bcd60e51b81526020600482015260076024820152660a8dede9aeac6d60cb1b6044820152606490fd5b506003840154851115610767565b5082151561074e565b50346101005760203660031901126101005760043561097e81611632565b15610b5c578082526005602052604082206040519061099c826114ab565b8054825260018060a01b036001820154169060208301828152600282015491604085019360018060a01b038416855260ff606087019460a01c161515845287600383015491608088019283526004840154600960a08a0195828752600581015460c08c0152600681015460e08c015260078101546101008c015260088101546101208c015201546101408a015260018060a01b036001541691823b15610b5857604051630ab044d360e41b81526001600160a01b03919091166004820152600a90910460248201529082908290604490829084905af180156104b257610b43575b5050610ae9955160018060a01b038451169151925160405193845260208401528860408401528860608401527fea73a1c359c9a27eb608cd2a000dbae23a7a8254d8213ff9961a3202af44b50760803394a451915190511515916001600160a01b0391821691166114ea565b8252600660205281604081205581526005602052610b406040822060096000918281558260018201558260028201558260038201558260048201558260058201558260068201558260078201558260088201550155565b80f35b81610b4d916114c8565b6104ae578738610a7d565b8380fd5b60405162461bcd60e51b815260206004820152600f60248201526e4e6f744c6971756964617461626c6560881b6044820152606490fd5b50346101005760a036600319011261010057610bad611444565b602435801515808203610b58577f0f144a1efeabf807d4717feda0e0fd62cc1ba3a684d78a1a85bec5ba332a2de091610c806044359260643560843591610bfe60018060a01b038a54163314611887565b60405190610c0b82611479565b815260036020820198878a5260408301848152606084019186835260018060a01b03169a8b8d52600460205260408d209451151560ff80198754169116178555516001850155516002840155519101556040519485948590949392606092608083019615158352602083015260408201520152565b0390a280f35b503461010057610c953661145f565b9082845260056020526040842090610cba60018060a01b036001840154163314611540565b801580158091610ebc575b610cce90611814565b610e47575b82610d5d575b43600983015560028054920154604080516302c68be360e31b81526001600160a01b03928316600482015293909184916024918391165afa8015610891577fcad3eab700abc5a7d00b99aad655d6b545e5b08dbe97eea463ab8e97bbb824ab93608093879261086f575060405192835260208301526040820152846060820152a280f35b60028201546001600160a01b03168086526004602052604086206003015461271090610d8990866115a6565b046003840190610d9a868354611625565b809255670de0b6b3a7640000820291808304670de0b6b3a76400001490151715610e3357610de96004860193610dd2855480956115fd565b908a526004602052600160408b200154101561184e565b80821115610e0157610dfa91611618565b9055610cd9565b60405162461bcd60e51b815260206004820152600a60248201526908ccacaa8dede90d2ced60b31b6044820152606490fd5b634e487b7160e01b88526011600452602488fd5b60015485906001600160a01b0316803b156104bd576040516318f5faab60e01b8152336004820152602481018490529082908290604490829084905af180156104b257610ea7575b505060048201610ea0828254611625565b9055610cd3565b81610eb1916114c8565b6108b1578438610e8f565b50831515610cc5565b5034610100576020366003190112610100576020610ee4600435611632565b6040519015158152f35b5034610100576020366003190112610100576004358082526005602052604082206001810180546001600160a01b03169190610f2b338414611540565b6003820191825493841561120c57600280549083018054604080516302c68be360e31b81526001600160a01b0383811660048301819052949a94959394931692909182602481865afa918215611201578c926111db575b50602060049293604051938480926306cc2abf60e21b82525afa918c83156111cf57612710946102e26102dd60ff610ff297610fdc96610fc896916104275750166118bf565b60058901958360ff88549260a01c166118cd565b948c526004602052600360408d200154906115a6565b049289831261117757611009836004870154611625565b84811061113f5761101b858c92611618565b6001546001600160a01b0316803b1561113b57604051630ab044d360e41b81526001600160a01b0394909416600485015260248401919091528290604490829084905af18015611130576110e6575b5083610ae99795937ff5394a97b9d3c99baa08c9bf7009078f41ac139c4ad7c345c6c2c98ad4a9b5a69360a093600499975496600180871b03905416998a98549401549054906040519485526020850152604084015260608301526080820152a35460a081901c60ff16916001600160a01b03909116906114ea565b93610ae99795937ff5394a97b9d3c99baa08c9bf7009078f41ac139c4ad7c345c6c2c98ad4a9b5a6938b61112060a0959d60049b996114c8565b9b9350935093959750939561106a565b6040513d8c823e3d90fd5b8280fd5b60405162461bcd60e51b815260206004820152601060248201526f119959515e18d959591cd4185e5bdd5d60821b6044820152606490fd5b61118083611607565b60048601549080821061119b5761119691611618565b611009565b60405162461bcd60e51b815260206004820152600c60248201526b4c6971756964617461626c6560a01b6044820152606490fd5b604051903d90823e3d90fd5b600492506111f960209160403d6040116104925761048281836114c8565b509250610f82565b6040513d8e823e3d90fd5b60405162461bcd60e51b815260206004820152600a6024820152692737a837b9b4ba34b7b760b11b6044820152606490fd5b503461010057602036600319011261010057604061016091600435815260056020522080549060018060a01b036001820154169060028101546003820154600483015460058401549060068501549260ff60078701549560096008890154980154986040519a8b5260208b015260018060a01b03811660408b015260a01c1615156060890152608088015260a087015260c086015260e0850152610100840152610120830152610140820152f35b5034610100576020366003190112610100576040906001600160a01b03611311611444565b16815260046020522060ff81541661135860018301549260036002820154910154906040519485948590949392606092608083019615158352602083015260408201520152565b0390f35b5034610100578060031936011261010057546040516001600160a01b039091168152602090f35b50346101005780600319360112610100576020600354604051908152f35b50346101005760203660031901126101005760406020916004358152600683522054604051908152f35b50346101005780600319360112610100576002546040516001600160a01b039091168152602090f35b50346101005760603660031901126101005761140e611444565b602435906001600160a01b038216820361113b5760443592831515840361010057602061143c8585856114ea565b604051908152f35b600435906001600160a01b038216820361145a57565b600080fd5b606090600319011261145a57600435906024359060443590565b6080810190811067ffffffffffffffff82111761149557604052565b634e487b7160e01b600052604160045260246000fd5b610160810190811067ffffffffffffffff82111761149557604052565b90601f8019910116810190811067ffffffffffffffff82111761149557604052565b916040519160208301936bffffffffffffffffffffffff199060601b1684526bffffffffffffffffffffffff199060601b166034830152151560f81b60488201526029815261153a6049826114c8565b51902090565b1561154757565b60405162461bcd60e51b81526020600482015260086024820152672737ba27bbb732b960c11b6044820152606490fd5b919082604091031261145a576020825192015190565b9081602091031261145a575160ff8116810361145a5790565b818102929181159184041417156115b957565b634e487b7160e01b600052601160045260246000fd5b80156115e7576c0c9f2c9cd04674edea400000000490565b634e487b7160e01b600052601260045260246000fd5b81156115e7570490565b600160ff1b81146115b95760000390565b919082039182116115b957565b919082018092116115b957565b600052600560205260406000206040519061164c826114ab565b8054825260018060a01b03600182015416602083015260028101549060018060a01b038216604084019281845260ff606086019160a01c1615158152600383015490608086019180835260048501549660a08101978852610140600960058801549760c08401988952600681015460e0850152600781015461010085015260088101546101208501520154910152156118095760018060a01b0360025416604051936302c68be360e31b85526004850152604084602481845afa9384156117d3576000946117df575b50906020600492604051938480926306cc2abf60e21b82525afa9485156117d35761175b61178e956102e26102dd60ff6127109a61176a986000916104275750166118bf565b915115159084519051916118cd565b93516001600160a01b031660009081526004602052604090206002015490516115a6565b0490600081126117a057509051111590565b6117a990611607565b915191828110928315936117be575b50505090565b6117c9929350611618565b11153880806117b8565b6040513d6000823e3d90fd5b6004929194506117ff60209160403d6040116104925761048281836114c8565b5094919250611715565b505050505050600090565b1561181b57565b60405162461bcd60e51b815260206004820152600b60248201526a4e6f7468696e67546f446f60a81b6044820152606490fd5b1561185557565b60405162461bcd60e51b815260206004820152600a602482015269098caeca8dede90d2ced60b31b6044820152606490fd5b1561188e57565b60405162461bcd60e51b81526020600482015260096024820152684f776e65724f6e6c7960b81b6044820152606490fd5b604d81116115b957600a0a90565b92909283158015611961575b8015611959575b61195057156119235781811061190957611906926102e28361190193611618565b6115fd565b90565b90611901611906936102e261191e9484611618565b611607565b80821061193b57611906926102e26119019284611618565b90611901611906936102e28361191e95611618565b50505050600090565b5081156118e0565b5082156118d956fea264697066735822122015ac81bd6cd414d4f78abc97bc85b56a722177641c05cf568693696f5d0d296264736f6c634300081e0033","opcodes":"PUSH1 0x80 CALLVALUE PUSH1 0x97 JUMPI PUSH1 0x1F PUSH2 0x1A65 CODESIZE DUP2 SWAP1 SUB SWAP2 DUP3 ADD PUSH1 0x1F NOT AND DUP4 ADD SWAP2 PUSH1 0x1 PUSH1 0x1 PUSH1 0x40 SHL SUB DUP4 GT DUP5 DUP5 LT OR PUSH1 0x9C JUMPI DUP1 DUP5 SWAP3 PUSH1 0x40 SWAP5 DUP6 MSTORE DUP4 CODECOPY DUP2 ADD SUB SLT PUSH1 0x97 JUMPI PUSH1 0x4B PUSH1 0x20 PUSH1 0x45 DUP4 PUSH1 0xB2 JUMP JUMPDEST SWAP3 ADD PUSH1 0xB2 JUMP JUMPDEST PUSH1 0x1 PUSH1 0x3 DUP2 SWAP1 SSTORE PUSH1 0x0 DUP1 SLOAD CALLER PUSH1 0x1 PUSH1 0x1 PUSH1 0xA0 SHL SUB NOT SWAP2 DUP3 AND OR SWAP1 SWAP2 SSTORE DUP2 SLOAD PUSH1 0x1 PUSH1 0x1 PUSH1 0xA0 SHL SUB SWAP5 DUP6 AND SWAP1 DUP3 AND OR SWAP1 SWAP2 SSTORE PUSH1 0x2 DUP1 SLOAD SWAP3 SWAP1 SWAP4 AND SWAP2 AND OR SWAP1 SSTORE PUSH1 0x40 MLOAD PUSH2 0x199F SWAP1 DUP2 PUSH2 0xC6 DUP3 CODECOPY RETURN JUMPDEST PUSH1 0x0 DUP1 REVERT JUMPDEST PUSH4 0x4E487B71 PUSH1 0xE0 SHL PUSH1 0x0 MSTORE PUSH1 0x41 PUSH1 0x4 MSTORE PUSH1 0x24 PUSH1 0x0 REVERT JUMPDEST MLOAD SWAP1 PUSH1 0x1 PUSH1 0x1 PUSH1 0xA0 SHL SUB DUP3 AND DUP3 SUB PUSH1 0x97 JUMPI JUMP INVALID PUSH1 0x80 PUSH1 0x40 MSTORE PUSH1 0x4 CALLDATASIZE LT ISZERO PUSH2 0x12 JUMPI PUSH1 0x0 DUP1 REVERT JUMPDEST PUSH1 0x0 DUP1 CALLDATALOAD PUSH1 0xE0 SHR DUP1 PUSH4 0x238E270A EQ PUSH2 0x13F4 JUMPI DUP1 PUSH4 0x741BEF1A EQ PUSH2 0x13CB JUMPI DUP1 PUSH4 0x748BFE65 EQ PUSH2 0x13A1 JUMPI DUP1 PUSH4 0x899346C7 EQ PUSH2 0x1383 JUMPI DUP1 PUSH4 0x8DA5CB5B EQ PUSH2 0x135C JUMPI DUP1 PUSH4 0x8E8F294B EQ PUSH2 0x12EC JUMPI DUP1 PUSH4 0x99FBAB88 EQ PUSH2 0x123E JUMPI DUP1 PUSH4 0xA126D601 EQ PUSH2 0xEEE JUMPI DUP1 PUSH4 0xAB6DEA4C EQ PUSH2 0xEC5 JUMPI DUP1 PUSH4 0xB8D1E890 EQ PUSH2 0xC86 JUMPI DUP1 PUSH4 0xC06CA4B2 EQ PUSH2 0xB93 JUMPI DUP1 PUSH4 0xCDDDD4E5 EQ PUSH2 0x960 JUMPI DUP1 PUSH4 0xDA36992A EQ PUSH2 0x710 JUMPI DUP1 PUSH4 0xEB02C301 EQ PUSH2 0x5A2 JUMPI DUP1 PUSH4 0xEEAFCD85 EQ PUSH2 0x14F JUMPI DUP1 PUSH4 0xF2FDE38B EQ PUSH2 0x103 JUMPI PUSH4 0xFBFA77CF EQ PUSH2 0xD8 JUMPI PUSH1 0x0 DUP1 REVERT JUMPDEST CALLVALUE PUSH2 0x100 JUMPI DUP1 PUSH1 0x3 NOT CALLDATASIZE ADD SLT PUSH2 0x100 JUMPI PUSH1 0x1 SLOAD PUSH1 0x40 MLOAD PUSH1 0x1 PUSH1 0x1 PUSH1 0xA0 SHL SUB SWAP1 SWAP2 AND DUP2 MSTORE PUSH1 0x20 SWAP1 RETURN JUMPDEST DUP1 REVERT JUMPDEST POP CALLVALUE PUSH2 0x100 JUMPI PUSH1 0x20 CALLDATASIZE PUSH1 0x3 NOT ADD SLT PUSH2 0x100 JUMPI PUSH2 0x11D PUSH2 0x1444 JUMP JUMPDEST PUSH2 0x131 PUSH1 0x1 DUP1 PUSH1 0xA0 SHL SUB DUP4 SLOAD AND CALLER EQ PUSH2 0x1887 JUMP JUMPDEST DUP2 SLOAD PUSH1 0x1 PUSH1 0x1 PUSH1 0xA0 SHL SUB NOT AND PUSH1 0x1 PUSH1 0x1 PUSH1 0xA0 SHL SUB SWAP2 SWAP1 SWAP2 AND OR DUP2 SSTORE DUP1 RETURN JUMPDEST POP CALLVALUE PUSH2 0x100 JUMPI PUSH1 0x80 CALLDATASIZE PUSH1 0x3 NOT ADD SLT PUSH2 0x100 JUMPI PUSH2 0x169 PUSH2 0x1444 JUMP JUMPDEST PUSH1 0x64 CALLDATALOAD DUP1 ISZERO ISZERO SWAP2 SWAP1 PUSH1 0x24 CALLDATALOAD PUSH1 0x44 CALLDATALOAD DUP5 DUP4 SUB PUSH2 0x59E JUMPI PUSH1 0x1 PUSH1 0x1 PUSH1 0xA0 SHL SUB DUP5 AND DUP1 DUP8 MSTORE PUSH1 0x4 PUSH1 0x20 MSTORE PUSH1 0x40 DUP1 DUP9 KECCAK256 SWAP1 MLOAD SWAP2 SWAP6 SWAP2 SWAP4 SWAP1 PUSH2 0x1A5 DUP6 PUSH2 0x1479 JUMP JUMPDEST PUSH1 0xFF DUP2 SLOAD AND ISZERO DUP1 ISZERO DUP7 MSTORE PUSH1 0x60 PUSH1 0x3 PUSH1 0x1 DUP5 ADD SLOAD SWAP4 PUSH1 0x20 DUP10 ADD SWAP5 DUP6 MSTORE PUSH1 0x2 DUP2 ADD SLOAD PUSH1 0x40 DUP11 ADD MSTORE ADD SLOAD SWAP7 ADD SWAP6 DUP7 MSTORE PUSH2 0x568 JUMPI DUP2 ISZERO ISZERO DUP1 PUSH2 0x55F JUMPI JUMPDEST ISZERO PUSH2 0x52E JUMPI DUP2 DUP5 LT PUSH2 0x4F8 JUMPI PUSH8 0xDE0B6B3A7640000 DUP5 MUL DUP5 DUP2 DIV PUSH8 0xDE0B6B3A7640000 EQ DUP6 ISZERO OR ISZERO PUSH2 0x413 JUMPI DUP3 PUSH2 0x214 SWAP2 PUSH2 0x15FD JUMP JUMPDEST SWAP1 MLOAD LT PUSH2 0x4C1 JUMPI PUSH1 0x1 SLOAD DUP9 SWAP1 PUSH1 0x1 PUSH1 0x1 PUSH1 0xA0 SHL SUB AND DUP1 EXTCODESIZE ISZERO PUSH2 0x4BD JUMPI PUSH1 0x40 MLOAD PUSH4 0x18F5FAAB PUSH1 0xE0 SHL DUP2 MSTORE CALLER PUSH1 0x4 DUP3 ADD MSTORE PUSH1 0x24 DUP2 ADD DUP5 SWAP1 MSTORE SWAP1 DUP3 SWAP1 DUP3 SWAP1 PUSH1 0x44 SWAP1 DUP3 SWAP1 DUP5 SWAP1 GAS CALL DUP1 ISZERO PUSH2 0x4B2 JUMPI PUSH2 0x499 JUMPI JUMPDEST POP POP PUSH1 0x1 DUP1 PUSH1 0xA0 SHL SUB PUSH1 0x2 SLOAD AND PUSH1 0x40 MLOAD PUSH4 0x2C68BE3 PUSH1 0xE3 SHL DUP2 MSTORE DUP8 PUSH1 0x4 DUP3 ADD MSTORE DUP10 PUSH1 0x40 DUP3 PUSH1 0x24 DUP2 DUP7 GAS STATICCALL SWAP2 DUP3 ISZERO PUSH2 0x456 JUMPI DUP2 SWAP3 PUSH2 0x463 JUMPI JUMPDEST POP PUSH1 0x20 PUSH1 0x4 SWAP3 SWAP4 PUSH1 0x40 MLOAD SWAP4 DUP5 DUP1 SWAP3 PUSH4 0x6CC2ABF PUSH1 0xE2 SHL DUP3 MSTORE GAS STATICCALL SWAP3 DUP4 ISZERO PUSH2 0x456 JUMPI PUSH2 0x2E2 PUSH2 0x2DD PUSH1 0xFF PUSH2 0x2710 SWAP7 PUSH2 0x2F0 SWAP7 PUSH2 0x2E8 SWAP7 SWAP2 PUSH2 0x427 JUMPI JUMPDEST POP AND PUSH2 0x18BF JUMP JUMPDEST PUSH2 0x15CF JUMP JUMPDEST SWAP1 PUSH2 0x15A6 JUMP JUMPDEST SWAP6 MLOAD DUP6 PUSH2 0x15A6 JUMP JUMPDEST DIV SWAP1 PUSH1 0x3 SLOAD SWAP8 PUSH1 0x0 NOT DUP10 EQ PUSH2 0x413 JUMPI PUSH1 0x1 DUP1 DUP11 ADD PUSH1 0x3 SWAP1 DUP2 SSTORE DUP11 DUP13 MSTORE PUSH1 0x5 PUSH1 0x20 SWAP1 DUP2 MSTORE PUSH1 0x40 DUP1 DUP15 KECCAK256 DUP14 DUP2 SSTORE SWAP4 DUP5 ADD DUP1 SLOAD PUSH1 0x1 PUSH1 0x1 PUSH1 0xA0 SHL SUB NOT AND CALLER OR SWAP1 SSTORE PUSH1 0x2 DUP5 ADD DUP1 SLOAD PUSH1 0xFF PUSH1 0xA0 SHL NOT DUP15 AND PUSH1 0x1 PUSH1 0x1 PUSH1 0xA8 SHL SUB NOT SWAP1 SWAP2 AND OR PUSH1 0xA0 SWAP7 SWAP1 SWAP7 SHL PUSH1 0xFF PUSH1 0xA0 SHL AND SWAP6 SWAP1 SWAP6 OR SWAP1 SWAP5 SSTORE SWAP1 DUP3 ADD SWAP7 DUP8 SSTORE SWAP11 DUP11 SWAP8 PUSH32 0x4141D280045265C9BE484B17B0E8432AC8553ACC317A8F090401C765E54BFEF0 SWAP8 SWAP1 SWAP7 SWAP3 SWAP6 PUSH2 0x408 SWAP6 SWAP2 SWAP5 DUP11 SWAP5 SWAP1 SWAP4 SWAP3 PUSH2 0x3D4 SWAP3 DUP14 SWAP3 SWAP2 PUSH2 0x3A7 SWAP2 SWAP1 PUSH2 0x1618 JUMP JUMPDEST SWAP9 PUSH1 0x4 DUP2 ADD SWAP10 DUP11 SSTORE PUSH1 0x5 DUP2 ADD SWAP11 DUP12 SSTORE DUP5 PUSH1 0x6 DUP3 ADD SSTORE DUP5 PUSH1 0x7 DUP3 ADD SSTORE DUP5 PUSH1 0x8 DUP3 ADD SSTORE PUSH1 0x9 NUMBER SWAP2 ADD SSTORE CALLER PUSH2 0x14EA JUMP JUMPDEST DUP2 MSTORE PUSH1 0x6 DUP14 MSTORE KECCAK256 SSTORE SLOAD SWAP2 SLOAD SWAP3 SLOAD PUSH1 0x40 MLOAD SWAP4 DUP5 SWAP4 CALLER SWAP9 DUP6 SWAP1 SWAP5 SWAP4 SWAP3 PUSH1 0x60 SWAP3 PUSH1 0x80 DUP4 ADD SWAP7 ISZERO ISZERO DUP4 MSTORE PUSH1 0x20 DUP4 ADD MSTORE PUSH1 0x40 DUP3 ADD MSTORE ADD MSTORE JUMP JUMPDEST SUB SWAP1 LOG4 PUSH1 0x40 MLOAD SWAP1 DUP2 MSTORE RETURN JUMPDEST PUSH4 0x4E487B71 PUSH1 0xE0 SHL DUP11 MSTORE PUSH1 0x11 PUSH1 0x4 MSTORE PUSH1 0x24 DUP11 REVERT JUMPDEST PUSH2 0x449 SWAP2 POP PUSH1 0x20 RETURNDATASIZE PUSH1 0x20 GT PUSH2 0x44F JUMPI JUMPDEST PUSH2 0x441 DUP2 DUP4 PUSH2 0x14C8 JUMP JUMPDEST DUP2 ADD SWAP1 PUSH2 0x158D JUMP JUMPDEST CODESIZE PUSH2 0x2D6 JUMP JUMPDEST POP RETURNDATASIZE PUSH2 0x437 JUMP JUMPDEST POP PUSH1 0x40 MLOAD SWAP1 RETURNDATASIZE SWAP1 DUP3 RETURNDATACOPY RETURNDATASIZE SWAP1 REVERT JUMPDEST PUSH1 0x4 SWAP3 POP PUSH2 0x48A PUSH1 0x20 SWAP2 PUSH1 0x40 RETURNDATASIZE PUSH1 0x40 GT PUSH2 0x492 JUMPI JUMPDEST PUSH2 0x482 DUP2 DUP4 PUSH2 0x14C8 JUMP JUMPDEST DUP2 ADD SWAP1 PUSH2 0x1577 JUMP JUMPDEST POP SWAP3 POP PUSH2 0x29B JUMP JUMPDEST POP RETURNDATASIZE PUSH2 0x478 JUMP JUMPDEST DUP2 PUSH2 0x4A3 SWAP2 PUSH2 0x14C8 JUMP JUMPDEST PUSH2 0x4AE JUMPI DUP8 CODESIZE PUSH2 0x263 JUMP JUMPDEST DUP8 DUP1 REVERT JUMPDEST PUSH1 0x40 MLOAD RETURNDATASIZE DUP5 DUP3 RETURNDATACOPY RETURNDATASIZE SWAP1 REVERT JUMPDEST POP DUP1 REVERT JUMPDEST PUSH1 0x40 MLOAD PUSH3 0x461BCD PUSH1 0xE5 SHL DUP2 MSTORE PUSH1 0x20 PUSH1 0x4 DUP3 ADD MSTORE PUSH1 0xF PUSH1 0x24 DUP3 ADD MSTORE PUSH15 0x98CAECCAE4C2CECAA8DEDE90D2CED PUSH1 0x8B SHL PUSH1 0x44 DUP3 ADD MSTORE PUSH1 0x64 SWAP1 REVERT JUMPDEST PUSH1 0x40 MLOAD PUSH3 0x461BCD PUSH1 0xE5 SHL DUP2 MSTORE PUSH1 0x20 PUSH1 0x4 DUP3 ADD MSTORE PUSH1 0xE PUSH1 0x24 DUP3 ADD MSTORE PUSH14 0x4C65766572616765546F6F4C6F77 PUSH1 0x90 SHL PUSH1 0x44 DUP3 ADD MSTORE PUSH1 0x64 SWAP1 REVERT JUMPDEST PUSH1 0x40 MLOAD PUSH3 0x461BCD PUSH1 0xE5 SHL DUP2 MSTORE PUSH1 0x20 PUSH1 0x4 DUP3 ADD MSTORE PUSH1 0x9 PUSH1 0x24 DUP3 ADD MSTORE PUSH9 0x426164506172616D73 PUSH1 0xB8 SHL PUSH1 0x44 DUP3 ADD MSTORE PUSH1 0x64 SWAP1 REVERT JUMPDEST POP DUP4 ISZERO ISZERO PUSH2 0x1DE JUMP JUMPDEST PUSH1 0x40 MLOAD PUSH3 0x461BCD PUSH1 0xE5 SHL DUP2 MSTORE PUSH1 0x20 PUSH1 0x4 DUP3 ADD MSTORE PUSH1 0xE PUSH1 0x24 DUP3 ADD MSTORE PUSH14 0x4D61726B6574496E616374697665 PUSH1 0x90 SHL PUSH1 0x44 DUP3 ADD MSTORE PUSH1 0x64 SWAP1 REVERT JUMPDEST DUP6 DUP1 REVERT JUMPDEST POP CALLVALUE PUSH2 0x100 JUMPI PUSH1 0x20 CALLDATASIZE PUSH1 0x3 NOT ADD SLT PUSH2 0x100 JUMPI PUSH1 0x40 DUP2 PUSH2 0x160 SWAP3 PUSH2 0x140 DUP4 MLOAD PUSH2 0x5C9 DUP2 PUSH2 0x14AB JUMP JUMPDEST DUP3 DUP2 MSTORE DUP3 PUSH1 0x20 DUP3 ADD MSTORE DUP3 DUP6 DUP3 ADD MSTORE DUP3 PUSH1 0x60 DUP3 ADD MSTORE DUP3 PUSH1 0x80 DUP3 ADD MSTORE DUP3 PUSH1 0xA0 DUP3 ADD MSTORE DUP3 PUSH1 0xC0 DUP3 ADD MSTORE DUP3 PUSH1 0xE0 DUP3 ADD MSTORE DUP3 PUSH2 0x100 DUP3 ADD MSTORE DUP3 PUSH2 0x120 DUP3 ADD MSTORE ADD MSTORE PUSH1 0x4 CALLDATALOAD DUP2 MSTORE PUSH1 0x5 PUSH1 0x20 MSTORE KECCAK256 PUSH1 0x40 MLOAD PUSH2 0x61C DUP2 PUSH2 0x14AB JUMP JUMPDEST DUP2 SLOAD SWAP2 DUP3 DUP3 MSTORE PUSH1 0x1 DUP1 PUSH1 0xA0 SHL SUB PUSH1 0x1 DUP3 ADD SLOAD AND PUSH1 0x20 DUP4 ADD SWAP1 DUP2 MSTORE PUSH1 0x2 DUP3 ADD SLOAD PUSH1 0x40 DUP5 ADD SWAP1 PUSH1 0x1 DUP1 PUSH1 0xA0 SHL SUB DUP2 AND DUP3 MSTORE PUSH1 0xFF PUSH1 0x60 DUP7 ADD SWAP2 PUSH1 0xA0 SHR AND ISZERO ISZERO DUP2 MSTORE PUSH1 0x3 DUP5 ADD SLOAD PUSH1 0x80 DUP7 ADD SWAP1 DUP2 MSTORE PUSH1 0x4 DUP6 ADD SLOAD SWAP1 PUSH1 0xA0 DUP8 ADD SWAP2 DUP3 MSTORE PUSH1 0x5 DUP7 ADD SLOAD SWAP3 PUSH1 0xC0 DUP9 ADD SWAP4 DUP5 MSTORE PUSH1 0x6 DUP8 ADD SLOAD SWAP5 PUSH1 0xE0 DUP10 ADD SWAP6 DUP7 MSTORE PUSH1 0x7 DUP9 ADD SLOAD SWAP7 PUSH2 0x100 DUP11 ADD SWAP8 DUP9 MSTORE PUSH2 0x140 PUSH1 0x9 PUSH1 0x8 DUP12 ADD SLOAD SWAP11 PUSH2 0x120 DUP14 ADD SWAP12 DUP13 MSTORE ADD SLOAD SWAP11 ADD SWAP10 DUP11 MSTORE PUSH1 0x40 MLOAD SWAP11 DUP12 MSTORE PUSH1 0x1 DUP1 PUSH1 0xA0 SHL SUB SWAP1 MLOAD AND PUSH1 0x20 DUP12 ADD MSTORE PUSH1 0x1 DUP1 PUSH1 0xA0 SHL SUB SWAP1 MLOAD AND PUSH1 0x40 DUP11 ADD MSTORE MLOAD ISZERO ISZERO PUSH1 0x60 DUP10 ADD MSTORE MLOAD PUSH1 0x80 DUP9 ADD MSTORE MLOAD PUSH1 0xA0 DUP8 ADD MSTORE MLOAD PUSH1 0xC0 DUP7 ADD MSTORE MLOAD PUSH1 0xE0 DUP6 ADD MSTORE MLOAD PUSH2 0x100 DUP5 ADD MSTORE MLOAD PUSH2 0x120 DUP4 ADD MSTORE MLOAD PUSH2 0x140 DUP3 ADD MSTORE RETURN JUMPDEST POP CALLVALUE PUSH2 0x100 JUMPI PUSH2 0x71F CALLDATASIZE PUSH2 0x145F JUMP JUMPDEST SWAP1 DUP3 DUP5 MSTORE PUSH1 0x5 PUSH1 0x20 MSTORE PUSH1 0x40 DUP5 KECCAK256 SWAP1 PUSH2 0x744 PUSH1 0x1 DUP1 PUSH1 0xA0 SHL SUB PUSH1 0x1 DUP5 ADD SLOAD AND CALLER EQ PUSH2 0x1540 JUMP JUMPDEST DUP1 ISZERO DUP1 ISZERO SWAP1 PUSH2 0x957 JUMPI JUMPDEST PUSH2 0x757 SWAP1 PUSH2 0x1814 JUMP JUMPDEST PUSH1 0x4 DUP3 ADD DUP1 SLOAD DUP1 DUP4 GT ISZERO DUP1 PUSH2 0x949 JUMPI JUMPDEST ISZERO PUSH2 0x91A JUMPI DUP3 PUSH2 0x776 SWAP2 PUSH2 0x1618 JUMP JUMPDEST DUP1 SWAP2 SSTORE PUSH1 0x3 DUP4 ADD PUSH2 0x788 DUP6 DUP3 SLOAD PUSH2 0x1618 JUMP JUMPDEST DUP1 SWAP2 SSTORE DUP1 ISZERO SWAP1 DUP2 ISZERO PUSH2 0x8B5 JUMPI JUMPDEST POP PUSH2 0x7A0 SWAP2 POP PUSH2 0x184E JUMP JUMPDEST PUSH1 0x1 SLOAD DUP6 SWAP1 PUSH1 0x1 PUSH1 0x1 PUSH1 0xA0 SHL SUB AND DUP1 EXTCODESIZE ISZERO PUSH2 0x4BD JUMPI PUSH1 0x40 MLOAD PUSH4 0xAB044D3 PUSH1 0xE4 SHL DUP2 MSTORE CALLER PUSH1 0x4 DUP3 ADD MSTORE PUSH1 0x24 DUP2 ADD DUP5 SWAP1 MSTORE SWAP1 DUP3 SWAP1 DUP3 SWAP1 PUSH1 0x44 SWAP1 DUP3 SWAP1 DUP5 SWAP1 GAS CALL DUP1 ISZERO PUSH2 0x4B2 JUMPI PUSH2 0x89C JUMPI JUMPDEST POP POP NUMBER PUSH1 0x9 DUP4 ADD SSTORE PUSH1 0x2 DUP1 SLOAD SWAP3 ADD SLOAD PUSH1 0x40 DUP1 MLOAD PUSH4 0x2C68BE3 PUSH1 0xE3 SHL DUP2 MSTORE PUSH1 0x1 PUSH1 0x1 PUSH1 0xA0 SHL SUB SWAP3 DUP4 AND PUSH1 0x4 DUP3 ADD MSTORE SWAP4 SWAP1 SWAP2 DUP5 SWAP2 PUSH1 0x24 SWAP2 DUP4 SWAP2 AND GAS STATICCALL DUP1 ISZERO PUSH2 0x891 JUMPI PUSH32 0xC46F71BDAF4F56709B0041D9B4C2E27D4B7386FC2DA5B265C69E7FD3C78FC3CF SWAP4 PUSH1 0x80 SWAP4 DUP8 SWAP3 PUSH2 0x86F JUMPI JUMPDEST POP PUSH1 0x40 MLOAD SWAP3 DUP4 MSTORE PUSH1 0x20 DUP4 ADD MSTORE PUSH1 0x40 DUP3 ADD MSTORE DUP5 PUSH1 0x60 DUP3 ADD MSTORE LOG2 DUP1 RETURN JUMPDEST PUSH2 0x889 SWAP2 SWAP3 POP PUSH1 0x40 RETURNDATASIZE PUSH1 0x40 GT PUSH2 0x492 JUMPI PUSH2 0x482 DUP2 DUP4 PUSH2 0x14C8 JUMP JUMPDEST POP SWAP1 CODESIZE PUSH2 0x854 JUMP JUMPDEST PUSH1 0x40 MLOAD RETURNDATASIZE DUP8 DUP3 RETURNDATACOPY RETURNDATASIZE SWAP1 REVERT JUMPDEST DUP2 PUSH2 0x8A6 SWAP2 PUSH2 0x14C8 JUMP JUMPDEST PUSH2 0x8B1 JUMPI DUP5 CODESIZE PUSH2 0x7E8 JUMP JUMPDEST DUP5 DUP1 REVERT JUMPDEST SWAP1 PUSH8 0xDE0B6B3A7640000 DUP3 MUL SWAP2 DUP3 DIV PUSH8 0xDE0B6B3A7640000 EQ OR ISZERO PUSH2 0x906 JUMPI PUSH2 0x7A0 SWAP2 PUSH2 0x8E1 SWAP2 PUSH2 0x15FD JUMP JUMPDEST PUSH1 0x2 DUP5 ADD SLOAD PUSH1 0x1 PUSH1 0x1 PUSH1 0xA0 SHL SUB AND DUP8 MSTORE PUSH1 0x4 PUSH1 0x20 MSTORE PUSH1 0x40 DUP8 KECCAK256 PUSH1 0x1 ADD SLOAD LT ISZERO CODESIZE PUSH2 0x795 JUMP JUMPDEST PUSH4 0x4E487B71 PUSH1 0xE0 SHL DUP8 MSTORE PUSH1 0x11 PUSH1 0x4 MSTORE PUSH1 0x24 DUP8 REVERT JUMPDEST PUSH1 0x40 MLOAD PUSH3 0x461BCD PUSH1 0xE5 SHL DUP2 MSTORE PUSH1 0x20 PUSH1 0x4 DUP3 ADD MSTORE PUSH1 0x7 PUSH1 0x24 DUP3 ADD MSTORE PUSH7 0xA8DEDE9AEAC6D PUSH1 0xCB SHL PUSH1 0x44 DUP3 ADD MSTORE PUSH1 0x64 SWAP1 REVERT JUMPDEST POP PUSH1 0x3 DUP5 ADD SLOAD DUP6 GT ISZERO PUSH2 0x767 JUMP JUMPDEST POP DUP3 ISZERO ISZERO PUSH2 0x74E JUMP JUMPDEST POP CALLVALUE PUSH2 0x100 JUMPI PUSH1 0x20 CALLDATASIZE PUSH1 0x3 NOT ADD SLT PUSH2 0x100 JUMPI PUSH1 0x4 CALLDATALOAD PUSH2 0x97E DUP2 PUSH2 0x1632 JUMP JUMPDEST ISZERO PUSH2 0xB5C JUMPI DUP1 DUP3 MSTORE PUSH1 0x5 PUSH1 0x20 MSTORE PUSH1 0x40 DUP3 KECCAK256 PUSH1 0x40 MLOAD SWAP1 PUSH2 0x99C DUP3 PUSH2 0x14AB JUMP JUMPDEST DUP1 SLOAD DUP3 MSTORE PUSH1 0x1 DUP1 PUSH1 0xA0 SHL SUB PUSH1 0x1 DUP3 ADD SLOAD AND SWAP1 PUSH1 0x20 DUP4 ADD DUP3 DUP2 MSTORE PUSH1 0x2 DUP3 ADD SLOAD SWAP2 PUSH1 0x40 DUP6 ADD SWAP4 PUSH1 0x1 DUP1 PUSH1 0xA0 SHL SUB DUP5 AND DUP6 MSTORE PUSH1 0xFF PUSH1 0x60 DUP8 ADD SWAP5 PUSH1 0xA0 SHR AND ISZERO ISZERO DUP5 MSTORE DUP8 PUSH1 0x3 DUP4 ADD SLOAD SWAP2 PUSH1 0x80 DUP9 ADD SWAP3 DUP4 MSTORE PUSH1 0x4 DUP5 ADD SLOAD PUSH1 0x9 PUSH1 0xA0 DUP11 ADD SWAP6 DUP3 DUP8 MSTORE PUSH1 0x5 DUP2 ADD SLOAD PUSH1 0xC0 DUP13 ADD MSTORE PUSH1 0x6 DUP2 ADD SLOAD PUSH1 0xE0 DUP13 ADD MSTORE PUSH1 0x7 DUP2 ADD SLOAD PUSH2 0x100 DUP13 ADD MSTORE PUSH1 0x8 DUP2 ADD SLOAD PUSH2 0x120 DUP13 ADD MSTORE ADD SLOAD PUSH2 0x140 DUP11 ADD MSTORE PUSH1 0x1 DUP1 PUSH1 0xA0 SHL SUB PUSH1 0x1 SLOAD AND SWAP2 DUP3 EXTCODESIZE ISZERO PUSH2 0xB58 JUMPI PUSH1 0x40 MLOAD PUSH4 0xAB044D3 PUSH1 0xE4 SHL DUP2 MSTORE PUSH1 0x1 PUSH1 0x1 PUSH1 0xA0 SHL SUB SWAP2 SWAP1 SWAP2 AND PUSH1 0x4 DUP3 ADD MSTORE PUSH1 0xA SWAP1 SWAP2 DIV PUSH1 0x24 DUP3 ADD MSTORE SWAP1 DUP3 SWAP1 DUP3 SWAP1 PUSH1 0x44 SWAP1 DUP3 SWAP1 DUP5 SWAP1 GAS CALL DUP1 ISZERO PUSH2 0x4B2 JUMPI PUSH2 0xB43 JUMPI JUMPDEST POP POP PUSH2 0xAE9 SWAP6 MLOAD PUSH1 0x1 DUP1 PUSH1 0xA0 SHL SUB DUP5 MLOAD AND SWAP2 MLOAD SWAP3 MLOAD PUSH1 0x40 MLOAD SWAP4 DUP5 MSTORE PUSH1 0x20 DUP5 ADD MSTORE DUP9 PUSH1 0x40 DUP5 ADD MSTORE DUP9 PUSH1 0x60 DUP5 ADD MSTORE PUSH32 0xEA73A1C359C9A27EB608CD2A000DBAE23A7A8254D8213FF9961A3202AF44B507 PUSH1 0x80 CALLER SWAP5 LOG4 MLOAD SWAP2 MLOAD SWAP1 MLOAD ISZERO ISZERO SWAP2 PUSH1 0x1 PUSH1 0x1 PUSH1 0xA0 SHL SUB SWAP2 DUP3 AND SWAP2 AND PUSH2 0x14EA JUMP JUMPDEST DUP3 MSTORE PUSH1 0x6 PUSH1 0x20 MSTORE DUP2 PUSH1 0x40 DUP2 KECCAK256 SSTORE DUP2 MSTORE PUSH1 0x5 PUSH1 0x20 MSTORE PUSH2 0xB40 PUSH1 0x40 DUP3 KECCAK256 PUSH1 0x9 PUSH1 0x0 SWAP2 DUP3 DUP2 SSTORE DUP3 PUSH1 0x1 DUP3 ADD SSTORE DUP3 PUSH1 0x2 DUP3 ADD SSTORE DUP3 PUSH1 0x3 DUP3 ADD SSTORE DUP3 PUSH1 0x4 DUP3 ADD SSTORE DUP3 PUSH1 0x5 DUP3 ADD SSTORE DUP3 PUSH1 0x6 DUP3 ADD SSTORE DUP3 PUSH1 0x7 DUP3 ADD SSTORE DUP3 PUSH1 0x8 DUP3 ADD SSTORE ADD SSTORE JUMP JUMPDEST DUP1 RETURN JUMPDEST DUP2 PUSH2 0xB4D SWAP2 PUSH2 0x14C8 JUMP JUMPDEST PUSH2 0x4AE JUMPI DUP8 CODESIZE PUSH2 0xA7D JUMP JUMPDEST DUP4 DUP1 REVERT JUMPDEST PUSH1 0x40 MLOAD PUSH3 0x461BCD PUSH1 0xE5 SHL DUP2 MSTORE PUSH1 0x20 PUSH1 0x4 DUP3 ADD MSTORE PUSH1 0xF PUSH1 0x24 DUP3 ADD MSTORE PUSH15 0x4E6F744C6971756964617461626C65 PUSH1 0x88 SHL PUSH1 0x44 DUP3 ADD MSTORE PUSH1 0x64 SWAP1 REVERT JUMPDEST POP CALLVALUE PUSH2 0x100 JUMPI PUSH1 0xA0 CALLDATASIZE PUSH1 0x3 NOT ADD SLT PUSH2 0x100 JUMPI PUSH2 0xBAD PUSH2 0x1444 JUMP JUMPDEST PUSH1 0x24 CALLDATALOAD DUP1 ISZERO ISZERO DUP1 DUP3 SUB PUSH2 0xB58 JUMPI PUSH32 0xF144A1EFEABF807D4717FEDA0E0FD62CC1BA3A684D78A1A85BEC5BA332A2DE0 SWAP2 PUSH2 0xC80 PUSH1 0x44 CALLDATALOAD SWAP3 PUSH1 0x64 CALLDATALOAD PUSH1 0x84 CALLDATALOAD SWAP2 PUSH2 0xBFE PUSH1 0x1 DUP1 PUSH1 0xA0 SHL SUB DUP11 SLOAD AND CALLER EQ PUSH2 0x1887 JUMP JUMPDEST PUSH1 0x40 MLOAD SWAP1 PUSH2 0xC0B DUP3 PUSH2 0x1479 JUMP JUMPDEST DUP2 MSTORE PUSH1 0x3 PUSH1 0x20 DUP3 ADD SWAP9 DUP8 DUP11 MSTORE PUSH1 0x40 DUP4 ADD DUP5 DUP2 MSTORE PUSH1 0x60 DUP5 ADD SWAP2 DUP7 DUP4 MSTORE PUSH1 0x1 DUP1 PUSH1 0xA0 SHL SUB AND SWAP11 DUP12 DUP14 MSTORE PUSH1 0x4 PUSH1 0x20 MSTORE PUSH1 0x40 DUP14 KECCAK256 SWAP5 MLOAD ISZERO ISZERO PUSH1 0xFF DUP1 NOT DUP8 SLOAD AND SWAP2 AND OR DUP6 SSTORE MLOAD PUSH1 0x1 DUP6 ADD SSTORE MLOAD PUSH1 0x2 DUP5 ADD SSTORE MLOAD SWAP2 ADD SSTORE PUSH1 0x40 MLOAD SWAP5 DUP6 SWAP5 DUP6 SWAP1 SWAP5 SWAP4 SWAP3 PUSH1 0x60 SWAP3 PUSH1 0x80 DUP4 ADD SWAP7 ISZERO ISZERO DUP4 MSTORE PUSH1 0x20 DUP4 ADD MSTORE PUSH1 0x40 DUP3 ADD MSTORE ADD MSTORE JUMP JUMPDEST SUB SWAP1 LOG2 DUP1 RETURN JUMPDEST POP CALLVALUE PUSH2 0x100 JUMPI PUSH2 0xC95 CALLDATASIZE PUSH2 0x145F JUMP JUMPDEST SWAP1 DUP3 DUP5 MSTORE PUSH1 0x5 PUSH1 0x20 MSTORE PUSH1 0x40 DUP5 KECCAK256 SWAP1 PUSH2 0xCBA PUSH1 0x1 DUP1 PUSH1 0xA0 SHL SUB PUSH1 0x1 DUP5 ADD SLOAD AND CALLER EQ PUSH2 0x1540 JUMP JUMPDEST DUP1 ISZERO DUP1 ISZERO DUP1 SWAP2 PUSH2 0xEBC JUMPI JUMPDEST PUSH2 0xCCE SWAP1 PUSH2 0x1814 JUMP JUMPDEST PUSH2 0xE47 JUMPI JUMPDEST DUP3 PUSH2 0xD5D JUMPI JUMPDEST NUMBER PUSH1 0x9 DUP4 ADD SSTORE PUSH1 0x2 DUP1 SLOAD SWAP3 ADD SLOAD PUSH1 0x40 DUP1 MLOAD PUSH4 0x2C68BE3 PUSH1 0xE3 SHL DUP2 MSTORE PUSH1 0x1 PUSH1 0x1 PUSH1 0xA0 SHL SUB SWAP3 DUP4 AND PUSH1 0x4 DUP3 ADD MSTORE SWAP4 SWAP1 SWAP2 DUP5 SWAP2 PUSH1 0x24 SWAP2 DUP4 SWAP2 AND GAS STATICCALL DUP1 ISZERO PUSH2 0x891 JUMPI PUSH32 0xCAD3EAB700ABC5A7D00B99AAD655D6B545E5B08DBE97EEA463AB8E97BBB824AB SWAP4 PUSH1 0x80 SWAP4 DUP8 SWAP3 PUSH2 0x86F JUMPI POP PUSH1 0x40 MLOAD SWAP3 DUP4 MSTORE PUSH1 0x20 DUP4 ADD MSTORE PUSH1 0x40 DUP3 ADD MSTORE DUP5 PUSH1 0x60 DUP3 ADD MSTORE LOG2 DUP1 RETURN JUMPDEST PUSH1 0x2 DUP3 ADD SLOAD PUSH1 0x1 PUSH1 0x1 PUSH1 0xA0 SHL SUB AND DUP1 DUP7 MSTORE PUSH1 0x4 PUSH1 0x20 MSTORE PUSH1 0x40 DUP7 KECCAK256 PUSH1 0x3 ADD SLOAD PUSH2 0x2710 SWAP1 PUSH2 0xD89 SWAP1 DUP7 PUSH2 0x15A6 JUMP JUMPDEST DIV PUSH1 0x3 DUP5 ADD SWAP1 PUSH2 0xD9A DUP7 DUP4 SLOAD PUSH2 0x1625 JUMP JUMPDEST DUP1 SWAP3 SSTORE PUSH8 0xDE0B6B3A7640000 DUP3 MUL SWAP2 DUP1 DUP4 DIV PUSH8 0xDE0B6B3A7640000 EQ SWAP1 ISZERO OR ISZERO PUSH2 0xE33 JUMPI PUSH2 0xDE9 PUSH1 0x4 DUP7 ADD SWAP4 PUSH2 0xDD2 DUP6 SLOAD DUP1 SWAP6 PUSH2 0x15FD JUMP JUMPDEST SWAP1 DUP11 MSTORE PUSH1 0x4 PUSH1 0x20 MSTORE PUSH1 0x1 PUSH1 0x40 DUP12 KECCAK256 ADD SLOAD LT ISZERO PUSH2 0x184E JUMP JUMPDEST DUP1 DUP3 GT ISZERO PUSH2 0xE01 JUMPI PUSH2 0xDFA SWAP2 PUSH2 0x1618 JUMP JUMPDEST SWAP1 SSTORE PUSH2 0xCD9 JUMP JUMPDEST PUSH1 0x40 MLOAD PUSH3 0x461BCD PUSH1 0xE5 SHL DUP2 MSTORE PUSH1 0x20 PUSH1 0x4 DUP3 ADD MSTORE PUSH1 0xA PUSH1 0x24 DUP3 ADD MSTORE PUSH10 0x8CCACAA8DEDE90D2CED PUSH1 0xB3 SHL PUSH1 0x44 DUP3 ADD MSTORE PUSH1 0x64 SWAP1 REVERT JUMPDEST PUSH4 0x4E487B71 PUSH1 0xE0 SHL DUP9 MSTORE PUSH1 0x11 PUSH1 0x4 MSTORE PUSH1 0x24 DUP9 REVERT JUMPDEST PUSH1 0x1 SLOAD DUP6 SWAP1 PUSH1 0x1 PUSH1 0x1 PUSH1 0xA0 SHL SUB AND DUP1 EXTCODESIZE ISZERO PUSH2 0x4BD JUMPI PUSH1 0x40 MLOAD PUSH4 0x18F5FAAB PUSH1 0xE0 SHL DUP2 MSTORE CALLER PUSH1 0x4 DUP3 ADD MSTORE PUSH1 0x24 DUP2 ADD DUP5 SWAP1 MSTORE SWAP1 DUP3 SWAP1 DUP3 SWAP1 PUSH1 0x44 SWAP1 DUP3 SWAP1 DUP5 SWAP1 GAS CALL DUP1 ISZERO PUSH2 0x4B2 JUMPI PUSH2 0xEA7 JUMPI JUMPDEST POP POP PUSH1 0x4 DUP3 ADD PUSH2 0xEA0 DUP3 DUP3 SLOAD PUSH2 0x1625 JUMP JUMPDEST SWAP1 SSTORE PUSH2 0xCD3 JUMP JUMPDEST DUP2 PUSH2 0xEB1 SWAP2 PUSH2 0x14C8 JUMP JUMPDEST PUSH2 0x8B1 JUMPI DUP5 CODESIZE PUSH2 0xE8F JUMP JUMPDEST POP DUP4 ISZERO ISZERO PUSH2 0xCC5 JUMP JUMPDEST POP CALLVALUE PUSH2 0x100 JUMPI PUSH1 0x20 CALLDATASIZE PUSH1 0x3 NOT ADD SLT PUSH2 0x100 JUMPI PUSH1 0x20 PUSH2 0xEE4 PUSH1 0x4 CALLDATALOAD PUSH2 0x1632 JUMP JUMPDEST PUSH1 0x40 MLOAD SWAP1 ISZERO ISZERO DUP2 MSTORE RETURN JUMPDEST POP CALLVALUE PUSH2 0x100 JUMPI PUSH1 0x20 CALLDATASIZE PUSH1 0x3 NOT ADD SLT PUSH2 0x100 JUMPI PUSH1 0x4 CALLDATALOAD DUP1 DUP3 MSTORE PUSH1 0x5 PUSH1 0x20 MSTORE PUSH1 0x40 DUP3 KECCAK256 PUSH1 0x1 DUP2 ADD DUP1 SLOAD PUSH1 0x1 PUSH1 0x1 PUSH1 0xA0 SHL SUB AND SWAP2 SWAP1 PUSH2 0xF2B CALLER DUP5 EQ PUSH2 0x1540 JUMP JUMPDEST PUSH1 0x3 DUP3 ADD SWAP2 DUP3 SLOAD SWAP4 DUP5 ISZERO PUSH2 0x120C JUMPI PUSH1 0x2 DUP1 SLOAD SWAP1 DUP4 ADD DUP1 SLOAD PUSH1 0x40 DUP1 MLOAD PUSH4 0x2C68BE3 PUSH1 0xE3 SHL DUP2 MSTORE PUSH1 0x1 PUSH1 0x1 PUSH1 0xA0 SHL SUB DUP4 DUP2 AND PUSH1 0x4 DUP4 ADD DUP2 SWAP1 MSTORE SWAP5 SWAP11 SWAP5 SWAP6 SWAP4 SWAP5 SWAP4 AND SWAP3 SWAP1 SWAP2 DUP3 PUSH1 0x24 DUP2 DUP7 GAS STATICCALL SWAP2 DUP3 ISZERO PUSH2 0x1201 JUMPI DUP13 SWAP3 PUSH2 0x11DB JUMPI JUMPDEST POP PUSH1 0x20 PUSH1 0x4 SWAP3 SWAP4 PUSH1 0x40 MLOAD SWAP4 DUP5 DUP1 SWAP3 PUSH4 0x6CC2ABF PUSH1 0xE2 SHL DUP3 MSTORE GAS STATICCALL SWAP2 DUP13 DUP4 ISZERO PUSH2 0x11CF JUMPI PUSH2 0x2710 SWAP5 PUSH2 0x2E2 PUSH2 0x2DD PUSH1 0xFF PUSH2 0xFF2 SWAP8 PUSH2 0xFDC SWAP7 PUSH2 0xFC8 SWAP7 SWAP2 PUSH2 0x427 JUMPI POP AND PUSH2 0x18BF JUMP JUMPDEST PUSH1 0x5 DUP10 ADD SWAP6 DUP4 PUSH1 0xFF DUP9 SLOAD SWAP3 PUSH1 0xA0 SHR AND PUSH2 0x18CD JUMP JUMPDEST SWAP5 DUP13 MSTORE PUSH1 0x4 PUSH1 0x20 MSTORE PUSH1 0x3 PUSH1 0x40 DUP14 KECCAK256 ADD SLOAD SWAP1 PUSH2 0x15A6 JUMP JUMPDEST DIV SWAP3 DUP10 DUP4 SLT PUSH2 0x1177 JUMPI PUSH2 0x1009 DUP4 PUSH1 0x4 DUP8 ADD SLOAD PUSH2 0x1625 JUMP JUMPDEST DUP5 DUP2 LT PUSH2 0x113F JUMPI PUSH2 0x101B DUP6 DUP13 SWAP3 PUSH2 0x1618 JUMP JUMPDEST PUSH1 0x1 SLOAD PUSH1 0x1 PUSH1 0x1 PUSH1 0xA0 SHL SUB AND DUP1 EXTCODESIZE ISZERO PUSH2 0x113B JUMPI PUSH1 0x40 MLOAD PUSH4 0xAB044D3 PUSH1 0xE4 SHL DUP2 MSTORE PUSH1 0x1 PUSH1 0x1 PUSH1 0xA0 SHL SUB SWAP5 SWAP1 SWAP5 AND PUSH1 0x4 DUP6 ADD MSTORE PUSH1 0x24 DUP5 ADD SWAP2 SWAP1 SWAP2 MSTORE DUP3 SWAP1 PUSH1 0x44 SWAP1 DUP3 SWAP1 DUP5 SWAP1 GAS CALL DUP1 ISZERO PUSH2 0x1130 JUMPI PUSH2 0x10E6 JUMPI JUMPDEST POP DUP4 PUSH2 0xAE9 SWAP8 SWAP6 SWAP4 PUSH32 0xF5394A97B9D3C99BAA08C9BF7009078F41AC139C4AD7C345C6C2C98AD4A9B5A6 SWAP4 PUSH1 0xA0 SWAP4 PUSH1 0x4 SWAP10 SWAP8 SLOAD SWAP7 PUSH1 0x1 DUP1 DUP8 SHL SUB SWAP1 SLOAD AND SWAP10 DUP11 SWAP9 SLOAD SWAP5 ADD SLOAD SWAP1 SLOAD SWAP1 PUSH1 0x40 MLOAD SWAP5 DUP6 MSTORE PUSH1 0x20 DUP6 ADD MSTORE PUSH1 0x40 DUP5 ADD MSTORE PUSH1 0x60 DUP4 ADD MSTORE PUSH1 0x80 DUP3 ADD MSTORE LOG3 SLOAD PUSH1 0xA0 DUP2 SWAP1 SHR PUSH1 0xFF AND SWAP2 PUSH1 0x1 PUSH1 0x1 PUSH1 0xA0 SHL SUB SWAP1 SWAP2 AND SWAP1 PUSH2 0x14EA JUMP JUMPDEST SWAP4 PUSH2 0xAE9 SWAP8 SWAP6 SWAP4 PUSH32 0xF5394A97B9D3C99BAA08C9BF7009078F41AC139C4AD7C345C6C2C98AD4A9B5A6 SWAP4 DUP12 PUSH2 0x1120 PUSH1 0xA0 SWAP6 SWAP14 PUSH1 0x4 SWAP12 SWAP10 PUSH2 0x14C8 JUMP JUMPDEST SWAP12 SWAP4 POP SWAP4 POP SWAP4 SWAP6 SWAP8 POP SWAP4 SWAP6 PUSH2 0x106A JUMP JUMPDEST PUSH1 0x40 MLOAD RETURNDATASIZE DUP13 DUP3 RETURNDATACOPY RETURNDATASIZE SWAP1 REVERT JUMPDEST DUP3 DUP1 REVERT JUMPDEST PUSH1 0x40 MLOAD PUSH3 0x461BCD PUSH1 0xE5 SHL DUP2 MSTORE PUSH1 0x20 PUSH1 0x4 DUP3 ADD MSTORE PUSH1 0x10 PUSH1 0x24 DUP3 ADD MSTORE PUSH16 0x119959515E18D959591CD4185E5BDD5D PUSH1 0x82 SHL PUSH1 0x44 DUP3 ADD MSTORE PUSH1 0x64 SWAP1 REVERT JUMPDEST PUSH2 0x1180 DUP4 PUSH2 0x1607 JUMP JUMPDEST PUSH1 0x4 DUP7 ADD SLOAD SWAP1 DUP1 DUP3 LT PUSH2 0x119B JUMPI PUSH2 0x1196 SWAP2 PUSH2 0x1618 JUMP JUMPDEST PUSH2 0x1009 JUMP JUMPDEST PUSH1 0x40 MLOAD PUSH3 0x461BCD PUSH1 0xE5 SHL DUP2 MSTORE PUSH1 0x20 PUSH1 0x4 DUP3 ADD MSTORE PUSH1 0xC PUSH1 0x24 DUP3 ADD MSTORE PUSH12 0x4C6971756964617461626C65 PUSH1 0xA0 SHL PUSH1 0x44 DUP3 ADD MSTORE PUSH1 0x64 SWAP1 REVERT JUMPDEST PUSH1 0x40 MLOAD SWAP1 RETURNDATASIZE SWAP1 DUP3 RETURNDATACOPY RETURNDATASIZE SWAP1 REVERT JUMPDEST PUSH1 0x4 SWAP3 POP PUSH2 0x11F9 PUSH1 0x20 SWAP2 PUSH1 0x40 RETURNDATASIZE PUSH1 0x40 GT PUSH2 0x492 JUMPI PUSH2 0x482 DUP2 DUP4 PUSH2 0x14C8 JUMP JUMPDEST POP SWAP3 POP PUSH2 0xF82 JUMP JUMPDEST PUSH1 0x40 MLOAD RETURNDATASIZE DUP15 DUP3 RETURNDATACOPY RETURNDATASIZE SWAP1 REVERT JUMPDEST PUSH1 0x40 MLOAD PUSH3 0x461BCD PUSH1 0xE5 SHL DUP2 MSTORE PUSH1 0x20 PUSH1 0x4 DUP3 ADD MSTORE PUSH1 0xA PUSH1 0x24 DUP3 ADD MSTORE PUSH10 0x2737A837B9B4BA34B7B7 PUSH1 0xB1 SHL PUSH1 0x44 DUP3 ADD MSTORE PUSH1 0x64 SWAP1 REVERT JUMPDEST POP CALLVALUE PUSH2 0x100 JUMPI PUSH1 0x20 CALLDATASIZE PUSH1 0x3 NOT ADD SLT PUSH2 0x100 JUMPI PUSH1 0x40 PUSH2 0x160 SWAP2 PUSH1 0x4 CALLDATALOAD DUP2 MSTORE PUSH1 0x5 PUSH1 0x20 MSTORE KECCAK256 DUP1 SLOAD SWAP1 PUSH1 0x1 DUP1 PUSH1 0xA0 SHL SUB PUSH1 0x1 DUP3 ADD SLOAD AND SWAP1 PUSH1 0x2 DUP2 ADD SLOAD PUSH1 0x3 DUP3 ADD SLOAD PUSH1 0x4 DUP4 ADD SLOAD PUSH1 0x5 DUP5 ADD SLOAD SWAP1 PUSH1 0x6 DUP6 ADD SLOAD SWAP3 PUSH1 0xFF PUSH1 0x7 DUP8 ADD SLOAD SWAP6 PUSH1 0x9 PUSH1 0x8 DUP10 ADD SLOAD SWAP9 ADD SLOAD SWAP9 PUSH1 0x40 MLOAD SWAP11 DUP12 MSTORE PUSH1 0x20 DUP12 ADD MSTORE PUSH1 0x1 DUP1 PUSH1 0xA0 SHL SUB DUP2 AND PUSH1 0x40 DUP12 ADD MSTORE PUSH1 0xA0 SHR AND ISZERO ISZERO PUSH1 0x60 DUP10 ADD MSTORE PUSH1 0x80 DUP9 ADD MSTORE PUSH1 0xA0 DUP8 ADD MSTORE PUSH1 0xC0 DUP7 ADD MSTORE PUSH1 0xE0 DUP6 ADD MSTORE PUSH2 0x100 DUP5 ADD MSTORE PUSH2 0x120 DUP4 ADD MSTORE PUSH2 0x140 DUP3 ADD MSTORE RETURN JUMPDEST POP CALLVALUE PUSH2 0x100 JUMPI PUSH1 0x20 CALLDATASIZE PUSH1 0x3 NOT ADD SLT PUSH2 0x100 JUMPI PUSH1 0x40 SWAP1 PUSH1 0x1 PUSH1 0x1 PUSH1 0xA0 SHL SUB PUSH2 0x1311 PUSH2 0x1444 JUMP JUMPDEST AND DUP2 MSTORE PUSH1 0x4 PUSH1 0x20 MSTORE KECCAK256 PUSH1 0xFF DUP2 SLOAD AND PUSH2 0x1358 PUSH1 0x1 DUP4 ADD SLOAD SWAP3 PUSH1 0x3 PUSH1 0x2 DUP3 ADD SLOAD SWAP2 ADD SLOAD SWAP1 PUSH1 0x40 MLOAD SWAP5 DUP6 SWAP5 DUP6 SWAP1 SWAP5 SWAP4 SWAP3 PUSH1 0x60 SWAP3 PUSH1 0x80 DUP4 ADD SWAP7 ISZERO ISZERO DUP4 MSTORE PUSH1 0x20 DUP4 ADD MSTORE PUSH1 0x40 DUP3 ADD MSTORE ADD MSTORE JUMP JUMPDEST SUB SWAP1 RETURN JUMPDEST POP CALLVALUE PUSH2 0x100 JUMPI DUP1 PUSH1 0x3 NOT CALLDATASIZE ADD SLT PUSH2 0x100 JUMPI SLOAD PUSH1 0x40 MLOAD PUSH1 0x1 PUSH1 0x1 PUSH1 0xA0 SHL SUB SWAP1 SWAP2 AND DUP2 MSTORE PUSH1 0x20 SWAP1 RETURN JUMPDEST POP CALLVALUE PUSH2 0x100 JUMPI DUP1 PUSH1 0x3 NOT CALLDATASIZE ADD SLT PUSH2 0x100 JUMPI PUSH1 0x20 PUSH1 0x3 SLOAD PUSH1 0x40 MLOAD SWAP1 DUP2 MSTORE RETURN JUMPDEST POP CALLVALUE PUSH2 0x100 JUMPI PUSH1 0x20 CALLDATASIZE PUSH1 0x3 NOT ADD SLT PUSH2 0x100 JUMPI PUSH1 0x40 PUSH1 0x20 SWAP2 PUSH1 0x4 CALLDATALOAD DUP2 MSTORE PUSH1 0x6 DUP4 MSTORE KECCAK256 SLOAD PUSH1 0x40 MLOAD SWAP1 DUP2 MSTORE RETURN JUMPDEST POP CALLVALUE PUSH2 0x100 JUMPI DUP1 PUSH1 0x3 NOT CALLDATASIZE ADD SLT PUSH2 0x100 JUMPI PUSH1 0x2 SLOAD PUSH1 0x40 MLOAD PUSH1 0x1 PUSH1 0x1 PUSH1 0xA0 SHL SUB SWAP1 SWAP2 AND DUP2 MSTORE PUSH1 0x20 SWAP1 RETURN JUMPDEST POP CALLVALUE PUSH2 0x100 JUMPI PUSH1 0x60 CALLDATASIZE PUSH1 0x3 NOT ADD SLT PUSH2 0x100 JUMPI PUSH2 0x140E PUSH2 0x1444 JUMP JUMPDEST PUSH1 0x24 CALLDATALOAD SWAP1 PUSH1 0x1 PUSH1 0x1 PUSH1 0xA0 SHL SUB DUP3 AND DUP3 SUB PUSH2 0x113B JUMPI PUSH1 0x44 CALLDATALOAD SWAP3 DUP4 ISZERO ISZERO DUP5 SUB PUSH2 0x100 JUMPI PUSH1 0x20 PUSH2 0x143C DUP6 DUP6 DUP6 PUSH2 0x14EA JUMP JUMPDEST PUSH1 0x40 MLOAD SWAP1 DUP2 MSTORE RETURN JUMPDEST PUSH1 0x4 CALLDATALOAD SWAP1 PUSH1 0x1 PUSH1 0x1 PUSH1 0xA0 SHL SUB DUP3 AND DUP3 SUB PUSH2 0x145A JUMPI JUMP JUMPDEST PUSH1 0x0 DUP1 REVERT JUMPDEST PUSH1 0x60 SWAP1 PUSH1 0x3 NOT ADD SLT PUSH2 0x145A JUMPI PUSH1 0x4 CALLDATALOAD SWAP1 PUSH1 0x24 CALLDATALOAD SWAP1 PUSH1 0x44 CALLDATALOAD SWAP1 JUMP JUMPDEST PUSH1 0x80 DUP2 ADD SWAP1 DUP2 LT PUSH8 0xFFFFFFFFFFFFFFFF DUP3 GT OR PUSH2 0x1495 JUMPI PUSH1 0x40 MSTORE JUMP JUMPDEST PUSH4 0x4E487B71 PUSH1 0xE0 SHL PUSH1 0x0 MSTORE PUSH1 0x41 PUSH1 0x4 MSTORE PUSH1 0x24 PUSH1 0x0 REVERT JUMPDEST PUSH2 0x160 DUP2 ADD SWAP1 DUP2 LT PUSH8 0xFFFFFFFFFFFFFFFF DUP3 GT OR PUSH2 0x1495 JUMPI PUSH1 0x40 MSTORE JUMP JUMPDEST SWAP1 PUSH1 0x1F DUP1 NOT SWAP2 ADD AND DUP2 ADD SWAP1 DUP2 LT PUSH8 0xFFFFFFFFFFFFFFFF DUP3 GT OR PUSH2 0x1495 JUMPI PUSH1 0x40 MSTORE JUMP JUMPDEST SWAP2 PUSH1 0x40 MLOAD SWAP2 PUSH1 0x20 DUP4 ADD SWAP4 PUSH12 0xFFFFFFFFFFFFFFFFFFFFFFFF NOT SWAP1 PUSH1 0x60 SHL AND DUP5 MSTORE PUSH12 0xFFFFFFFFFFFFFFFFFFFFFFFF NOT SWAP1 PUSH1 0x60 SHL AND PUSH1 0x34 DUP4 ADD MSTORE ISZERO ISZERO PUSH1 0xF8 SHL PUSH1 0x48 DUP3 ADD MSTORE PUSH1 0x29 DUP2 MSTORE PUSH2 0x153A PUSH1 0x49 DUP3 PUSH2 0x14C8 JUMP JUMPDEST MLOAD SWAP1 KECCAK256 SWAP1 JUMP JUMPDEST ISZERO PUSH2 0x1547 JUMPI JUMP JUMPDEST PUSH1 0x40 MLOAD PUSH3 0x461BCD PUSH1 0xE5 SHL DUP2 MSTORE PUSH1 0x20 PUSH1 0x4 DUP3 ADD MSTORE PUSH1 0x8 PUSH1 0x24 DUP3 ADD MSTORE PUSH8 0x2737BA27BBB732B9 PUSH1 0xC1 SHL PUSH1 0x44 DUP3 ADD MSTORE PUSH1 0x64 SWAP1 REVERT JUMPDEST SWAP2 SWAP1 DUP3 PUSH1 0x40 SWAP2 SUB SLT PUSH2 0x145A JUMPI PUSH1 0x20 DUP3 MLOAD SWAP3 ADD MLOAD SWAP1 JUMP JUMPDEST SWAP1 DUP2 PUSH1 0x20 SWAP2 SUB SLT PUSH2 0x145A JUMPI MLOAD PUSH1 0xFF DUP2 AND DUP2 SUB PUSH2 0x145A JUMPI SWAP1 JUMP JUMPDEST DUP2 DUP2 MUL SWAP3 SWAP2 DUP2 ISZERO SWAP2 DUP5 DIV EQ OR ISZERO PUSH2 0x15B9 JUMPI JUMP JUMPDEST PUSH4 0x4E487B71 PUSH1 0xE0 SHL PUSH1 0x0 MSTORE PUSH1 0x11 PUSH1 0x4 MSTORE PUSH1 0x24 PUSH1 0x0 REVERT JUMPDEST DUP1 ISZERO PUSH2 0x15E7 JUMPI PUSH13 0xC9F2C9CD04674EDEA40000000 DIV SWAP1 JUMP JUMPDEST PUSH4 0x4E487B71 PUSH1 0xE0 SHL PUSH1 0x0 MSTORE PUSH1 0x12 PUSH1 0x4 MSTORE PUSH1 0x24 PUSH1 0x0 REVERT JUMPDEST DUP2 ISZERO PUSH2 0x15E7 JUMPI DIV SWAP1 JUMP JUMPDEST PUSH1 0x1 PUSH1 0xFF SHL DUP2 EQ PUSH2 0x15B9 JUMPI PUSH1 0x0 SUB SWAP1 JUMP JUMPDEST SWAP2 SWAP1 DUP3 SUB SWAP2 DUP3 GT PUSH2 0x15B9 JUMPI JUMP JUMPDEST SWAP2 SWAP1 DUP3 ADD DUP1 SWAP3 GT PUSH2 0x15B9 JUMPI JUMP JUMPDEST PUSH1 0x0 MSTORE PUSH1 0x5 PUSH1 0x20 MSTORE PUSH1 0x40 PUSH1 0x0 KECCAK256 PUSH1 0x40 MLOAD SWAP1 PUSH2 0x164C DUP3 PUSH2 0x14AB JUMP JUMPDEST DUP1 SLOAD DUP3 MSTORE PUSH1 0x1 DUP1 PUSH1 0xA0 SHL SUB PUSH1 0x1 DUP3 ADD SLOAD AND PUSH1 0x20 DUP4 ADD MSTORE PUSH1 0x2 DUP2 ADD SLOAD SWAP1 PUSH1 0x1 DUP1 PUSH1 0xA0 SHL SUB DUP3 AND PUSH1 0x40 DUP5 ADD SWAP3 DUP2 DUP5 MSTORE PUSH1 0xFF PUSH1 0x60 DUP7 ADD SWAP2 PUSH1 0xA0 SHR AND ISZERO ISZERO DUP2 MSTORE PUSH1 0x3 DUP4 ADD SLOAD SWAP1 PUSH1 0x80 DUP7 ADD SWAP2 DUP1 DUP4 MSTORE PUSH1 0x4 DUP6 ADD SLOAD SWAP7 PUSH1 0xA0 DUP2 ADD SWAP8 DUP9 MSTORE PUSH2 0x140 PUSH1 0x9 PUSH1 0x5 DUP9 ADD SLOAD SWAP8 PUSH1 0xC0 DUP5 ADD SWAP9 DUP10 MSTORE PUSH1 0x6 DUP2 ADD SLOAD PUSH1 0xE0 DUP6 ADD MSTORE PUSH1 0x7 DUP2 ADD SLOAD PUSH2 0x100 DUP6 ADD MSTORE PUSH1 0x8 DUP2 ADD SLOAD PUSH2 0x120 DUP6 ADD MSTORE ADD SLOAD SWAP2 ADD MSTORE ISZERO PUSH2 0x1809 JUMPI PUSH1 0x1 DUP1 PUSH1 0xA0 SHL SUB PUSH1 0x2 SLOAD AND PUSH1 0x40 MLOAD SWAP4 PUSH4 0x2C68BE3 PUSH1 0xE3 SHL DUP6 MSTORE PUSH1 0x4 DUP6 ADD MSTORE PUSH1 0x40 DUP5 PUSH1 0x24 DUP2 DUP5 GAS STATICCALL SWAP4 DUP5 ISZERO PUSH2 0x17D3 JUMPI PUSH1 0x0 SWAP5 PUSH2 0x17DF JUMPI JUMPDEST POP SWAP1 PUSH1 0x20 PUSH1 0x4 SWAP3 PUSH1 0x40 MLOAD SWAP4 DUP5 DUP1 SWAP3 PUSH4 0x6CC2ABF PUSH1 0xE2 SHL DUP3 MSTORE GAS STATICCALL SWAP5 DUP6 ISZERO PUSH2 0x17D3 JUMPI PUSH2 0x175B PUSH2 0x178E SWAP6 PUSH2 0x2E2 PUSH2 0x2DD PUSH1 0xFF PUSH2 0x2710 SWAP11 PUSH2 0x176A SWAP9 PUSH1 0x0 SWAP2 PUSH2 0x427 JUMPI POP AND PUSH2 0x18BF JUMP JUMPDEST SWAP2 MLOAD ISZERO ISZERO SWAP1 DUP5 MLOAD SWAP1 MLOAD SWAP2 PUSH2 0x18CD JUMP JUMPDEST SWAP4 MLOAD PUSH1 0x1 PUSH1 0x1 PUSH1 0xA0 SHL SUB AND PUSH1 0x0 SWAP1 DUP2 MSTORE PUSH1 0x4 PUSH1 0x20 MSTORE PUSH1 0x40 SWAP1 KECCAK256 PUSH1 0x2 ADD SLOAD SWAP1 MLOAD PUSH2 0x15A6 JUMP JUMPDEST DIV SWAP1 PUSH1 0x0 DUP2 SLT PUSH2 0x17A0 JUMPI POP SWAP1 MLOAD GT ISZERO SWAP1 JUMP JUMPDEST PUSH2 0x17A9 SWAP1 PUSH2 0x1607 JUMP JUMPDEST SWAP2 MLOAD SWAP2 DUP3 DUP2 LT SWAP3 DUP4 ISZERO SWAP4 PUSH2 0x17BE JUMPI JUMPDEST POP POP POP SWAP1 JUMP JUMPDEST PUSH2 0x17C9 SWAP3 SWAP4 POP PUSH2 0x1618 JUMP JUMPDEST GT ISZERO CODESIZE DUP1 DUP1 PUSH2 0x17B8 JUMP JUMPDEST PUSH1 0x40 MLOAD RETURNDATASIZE PUSH1 0x0 DUP3 RETURNDATACOPY RETURNDATASIZE SWAP1 REVERT JUMPDEST PUSH1 0x4 SWAP3 SWAP2 SWAP5 POP PUSH2 0x17FF PUSH1 0x20 SWAP2 PUSH1 0x40 RETURNDATASIZE PUSH1 0x40 GT PUSH2 0x492 JUMPI PUSH2 0x482 DUP2 DUP4 PUSH2 0x14C8 JUMP JUMPDEST POP SWAP5 SWAP2 SWAP3 POP PUSH2 0x1715 JUMP JUMPDEST POP POP POP POP POP POP PUSH1 0x0 SWAP1 JUMP JUMPDEST ISZERO PUSH2 0x181B JUMPI JUMP JUMPDEST PUSH1 0x40 MLOAD PUSH3 0x461BCD PUSH1 0xE5 SHL DUP2 MSTORE PUSH1 0x20 PUSH1 0x4 DUP3 ADD MSTORE PUSH1 0xB PUSH1 0x24 DUP3 ADD MSTORE PUSH11 0x4E6F7468696E67546F446F PUSH1 0xA8 SHL PUSH1 0x44 DUP3 ADD MSTORE PUSH1 0x64 SWAP1 REVERT JUMPDEST ISZERO PUSH2 0x1855 JUMPI JUMP JUMPDEST PUSH1 0x40 MLOAD PUSH3 0x461BCD PUSH1 0xE5 SHL DUP2 MSTORE PUSH1 0x20 PUSH1 0x4 DUP3 ADD MSTORE PUSH1 0xA PUSH1 0x24 DUP3 ADD MSTORE PUSH10 0x98CAECA8DEDE90D2CED PUSH1 0xB3 SHL PUSH1 0x44 DUP3 ADD MSTORE PUSH1 0x64 SWAP1 REVERT JUMPDEST ISZERO PUSH2 0x188E JUMPI JUMP JUMPDEST PUSH1 0x40 MLOAD PUSH3 0x461BCD PUSH1 0xE5 SHL DUP2 MSTORE PUSH1 0x20 PUSH1 0x4 DUP3 ADD MSTORE PUSH1 0x9 PUSH1 0x24 DUP3 ADD MSTORE PUSH9 0x4F776E65724F6E6C79 PUSH1 0xB8 SHL PUSH1 0x44 DUP3 ADD MSTORE PUSH1 0x64 SWAP1 REVERT JUMPDEST PUSH1 0x4D DUP2 GT PUSH2 0x15B9 JUMPI PUSH1 0xA EXP SWAP1 JUMP JUMPDEST SWAP3 SWAP1 SWAP3 DUP4 ISZERO DUP1 ISZERO PUSH2 0x1961 JUMPI JUMPDEST DUP1 ISZERO PUSH2 0x1959 JUMPI JUMPDEST PUSH2 0x1950 JUMPI ISZERO PUSH2 0x1923 JUMPI DUP2 DUP2 LT PUSH2 0x1909 JUMPI PUSH2 0x1906 SWAP3 PUSH2 0x2E2 DUP4 PUSH2 0x1901 SWAP4 PUSH2 0x1618 JUMP JUMPDEST PUSH2 0x15FD JUMP JUMPDEST SWAP1 JUMP JUMPDEST SWAP1 PUSH2 0x1901 PUSH2 0x1906 SWAP4 PUSH2 0x2E2 PUSH2 0x191E SWAP5 DUP5 PUSH2 0x1618 JUMP JUMPDEST PUSH2 0x1607 JUMP JUMPDEST DUP1 DUP3 LT PUSH2 0x193B JUMPI PUSH2 0x1906 SWAP3 PUSH2 0x2E2 PUSH2 0x1901 SWAP3 DUP5 PUSH2 0x1618 JUMP JUMPDEST SWAP1 PUSH2 0x1901 PUSH2 0x1906 SWAP4 PUSH2 0x2E2 DUP4 PUSH2 0x191E SWAP6 PUSH2 0x1618 JUMP JUMPDEST POP POP POP POP PUSH1 0x0 SWAP1 JUMP JUMPDEST POP DUP2 ISZERO PUSH2 0x18E0 JUMP JUMPDEST POP DUP3 ISZERO PUSH2 0x18D9 JUMP INVALID LOG2 PUSH5 0x6970667358 0x22 SLT KECCAK256 ISZERO 0xAC DUP2 0xBD PUSH13 0xD414D4F78ABC97BC85B56A7221 PUSH24 0x641C05CF568693696F5D0D296264736F6C634300081E0033 "},"methodIdentifiers":{"closePosition(uint256)":"a126d601","decreasePosition(uint256,uint256,uint256)":"da36992a","getPosition(uint256)":"eb02c301","getPositionKey(address,address,bool)":"238e270a","increasePosition(uint256,uint256,uint256)":"b8d1e890","liquidatePosition(uint256)":"cdddd4e5","markets(address)":"8e8f294b","nextPositionId()":"899346c7","openPosition(address,uint256,uint256,bool)":"eeafcd85","owner()":"8da5cb5b","positionKeyToId(bytes32)":"748bfe65","positions(uint256)":"99fbab88","priceFeed()":"741bef1a","setMarket(address,bool,uint256,uint256,uint256)":"c06ca4b2","transferOwnership(address)":"f2fde38b","validateLiquidation(uint256)":"ab6dea4c","vault()":"fbfa77cf"}}}}}