{
  "_format": "hh-sol-artifact-1",
  "contractName": "Vault",
  "sourceName": "contracts/perpetual/core/Vault.sol",
  "abi": [
    {
      "inputs": [],
      "stateMutability": "nonpayable",
      "type": "constructor"
    },
    {
      "anonymous": false,
      "inputs": [
        {
          "indexed": true,
          "internalType": "address",
          "name": "user",
          "type": "address"
        },
        {
          "indexed": true,
          "internalType": "address",
          "name": "token",
          "type": "address"
        },
        {
          "indexed": false,
          "internalType": "uint256",
          "name": "amount",
          "type": "uint256"
        }
      ],
      "name": "Deposit",
      "type": "event"
    },
    {
      "anonymous": false,
      "inputs": [
        {
          "indexed": true,
          "internalType": "address",
          "name": "user",
          "type": "address"
        },
        {
          "indexed": false,
          "internalType": "uint256",
          "name": "amount",
          "type": "uint256"
        }
      ],
      "name": "TransferFromTrading",
      "type": "event"
    },
    {
      "anonymous": false,
      "inputs": [
        {
          "indexed": true,
          "internalType": "address",
          "name": "user",
          "type": "address"
        },
        {
          "indexed": false,
          "internalType": "uint256",
          "name": "amount",
          "type": "uint256"
        }
      ],
      "name": "TransferToTrading",
      "type": "event"
    },
    {
      "anonymous": false,
      "inputs": [
        {
          "indexed": true,
          "internalType": "address",
          "name": "user",
          "type": "address"
        },
        {
          "indexed": true,
          "internalType": "address",
          "name": "token",
          "type": "address"
        },
        {
          "indexed": false,
          "internalType": "uint256",
          "name": "amount",
          "type": "uint256"
        }
      ],
      "name": "Withdraw",
      "type": "event"
    },
    {
      "inputs": [
        {
          "internalType": "address",
          "name": "",
          "type": "address"
        },
        {
          "internalType": "address",
          "name": "",
          "type": "address"
        }
      ],
      "name": "balances",
      "outputs": [
        {
          "internalType": "uint256",
          "name": "",
          "type": "uint256"
        }
      ],
      "stateMutability": "view",
      "type": "function"
    },
    {
      "inputs": [
        {
          "internalType": "address",
          "name": "_token",
          "type": "address"
        },
        {
          "internalType": "uint256",
          "name": "_amount",
          "type": "uint256"
        }
      ],
      "name": "deposit",
      "outputs": [],
      "stateMutability": "nonpayable",
      "type": "function"
    },
    {
      "inputs": [],
      "name": "depositETH",
      "outputs": [],
      "stateMutability": "payable",
      "type": "function"
    },
    {
      "inputs": [
        {
          "internalType": "address",
          "name": "_trader",
          "type": "address"
        },
        {
          "internalType": "address",
          "name": "_token",
          "type": "address"
        }
      ],
      "name": "getBalance",
      "outputs": [
        {
          "internalType": "uint256",
          "name": "",
          "type": "uint256"
        }
      ],
      "stateMutability": "view",
      "type": "function"
    },
    {
      "inputs": [
        {
          "internalType": "address",
          "name": "_trader",
          "type": "address"
        }
      ],
      "name": "getTradingBalance",
      "outputs": [
        {
          "internalType": "uint256",
          "name": "",
          "type": "uint256"
        }
      ],
      "stateMutability": "view",
      "type": "function"
    },
    {
      "inputs": [
        {
          "internalType": "address",
          "name": "_token",
          "type": "address"
        }
      ],
      "name": "isWhitelisted",
      "outputs": [
        {
          "internalType": "bool",
          "name": "",
          "type": "bool"
        }
      ],
      "stateMutability": "view",
      "type": "function"
    },
    {
      "inputs": [],
      "name": "owner",
      "outputs": [
        {
          "internalType": "address",
          "name": "",
          "type": "address"
        }
      ],
      "stateMutability": "view",
      "type": "function"
    },
    {
      "inputs": [
        {
          "internalType": "address",
          "name": "",
          "type": "address"
        }
      ],
      "name": "tradingBalances",
      "outputs": [
        {
          "internalType": "uint256",
          "name": "",
          "type": "uint256"
        }
      ],
      "stateMutability": "view",
      "type": "function"
    },
    {
      "inputs": [
        {
          "internalType": "address",
          "name": "_trader",
          "type": "address"
        },
        {
          "internalType": "uint256",
          "name": "_amount",
          "type": "uint256"
        }
      ],
      "name": "transferFromTrading",
      "outputs": [],
      "stateMutability": "nonpayable",
      "type": "function"
    },
    {
      "inputs": [
        {
          "internalType": "address",
          "name": "_owner",
          "type": "address"
        }
      ],
      "name": "transferOwnership",
      "outputs": [],
      "stateMutability": "nonpayable",
      "type": "function"
    },
    {
      "inputs": [
        {
          "internalType": "address",
          "name": "_trader",
          "type": "address"
        },
        {
          "internalType": "uint256",
          "name": "_amount",
          "type": "uint256"
        }
      ],
      "name": "transferToTrading",
      "outputs": [],
      "stateMutability": "nonpayable",
      "type": "function"
    },
    {
      "inputs": [
        {
          "internalType": "address",
          "name": "_token",
          "type": "address"
        },
        {
          "internalType": "bool",
          "name": "_whitelist",
          "type": "bool"
        }
      ],
      "name": "whitelistToken",
      "outputs": [],
      "stateMutability": "nonpayable",
      "type": "function"
    },
    {
      "inputs": [
        {
          "internalType": "address",
          "name": "",
          "type": "address"
        }
      ],
      "name": "whitelisted",
      "outputs": [
        {
          "internalType": "bool",
          "name": "",
          "type": "bool"
        }
      ],
      "stateMutability": "view",
      "type": "function"
    },
    {
      "inputs": [
        {
          "internalType": "address",
          "name": "_token",
          "type": "address"
        },
        {
          "internalType": "uint256",
          "name": "_amount",
          "type": "uint256"
        }
      ],
      "name": "withdraw",
      "outputs": [],
      "stateMutability": "nonpayable",
      "type": "function"
    }
  ],
  "bytecode": "0x60808060405234602757600080546001600160a01b031916331790556107bc908161002d8239f35b600080fdfe6080604052600436101561001257600080fd5b60003560e01c80630ffb1d8b1461063f57806318f5faab1461056e5780633af32abf146102a557806347e7ef24146104195780636285275e146103df5780636cb0ed2e146103df5780638da5cb5b146103b6578063ab044d3014610335578063c23f001f146102e4578063d4fac45d146102e4578063d936547e146102a5578063f2fde38b14610258578063f3fef3a3146101025763f6326fb3146100b657600080fd5b60003660031901126100fd5760405162461bcd60e51b81526020600482015260136024820152724554484e6f74537570706f72746564496e563160681b6044820152606490fd5b600080fd5b346100fd5760403660031901126100fd5761011b6106a2565b60243590336000526002602052604060002060018060a01b038216600052602052816040600020541061021d57336000526002602052604060002060018060a01b0382166000526020526040600020610175838254610706565b905560405163a9059cbb60e01b8152336004820152602481018390526001600160a01b039190911691906020816044816000875af18015610211576101e4575b506040519081527f9b1bfa7fa9ee420a16e124f794c35ac9f90472acc99140eb2f6447c714cad8eb60203392a3005b6102059060203d60201161020a575b6101fd8183610729565b810190610761565b6101b5565b503d6101f3565b6040513d6000823e3d90fd5b60405162461bcd60e51b8152602060048201526013602482015272496e73756666696369656e7442616c616e636560681b6044820152606490fd5b346100fd5760203660031901126100fd576102716106a2565b60005490610289336001600160a01b038416146106ce565b6001600160a01b03166001600160a01b03199190911617600055005b346100fd5760203660031901126100fd576001600160a01b036102c66106a2565b166000526001602052602060ff604060002054166040519015158152f35b346100fd5760403660031901126100fd576102fd6106a2565b6103056106b8565b6001600160a01b039182166000908152600260209081526040808320949093168252928352819020549051908152f35b346100fd5760403660031901126100fd5761034e6106a2565b7f331439747385e91218fcd399f6c151a906e1a38f19e297d55442a77b069bb41560206024359261038a60018060a01b036000541633146106ce565b60018060a01b031692836000526003825260406000206103ab828254610779565b9055604051908152a2005b346100fd5760003660031901126100fd576000546040516001600160a01b039091168152602090f35b346100fd5760203660031901126100fd576001600160a01b036104006106a2565b1660005260036020526020604060002054604051908152f35b346100fd5760403660031901126100fd576104326106a2565b6001600160a01b03166000818152600160205260409020546024359060ff1615610537578015610505576040516323b872dd60e01b8152336004820152306024820152604481018290526020816064816000875af18015610211576104e8575b5033600052600260205260406000208260005260205260406000206104b8828254610779565b90556040519081527f5548c837ab068cf56a2c2479df0882a4922fd203edb7517321831d95078c5f6260203392a3005b6105009060203d60201161020a576101fd8183610729565b610492565b60405162461bcd60e51b815260206004820152600a60248201526916995c9bd05b5bdd5b9d60b21b6044820152606490fd5b60405162461bcd60e51b815260206004820152600f60248201526e151bdad95b939bdd105b1b1bddd959608a1b6044820152606490fd5b346100fd5760403660031901126100fd576105876106a2565b602435906105a060018060a01b036000541633146106ce565b60018060a01b03169081600052600360205280604060002054106105fa5760207f678739396feb44f06c3a64d1ba0991749ff2e9b2154d83e9709b2679f1af6ac591836000526003825260406000206103ab828254610706565b60405162461bcd60e51b815260206004820152601a60248201527f496e73756666696369656e7454726164696e6742616c616e63650000000000006044820152606490fd5b346100fd5760403660031901126100fd576106586106a2565b602435908115158092036100fd5761067b60018060a01b036000541633146106ce565b60018060a01b0316600052600160205260406000209060ff80198354169116179055600080f35b600435906001600160a01b03821682036100fd57565b602435906001600160a01b03821682036100fd57565b156106d557565b60405162461bcd60e51b81526020600482015260096024820152684f776e65724f6e6c7960b81b6044820152606490fd5b9190820391821161071357565b634e487b7160e01b600052601160045260246000fd5b90601f8019910116810190811067ffffffffffffffff82111761074b57604052565b634e487b7160e01b600052604160045260246000fd5b908160209103126100fd575180151581036100fd5790565b919082018092116107135756fea2646970667358221220002f7879ef60c0035aaf46e45a35f4a0f97f8383dc2530b3dace7c96b6fa4c2864736f6c634300081e0033",
  "linkReferences": {},
  "deployedLinkReferences": {}
}