{
  "_format": "hh-sol-artifact-1",
  "contractName": "PriceFeed",
  "sourceName": "contracts/perpetual/oracle/PriceFeed.sol",
  "abi": [
    {
      "inputs": [],
      "stateMutability": "nonpayable",
      "type": "constructor"
    },
    {
      "anonymous": false,
      "inputs": [
        {
          "indexed": true,
          "internalType": "address",
          "name": "token",
          "type": "address"
        },
        {
          "indexed": true,
          "internalType": "address",
          "name": "oracle",
          "type": "address"
        }
      ],
      "name": "OracleAdded",
      "type": "event"
    },
    {
      "anonymous": false,
      "inputs": [
        {
          "indexed": true,
          "internalType": "address",
          "name": "token",
          "type": "address"
        }
      ],
      "name": "OracleRemoved",
      "type": "event"
    },
    {
      "anonymous": false,
      "inputs": [
        {
          "indexed": true,
          "internalType": "address",
          "name": "token",
          "type": "address"
        },
        {
          "indexed": false,
          "internalType": "uint256",
          "name": "price",
          "type": "uint256"
        },
        {
          "indexed": false,
          "internalType": "uint256",
          "name": "timestamp",
          "type": "uint256"
        }
      ],
      "name": "PriceUpdate",
      "type": "event"
    },
    {
      "inputs": [],
      "name": "PRICE_DECIMALS",
      "outputs": [
        {
          "internalType": "uint8",
          "name": "",
          "type": "uint8"
        }
      ],
      "stateMutability": "view",
      "type": "function"
    },
    {
      "inputs": [
        {
          "internalType": "address",
          "name": "_token",
          "type": "address"
        },
        {
          "internalType": "address",
          "name": "_oracle",
          "type": "address"
        }
      ],
      "name": "addOracle",
      "outputs": [],
      "stateMutability": "nonpayable",
      "type": "function"
    },
    {
      "inputs": [
        {
          "internalType": "address",
          "name": "_token",
          "type": "address"
        }
      ],
      "name": "getLatestPrice",
      "outputs": [
        {
          "internalType": "uint256",
          "name": "",
          "type": "uint256"
        },
        {
          "internalType": "uint256",
          "name": "",
          "type": "uint256"
        }
      ],
      "stateMutability": "view",
      "type": "function"
    },
    {
      "inputs": [
        {
          "internalType": "address",
          "name": "_token",
          "type": "address"
        }
      ],
      "name": "getPrice",
      "outputs": [
        {
          "internalType": "uint256",
          "name": "",
          "type": "uint256"
        }
      ],
      "stateMutability": "view",
      "type": "function"
    },
    {
      "inputs": [],
      "name": "getPriceDecimals",
      "outputs": [
        {
          "internalType": "uint8",
          "name": "",
          "type": "uint8"
        }
      ],
      "stateMutability": "pure",
      "type": "function"
    },
    {
      "inputs": [
        {
          "internalType": "address",
          "name": "_token",
          "type": "address"
        }
      ],
      "name": "isValidPrice",
      "outputs": [
        {
          "internalType": "bool",
          "name": "",
          "type": "bool"
        }
      ],
      "stateMutability": "view",
      "type": "function"
    },
    {
      "inputs": [],
      "name": "owner",
      "outputs": [
        {
          "internalType": "address",
          "name": "",
          "type": "address"
        }
      ],
      "stateMutability": "view",
      "type": "function"
    },
    {
      "inputs": [
        {
          "internalType": "address",
          "name": "_token",
          "type": "address"
        }
      ],
      "name": "removeOracle",
      "outputs": [],
      "stateMutability": "nonpayable",
      "type": "function"
    },
    {
      "inputs": [
        {
          "internalType": "address",
          "name": "_token",
          "type": "address"
        },
        {
          "internalType": "uint256",
          "name": "_price",
          "type": "uint256"
        }
      ],
      "name": "setPrice",
      "outputs": [],
      "stateMutability": "nonpayable",
      "type": "function"
    },
    {
      "inputs": [
        {
          "internalType": "address",
          "name": "",
          "type": "address"
        }
      ],
      "name": "tokenOracles",
      "outputs": [
        {
          "internalType": "address",
          "name": "oracle",
          "type": "address"
        },
        {
          "internalType": "uint256",
          "name": "lastPrice",
          "type": "uint256"
        },
        {
          "internalType": "uint256",
          "name": "lastUpdatedAt",
          "type": "uint256"
        },
        {
          "internalType": "bool",
          "name": "exists",
          "type": "bool"
        }
      ],
      "stateMutability": "view",
      "type": "function"
    },
    {
      "inputs": [
        {
          "internalType": "address",
          "name": "_owner",
          "type": "address"
        }
      ],
      "name": "transferOwnership",
      "outputs": [],
      "stateMutability": "nonpayable",
      "type": "function"
    }
  ],
  "bytecode": "0x60808060405234602757600080546001600160a01b03191633179055610723908161002d8239f35b600080fdfe608080604052600436101561001357600080fd5b60003560e01c908162e4768b1461042e5750806316345f18146103925780631b30aafc1461016b57806341976e09146102e757806351dd2a87146102ba5780638da5cb5b14610291578063bd49243214610228578063f0ca4adb14610187578063f1a640f81461016b578063f2fde38b1461011b5763fdc85fc41461009757600080fd5b34610116576020366003190112610116576100b06105d3565b6100c560018060a01b036000541633146106b5565b60018060a01b0316806000526001602052600060036040822082815582600182015582600282015501557f9c8e7d83025bef8a04c664b2f753f64b8814bdb7e27291d7e50935f18cc3c712600080a2005b600080fd5b34610116576020366003190112610116576101346105d3565b61014960018060a01b036000541633146106b5565b600080546001600160a01b0319166001600160a01b0392909216919091179055005b3461011657600036600319011261011657602060405160088152f35b34610116576040366003190112610116576101a06105d3565b6024356001600160a01b0381169190829003610116576101cb60018060a01b036000541633146106b5565b6001600160a01b03166000818152600160208190526040822080546001600160a01b03191685178155600301805460ff191690911790557f828d2be040dede7698182e08dfa8bfbd663c879aee772509c4a2bd961d0ed43f9080a3005b34610116576020366003190112610116576001600160a01b036102496105d3565b1660005260016020526080604060002060018060a01b038154169060018101549060ff6003600283015492015416916040519384526020840152604083015215156060820152f35b34610116576000366003190112610116576000546040516001600160a01b039091168152602090f35b346101165760203660031901126101165760206102dd6102d86105d3565b61061f565b6040519015158152f35b34610116576020366003190112610116576001600160a01b036103086105d3565b1660005260016020526040600020604051906080820182811067ffffffffffffffff82111761037c576020926103739160405260018060a01b038354168152600183015490606060ff60038784019685885260028101546040860152015416151591015215156105e9565b51604051908152f35b634e487b7160e01b600052604160045260246000fd5b34610116576020366003190112610116576001600160a01b036103b36105d3565b166000526001602052604060002060405190608082019180831067ffffffffffffffff84111761037c57604092835260018060a01b03825416815261041f60018301546020830192818452606060ff6003600288015497898501988952015416151591015215156105e9565b51905182519182526020820152f35b34610116576040366003190112610116576104476105d3565b6001600160a01b039081166000818152600160205260409020549092602435929091161580156105b4575b80156105a0575b156105725750801561054257816000526001602052604060002060ff6003820154168015610530575b801561051c575b156104ed5781817fac7b695c6873047ad50339f850f4ae3f6b8f6ef63ed1a8b22f7d36a1c6bd46f393600160409401556002429101558151908152426020820152a2005b60405162461bcd60e51b81526020600482015260076024820152662737aa37b5b2b760c91b6044820152606490fd5b506000546001600160a01b031633146104a9565b5080546001600160a01b0316156104a2565b60405162461bcd60e51b8152602060048201526008602482015267426164507269636560c01b6044820152606490fd5b62461bcd60e51b81526020600482015260096024820152684e6f744f7261636c6560b81b6044820152606490fd5b506000546001600160a01b03163314610479565b5082600052600160205260018060a01b03604060002054163314610472565b600435906001600160a01b038216820361011657565b156105f057565b60405162461bcd60e51b81526020600482015260076024820152664e6f507269636560c81b6044820152606490fd5b60018060a01b0316600052600160205260406000206040516080810181811067ffffffffffffffff82111761037c5760405260018060a01b038254168152600182015490816020820152606060ff60036002860154958660408601520154161515910152156106af57420342811161069957610258101590565b634e487b7160e01b600052601160045260246000fd5b50600090565b156106bc57565b60405162461bcd60e51b81526020600482015260096024820152684f776e65724f6e6c7960b81b6044820152606490fdfea26469706673582212203b8d00b1605868b50cbc97822d6c9d9b5fddde0a6d8fcd70b2ac87ee658e785064736f6c634300081e0033",
  "linkReferences": {},
  "deployedLinkReferences": {}
}