{
  "_format": "hh-sol-artifact-1",
  "contractName": "DewToken",
  "sourceName": "contracts/DewToken.sol",
  "abi": [
    {
      "inputs": [
        {
          "internalType": "uint256",
          "name": "_totalSupply",
          "type": "uint256"
        }
      ],
      "stateMutability": "nonpayable",
      "type": "constructor"
    },
    {
      "anonymous": false,
      "inputs": [
        {
          "indexed": true,
          "internalType": "address",
          "name": "owner",
          "type": "address"
        },
        {
          "indexed": true,
          "internalType": "address",
          "name": "spender",
          "type": "address"
        },
        {
          "indexed": false,
          "internalType": "uint256",
          "name": "value",
          "type": "uint256"
        }
      ],
      "name": "Approval",
      "type": "event"
    },
    {
      "anonymous": false,
      "inputs": [
        {
          "indexed": true,
          "internalType": "address",
          "name": "from",
          "type": "address"
        },
        {
          "indexed": true,
          "internalType": "address",
          "name": "to",
          "type": "address"
        },
        {
          "indexed": false,
          "internalType": "uint256",
          "name": "value",
          "type": "uint256"
        }
      ],
      "name": "Transfer",
      "type": "event"
    },
    {
      "inputs": [
        {
          "internalType": "address",
          "name": "",
          "type": "address"
        },
        {
          "internalType": "address",
          "name": "",
          "type": "address"
        }
      ],
      "name": "allowance",
      "outputs": [
        {
          "internalType": "uint256",
          "name": "",
          "type": "uint256"
        }
      ],
      "stateMutability": "view",
      "type": "function"
    },
    {
      "inputs": [
        {
          "internalType": "address",
          "name": "spender",
          "type": "address"
        },
        {
          "internalType": "uint256",
          "name": "amount",
          "type": "uint256"
        }
      ],
      "name": "approve",
      "outputs": [
        {
          "internalType": "bool",
          "name": "",
          "type": "bool"
        }
      ],
      "stateMutability": "nonpayable",
      "type": "function"
    },
    {
      "inputs": [
        {
          "internalType": "address",
          "name": "",
          "type": "address"
        }
      ],
      "name": "balanceOf",
      "outputs": [
        {
          "internalType": "uint256",
          "name": "",
          "type": "uint256"
        }
      ],
      "stateMutability": "view",
      "type": "function"
    },
    {
      "inputs": [
        {
          "internalType": "uint256",
          "name": "amount",
          "type": "uint256"
        }
      ],
      "name": "burn",
      "outputs": [],
      "stateMutability": "nonpayable",
      "type": "function"
    },
    {
      "inputs": [],
      "name": "decimals",
      "outputs": [
        {
          "internalType": "uint8",
          "name": "",
          "type": "uint8"
        }
      ],
      "stateMutability": "view",
      "type": "function"
    },
    {
      "inputs": [
        {
          "internalType": "address",
          "name": "to",
          "type": "address"
        },
        {
          "internalType": "uint256",
          "name": "amount",
          "type": "uint256"
        }
      ],
      "name": "mint",
      "outputs": [],
      "stateMutability": "nonpayable",
      "type": "function"
    },
    {
      "inputs": [],
      "name": "name",
      "outputs": [
        {
          "internalType": "string",
          "name": "",
          "type": "string"
        }
      ],
      "stateMutability": "view",
      "type": "function"
    },
    {
      "inputs": [],
      "name": "owner",
      "outputs": [
        {
          "internalType": "address",
          "name": "",
          "type": "address"
        }
      ],
      "stateMutability": "view",
      "type": "function"
    },
    {
      "inputs": [],
      "name": "symbol",
      "outputs": [
        {
          "internalType": "string",
          "name": "",
          "type": "string"
        }
      ],
      "stateMutability": "view",
      "type": "function"
    },
    {
      "inputs": [],
      "name": "totalSupply",
      "outputs": [
        {
          "internalType": "uint256",
          "name": "",
          "type": "uint256"
        }
      ],
      "stateMutability": "view",
      "type": "function"
    },
    {
      "inputs": [
        {
          "internalType": "address",
          "name": "to",
          "type": "address"
        },
        {
          "internalType": "uint256",
          "name": "amount",
          "type": "uint256"
        }
      ],
      "name": "transfer",
      "outputs": [
        {
          "internalType": "bool",
          "name": "",
          "type": "bool"
        }
      ],
      "stateMutability": "nonpayable",
      "type": "function"
    },
    {
      "inputs": [
        {
          "internalType": "address",
          "name": "from",
          "type": "address"
        },
        {
          "internalType": "address",
          "name": "to",
          "type": "address"
        },
        {
          "internalType": "uint256",
          "name": "amount",
          "type": "uint256"
        }
      ],
      "name": "transferFrom",
      "outputs": [
        {
          "internalType": "bool",
          "name": "",
          "type": "bool"
        }
      ],
      "stateMutability": "nonpayable",
      "type": "function"
    }
  ],
  "bytecode": "0x60803460d157601f6108fd38819003918201601f19168301916001600160401b0383118484101760d65780849260209460405283398101031260d15751600380546001600160a01b03191633179055670de0b6b3a7640000808202918015908304909114171560bb578060005533600052600160205260406000205560005460405190815260007fddf252ad1be2c89b69c2b068fc378daa952ba7f163c4a11628f55a4df523b3ef60203393a360405161081090816100ed8239f35b634e487b7160e01b600052601160045260246000fd5b600080fd5b634e487b7160e01b600052604160045260246000fdfe6080604052600436101561001257600080fd5b60003560e01c806306fdde031461054f578063095ea7b3146104d557806318160ddd146104b757806323b872dd146103c9578063313ce567146103ad57806340c10f19146102c757806342966c68146101f457806370a08231146101ba5780638da5cb5b1461019157806395d89b4114610128578063a9059cbb146100f65763dd62ed3e146100a057600080fd5b346100f15760403660031901126100f1576100b96105ed565b6100c1610603565b6001600160a01b039182166000908152600260209081526040808320949093168252928352819020549051908152f35b600080fd5b346100f15760403660031901126100f157602061011e6101146105ed565b6024359033610649565b6040519015158152f35b346100f15760003660031901126100f157604051604081019080821067ffffffffffffffff83111761017b5761017791604052600381526244455760e81b6020820152604051918291826105a4565b0390f35b634e487b7160e01b600052604160045260246000fd5b346100f15760003660031901126100f1576003546040516001600160a01b039091168152602090f35b346100f15760203660031901126100f1576001600160a01b036101db6105ed565b1660005260016020526020604060002054604051908152f35b346100f15760203660031901126100f157600435336000526001602052806040600020541061027457600090338252600160205260408220610237828254610619565b9055610244818354610619565b82556040519081527fddf252ad1be2c89b69c2b068fc378daa952ba7f163c4a11628f55a4df523b3ef60203392a3005b60405162461bcd60e51b815260206004820152602560248201527f446577546f6b656e3a204275726e20616d6f756e7420657863656564732062616044820152646c616e636560d81b6064820152608490fd5b346100f15760403660031901126100f1576102e06105ed565b60035460243591906001600160a01b03163303610354577fddf252ad1be2c89b69c2b068fc378daa952ba7f163c4a11628f55a4df523b3ef602060009261032885855461063c565b845560018060a01b031693848452600182526040842061034982825461063c565b9055604051908152a3005b60405162461bcd60e51b815260206004820152602b60248201527f446577546f6b656e3a204f6e6c79206f776e65722063616e2063616c6c20746860448201526a34b990333ab731ba34b7b760a91b6064820152608490fd5b346100f15760003660031901126100f157602060405160128152f35b346100f15760603660031901126100f1576103e26105ed565b6103ea610603565b6001600160a01b0382166000818152600260209081526040808320338452909152902054909290916044359182841061045e5760209461011e948460018201610436575b505050610649565b61043f91610619565b600091825260028752604080832033845288529091205585808461042e565b60405162461bcd60e51b815260206004820152602b60248201527f446577546f6b656e3a205472616e7366657220616d6f756e742065786365656460448201526a7320616c6c6f77616e636560a81b6064820152608490fd5b346100f15760003660031901126100f1576020600054604051908152f35b346100f15760403660031901126100f1576104ee6105ed565b3360008181526002602090815260408083206001600160a01b03909516808452948252918290206024359081905591519182527f8c5be1e5ebec7d5bd14f71427d1e84f3dd0314c0f7b2291e5b200ac8c7c3b92591a3602060405160018152f35b346100f15760003660031901126100f157604051604081019080821067ffffffffffffffff83111761017b5761017791604052600d81526c2232bba9bbb0b8102a37b5b2b760991b6020820152604051918291825b91909160208152825180602083015260005b8181106105d7575060409293506000838284010152601f8019910116010190565b80602080928701015160408286010152016105b6565b600435906001600160a01b03821682036100f157565b602435906001600160a01b03821682036100f157565b9190820391821161062657565b634e487b7160e01b600052601160045260246000fd5b9190820180921161062657565b6001600160a01b0316908115610789576001600160a01b03169182156107395781600052600160205280604060002054106106e25760207fddf252ad1be2c89b69c2b068fc378daa952ba7f163c4a11628f55a4df523b3ef91836000526001825260406000206106ba828254610619565b9055846000526001825260406000206106d482825461063c565b9055604051908152a3600190565b60405162461bcd60e51b815260206004820152602960248201527f446577546f6b656e3a205472616e7366657220616d6f756e7420657863656564604482015268732062616c616e636560b81b6064820152608490fd5b60405162461bcd60e51b815260206004820152602260248201527f446577546f6b656e3a205472616e7366657220746f207a65726f206164647265604482015261737360f01b6064820152608490fd5b60405162461bcd60e51b8152602060048201526024808201527f446577546f6b656e3a205472616e736665722066726f6d207a65726f206164646044820152637265737360e01b6064820152608490fdfea264697066735822122042816ff644c6a6c8b56676f02a6bcc583a0a30d097334c2696db32e4d610d39b64736f6c634300081e0033",
  "linkReferences": {},
  "deployedLinkReferences": {}
}