{
  "_format": "hh-sol-artifact-1",
  "contractName": "PerpExchange",
  "sourceName": "contracts/perpetual/core/PerpExchange.sol",
  "abi": [
    {
      "inputs": [
        {
          "internalType": "address",
          "name": "_vault",
          "type": "address"
        },
        {
          "internalType": "address",
          "name": "_priceFeed",
          "type": "address"
        }
      ],
      "stateMutability": "nonpayable",
      "type": "constructor"
    },
    {
      "anonymous": false,
      "inputs": [
        {
          "indexed": true,
          "internalType": "address",
          "name": "token",
          "type": "address"
        },
        {
          "indexed": false,
          "internalType": "bool",
          "name": "isActive",
          "type": "bool"
        },
        {
          "indexed": false,
          "internalType": "uint256",
          "name": "maxLev",
          "type": "uint256"
        },
        {
          "indexed": false,
          "internalType": "uint256",
          "name": "mmBps",
          "type": "uint256"
        },
        {
          "indexed": false,
          "internalType": "uint256",
          "name": "feeBps",
          "type": "uint256"
        }
      ],
      "name": "MarketUpdated",
      "type": "event"
    },
    {
      "anonymous": false,
      "inputs": [
        {
          "indexed": true,
          "internalType": "uint256",
          "name": "positionId",
          "type": "uint256"
        },
        {
          "indexed": true,
          "internalType": "address",
          "name": "trader",
          "type": "address"
        },
        {
          "indexed": false,
          "internalType": "uint256",
          "name": "size",
          "type": "uint256"
        },
        {
          "indexed": false,
          "internalType": "uint256",
          "name": "collateral",
          "type": "uint256"
        },
        {
          "indexed": false,
          "internalType": "uint256",
          "name": "avgPrice",
          "type": "uint256"
        },
        {
          "indexed": false,
          "internalType": "int256",
          "name": "pnl",
          "type": "int256"
        },
        {
          "indexed": false,
          "internalType": "uint256",
          "name": "fee",
          "type": "uint256"
        }
      ],
      "name": "PositionClosed",
      "type": "event"
    },
    {
      "anonymous": false,
      "inputs": [
        {
          "indexed": true,
          "internalType": "uint256",
          "name": "positionId",
          "type": "uint256"
        },
        {
          "indexed": false,
          "internalType": "uint256",
          "name": "collateralDelta",
          "type": "uint256"
        },
        {
          "indexed": false,
          "internalType": "uint256",
          "name": "sizeDelta",
          "type": "uint256"
        },
        {
          "indexed": false,
          "internalType": "uint256",
          "name": "price",
          "type": "uint256"
        },
        {
          "indexed": false,
          "internalType": "uint256",
          "name": "fee",
          "type": "uint256"
        }
      ],
      "name": "PositionDecreased",
      "type": "event"
    },
    {
      "anonymous": false,
      "inputs": [
        {
          "indexed": true,
          "internalType": "uint256",
          "name": "positionId",
          "type": "uint256"
        },
        {
          "indexed": false,
          "internalType": "uint256",
          "name": "collateralDelta",
          "type": "uint256"
        },
        {
          "indexed": false,
          "internalType": "uint256",
          "name": "sizeDelta",
          "type": "uint256"
        },
        {
          "indexed": false,
          "internalType": "uint256",
          "name": "price",
          "type": "uint256"
        },
        {
          "indexed": false,
          "internalType": "uint256",
          "name": "fee",
          "type": "uint256"
        }
      ],
      "name": "PositionIncreased",
      "type": "event"
    },
    {
      "anonymous": false,
      "inputs": [
        {
          "indexed": true,
          "internalType": "uint256",
          "name": "positionId",
          "type": "uint256"
        },
        {
          "indexed": true,
          "internalType": "address",
          "name": "trader",
          "type": "address"
        },
        {
          "indexed": true,
          "internalType": "address",
          "name": "liquidator",
          "type": "address"
        },
        {
          "indexed": false,
          "internalType": "uint256",
          "name": "size",
          "type": "uint256"
        },
        {
          "indexed": false,
          "internalType": "uint256",
          "name": "collateral",
          "type": "uint256"
        },
        {
          "indexed": false,
          "internalType": "int256",
          "name": "pnl",
          "type": "int256"
        },
        {
          "indexed": false,
          "internalType": "uint256",
          "name": "fee",
          "type": "uint256"
        }
      ],
      "name": "PositionLiquidated",
      "type": "event"
    },
    {
      "anonymous": false,
      "inputs": [
        {
          "indexed": true,
          "internalType": "uint256",
          "name": "positionId",
          "type": "uint256"
        },
        {
          "indexed": true,
          "internalType": "address",
          "name": "trader",
          "type": "address"
        },
        {
          "indexed": true,
          "internalType": "address",
          "name": "indexToken",
          "type": "address"
        },
        {
          "indexed": false,
          "internalType": "bool",
          "name": "isLong",
          "type": "bool"
        },
        {
          "indexed": false,
          "internalType": "uint256",
          "name": "size",
          "type": "uint256"
        },
        {
          "indexed": false,
          "internalType": "uint256",
          "name": "collateral",
          "type": "uint256"
        },
        {
          "indexed": false,
          "internalType": "uint256",
          "name": "avgPrice",
          "type": "uint256"
        }
      ],
      "name": "PositionOpened",
      "type": "event"
    },
    {
      "inputs": [
        {
          "internalType": "uint256",
          "name": "_positionId",
          "type": "uint256"
        }
      ],
      "name": "closePosition",
      "outputs": [],
      "stateMutability": "nonpayable",
      "type": "function"
    },
    {
      "inputs": [
        {
          "internalType": "uint256",
          "name": "_positionId",
          "type": "uint256"
        },
        {
          "internalType": "uint256",
          "name": "_collateralDelta",
          "type": "uint256"
        },
        {
          "internalType": "uint256",
          "name": "_sizeDelta",
          "type": "uint256"
        }
      ],
      "name": "decreasePosition",
      "outputs": [],
      "stateMutability": "nonpayable",
      "type": "function"
    },
    {
      "inputs": [
        {
          "internalType": "uint256",
          "name": "_positionId",
          "type": "uint256"
        }
      ],
      "name": "getPosition",
      "outputs": [
        {
          "components": [
            {
              "internalType": "uint256",
              "name": "id",
              "type": "uint256"
            },
            {
              "internalType": "address",
              "name": "trader",
              "type": "address"
            },
            {
              "internalType": "address",
              "name": "indexToken",
              "type": "address"
            },
            {
              "internalType": "bool",
              "name": "isLong",
              "type": "bool"
            },
            {
              "internalType": "uint256",
              "name": "size",
              "type": "uint256"
            },
            {
              "internalType": "uint256",
              "name": "collateral",
              "type": "uint256"
            },
            {
              "internalType": "uint256",
              "name": "avgPrice",
              "type": "uint256"
            },
            {
              "internalType": "uint256",
              "name": "entryFundingRate",
              "type": "uint256"
            },
            {
              "internalType": "uint256",
              "name": "reserveAmount",
              "type": "uint256"
            },
            {
              "internalType": "uint256",
              "name": "realisedPnl",
              "type": "uint256"
            },
            {
              "internalType": "uint256",
              "name": "lastUpdatedBlock",
              "type": "uint256"
            }
          ],
          "internalType": "struct IPerpExchange.Position",
          "name": "",
          "type": "tuple"
        }
      ],
      "stateMutability": "view",
      "type": "function"
    },
    {
      "inputs": [
        {
          "internalType": "address",
          "name": "_trader",
          "type": "address"
        },
        {
          "internalType": "address",
          "name": "_indexToken",
          "type": "address"
        },
        {
          "internalType": "bool",
          "name": "_isLong",
          "type": "bool"
        }
      ],
      "name": "getPositionKey",
      "outputs": [
        {
          "internalType": "bytes32",
          "name": "",
          "type": "bytes32"
        }
      ],
      "stateMutability": "pure",
      "type": "function"
    },
    {
      "inputs": [
        {
          "internalType": "uint256",
          "name": "_positionId",
          "type": "uint256"
        },
        {
          "internalType": "uint256",
          "name": "_collateralDelta",
          "type": "uint256"
        },
        {
          "internalType": "uint256",
          "name": "_sizeDelta",
          "type": "uint256"
        }
      ],
      "name": "increasePosition",
      "outputs": [],
      "stateMutability": "nonpayable",
      "type": "function"
    },
    {
      "inputs": [
        {
          "internalType": "uint256",
          "name": "_positionId",
          "type": "uint256"
        }
      ],
      "name": "liquidatePosition",
      "outputs": [],
      "stateMutability": "nonpayable",
      "type": "function"
    },
    {
      "inputs": [
        {
          "internalType": "address",
          "name": "",
          "type": "address"
        }
      ],
      "name": "markets",
      "outputs": [
        {
          "internalType": "bool",
          "name": "isActive",
          "type": "bool"
        },
        {
          "internalType": "uint256",
          "name": "maxLeverage",
          "type": "uint256"
        },
        {
          "internalType": "uint256",
          "name": "maintenanceMarginBps",
          "type": "uint256"
        },
        {
          "internalType": "uint256",
          "name": "tradingFeeBps",
          "type": "uint256"
        }
      ],
      "stateMutability": "view",
      "type": "function"
    },
    {
      "inputs": [],
      "name": "nextPositionId",
      "outputs": [
        {
          "internalType": "uint256",
          "name": "",
          "type": "uint256"
        }
      ],
      "stateMutability": "view",
      "type": "function"
    },
    {
      "inputs": [
        {
          "internalType": "address",
          "name": "_indexToken",
          "type": "address"
        },
        {
          "internalType": "uint256",
          "name": "_collateral",
          "type": "uint256"
        },
        {
          "internalType": "uint256",
          "name": "_sizeDelta",
          "type": "uint256"
        },
        {
          "internalType": "bool",
          "name": "_isLong",
          "type": "bool"
        }
      ],
      "name": "openPosition",
      "outputs": [
        {
          "internalType": "uint256",
          "name": "positionId",
          "type": "uint256"
        }
      ],
      "stateMutability": "nonpayable",
      "type": "function"
    },
    {
      "inputs": [],
      "name": "owner",
      "outputs": [
        {
          "internalType": "address",
          "name": "",
          "type": "address"
        }
      ],
      "stateMutability": "view",
      "type": "function"
    },
    {
      "inputs": [
        {
          "internalType": "bytes32",
          "name": "",
          "type": "bytes32"
        }
      ],
      "name": "positionKeyToId",
      "outputs": [
        {
          "internalType": "uint256",
          "name": "",
          "type": "uint256"
        }
      ],
      "stateMutability": "view",
      "type": "function"
    },
    {
      "inputs": [
        {
          "internalType": "uint256",
          "name": "",
          "type": "uint256"
        }
      ],
      "name": "positions",
      "outputs": [
        {
          "internalType": "uint256",
          "name": "id",
          "type": "uint256"
        },
        {
          "internalType": "address",
          "name": "trader",
          "type": "address"
        },
        {
          "internalType": "address",
          "name": "indexToken",
          "type": "address"
        },
        {
          "internalType": "bool",
          "name": "isLong",
          "type": "bool"
        },
        {
          "internalType": "uint256",
          "name": "size",
          "type": "uint256"
        },
        {
          "internalType": "uint256",
          "name": "collateral",
          "type": "uint256"
        },
        {
          "internalType": "uint256",
          "name": "avgPrice",
          "type": "uint256"
        },
        {
          "internalType": "uint256",
          "name": "entryFundingRate",
          "type": "uint256"
        },
        {
          "internalType": "uint256",
          "name": "reserveAmount",
          "type": "uint256"
        },
        {
          "internalType": "uint256",
          "name": "realisedPnl",
          "type": "uint256"
        },
        {
          "internalType": "uint256",
          "name": "lastUpdatedBlock",
          "type": "uint256"
        }
      ],
      "stateMutability": "view",
      "type": "function"
    },
    {
      "inputs": [],
      "name": "priceFeed",
      "outputs": [
        {
          "internalType": "contract IPriceFeed",
          "name": "",
          "type": "address"
        }
      ],
      "stateMutability": "view",
      "type": "function"
    },
    {
      "inputs": [
        {
          "internalType": "address",
          "name": "_indexToken",
          "type": "address"
        },
        {
          "internalType": "bool",
          "name": "_isActive",
          "type": "bool"
        },
        {
          "internalType": "uint256",
          "name": "_maxLev",
          "type": "uint256"
        },
        {
          "internalType": "uint256",
          "name": "_mmBps",
          "type": "uint256"
        },
        {
          "internalType": "uint256",
          "name": "_feeBps",
          "type": "uint256"
        }
      ],
      "name": "setMarket",
      "outputs": [],
      "stateMutability": "nonpayable",
      "type": "function"
    },
    {
      "inputs": [
        {
          "internalType": "address",
          "name": "_owner",
          "type": "address"
        }
      ],
      "name": "transferOwnership",
      "outputs": [],
      "stateMutability": "nonpayable",
      "type": "function"
    },
    {
      "inputs": [
        {
          "internalType": "uint256",
          "name": "_positionId",
          "type": "uint256"
        }
      ],
      "name": "validateLiquidation",
      "outputs": [
        {
          "internalType": "bool",
          "name": "",
          "type": "bool"
        }
      ],
      "stateMutability": "view",
      "type": "function"
    },
    {
      "inputs": [],
      "name": "vault",
      "outputs": [
        {
          "internalType": "contract IVault",
          "name": "",
          "type": "address"
        }
      ],
      "stateMutability": "view",
      "type": "function"
    }
  ],
  "bytecode": "0x608034609757601f611a6538819003918201601f19168301916001600160401b03831184841017609c578084926040948552833981010312609757604b602060458360b2565b920160b2565b6001600381905560008054336001600160a01b03199182161790915581546001600160a01b03948516908216179091556002805492909316911617905560405161199f90816100c68239f35b600080fd5b634e487b7160e01b600052604160045260246000fd5b51906001600160a01b038216820360975756fe6080604052600436101561001257600080fd5b6000803560e01c8063238e270a146113f4578063741bef1a146113cb578063748bfe65146113a1578063899346c7146113835780638da5cb5b1461135c5780638e8f294b146112ec57806399fbab881461123e578063a126d60114610eee578063ab6dea4c14610ec5578063b8d1e89014610c86578063c06ca4b214610b93578063cdddd4e514610960578063da36992a14610710578063eb02c301146105a2578063eeafcd851461014f578063f2fde38b146101035763fbfa77cf146100d857600080fd5b346101005780600319360112610100576001546040516001600160a01b039091168152602090f35b80fd5b50346101005760203660031901126101005761011d611444565b61013160018060a01b038354163314611887565b81546001600160a01b0319166001600160a01b039190911617815580f35b503461010057608036600319011261010057610169611444565b606435801515919060243560443584830361059e576001600160a01b03841680875260046020526040808820905191959193906101a585611479565b60ff81541615801586526060600360018401549360208901948552600281015460408a015201549601958652610568578115158061055f575b1561052e578184106104f857670de0b6b3a76400008402848104670de0b6b3a764000014851517156104135782610214916115fd565b9051106104c15760015488906001600160a01b0316803b156104bd576040516318f5faab60e01b8152336004820152602481018490529082908290604490829084905af180156104b257610499575b505060018060a01b03600254166040516302c68be360e31b815287600482015289604082602481865afa918215610456578192610463575b50602060049293604051938480926306cc2abf60e21b82525afa928315610456576102e26102dd60ff612710966102f0966102e89691610427575b50166118bf565b6115cf565b906115a6565b9551856115a6565b0490600354976000198914610413576001808a0160039081558a8c52600560209081526040808e208d815593840180546001600160a01b0319163317905560028401805460ff60a01b198e166001600160a81b03199091161760a09690961b60ff60a01b16959095179094559082019687559a8a977f4141d280045265c9be484b17b0e8432ac8553acc317a8f090401c765e54bfef097909692956104089591948a949093926103d4928d92916103a79190611618565b9860048101998a55600581019a8b55846006820155846007820155846008820155600943910155336114ea565b815260068d522055549154925460405193849333988590949392606092608083019615158352602083015260408201520152565b0390a4604051908152f35b634e487b7160e01b8a52601160045260248afd5b610449915060203d60201161044f575b61044181836114c8565b81019061158d565b386102d6565b503d610437565b50604051903d90823e3d90fd5b6004925061048a60209160403d604011610492575b61048281836114c8565b810190611577565b50925061029b565b503d610478565b816104a3916114c8565b6104ae578738610263565b8780fd5b6040513d84823e3d90fd5b5080fd5b60405162461bcd60e51b815260206004820152600f60248201526e098caeccae4c2cecaa8dede90d2ced608b1b6044820152606490fd5b60405162461bcd60e51b815260206004820152600e60248201526d4c65766572616765546f6f4c6f7760901b6044820152606490fd5b60405162461bcd60e51b8152602060048201526009602482015268426164506172616d7360b81b6044820152606490fd5b508315156101de565b60405162461bcd60e51b815260206004820152600e60248201526d4d61726b6574496e61637469766560901b6044820152606490fd5b8580fd5b5034610100576020366003190112610100576040816101609261014083516105c9816114ab565b82815282602082015282858201528260608201528260808201528260a08201528260c08201528260e082015282610100820152826101208201520152600435815260056020522060405161061c816114ab565b81549182825260018060a01b03600182015416602083019081526002820154604084019060018060a01b038116825260ff606086019160a01c161515815260038401546080860190815260048501549060a0870191825260058601549260c0880193845260068701549460e089019586526007880154966101008a01978852610140600960088b01549a6101208d019b8c5201549a01998a526040519a8b5260018060a01b0390511660208b015260018060a01b0390511660408a015251151560608901525160808801525160a08701525160c08601525160e0850152516101008401525161012083015251610140820152f35b50346101005761071f3661145f565b908284526005602052604084209061074460018060a01b036001840154163314611540565b8015801590610957575b61075790611814565b6004820180548083111580610949575b1561091a578261077691611618565b80915560038301610788858254611618565b80915580159081156108b5575b506107a0915061184e565b60015485906001600160a01b0316803b156104bd57604051630ab044d360e41b8152336004820152602481018490529082908290604490829084905af180156104b25761089c575b505043600983015560028054920154604080516302c68be360e31b81526001600160a01b03928316600482015293909184916024918391165afa8015610891577fc46f71bdaf4f56709b0041d9b4c2e27d4b7386fc2da5b265c69e7fd3c78fc3cf93608093879261086f575b5060405192835260208301526040820152846060820152a280f35b61088991925060403d6040116104925761048281836114c8565b509038610854565b6040513d87823e3d90fd5b816108a6916114c8565b6108b15784386107e8565b8480fd5b90670de0b6b3a76400008202918204670de0b6b3a7640000141715610906576107a0916108e1916115fd565b60028401546001600160a01b0316875260046020526040872060010154101538610795565b634e487b7160e01b87526011600452602487fd5b60405162461bcd60e51b81526020600482015260076024820152660a8dede9aeac6d60cb1b6044820152606490fd5b506003840154851115610767565b5082151561074e565b50346101005760203660031901126101005760043561097e81611632565b15610b5c578082526005602052604082206040519061099c826114ab565b8054825260018060a01b036001820154169060208301828152600282015491604085019360018060a01b038416855260ff606087019460a01c161515845287600383015491608088019283526004840154600960a08a0195828752600581015460c08c0152600681015460e08c015260078101546101008c015260088101546101208c015201546101408a015260018060a01b036001541691823b15610b5857604051630ab044d360e41b81526001600160a01b03919091166004820152600a90910460248201529082908290604490829084905af180156104b257610b43575b5050610ae9955160018060a01b038451169151925160405193845260208401528860408401528860608401527fea73a1c359c9a27eb608cd2a000dbae23a7a8254d8213ff9961a3202af44b50760803394a451915190511515916001600160a01b0391821691166114ea565b8252600660205281604081205581526005602052610b406040822060096000918281558260018201558260028201558260038201558260048201558260058201558260068201558260078201558260088201550155565b80f35b81610b4d916114c8565b6104ae578738610a7d565b8380fd5b60405162461bcd60e51b815260206004820152600f60248201526e4e6f744c6971756964617461626c6560881b6044820152606490fd5b50346101005760a036600319011261010057610bad611444565b602435801515808203610b58577f0f144a1efeabf807d4717feda0e0fd62cc1ba3a684d78a1a85bec5ba332a2de091610c806044359260643560843591610bfe60018060a01b038a54163314611887565b60405190610c0b82611479565b815260036020820198878a5260408301848152606084019186835260018060a01b03169a8b8d52600460205260408d209451151560ff80198754169116178555516001850155516002840155519101556040519485948590949392606092608083019615158352602083015260408201520152565b0390a280f35b503461010057610c953661145f565b9082845260056020526040842090610cba60018060a01b036001840154163314611540565b801580158091610ebc575b610cce90611814565b610e47575b82610d5d575b43600983015560028054920154604080516302c68be360e31b81526001600160a01b03928316600482015293909184916024918391165afa8015610891577fcad3eab700abc5a7d00b99aad655d6b545e5b08dbe97eea463ab8e97bbb824ab93608093879261086f575060405192835260208301526040820152846060820152a280f35b60028201546001600160a01b03168086526004602052604086206003015461271090610d8990866115a6565b046003840190610d9a868354611625565b809255670de0b6b3a7640000820291808304670de0b6b3a76400001490151715610e3357610de96004860193610dd2855480956115fd565b908a526004602052600160408b200154101561184e565b80821115610e0157610dfa91611618565b9055610cd9565b60405162461bcd60e51b815260206004820152600a60248201526908ccacaa8dede90d2ced60b31b6044820152606490fd5b634e487b7160e01b88526011600452602488fd5b60015485906001600160a01b0316803b156104bd576040516318f5faab60e01b8152336004820152602481018490529082908290604490829084905af180156104b257610ea7575b505060048201610ea0828254611625565b9055610cd3565b81610eb1916114c8565b6108b1578438610e8f565b50831515610cc5565b5034610100576020366003190112610100576020610ee4600435611632565b6040519015158152f35b5034610100576020366003190112610100576004358082526005602052604082206001810180546001600160a01b03169190610f2b338414611540565b6003820191825493841561120c57600280549083018054604080516302c68be360e31b81526001600160a01b0383811660048301819052949a94959394931692909182602481865afa918215611201578c926111db575b50602060049293604051938480926306cc2abf60e21b82525afa918c83156111cf57612710946102e26102dd60ff610ff297610fdc96610fc896916104275750166118bf565b60058901958360ff88549260a01c166118cd565b948c526004602052600360408d200154906115a6565b049289831261117757611009836004870154611625565b84811061113f5761101b858c92611618565b6001546001600160a01b0316803b1561113b57604051630ab044d360e41b81526001600160a01b0394909416600485015260248401919091528290604490829084905af18015611130576110e6575b5083610ae99795937ff5394a97b9d3c99baa08c9bf7009078f41ac139c4ad7c345c6c2c98ad4a9b5a69360a093600499975496600180871b03905416998a98549401549054906040519485526020850152604084015260608301526080820152a35460a081901c60ff16916001600160a01b03909116906114ea565b93610ae99795937ff5394a97b9d3c99baa08c9bf7009078f41ac139c4ad7c345c6c2c98ad4a9b5a6938b61112060a0959d60049b996114c8565b9b9350935093959750939561106a565b6040513d8c823e3d90fd5b8280fd5b60405162461bcd60e51b815260206004820152601060248201526f119959515e18d959591cd4185e5bdd5d60821b6044820152606490fd5b61118083611607565b60048601549080821061119b5761119691611618565b611009565b60405162461bcd60e51b815260206004820152600c60248201526b4c6971756964617461626c6560a01b6044820152606490fd5b604051903d90823e3d90fd5b600492506111f960209160403d6040116104925761048281836114c8565b509250610f82565b6040513d8e823e3d90fd5b60405162461bcd60e51b815260206004820152600a6024820152692737a837b9b4ba34b7b760b11b6044820152606490fd5b503461010057602036600319011261010057604061016091600435815260056020522080549060018060a01b036001820154169060028101546003820154600483015460058401549060068501549260ff60078701549560096008890154980154986040519a8b5260208b015260018060a01b03811660408b015260a01c1615156060890152608088015260a087015260c086015260e0850152610100840152610120830152610140820152f35b5034610100576020366003190112610100576040906001600160a01b03611311611444565b16815260046020522060ff81541661135860018301549260036002820154910154906040519485948590949392606092608083019615158352602083015260408201520152565b0390f35b5034610100578060031936011261010057546040516001600160a01b039091168152602090f35b50346101005780600319360112610100576020600354604051908152f35b50346101005760203660031901126101005760406020916004358152600683522054604051908152f35b50346101005780600319360112610100576002546040516001600160a01b039091168152602090f35b50346101005760603660031901126101005761140e611444565b602435906001600160a01b038216820361113b5760443592831515840361010057602061143c8585856114ea565b604051908152f35b600435906001600160a01b038216820361145a57565b600080fd5b606090600319011261145a57600435906024359060443590565b6080810190811067ffffffffffffffff82111761149557604052565b634e487b7160e01b600052604160045260246000fd5b610160810190811067ffffffffffffffff82111761149557604052565b90601f8019910116810190811067ffffffffffffffff82111761149557604052565b916040519160208301936bffffffffffffffffffffffff199060601b1684526bffffffffffffffffffffffff199060601b166034830152151560f81b60488201526029815261153a6049826114c8565b51902090565b1561154757565b60405162461bcd60e51b81526020600482015260086024820152672737ba27bbb732b960c11b6044820152606490fd5b919082604091031261145a576020825192015190565b9081602091031261145a575160ff8116810361145a5790565b818102929181159184041417156115b957565b634e487b7160e01b600052601160045260246000fd5b80156115e7576c0c9f2c9cd04674edea400000000490565b634e487b7160e01b600052601260045260246000fd5b81156115e7570490565b600160ff1b81146115b95760000390565b919082039182116115b957565b919082018092116115b957565b600052600560205260406000206040519061164c826114ab565b8054825260018060a01b03600182015416602083015260028101549060018060a01b038216604084019281845260ff606086019160a01c1615158152600383015490608086019180835260048501549660a08101978852610140600960058801549760c08401988952600681015460e0850152600781015461010085015260088101546101208501520154910152156118095760018060a01b0360025416604051936302c68be360e31b85526004850152604084602481845afa9384156117d3576000946117df575b50906020600492604051938480926306cc2abf60e21b82525afa9485156117d35761175b61178e956102e26102dd60ff6127109a61176a986000916104275750166118bf565b915115159084519051916118cd565b93516001600160a01b031660009081526004602052604090206002015490516115a6565b0490600081126117a057509051111590565b6117a990611607565b915191828110928315936117be575b50505090565b6117c9929350611618565b11153880806117b8565b6040513d6000823e3d90fd5b6004929194506117ff60209160403d6040116104925761048281836114c8565b5094919250611715565b505050505050600090565b1561181b57565b60405162461bcd60e51b815260206004820152600b60248201526a4e6f7468696e67546f446f60a81b6044820152606490fd5b1561185557565b60405162461bcd60e51b815260206004820152600a602482015269098caeca8dede90d2ced60b31b6044820152606490fd5b1561188e57565b60405162461bcd60e51b81526020600482015260096024820152684f776e65724f6e6c7960b81b6044820152606490fd5b604d81116115b957600a0a90565b92909283158015611961575b8015611959575b61195057156119235781811061190957611906926102e28361190193611618565b6115fd565b90565b90611901611906936102e261191e9484611618565b611607565b80821061193b57611906926102e26119019284611618565b90611901611906936102e28361191e95611618565b50505050600090565b5081156118e0565b5082156118d956fea264697066735822122015ac81bd6cd414d4f78abc97bc85b56a722177641c05cf568693696f5d0d296264736f6c634300081e0033",
  "linkReferences": {},
  "deployedLinkReferences": {}
}